:020000040020DA
:1000000078780020C5482000C9472000CB47200051
:10001000CD472000CF472000D1472000000000003E
:10002000000000000000000000000000851E20000D
:10003000D347200000000000291E20003B0E2000B6
:10004000FD48200001492000054920000949200001
:100050000D492000114920001549200019492000B0
:100060001D49200021492000254920002949200060
:100070002D49200031492000354920003949200010
:100080003D492000414920004549200049492000C0
:100090004D49200051492000554920005949200070
:1000A0005D49200061492000654920006949200020
:1000B0006D49200071492000D54720007549200076
:1000C000794920007D492000814920008549200090
:1000D000894920008D492000914920009549200040
:1000E000994920009D492000A1492000A5492000F0
:1000F000A9492000AD492000B1492000B5492000A0
:10010000B9492000BD492000C1492000C54920004F
:10011000C9492000CD492000D1492000D5492000FF
:10012000DB472000D9492000DD492000E1492000BB
:10013000E5492000E9492000ED492000F14920006F
:10014000F5492000F9492000FD492000014A20001E
:10015000054A2000094A20000D4A2000114A2000CB
:10016000154A2000194A20001D4A2000214A20007B
:10017000254A2000294A20002D4A200000000000C6
:10018000314A2000354A2000394A20003D4A2000EB
:10019000414A2000454A2000494A20004D4A20009B
:1001A000514A2000554A2000594A20005D4A20004B
:1001B000614A2000654A2000694A20006D4A2000FB
:1001C000714A2000754A2000F0B585B050260B9D7D
:1001D00015B900F024F8FEE70C9C14B900F01FF8E4
:1001E000FEE75C270097DDF800E0BEF15C0F02D06F
:1001F00000F015F8FEE7009E25630225002784F82D
:10020000595004AD0397029401950A9E009600F0A0
:100210003DF8204600F081F8049805B0F0BD72B6B4
:1002200086F31188BFF34F8FBFF36F8F62B67047AD
:100230002DE9F8430646174684B088469946B8002B
:1002400000F0FEFB05001CD05C2000F0F9FB040070
:1002500014D00020256384F859000D9A03900C985F
:1002600001924B4600903A4602944146304600F0D7
:100270000DF8204600F051F8012004E0284600F077
:1002800071FC4FF0FF3005B0BDE8F0832DE9F04779
:100290000A9F81460C4615469A46A522386BA9004E
:1002A00000F0B0FC3A6B02EB850107F13405081F42
:1002B000C0084FEAC00808F0070054B10021625C92
:1002C0006A54605C10B1491C1029F8D30020E8730F
:1002D00000E02870089E372E88BF3726099CFE62F2
:1002E000AE61C6F13806E861381D00F0B5FC07F1D3
:1002F000180000F0B1FC3F610020BE6100217F6268
:1003000052462862404687F85810494600F0F6FCED
:10031000386004B12760BDE8F0872DE9FC4100F0AA
:1003200064F8E86C1426DFF8A085401CE864A86A2D
:1003300028BBAC62E96C012929D1002706FB07F034
:100340007F1C404400F07BFC382FF7D305F1780088
:1003500005F18C0700F073FC384600F070FC28466D
:1003600000F06DFC05F1140000F069FC05F13800A7
:1003700000F065FC05F17801E9622F6307E0A86DE4
:1003800028B9E16AA86AC26A914228BFAC62A86E25
:10039000401CA866606464B1204601F06BF8236BD2
:1003A000206804F13401C01A0090E26A204601F08E
:1003B0007BF900F00EFAE06A696D814238BF68652A
:1003C0004643211D08EB060000F049FC00F022FD29
:1003D000A86D40B1A96AE26AC86A904203D200F0EF
:1003E00032F800F00CF8BDE8F3810446DFF89C55C4
:1003F00000F0F3BC4FF08050DFF894150860BFF3B5
:100400004F8FBFF36F8F704710B5040014D0DFF823
:100410007C15486F10B100F0BCF8FEE74A6F23204E
:10042000521C4A67214600F093FE0021204600F04E
:10043000CEFA00F060F808B9FFF7DCFF10BD04F158
:10044000180000F032BC4FF08051DFF844351960DD
:10045000704772B6502080F31188BFF34F8FBFF3FF
:100460006F8F62B6704738B586B00020059003AA3A
:10047000049004A905A80FF2782501F0DFFA002204
:10048000059800920499039A02900191002329464D
:100490000FF2CD30DFF82C45FFF796FE2067E0B174
:1004A00001F0E4FA5021012819D100F07CFA4FF054
:1004B000FF300121E0660022A16529462265A06A7D
:1004C0000522343001F08AFC18B1A06A00F0EFFF79
:1004D00001E000F0CAFF00F035FC07B030BD10F1BC
:1004E000010FFAD100F05FFAFEE7DFF8D804416FA0
:1004F000491C4167704770B5DFF890640024706F45
:10050000002510B900F045F8FEE700F066FC706FBA
:10051000401E7067716F002939D1F06CE0B936E088
:10052000F168CC68FFF78BFF00F044F900F051F957
:10053000E06A716D814238BF70651423DFF8F024E2
:100540005843211D104400F08AFBE06AB16ACA6A70
:10055000904224BF0123336630680028E0D10CB1FB
:1005600000F0C9F9F46D44B100F028F808B1012099
:100570003066641EF8D10021F165306E38B14FF05D
:100580008051DFF80C2401251160FFF738FF00F0DF
:1005900013BA72B6502181F31188BFF34F8FBFF3A6
:1005A0006F8F62B67047DFF88C04006D704780B5BE
:1005B00000F058FCDFF87C04006D02BD2DE9F84323
:1005C000DFF8C8730026786F00284FD13C6D641C9B
:1005D0003C650ED1F86A006810B1FFF7DAFFFEE75C
:1005E000F86A396BF9623863786E401C786600F0FF
:1005F00082F9F86E4FF01408DFF83494844229D35E
:1006000021E0F96ACA68D568686884422CD3281D3D
:1006100000F04BFBA86A18B105F1180000F045FB8B
:1006200000F0D2F9E86A796D814238BF786508FB3D
:1006300000F0291D484400F012FBE86AB96ACA6A52
:10064000904228BF0126F86A00680028D9D14FF0EF
:10065000FF31F966B86AC06A08FB00F859F808105B
:10066000022906D3012604E0F866F3E7F96D491C78
:10067000F965386E00B101263046BDE8F28300000E
:1006800010B5DFF80843606F10B10121216610BD7D
:100690002066616DDFF8982300E0491E14234B4368
:1006A000D05820B90029F8D1FFF773FFFEE7D01822
:1006B00000F108034268526842609A4204BF5268DF
:1006C000426040680522C368A3626165D4F828309F
:1006D00007A103F1340001F081FB20B1A06ABDE85D
:1006E000104000F0E4BEBDE8104000F0BEBE0000C7
:1006F00049444C450000000010B50C4610B9FFF706
:10070000A8FEFEE700F01FF800F0B6FA204601212F
:10071000BDE8104000F05BB938B50D46144610B97D
:10072000FFF797FEFEE700F00EF800F098FA0CB124
:100730004FF0FF35242000F006FD21462846BDE895
:10074000344000F044B9DFF8EC22936A03F1180159
:10075000704738B5C068C46814B9FFF71AFFFEE7E0
:1007600004F11800DFF8CC5200F09FFA696F51B91C
:1007700000F020F800F02DF800F01FF838BF6A658F
:1007800000F011F802E004F11801284600F067FAC1
:10079000A86AE26AC16A914203D2012301202B6652
:1007A00032BD002032BD1420DFF884324243211DC7
:1007B00098187047201D00F078BAE26A686D904280
:1007C00070471420DFF868324243211D981800F06A
:1007D00046BA204600F070BEDFF858124A6E02603A
:1007E000096D41607047F8B504460D46502014B9B4
:1007F00000F028F8FEE715B900F024F8FEE700F055
:10080000ECFADFF83002016D62682E688B1A16F17F
:10081000010F0ED0476ED4F800C0674501D0914259
:100820000BD2B34207D2F31A2B60416E2160006DE8
:100830006060002402E000212960012400F0EAFA4F
:100840002046F2BD72B680F31188BFF34F8FBFF31D
:100850006F8F62B670470120DFF8D81108667047C5
:1008600070B5194C494D11E000F0B7FA286AC66816
:10087000301D00F01AFAE86C401EE864696B491EEE
:10088000696300F0C7FA304600F020F8686B002872
:10089000EAD121680229F9D34FF080503C4A106018
:1008A000FFF7ADFDF2E70146002000E0401C11F823
:1008B000012BA52AFAD08003000C704710B9DFF88D
:1008C0007411886A006BEEE7E065002010B50446FD
:1008D00094F8590040B9206B00F044F92046BDE877
:1008E000104000F03FB910BD0128F7D00228FAD01F
:1008F000FFF7AFFDFEE72549C86A006818B94FF059
:10090000FF32CA667047C86AC268D3685868C8664A
:100910007047DFF82011886D08B901207047486FD3
:1009200008B9022070470020704738B504460021FE
:10093000002C28D0DFF8FC505022A86A844202D054
:1009400000F028F8FEE7206D10B900F023F8FEE76C
:10095000E26A401EE36C20659A4214D098B9FFF712
:1009600029FF21464A2000F0F3FBE06CE062C0F171
:100970003800A061FFF72DFFFFF71FFF38BF6A6542
:10098000FFF71FFF0121084632BD0000C47200209E
:1009900004ED00E072B682F31188BFF34F8FBFF30E
:1009A0006F8F62B6704772B681F31188BFF34F8FB5
:1009B000BFF36F8F62B6704700F02CFA284670BD07
:1009C00000000000C4720020284600F075BDF8B594
:1009D000184D0C462F6DA96A0646081D00F065F9F2
:1009E00016F1010F05D124B1A86A011D05F13800E7
:1009F00022E0A86AF619BE4246600AD2A86A04211B
:100A000000F05FFDA86A011D286BBDE8F44000F00E
:100A100033B9A86A042100F054FDA86A011DE86AF0
:100A200000F02AF9E86E864238BFEE66F1BD00009C
:100A3000E0650020C4720020BDE8F44000F00FB96A
:100A40002DE9F84304466E4FFFF74FFDB8680026C6
:100A5000002508BB07F1180313F0070F07F1180171
:100A60004FF470500A4605D0CA1DD208D200C2F514
:100A70007050081880180838C008C0003A60811A01
:100A80007D60B860456005605160106050683861F5
:100A9000F8604FF00040786179694FF050080C42DF
:100AA0004ED1002C4CD0083414F0070F04D004F1C0
:100AB000080004F00704041B002C41D0F868A04291
:100AC0003ED33946D7F8009001E049468146D9F82F
:100AD0000420A24203D2D9F800000028F5D1B8685A
:100AE00081452DD00A68D9F800300B6002F1080664
:100AF000D9F80420121B112A0FD309EB040111F0BD
:100B0000070002D000F025F8FEE709F104000251C9
:100B10000846C9F8044000F04EF8D9F80410F86807
:100B20003C69401AF860FA68A24288BF2246786998
:100B30003A610143C9F80410C9F8005006F00705EE
:100B4000FFF7D9FC15B100F004F8FEE73046BDE828
:100B5000F28372B688F31188BFF34F8FBFF36F8FA4
:100B600062B67047002800D1704738B5A0F108047C
:100B7000234D61686A695023114205D172B683F32F
:100B80001188FFF7E9FFFEE7206828B172B683F30A
:100B90001188FFF7E1FFFEE791436160FFF7A5FCD5
:100BA000E968606841182046E96000F004F8BDE893
:100BB0003140FFF7A0BC124930B50A4600E01A46A2
:100BC00013688342FBD35368D418844203D140682E
:100BD000C3181046536043681468C518A54208D16D
:100BE00089688C4204D06168CB184360246800E0B7
:100BF0000C460460824218BF106030BD0000000047
:100C00002400002062F30F2262F31F4200B500BFF0
:100C1000130096469446103928BFA0E80C50FAD825
:100C20005FEA417C28BF0CC048BF40F8042BC907CD
:100C300028BF20F8022B48BF00F8012B00BD4FF061
:100C4000FF3200F10801826000F1080341600022D8
:100C5000C36001610260704700210161704710B5F7
:100C600042684A6093688B60946861609160086133
:100C70000168491C016010BD30B50A6812F1010F0E
:100C800008BF036907D000F1080300E023465C6851
:100C90002568AA42FAD25A684A6091608B6059600E
:100CA00008610168491C016030BD10B543680169E5
:100CB00082689A608268446854604B68834204BFCB
:100CC00082684A60002303610868401E0860086863
:100CD00010BD0EE002684368024408305FEAC37C3E
:100CE00044BF4B445B1E52F804CB43F804CB091FAE
:100CF000F9D150F8041B0029ECD17047490849008C
:100D000010B5A0F120034FF0807499610FF2150126
:100D10001A606FF00202DC61596140F8242D20381E
:100D200010BD00005F4950204A6812F1010F72B6F1
:100D300080F31188BFF34F8FBFF36F8F62B600D07F
:100D4000FEE7FEE71CB55849FF230A7801920B70B5
:100D50000C788DF800409DF80000524C00F05000D7
:100D60002070072005E09DF80020401E52008DF8FD
:100D700000209DF800301A06F5D4424212F1030F0C
:100D800003D0A06000F01FF8FEE7000200F4E0606E
:100D9000A060019808704548016841F47001016045
:100DA000026842F07042026001F028F800206060A2
:100DB00001F086F83E48016841F04041016001F0D1
:100DC0006FF8002016BD72B6502080F31188BFF373
:100DD0004F8FBFF36F8F62B6704772B6502080F3AB
:100DE0001188BFF34F8FBFF36F8F62B62D494A68EA
:100DF000521C012A4A600CD12E490A68130608D0F9
:100E000072B680F31188BFF34F8FBFF36F8F62B656
:100E1000FEE770472349486848B972B6502080F30E
:100E20001188BFF34F8FBFF36F8F62B6FEE7401E8E
:100E3000486008BF80F31188704780B5FFF7C3FF93
:100E400000F0DAFAFFF7BAFB30B100F0F9FA4FF030
:100E500080501849086001E000F0E8FA002282F3AF
:100E6000118801BD10B5EFF30580502110280D4AFF
:100E70000AD3114B185C1478A04205D272B681F3E4
:100E80001188FFF7A4FFFEE790680C4A136803F48B
:100E9000E063984205D272B681F31188FFF797FF9D
:100EA000FEE710BD0800002000E400E020ED00E0B7
:100EB00034EF00E004ED00E0F0E300E00CED00E0D2
:100EC00010B5002451B100E0641C0B5D002BFBD178
:100ED000A24288BF22461446FF2C02D200F8014BE2
:100EE00005E0FF22230A027044708370C01C0022B8
:100EF00004E011F8013B521C00F8013BA242F8D378
:100F000010BD1CB5DFF808460122207E694601F0BD
:100F100021F8002834D09DF80000012810D00228C4
:100F200011D0032812D0042813D0052814D0062885
:100F300015D0072816D07F2822D0802815D01CE095
:100F400000F07FF913BD00F0B2F913BD00F03FFAD5
:100F500013BD00F02EFA13BD00F0BEF913BD00F072
:100F60002FFB13BD00F021FB13BD00F00AF838B1D0
:100F70009DF8000000F0E0FA13BD01DB00F001F87D
:100F800013BD207E0122694600F0E4BF2DE9FE4337
:100F90000546DFF87C6530780C461746DFF8748527
:100FA000012826D0002800F08580022821D10120C8
:100FB0000DF101028DF80000706900F08AF8D8F890
:100FC0000090F068A9EB000000F083F870786B46A1
:100FD000D21A694601F07EF828B13078C6F80C9034
:100FE000411E317002E07269521C72613078012832
:100FF00060D1202F03D2F069F840C1075AD4182FCE
:10100000294622460ED3501A802807D3C30940F040
:10101000800001F8013C01F8020D01E001F8010D2A
:101020007F2F02D201F8017D2CE0FB090C1FB7F5E0
:10103000804F47F0800003D2E37001F8020D21E0F9
:10104000BD0BB7F5001F43F0800304D2E570A37019
:1010500001F8030D16E0B7F1805F45F080054FEA17
:10106000575C06D284F803C0A570637001F8040DC4
:1010700008E03F0FE7704CF08007A77065702370A1
:1010800001F8050DD8F80040F068201A04E040F09F
:101090008003C00902F8013B8028F8D202F8010B56
:1010A0007078521A01F016F8002811BFF4603078F9
:1010B000401C3070337E182200F0BAFA07D0B078A6
:1010C00028B90121B170FFF71CFF0020B070BDE806
:1010D000F78304E040F08001C00902F8011B80287A
:1010E000F8D202F8010B70472DE9F8430446164682
:1010F0000D4698460FF25C59DFF8147400234FF444
:10110000806207F12C01484600F05AFF3876002231
:1011100078700823009207F22C424946C0B200F0D2
:1011200091FF0020DFF8EC1338610A68FA603E6234
:101130007C60BD60C7F824803870BDE8F183DFF8BB
:10114000D0130861704710B5024600F07EF971E1D6
:1011500038B502460B4600F080F9014604E043F042
:101160008005DB0901F8015B802BF8D201F8013B17
:1011700000F031BA70B500F05EF8DFF8C4341C46F8
:1011800004E041F08006C90904F8016B8029F8D217
:1011900002E042F08001D20904F8011B802AF8D253
:1011A00004F8012B0246214618463FE0F8B500F04E
:1011B00014F805F8013B31E0F8B500F00EF8069997
:1011C00005F8013B04E041F08002C90905F8012B54
:1011D0008029F8D205F8011B20E0EFF311862024C6
:1011E00084F31188DFF85844254604E041F0800775
:1011F000C90905F8017B8029F8D202E042F080019C
:10120000D20905F8011B802AF8D202E043F08002DF
:10121000DB0905F8012B802BF8D2704702462946DE
:101220002046FFF7B3FE86F31188F1BDFFF7AEFE4F
:1012300085F3118870BDEFF31185202383F31188A6
:10124000704770B5B24C01202070EFF31185202655
:1012500086F3118860780A220FF2004100F03AFF0D
:1012600085F311880A20FFF76EFFEFF3118586F3EF
:10127000118804F23B400146626800F0CCF8A26895
:1012800000F0C9F8226900F0C6F8002201F8012B2D
:101290001822FFF77BFE85F31188606A00B1804752
:1012A00000F095F800F085F8BDE8704088E138B5A9
:1012B00000F00CF8964D287838B105F23B410B222E
:1012C0000846FFF763FE00232B7086E1EFF31184DD
:1012D000202181F31188704770B500F027F98C4DFB
:1012E00005F23B4001466A6800F095F8AA6800F0F4
:1012F00092F82A6900F08FF8002601F8016B182295
:10130000FFF744FE84F31188686A10B1BDE87040AD
:10131000004770BDF8B50446EFF31185202080F337
:10132000118822687A4F396907F23B463046511AD4
:1013300000F028F8A16800F025F861682022FFF786
:10134000BFFD014609223046FFF720FE22683869BA
:101350003146101A01E000F00FF88028FBD201F8A6
:10136000010B00F01AF8206900F018F8002001F8CD
:10137000010B15223046C4E040F08003C00901F89B
:10138000013B704704E041F08003C90900F8013BCC
:101390008029F8D200F8011B7047E06804E040F0B3
:1013A0008002C00901F8012B8028F8D201F8010B56
:1013B00070475748006A18B14068002818BF0047B6
:1013C000704738B500F00CF901460E2202E180B5F5
:1013D0004F48006A00281CBF0068002806D08047DC
:1013E0000A4601460D20BDE80840C3E649480168A9
:1013F0000C20BDE80440ABE610B500F097F8DFF82C
:101400004422DFF83C0212680146C2F3080200F0F1
:1014100002F802220FE004E042F08003D20901F852
:10142000013B802AF8D201F8012B704710B500F07B
:101430000CF803220846FFF7A9FD84F3118810BDBC
:1014400010B500F002F81222F4E7EFF31184202324
:1014500083F31188DFF8E8117047EFF3118420203F
:1014600080F31188DFF8D801704710B5FFF7EDFF62
:101470001122DFE738B500F002F80822ABE002469F
:10148000EFF31184202080F31188DFF8BC3103F2E0
:101490003B401B690146D21A04E042F08005D209A4
:1014A00001F8015B802AF8D201F8012B704738B5AA
:1014B000FFF7E5FF04228EE038B5FFF7E0FF0622D4
:1014C00089E0F8B5FFF7B7FE114A02F23B43126913
:1014D0001C46801A04E040F08006C00904F8016B45
:1014E0008028F8D204F8010B04E041F08007C90914
:1014F00004F8017B8029F8D204F8011B0722214659
:101500001846FFF743FD85F31188F1BD0000000088
:10151000105C0020041000E0EFF31184202383F31B
:1015200011887047484A1169401A7047EFF31184D7
:10153000202080F3118870470146434A906A0028B2
:1015400000D1704770B5002302E0006908B35B1C4E
:101550008B42FAD3E8B1FFF7DFFF02F23B452B469F
:1015600004E041F08002C90903F8012B8029F8D278
:1015700003F8011B816800F00DF80168802218460D
:10158000FFF79EFC014616222846FFF7FFFC84F376
:10159000118870BD04E041F08006C90903F8016BB1
:1015A0008029F8D203F8011B704710B52648846AD9
:1015B0002CB1E06800B180472469002CF9D110BD3E
:1015C00010B5FFF74AFF214A01461278FFF723FFC3
:1015D0001B2230E72846FFF7D9FC84F3118831BD80
:1015E0000146EFF31184202383F31188144D8022E8
:1015F0002846FFF765BC70B500F00EF80123FFE741
:101600001A2200F8013B00F8016B01462846FFF75B
:10161000BDFC84F3118870BD0146EFF311842023D3
:1016200083F31188064D802228460026FFF748BC28
:10163000074953431944C86E096F401A70470000A8
:101640004B60002004ED00E0105C0020707400206E
:101650002861002053797356696577000000000007
:1016600000000000000000007CB50024234D0FE0C6
:101670001422234962438E183068641CFFF71EF958
:1016800030610090F368B2687168306800F03CF82F
:1016900028688442ECD373BD80B5FEF788FF4FF411
:1016A0007A71A1FB000104BDF8B505460C4616464B
:1016B0001F46052220A1204600F090FBE8B10F490B
:1016C0000A68082A04D30F48BDE8F240FFF793BF29
:1016D0004FF0140C0A4B0CFB02FC0698521C63449E
:1016E0001D605C609E60DF6018613B460A603246A8
:1016F00000902146284600F007F8F1BD68740020EC
:1017000024720020284620002DE9F84185B00646C5
:101710000F4690461D460C9C1421684600F024FD9F
:10172000009668460197CDF8088003950494FFF76A
:10173000F1FD06B0BDE8F08149444C4500000000D1
:10174000EFF3058060B9DFF85811EFF3108000283F
:1017500004BFEFF31180002803D00A68022A00D1E9
:101760007FE0086810B901220A6070474FF0FF302F
:101770007047000080B5EFF3058058B9DFF82011FD
:1017800000F072F804BFEFF31180002803D008685E
:10179000022800D109E00A68012A05D10220086068
:1017A000FEF761FE002002BD02E06FF0050002BD01
:1017B0004FF0FF3002BDF8B584B000230393EFF380
:1017C0000583002B4AD1EFF31083002B04BFEFF306
:1017D0001183002B04D0DFF8C8301C68022C3DD0E8
:1017E00003003BD08025182600245AB3136803B1A8
:1017F0001C4693691BB11E0004D0392E02D2137906
:10180000DF0701D500202AE0536903B19D089768DE
:10181000D2F80CC087B1BCF15C0F1FD31269002A4B
:1018200018BF002B1AD001920B4602972A46009649
:101830002146FEF7C9FC10E0BCF1000F04BF12699D
:10184000002A0BD103AB009601930B46AAB22146A6
:10185000FEF7EEFC012801D000200390039805B0AC
:10186000F0BD6FF005007047EFF31080002870475F
:1018700010B5EFF3058149B900F014F804BFEFF398
:101880001181002905D000F011F802D16FF0050494
:1018900003E0002408B1FEF7B7FD204610BD0000AC
:1018A00060740020EFF3108100297047DFF8B01159
:1018B0000A68022A70474FF0805103480160BFF365
:1018C0004F8FBFF36F8F704704ED00E0F8B51446FB
:1018D0000025EFF30582002A31D100F032F804BF71
:1018E000EFF31182002A02D000F02FF827D0002851
:1018F00018BF002923D0E4B1A368E26893B1502A4D
:101900001DD32269DAB1666901FB00F7BE4216D326
:10191000009500F066FC050011D0002C14BF216872
:1019200000210AE0002A04BF2369002B07D1626965
:101930002AB9002200F085FCEDE700F071FF28468F
:10194000F2BDEFF31082002A7047454A1368022B5C
:1019500070477CB500F06BF84AB9FFF7F2FF04BF9F
:10196000EFF31182002A18D0FFF7EFFF15D10028FE
:1019700018BF002915D0A4B9009400236A4600F0CE
:101980004FFD01281AD1009820B1FFF759FDFFF74C
:1019900092FF14E0FFF74AFD11E0002818BF00296C
:1019A00002D16FF003050AE00023224600F08BFC11
:1019B000012804D014B16FF0010500E03546284637
:1019C00076BD7CB500F033F84AB9FFF7BAFF04BF23
:1019D000EFF31182002A17D0FFF7B7FF14D10028C8
:1019E00018BF002914D09CB900956A4600F032FE59
:1019F000012819D1009820B1FFF722FDFFF75BFF06
:101A000013E0FFF713FD10E0002818BF002902D1F2
:101A10006FF0030509E0224600F063FD012804D0C1
:101A200014B16FF0010500E03546284676BD1C462E
:101A300000256FF00206EFF305827047094B036043
:101A400003F15C000860802111607047064B036061
:101A500003F15C0008604FF4807111607047000072
:101A6000607400209C6E0020406A002010B586B093
:101A7000DFF8504300F07EF9A068C0B1002204A94D
:101A8000059205A8049203AAFFF7E0FF0222059839
:101A900000920499039A0290019100230FF22C31D5
:101AA0000FF27500FEF790FB0028E06009D172B6D6
:101AB000502181F31188BFF34F8FBFF36F8F62B650
:101AC000FEE7012006B010BDF8B5044684B01E46FE
:101AD000002014B900F02AF9FEE7DFF8E872BD68CB
:101AE000BDB106290091019202940CDAFEF711FFB4
:101AF000022807BF0A9A002300230022B86869461B
:101B000000F0E1FB05E0002332466946284600F07C
:101B100087FC05B0F0BD0000F8B586B0DFF8A45230
:101B20002968086810B90124002602E0C86800246A
:101B30000668FEF7DAFC01A800F0B5F80746019840
:101B4000002841D154BBB7422DD3FEF7D4FC2868FE
:101B5000C168CC68201DFFF7A8F894F82800410759
:101B600017D5A16933463A462046891900F0E8F8AE
:101B700040B1002000230090324600212046FFF7AC
:101B8000A3FF18B1216A2046884727E000F0CEF86D
:101B9000FEE700F0FE0084F82800F3E768680168BB
:101BA0004C1EA441E40FA8682246F11B00F058FE29
:101BB000FEF7A1FC90B94FF0805083490860BFF355
:101BC0004F8FBFF36F8F09E0FEF795FC06E094F8A6
:101BD000280081073BD42046FEF7C4FFA8680022F6
:101BE00002A900F07EFC00289AD00298002803D5B4
:101BF00005990498039A904702980028EED4049C13
:101C0000606910B1201DFFF750F801A800F04BF8F3
:101C100002990929E2D8DFE801F02121211A0706FB
:101C200021211A07DAE7D2E794F8282042F00102CE
:101C300084F828200399A16131B1034602460918AE
:101C4000204600F07DF8C9E700F070F8FEE794F850
:101C5000280000F0FE0084F82800BFE794F8281060
:101C60000246A06941F0010184F8281003990B464F
:101C70004118204600F064F80028AFD0216A2046C1
:101C8000884794F828004207A8D50021039A0091BC
:101C9000A069002382182046FFF716FF00289DD177
:101CA00000F044F8FEE72DE9FC410646454DFEF7FD
:101CB0007AFC0446286984420ED300213160204614
:101CC0002C61BDE8F681C8F8040008F10401C8F8E9
:101CD00010802868FEF7D0FF2968086808B3C86834
:101CE000D0F80C80076808F10400FEF7DEFFD8F892
:101CF00020104046884798F828004207ECD5D8F8CD
:101D00001800C0198742DED30020002300903A4615
:101D100000214046FFF7D8FE0028DDD100F006F88C
:101D2000FEE76868696028600121C7E772B6502045
:101D300080F31188BFF34F8FBFF36F8F62B6704788
:101D400038B500248A4241601E4D006106D3D21A84
:101D500083699A4206D2011D686807E09A4203D25D
:101D6000994201D3012403E0011D2868FEF784FF96
:101D7000204632BD1CB5FFF730F8124CA068E0B920
:101D800004F11400FEF75BFF04F12800FEF757FF93
:101D900004F1140004F1280100222060616004F1C4
:101DA0003C03009204F18C0210210A2000F019FA81
:101DB000A06010B107A100F033FDBDE81340FFF7AC
:101DC00029B80000F870002004ED00E0546D722086
:101DD00053766300546D7251000000000300002030
:101DE000521E22BF13F8010B11F801CBB0EB0C000F
:101DF000F6D0521C08BF10467047000030B50848A6
:101E00000021016000228260064B1C684FF47A7545
:101E10000721B4FBF5F56D1E4560016030BD00BFC4
:101E200010E000E020000020EFF30980BFF36F8F87
:101E3000274B1A681EF0100F08BF20ED108A20E90A
:101E4000F04F106009B44FF0500072B680F3118863
:101E5000BFF34F8FBFF36F8F62B6FEF711FC4FF0E9
:101E6000000080F3118809BC19680868B0E8F04FD9
:101E70001EF0100F08BFB0EC108A80F30988BFF382
:101E80006F8F7047124B19680868B0E8F04F80F305
:101E90000988BFF36F8F4FF0000080F311887047FF
:101EA0000C480068006880F308884FF0000080F359
:101EB000148862B661B6BFF34F8FBFF36F8F00DF38
:101EC000DFF81400016841F4700101607047000000
:101ED000EC72002008ED00E088ED00E010B5DFF8BE
:101EE000D041A821204600F03FF9032203232261BC
:101EF0000FF2C010636104F1A801A0614FF4806289
:101F0000E161002322620021A362002261621021AC
:101F1000E262206614F5956060661046A1660021B5
:101F20002267E0666167BFF35F8F0FF29411424250
:101F30000A44D27B2254401C1028F8D3BFF35F8F91
:101F400010BD000070682246A9EB0409C119404683
:101F500000F0AABC2DE9F84300F02AF808B9FFF711
:101F6000BDFF18214C43291901F160063769F56856
:101F70000024BD420CD2B468E41B4C4588BF4C46DB
:101F8000FFF7E0FFB168E719A0448F4208BF0027C0
:101F9000ED1B4D4588BF4D462DB170682A462C1962
:101FA000FFF7D4FFEF1904B137612046BDE8F28393
:101FB0000446DFF8FC5028788846914670470000B8
:101FC0002DE9F04100F037F808B9FFF787FF00F07E
:101FD0002AF803FB01FE07F11C0C5CF80E0020B18F
:101FE000D7F810C0491C6145F3DB386981420CDA2F
:101FF00000F013F884610024C561066283624462C4
:10200000C0F82C80BFF35F8F01E04FF0FF3100BFBD
:1020100082F311880846BDE8F08103FB01F307EB6A
:10202000030000237047EFF31182202181F3118810
:1020300000211823704704461D4F38780D46164678
:10204000984670472DE9F04100F029F808B9FFF7EC
:1020500045FF032C0ED200F019F86032002C01D09D
:1020600000F00CF806985061BFF35F8F81F3118880
:10207000002001E04FF0FF30BDE8F0811560002046
:102080005660002397601061D3607047EFF31181B1
:10209000202080F31188182262434244704704468E
:1020A000DFF80C8098F800000D4616461F46704772
:1020B000286100205465726D696E616C000000003B
:1020C0000000000000005454522052454747455339
:1020D00000000000F0B400EB4003DFF8880000EBE4
:1020E000C30000F118063069F7687568874232D37B
:1020F000B368DC1B631E934214D37D19D019000012
:1021000011F8013B05F8013B521E05D011F8013BC7
:1021100005F8013B521EF3D1BFF35F8FF060012041
:10212000F0BC7047C018904219D37819121B11F8EF
:10213000013B00F8013B641EF9D1141C05D011F8D5
:10214000013B05F8013B521EF9D1BFF35F8FF460EC
:102150000120F0BC7047C01B401E9042CDD2002031
:10216000F0BC7047286100200022FEF74FBD000040
:1021700070B504000D4602D100F09BF8FEE7FEF7B3
:102180002CFE206CE16B2268002600FB01F3491E47
:1021900048434FF0FF311344A3601044A663E0604E
:1021A00004F1440062600170417075B92069A0B10A
:1021B00004F11000FEF7CDFA78B14FF08050DFF84F
:1021C0009416086000F041FA07E004F11000FEF7F1
:1021D00036FD04F12400FEF732FDFEF71BFE012060
:1021E00070BD7CB51C46502310B900F021F8FEE705
:1021F00014B900F01DF8FEE71AB119B900F018F88B
:10220000FEE779B950250095009E502E0DD1009B18
:1022100034B1069B012584F84650009400F030F854
:10222000204676BD00F004F8FEE700F001F8FEE776
:1022300072B683F31188BFF34F8FBFF36F8F62B60F
:102240007047F8B506000D46174602D100F031F888
:10225000FEE7002D0EBF502005FB06F05030FEF7C4
:10226000EFFB04000AD000203B4684F8460004F14E
:10227000500200942946304600F002F82046F2BD94
:10228000F8B505460C001E46069F0CBF3F603A603D
:10229000FD6301213C643846FFF76AFF87F84C6014
:1022A00033462246294601B07320BDE8F040FEF7D0
:1022B0007DBF72B6502080F31188BFF34F8FBFF3FC
:1022C0006F8F62B670472DE9F44783B005460C4620
:1022D0001F46502615B900F014FAFEE70CB9286C19
:1022E00060B9022F02D1E86B01280AD1FEF711FB79
:1022F00050B9039840B100F004FAFEE700F001FA8B
:10230000FEE700F0FEF9FEE72646A8460024DFF8C7
:1023100048954FF0805A2DE0039800284FD00CB913
:1023200000F07FF9FEF776FDFEF7DFF8FEF755FDCA
:1023300008F1440000F06BF904BF0022027000F0C5
:102340006BF904BF00224270FEF764FD00F064F8F0
:1023500000284ED1FEF741FD00F058F814BF0025CB
:102360000125FEF757FD002D32D1404600F019FA45
:10237000FEF7C1F8FEF731FD00F048F801D3022F57
:10238000CAD14046FFF7CEF800F039F83A46314658
:10239000404600F0BFF9D8F8241029B108F1240014
:1023A000FEF7D7F908B904E018B1C9F800A000F0A9
:1023B0004CF9FEF72FFD012004B0BDE8F087FEF7D1
:1023C00029FD4046FFF7AEF800F019F80020F3E7CA
:1023D000039908F11000FEF78FF9404600F0E1F98B
:1023E000FEF789F80028C5D1C9F800A000F02DF942
:1023F000C0E7404600F0D5F9FEF77DF8E1E7039B22
:102400000146009732465A20FEF7D6BED8F838006B
:10241000D8F83C108842704703A901A8FEF7E3B939
:102420002DE9F04704000E4615469A464FF0500835
:1024300002D100F048F8FEE70EB9206C70BBBAF18B
:10244000020F02D1E06B01282BD1FEF70BFDEFF359
:10245000118700F038F8A16BE26B2046914202D35D
:10246000BAF1020F26D194F94590FFF75BF800F01E
:1024700033F852463146204600F04CF919F1010F6D
:1024800012D1606AA0B104F12400FEF762F90028BD
:1024900018BF002D0CD00120286009E000F013F8CF
:1024A000FEE700F010F8FEE709F1010984F8459015
:1024B000012004E0FFF736F800F00EF8002087F363
:1024C0001188BDE8F08772B688F31188BFF34F8F8B
:1024D000BFF36F8F62B6704701462A466020FEF751
:1024E00049BE2DE9F64383B006460F460024502529
:1024F00016B900F07BF8FEE70FB9306C38B9FEF77B
:1025000008FA58B9049848B100F070F8FEE700F0F6
:102510006DF8FEE700F091F8FDF7EDFFFEF75DFCCA
:10252000B56BDFF834834FF08059002D2FD104981C
:10253000002846D00CB900F074F8FEF76BFCFDF7EC
:10254000D4FFFEF74AFC06F14400415711F1010F98
:1025500004BF0022027000F05FF804BF0022427046
:10256000FEF758FC04A9FFF758FF0028304633D186
:1025700000F04BF90028CDD000F044F800F05DF8F1
:10258000FDF7B9FF0028C9D100F05DF8C6E739466C
:10259000304600F0F3F800206D1EFEF7C3FF00F098
:1025A0004EF800F042F8B563306930B106F1100022
:1025B000FEF7CFF808B100F046F8FEF72BFC01203B
:1025C0001DE0FEF727FC0020FEF7ACFF00F037F817
:1025D00000F02BF80020F3E700F0E3F8FDF78BFFA5
:1025E000304600F012F9002898D0ECE772B685F377
:1025F0001188BFF34F8FBFF36F8F62B6704705B07E
:10260000BDE8F083049906F12400FEF775B890F94F
:10261000001011F1010F704790F9011011F1010F35
:10262000704701A80124FEF7D7B80121049B00914F
:10263000014622465C20FEF7BFBD3046B1E00446AD
:102640003046FEF76FBFC8F80090BFF34F8FBFF35F
:102650006F8F70472DE9F84F0546502615B900F0E9
:1026600050F8FEE7009109B9286CE8B91446FEF766
:10267000F9FBEFF3118700F044F8AE6BA046AB46D0
:102680000098A6B9FEF74EFF05465846FEF74AFFEA
:10269000014643462A4662200024FEF787FD87F361
:1026A00011882046BDE8F28F00F02BF8FEE795F97F
:1026B0004490761EFEF736FF82465846FEF732FFFC
:1026C0000146434652466220FEF770FD00992846B7
:1026D00000F054F819F1010FAE630CD1286970B104
:1026E00005F11000FEF735F8002818BF002C06D0C1
:1026F0000120206003E009F1010985F844900124DC
:10270000CDE772B686F31188BFF34F8FBFF36F8F9B
:1027100062B67047F8B506461546B46B326C0027B2
:1027200042B9316831BBB068FEF7FFF800210746B7
:10273000B1601FE065B9706800F0B6F8B268706803
:10274000316C08449042706014D33068706011E0BE
:10275000F06800F0A9F8306CF16840420144F16083
:102760003268914202D2B3681844F060022D01D160
:1027700004B1641E641C3846B463F2BD38B5026C03
:102780000B466AB1C16884681144C160A14224BF8C
:102790000568C560C1681846BDE8384000F084B8D7
:1027A00031BDF8B5054605F14404FEF716FB94F972
:1027B000016007E005F12400FDF7CBFF08B1FEF74B
:1027C0004AF8761E70B2012802DB686A0028F1D14F
:1027D0004FF0FF366670FEF71DFBFEF7FEFA94F928
:1027E000007007E005F11000FDF7B3FF08B1FEF738
:1027F00032F87F1E78B2012802DB28690028F1D167
:102800002670BDE8F140FEF705BB10B50446FEF7A3
:10281000E4FAA06B441EA441FEF7FCFAE00F10BDE1
:1028200010B50C4600220D4B53F8321019B1521C52
:10283000082AF9D310BD03EBC20143F832404860C7
:10284000FEF770FE224601467120BDE81040FEF7FB
:1028500091BC000004ED00E004ED00E010740020E5
:10286000F8B504460D46164604F13807FEF7B5FAEA
:1028700097F90C0010F1010F04BF0021397397F98B
:102880000D0010F1010F04BF00217973FEF7C2FAA9
:10289000386828B93246294604F12400FDF73CFF88
:1028A0002046BDE8F2407CE74AB1000011F8013B48
:1028B000521E00F8013B1CBF11F8013BF8E77047BE
:1028C0002DE9FC4104460025002C16D02078DFF8C5
:1028D000C064C10713D5B26802F00C02042A07D005
:1028E000B06800F00C0008283DD1716848023AD564
:1028F0003268910303D56068002800F07081217868
:102900008A0719D5B06810F00C0F07D0B16801F034
:102910000C01082962D1706841025FD432689007C7
:1029200003D5E168012940F05A813068216920F01F
:10293000F80040EAC10030602278130779D5606959
:1029400000286DD0716F41F00101716700F036FA17
:102950000746706F810773D400F030FAC01B02285D
:10296000F7D903203EE16068B0F5803F0FD038B959
:10297000316821F480313160306820F4802009E032
:10298000B0F5A02F08D1316841F480213160306862
:1029900040F48030306007E0326822F480323260E8
:1029A000316821F480213160606858B100F006FA86
:1029B000074631688803A2D400F000FAC01B6528DE
:1029C000F7D3CEE700F0FAF907463068810396D5D1
:1029D00000F0F4F9C01B6528F7D3C2E7E06878B1CE
:1029E000316841F00101316000F0E8F907463068D4
:1029F00081079AD400F0E2F9C01B0228F7D9B0E7AA
:102A0000306840084000306000F0D8F9074631686F
:102A1000880791D500F0D2F9C01B0228F7D9A0E7AA
:102A2000706F40084000706700F0C8F90746706F8B
:102A3000810705D500F0C2F9C01B0228F7D990E73D
:102A40002078410761D5326CD00009D4316C012562
:102A500041F080513164306C00F08050009000995A
:102A6000DFF83C733868C10510D43A6842F48072CC
:102A70003A6000F0A3F980463868C10506D400F03A
:102A80009DF9A0EB08006528F6D36AE7A068012845
:102A900004D1306F40F00100306713E008B9306FA7
:102AA00009E00528306F06D140F004003067316F2F
:102AB00041F0010105E0400840003067316F21F02E
:102AC00004013167A06841F2893760B100F076F9FE
:102AD0008046306F810713D400F070F9A0EB080036
:102AE000B842F6D33DE700F069F98046306F8107C0
:102AF00006D500F063F9A0EB0800B842F6D330E742
:102B00001DB1306C20F080503064A069002868D07E
:102B1000B16801F00C0108293ED00228306820F08D
:102B2000807030602CD100F049F905463168880189
:102B300005D500F043F9401B0228F7D911E7E069F9
:102B4000216A626AA36A0843E16A40EA82105B086C
:102B50005B1E40EA034040EA016040F000507060B4
:102B6000306840F08070306000F028F90446316829
:102B7000880136D400F022F9001B0228F7D9F0E6CC
:102B800000F01CF90446316888012AD500F016F9D6
:102B9000001B0228F7D9E4E6012871681FD0E2691A
:102BA00001F48000904202BF01F03F03206A83429B
:102BB00001BF47F6C0720A40636AB2EB831F0ED1B1
:102BC000A26A01F4403000F580305208B0EB024FA9
:102BD00002BF01F07061E06AB1EB006F01D001202B
:102BE00000E00020BDE8F6812DE9F04104008846B0
:102BF00051D06C4E306800F00F00404502D200F01A
:102C000070F848D12068624D810712D5400703D57E
:102C1000A96841F4E051A9602078010703D5AA68AA
:102C200042F46042AA60A968A06821F0F001014363
:102C3000A9602178CA0726D56068012802D12968D1
:102C40008A0303E0022803D129688A0103D422E021
:102C50002B6899071FD5AA68920840EA8200A860ED
:102C600000F0ACF80746A868616800F00C00B0EB13
:102C7000810F08D000F0A2F8C01B41F289329042C7
:102C8000F1D303202BE0306800F00F00804504D220
:102C900000F027F801D0012021E02078410705D578
:102CA000AA68E06822F4E0520243AA6021780A0789
:102CB00006D5A868216920F4604040EAC100A860F8
:102CC00000F019F8AA683849324BC2F30312895C44
:102CD000C84018603048006800F076F80020BDE871
:102CE000F0813168090948EA01113160326802F067
:102CF0000F024245704730B52D4C606800F00C0063
:102D0000042802D0082802D019E02A4830BD2268E1
:102D1000206825680023410202F03F02C5F38810B5
:102D20004CBF24491D49A1FB000100F0BDF82168FA
:102D3000C1F30141491C4900B0FBF1F030BD174817
:102D400030BD1448194A006813681B49C3F3822236
:102D5000FFE7895CC840704710B50F220260134A34
:102D6000136803F003034360146804F0F004846004
:102D7000136803F4E053C3601268D20802F4E0520F
:102D800002610848036803F00F030B6010BD0000E8
:102D900000380240200000201C0000200024F40025
:102DA00000700040003C0240F84720000838024014
:102DB0000438024000127A00F448200001484068BC
:102DC000704700BF1400002078B5044687B0204843
:102DD000016841F004010160006801A900F00400ED
:102DE0000090009A02A8FFF7B7FF059911B9FFF705
:102DF000A8FF02E0FFF7A5FF4000164B164D17494C
:102E000040F2E732B0FBF3F02960401E6860002119
:102E1000EA6028462961A960A96100F0C9F80600A6
:102E200012D1284600F0D1F806000DD11E2000F086
:102E30002EFB102C07D2002221461E2000F00AFB98
:102E40000748046000E00126304608B070BD00006D
:102E50004038024040420F00C47300200008004088
:102E60001C00002013F0004C03D55B42524263F17A
:102E700000039CEA210C00F0178010B5644603D3D0
:102E80004942404261F1000100F00EF8640004D3B1
:102E90004942404261F10001244203D55B42524263
:102EA00063F1000310BD0000D3BBD9B1B2F5803F80
:102EB0005BD2022A1ED98C46B1FBF2F102FB11C390
:102EC0001B0443EA1043B3FBF2FC02FB1C3380B249
:102ED00040EA0343B3FBF2F002FB103240EA0C403D
:102EE00000237047022A05D98446B0FBF2F002FBAA
:102EF00010C270474AB105D100F0010249085FEAEB
:102F00003000704700220023704700F0D5BA0B0054
:102F10000200002100207047F7D3002200237047F1
:102F2000904271EB030CF2D370B5B1FA81F4B3FAAD
:102F300083F52C1BA340C4F1200532FA05F6334378
:102F4000A2405FF00046E64002E05B085FEA320222
:102F5000841A71EB030524BF204629467641F4D339
:102F600002000B003000002170BD70B5B1FA81F491
:102F7000B2FA82F5C4F120046419B4F12006DAD360
:102F8000B2405FF00044F440002502E052085FEADE
:102F90003303C61A71EB020E24BF304671466441FA
:102FA0006D41F3D302000B002000290070BD00002A
:102FB00038B5040001D1012032BD00F07DF818B908
:102FC00000F076F800F0BEFA4BE010B590F83D1036
:102FD000012901D0012010BD022280F83D200168A6
:102FE000DFF8AC20CB6843F00103CB60016891426D
:102FF00018BFB1F1804F17D0DFF8983099421CBF4D
:10300000DFF8942091420FD0DFF89040A1421CBF1E
:10301000DFF88C30994207D0DFF8882091421CBF3E
:10302000DFF88440A14208D100F00EF818BFB2F5D5
:10303000803F07D000F00EF804E00B461A6842F01B
:1030400001020A60002010BD8A68DFF860100A40A3
:10305000062A70470268116841F0010110460160BC
:1030600070470220211D6870206800F039F90120A6
:10307000012128730122A970EA7028716971AA716F
:10308000E87129726A72A8720020E9726A7032BD12
:10309000000001400004004000080040000C004017
:1030A00000040140004001400018004007000100FA
:1030B000002120462970704704F13C05687870476C
:1030C00010B50446206801698A0715D5C3689907B9
:1030D00012D56FF00202012302612377806910F09C
:1030E000030F204602D000F04BFA03E000F049FA4B
:1030F00000F094F800202077206801694A0715D570
:10310000C368590712D56FF00402022302612377C6
:10311000806910F4407F204602D000F031FA03E0CD
:1031200000F02FFA00F07AF800202077206801697B
:103130000A0715D5C368190712D56FF008020423D2
:1031400002612377C06910F0030F204602D000F01F
:1031500017FA03E000F015FA00F060F8002020777D
:1031600020680169CA0615D5C368D90612D56FF063
:103170001002082302612377C06910F4407F2046C3
:1031800002D000F0FDF903E000F0FBF900F046F892
:103190000020207720680169CA0708D5C368D907CD
:1031A00005D56FF001020261204600F0ECFA2068BC
:1031B00001690A0608D5C368190605D56FF08002B3
:1031C0000261204600F0FAFA20680169CA0508D5B4
:1031D000C368190605D56FF480720261204600F0BD
:1031E000EEFA206801694A0608D5C368590605D574
:1031F0006FF040020261204600F0E2FA20680169A7
:103200008A060AD5C368990607D56FF020020261C5
:103210002046BDE8104000F0D4BA10BD204600F0B2
:10322000D1BAF8B5064606F13C05287800240128F5
:1032300001D10220F2BD012202232A70DFF84401ED
:103240006B7032689368034093600868070018BF8A
:10325000102830D0202818BF30282CD0402826D065
:10326000502819D060281BD0702806D0B0F5805F98
:1032700027D0B0F5005F07D022E000F02CF83068CE
:10328000816841F0770105E000F025F83068816839
:1032900041F48041816014E000F019F850210BE006
:1032A000CA684968306800F096F8602104E000F0D0
:1032B0000EF8402100E00146306800F09EF800E082
:1032C000012401200021687020462970F2BDCA68DF
:1032D000496830686EE0CB684A688968306894E075
:1032E000F0B5DFF8A4500668DFF8A040DFF8A030A2
:1032F000DFF8A070DFF8A0C0A84218BFB0F1804F7F
:1033000007D0604518BFB84203D0984218BFA0420A
:103310000DD14A6826F070061643A84218BFB0F1D6
:10332000804F1AD060451CBFB842984215D0A042C9
:103330001CBFDFF8683098420FD0DFF8642090425D
:103340001CBFDFF86070B84207D0174B98421FBF10
:10335000164A9042164FB84203D1CB6826F4407605
:103360001E434A6926F080061643A84206608B6811
:10337000C3620E68866212BFA0420969016301221E
:103380004261F0BD8800FEFF0000014000040140E2
:10339000000C0040000800400004004000400140D4
:1033A000004401400048014000180040001C00405B
:1033B0000020004030B5036A046A640864000462B7
:1033C000856923F00A03194325F0F00545EA021543
:1033D0008561016230BD10B5036A23F010030362FA
:1033E0008369046A23F4704343EA023324F0A0049F
:1033F000836144EA0114046210BD826822F0700205
:10340000114341F007018160704710B5846824F4CE
:103410007F442143114341EA0321816010BD000034
:103420000901020002D41F48815470471E4B02F06C
:103430000F021A4402F8041C70471C4B4FF6FF029F
:103440001968000200F4E06011400843184908437D
:103450001860704770B5154B1C68C4F30223012433
:10346000C3F10705052D2EBF0F2504FA05F56D1EC6
:103470001E1D072E34BF0023DB1E2940994004FA8D
:1034800003F35B1E1A401143BDE87040C8E701001A
:1034900007D4012200F01F018A40064B400943F87F
:1034A0002020704700E400E018ED00E00CED00E0A3
:1034B0000000FA0500E100E07047000082B02A48F1
:1034C000016841F080510160026802F08052009270
:1034D0000099426842F4804242604068002200F451
:1034E0008040009000996FF0010002B00F21FFF7BB
:1034F000B1BF38B504461D492068884221D11C4D12
:1035000000201C4A4FF080632A604FF48062A8605C
:103510004FF40051E8604FF400606B604FF44033AB
:103520002A614FF48072A961002168612846EA612E
:103530002B62696200F048F908B100F03DF9A5631B
:10354000AC6331BD81B000680C49884209D10A489A
:10355000026842F001020260006800F00100009081
:10356000009901B07047000040380240002201403D
:10357000647300201064024044380240000001409F
:103580007047704778B587B0824C00F0D7FA00F0EA
:10359000B1F800F0E9FA142101A8FEF7E5FD606931
:1035A00040F48060606161697B4801F48061009152
:1035B000009A236843F0200323602168402301F030
:1035C00020010091009A03210193029100220392AD
:1035D00001A900F001FB2068002240F48000206077
:1035E0002168002401F48001009100980521382011
:1035F000FFF730FF3820FFF74AFF6846002100221E
:10360000002380E81E004FF48032644C62606449FD
:103610004FF040522160E2624FF0106104F130053A
:103620000122A36020462361A36184F82030A162B7
:10363000E3602A7000F0E4FB08B100F0BDF803215C
:103640000022009169460292204600F03AFD08B13E
:1036500000F0B2F803A80022002100230026EA614E
:1036600080E84E006946002081E80D004D482A623E
:10367000A86140F25310686204F14800AA62EA624D
:103680002A63FFF795FC08B100F096F84FF48050DC
:1036900003A9039004F14800FFF7C3FD08B100F04F
:1036A0008BF820214FF4001200916946019204F139
:1036B0004800029600F016FE08B100F07DF83A4886
:1036C000016841F004010160426842F00102426079
:1036D00000F061FE00F086FE04F14800FFF775FC83
:1036E0004FF47A6204F19401204600F04BFC00F0A4
:1036F000A5FEFEE780B592B0302106A8FEF734FDA6
:10370000142101A8FEF730FD2848016841F08051DE
:103710000160006800F08050009000992448026821
:1037200042F4404202600368022206A803F44043C8
:10373000009300990692012310210C920A91002116
:1037400008220D910E92AA21022209930F91109244
:103750001192FFF7B5F808B100F02EF80F21022200
:1037600001914FF4A0510292002304914FF4805232
:1037700003930521059201A8FFF736FA08B100F07E
:103780001BF813B000BD00680A49884208BF00F06A
:1037900063BE704730380240001402403C3C0020B9
:1037A0000022014000000140082004E040380240AF
:1037B000007000400008004072B6FEE77047704796
:1037C000704770477047000070B50446FFF7F6FA7F
:1037D00006460CB9012070BD04F134050220687062
:1037E0000021297000F09FF823681868C1070AD5E6
:1037F000FFF7E4FA801B0628F6D320200321286275
:103800000320697070BD1E686168DFF8C422A0687B
:103810001640E2680E432169064360691643A269B7
:103820000E43E1690643206A1643626A0E4306436B
:10383000042A03D1E16A206B0E4306431E6023680D
:103840005A69606AD20840EAC20204280AD1A66A0C
:10385000E16A324331B1A06980B9002E18BF022E4F
:103860001ED015D35A61204600F050F9A96A3F22B4
:103870008A40826000202862012217E0B0F5005FD4
:103880000AD1032EEED8DFE806F00D0B0D03E9E7B1
:10389000B1F1C07FE6D105E0022E03D9F61EE1D1D9
:1038A000C801DFD540210122296201206A7070BD64
:1038B000F8B50025044604F134063078776A01280B
:1038C00001D10220F2BD012030707078012826D18C
:1038D0004FF0020EAC4686F801E02046C6F820C044
:1038E00000F004F9B06A3F2101FA00FEC7F808E0D1
:1038F0002068016841F0160101602068426942F0C9
:1039000080024261F06820B12068016841F008013E
:1039100001602068026842F00102026001E0357037
:1039200002252846F2BD2068026852085200026053
:1039300070472DE9FC41044604F134060020654936
:103940000090776A0A684FF4165308213D68B06A00
:10395000B2FBF3F800F0C0F810D0206802685307FB
:103960000CD5D0F800C02CF0040CC0F800C0B06A30
:103970008140B960316A41F001013162B06A25FAD3
:1039800000F2D1070BD523685A69110607D5012328
:1039900003FA00F0B860306A40F002003062B06AAA
:1039A000042100F099F808D0226811688B0704D52B
:1039B000B860306A40F004003062B06A102100F054
:1039C0008BF81BD0226811680B0717D5B8602068E8
:1039D00001684A0307D5006801030BD5716969B115
:1039E000204688470AE00168CA0503D4036823F02B
:1039F00008030360F16809B120468847B06A2021B6
:103A000000F06AF842D022681168CB063ED5B86053
:103A10002068717805291FD1026822F01602026021
:103A20002068436923F080034361F168002904BFE3
:103A30007069002801D000F053F8B06A3F220121DC
:103A40008240BA6000227170F169327000293CD066
:103A50002046BDE8FC41084701684A0307D50068D5
:103A600001030FD4316989B1204688470EE001680F
:103A7000CA0507D40368002123F010030360012066
:103A800070703170B16809B120468847306AE0B182
:103A9000316AC80713D50522727020680168490889
:103AA000490001600098401C8045009003D32068C5
:103AB0000168CA07F6D40123002073703070B16921
:103AC00019B12046BDE8FC410847BDE8F38100007C
:103AD0003F8010F02000002001FA00F005427047FE
:103AE0002068016821F008010160704730B5046862
:103AF000256825F48025256063608068402802D110
:103B0000A260E16030BDA160E26030BD30B5014629
:103B10001823086807A400F0FF02103AB2FBF3F282
:103B2000A55C800A8002042ACD6528BF001D886537
:103B300030BD0000000610160006101680B50948BA
:103B4000016841F400710160026842F48072026011
:103B50000320FFF772FC0F20FFF736F9FFF7AEFCEA
:103B6000002002BD003C024018B585B0174801682E
:103B7000002441F0040101600068142100F00400F9
:103B80000090009A6846FEF7EFFA114A0121138867
:103B900050680191694600930294039400F01CF868
:103BA000002000F00DF806B010BD05204FF0604178
:103BB0000860012004E007480168491C0160704763
:103BC000024603480188406800F0FBB830380240E4
:103BD00000000020647400202DE9F84F0D460026F7
:103BE000DFF8E811DFF8E8210F2304462F680120F1
:103BF000B04000EA0708804540F0DD804FEA460CFF
:103C0000032707FA0CF76FEA070E6F6807F003093E
:103C1000B9F1010F1CBF07F00307022F12D1A768EB
:103C2000D5F80C900EEA070709FA0CF949EA0707DC
:103C3000A760676827EA00006F68C7F30017B740FE
:103C4000384360602F79B00007F00307032F22D0BC
:103C5000E768D5F808900EEA070709FA0CF949EA6F
:103C60000707E7602F7907F00307022F13D14FEA08
:103C7000D60904EB890700F01C0903FA09FBD7F801
:103C800020A02AEA0B0AD5F810B00BFA09F949EA84
:103C90000A09C7F8209027680EEA070E2F7907F067
:103CA000030707FA0CF747EA0E0CC4F800C06F6868
:103CB00017F4403F00F07F80D2F800E04FEA960C06
:103CC00000F00C004EF4804EC2F800E0176807F4D4
:103CD00080470097DDF800E03E4F57F82C7003FA5C
:103CE00000FE27EA0E0E3C4FBC4208BF00272CD036
:103CF0003A4FBC4208BF012727D0394FBC4208BF0A
:103D0000022722D0374FBC4208BF03271DD0364FB1
:103D1000BC4208BF042718D0344FBC4208BF052757
:103D200013D0334FBC4208BF06270ED0314FBC42E0
:103D300008BF072709D0304FBC4208BF082704D06E
:103D40002E4FBC420CBF09270A2707FA00F040EAB1
:103D50000E00DFF880E04EF82C00D1F808C06F6844
:103D60006FEA080000EA0C0CFF0248BF48EA0C0C9E
:103D7000C1F808C0D1F80CC06F6800EA0C0CBF0293
:103D800048BF48EA0C0CC1F80CC0D1F804C06F68F9
:103D900000EA0C0CBF0348BF48EA0C0CC1F804C091
:103DA000D1F800C000EA0C0C6868C00348BF48EABC
:103DB0000C0CC1F800C0761C0F2E7FF617AFBDE8C3
:103DC000F18F02B90904816170470000003C014095
:103DD000443802400838014000000240000402401C
:103DE00000080240000C0240001002400014024093
:103DF00000180240001C0240002002400024024043
:103E000070B5044600250CB9012070BD04F13006E0
:103E1000306928B92046FFF76CFB002171613173CE
:103E20003169C80600F1A0803269DFF8001422F47D
:103E3000885242F0020232610B6823F440330B6077
:103E40000A68606802430A602068416821F4807152
:103E5000416020684268216942EA0122426020688C
:103E6000426822F04072426021684B68A0680343B8
:103E70004B602068816821F40061816021688A6854
:103E8000E06802438A60A16ADFF8A42320689142B7
:103E900013D0836823F07063836021688A68A06A06
:103EA00002438A602068816821F040518160216866
:103EB0008A68E06A02438A6008E0816821F07061E4
:103EC00081602068826822F04052826020688168A8
:103ED00021F00201816020688268A16942EA410202
:103EE000826094F82000216880B14A6842F4006240
:103EF0004A602068416821F460414160206842685E
:103F0000616A491E42EA4132426003E0486820F497
:103F1000006048602068C16A21F47001C1622068B5
:103F2000C26AE169491E42EA0152C26220688168A0
:103F300021F40071816020688268317842EA412270
:103F400082602068826822F48062826020688168D2
:103F5000626941EA8221816000207061306901213B
:103F600061F30100306100E0012500203073284634
:103F700070BD826842F0804282607047816811F0B3
:103F8000405F7047F8B504460020009004F13C0300
:103F90001D78012D01D10220F2BD0120187020688A
:103FA0008568EE0715D48768DFF89C52DFF89CC25D
:103FB00047F0010787602E68B6FBFCFC0CEB4C0C4D
:103FC000CDF800C002E0009D6D1E0095009800280D
:103FD000F9D12568AE68F70769D5D3F804C09948C8
:103FE00000EA0C0040F4807CC3F804C06D686805EA
:103FF00004D55868012565F30D3058605D68E80404
:1040000004D59E6826F006069E6001E000209860B8
:1040100000250FF2B5261D70A06B0FF23923C36384
:10402000A36B0FF2AD201E64A56B6FF02203E86452
:1040300026683360206813460A46456845F0806567
:1040400045602068866846F480768660206800F1C6
:104050004C01A06BFFF72CFC206874490A6812F031
:104060001F0F05D1FFF78AFF29D1FFF782FF26E056
:10407000704B98420AD17248026812F0405F18BF34
:1040800008681CD1026842F0804202600968C806D4
:1040900015D42268684B9A4202BF6848016811F043
:1040A000405F0CD1026842F08042026007E058682D
:1040B00040F010005860996841F0010199600020BB
:1040C000F2BD02460020F8B5009092F83C30012B7A
:1040D00001D10220F2BD0120072482F83C000B68C8
:1040E0005B480A2B1CD3B3F1004F19D015680A3B6B
:1040F00003EB4303EE689C4026EA0404EC600C6882
:104100008B68844204D1EC6844EA0364EC6018E0F4
:104110000A3CEE6804EB4404A3403343EB6010E038
:10412000156803EB43032E6904FA03F326EA03033D
:104130002B612B690E688C6806EB4606B44023435E
:104140002B614C681F251368072C0CD2641E5E6B14
:1041500000F065F85D635D6B4C680E88671E00F0CB
:1041600059F85D631BE00D2C0CD2E41F1E6B00F0B0
:1041700056F81D631D6B4C680E88E71F00F04AF867
:104180001D630CE00D3CDE6A00F049F8DD62DD6A7B
:104190004C680E88A4F10D0700F03CF8DD62254D57
:1041A000AB4232D10C68214BB4F1004F03D11D68F2
:1041B00025F440051D600C68122C07D11D6825F4FC
:1041C00000051D601E6846F480061E600C6884426F
:1041D00018BF112C19D11C6824F480041C601D68C0
:1041E00045F400051D600B6883420ED1164C174D37
:1041F00026680A21B6FBF5F54D43009502E0009BC9
:104200005B1E009300980028F9D10021002082F85D
:104210003C10F2BD07EB8707BE403543704704EB07
:104220008404A54026EA05057047000004230140E8
:104230000100000F0020014000220140082201403F
:1042400008200140FEF9FFFF2000002040420F003F
:104250001200001010B5816B0A6C12F0500F26D1BD
:10426000086C40F4007008640A68936813F0405FBB
:1042700004BF8869002815D1D36A13F4700F02D0E7
:10428000906843050ED4546824F020045460086CF0
:1042900020F4807008640A6CD00403D40B6C43F0E3
:1042A00001030B640846BDE8104000F0E3B80A6C57
:1042B000D30604D50846BDE8104000F0EFB8896B7E
:1042C000CA6CBDE810401047806B00F0CDB800000C
:1042D000806B40210164426C42F00402426400F0B1
:1042E000DDB80000F0B500F13C042278012A01D1CC
:1042F0000220F0BD012302222370DFF878E0627013
:104300000668DFF874C07768B568764518BF6645FB
:1043100003D14B6827F470071F430A6827F0700722
:10432000174377600268724518BFB2F1804F10D012
:104330000F4882421CBF114B9A420AD00B4EB24228
:1043400018BF624505D0084882421CBF0C4B9A42F8
:1043500004D1886825F0800505439560012100227D
:10436000617000202270F0BD00400140000C004050
:10437000000400400000014000040140000800402B
:104380000018004080B50B48FDF71BF80DA0BDE8F4
:104390000240FDF716B880B50748084B0168084A87
:1043A0000846FCF7A1FE4FF08050BDE80240FCF744
:1043B000C6BE0000004720002000002085432000EA
:1043C000EC482000492331353D5379735469636BC0
:1043D0002C492337323D444D415F496E74657272FA
:1043E0007570740038B5FDF7ABF900BF14A2022157
:1043F00001200D4CFDF76AFAE0600C4D2A460021C1
:104400000B48FDF7D8F9206005F124020021094886
:10441000FDF7D1F9606005F1480200210648FDF77B
:10442000CAF9A06031BD000050740020644520002E
:10443000A14820007946200075482000FDF79AB970
:104440008C48200000000000000000000000000078
:1044500000000000000000000248416802788A184D
:10446000426070471400002010B5FCF7C5FF0949F1
:10447000002004E010B5FCF7BFFF064901200880CA
:10448000054C206800230022FDF763FABDE81040C8
:10449000FCF7CCBF6E7400205C74002070470000F5
:1044A000002878B556DDB0FA80F2A2F111031BB2F4
:1044B000DC0752BF984003F1FF029040284A00B247
:1044C0000546C40300EE105A2414BAEE600A8DEDBE
:1044D000000A009DA2EB650200929DED000ABEEE6F
:1044E000C90A10EE102A12B212FB02F67600361438
:1044F000664376003614C6F540567243D2139204D2
:10450000121412FB02F56D002D1465436D002D147D
:10451000C5F540556A43D2139204121412FB02F6F9
:104520007600361414FB06F464002414C4F54054D9
:104530006243D213920412145043C0134004001477
:10454000DC0748BF5B1E03EBD3735B101841088088
:10455000002072BD002008804FF0FF3072BD00BF08
:10456000DF59375FD4482000000000000000000041
:104570000000000000000000000200001800000021
:104580000000000000000000B4482000000000000F
:104590000000000000000000000000000002000019
:1045A000360000000000000000000000E04820008D
:1045B00000000000000000000000000000000000FB
:1045C00000020000080000000000000000000000E1
:1045D000F8B503460F4600240025B80808E01E6819
:1045E000191D0B1D401EC6FBC6450E68C6FBC64501
:1045F000F5D117F0030004E033F9021B401EC1FBA4
:10460000C145F9D11646204629463A460023FEF711
:1046100029FCC00B40EA41403146BDE8F44000F3BC
:104620000F00FFF73DBF000053595354454D564905
:1046300045573A20436F756C64206E6F7420726525
:10464000636F7264207461736B20696E666F726D44
:104650006174696F6E2E204D6178696D756D206E85
:10466000756D626572206F66207461736B73207262
:104670006561636865642E00F8B50F4C0F4D104EF0
:10468000104F05E02A464FF4FA612046FFF7A0FFDD
:1046900030684FF0FF3300223946FDF792F9FFF7FB
:1046A00084FA38880100EDD00128F1D12A464FF470
:1046B000FA6104F57A60E9E7D03C00206C740020D0
:1046C0005C7400206E74002030B4002512E050F8B5
:1046D000042BD30744BF4A44521E091F042942F841
:1046E000045BFAD213468C0744BF15809B1CC90794
:1046F00048BF1D7050F8041B0029E8D130BC70473A
:104700004E3D4672656552544F532044656D6F208F
:104710004170706C69636174696F6E2C443D436FC6
:10472000727465782D4D342C4F3D46726565525438
:104730004F53000010B5074979441831064C7C44AA
:10474000163404E00A68081D114488470146A14256
:10475000F8D110BD500000007000000000080000FB
:104760000008024000000000AAAAAAAA0000000057
:104770000100000000000000100000000024F40010
:104780004EF68851CEF20001086840F470000860CF
:10479000BFF34F8FBFF36F8F4FF00170E1EE100A40
:1047A0007047000025FFFFFF507400002400002028
:1047B000000000001FC5FFFF24000000A0FFFFFF56
:1047C0000000002000000000FEE7FEE7FEE7FEE735
:1047D000FEE770470248FEF773BC0248FFF7A9B82E
:1047E000C4730020647300200248016841F4700122
:1047F0000160704788ED00E000000000000000004C
:10480000010203040607080900F00DF8002801D092
:10481000FFF790FFAFF300800020AFF3008000F0BF
:1048200004F800F007F80120704780B5FEF7AAFEF3
:10483000002002BD00F000B80746384600F002F83C
:10484000FBE7000080B5AFF30080024A110018209A
:10485000ABBEFBE7260002000548014603B46846EC
:1048600080F30988AFF30080FFF78AFFFFF7CCFFE2
:10487000A5EDF5FE10B54CF25034FFF79CF9641E1F
:10488000FBD14FF4FA70FCF7F3FFF4E743616C637C
:10489000756C6174696F6E4E6F74696679000000A3
:1048A00010B5C824FFF787F9641EFBD10120FCF77F
:1048B000DFFFF6E741435F43616C63756C617469C8
:1048C0006F6E54000148804701480047E9472000C7
:1048D00059482000686967685072696F00000000DD
:1048E0006D656469756D5072696F000099162000DE
:1048F000691620000000000001020304FFF7FEBF5C
:10490000FFF7FEBFFFF7FEBFFFF7FEBFFFF7FEBFDB
:10491000FFF7FEBFFFF7FEBFFFF7FEBFFFF7FEBFCB
:10492000FFF7FEBFFFF7FEBFFFF7FEBFFFF7FEBFBB
:10493000FFF7FEBFFFF7FEBFFFF7FEBFFFF7FEBFAB
:10494000FFF7FEBFFFF7FEBFFFF7FEBFFFF7FEBF9B
:10495000FFF7FEBFFFF7FEBFFFF7FEBFFFF7FEBF8B
:10496000FFF7FEBFFFF7FEBFFFF7FEBFFFF7FEBF7B
:10497000FFF7FEBFFFF7FEBFFFF7FEBFFFF7FEBF6B
:10498000FFF7FEBFFFF7FEBFFFF7FEBFFFF7FEBF5B
:10499000FFF7FEBFFFF7FEBFFFF7FEBFFFF7FEBF4B
:1049A000FFF7FEBFFFF7FEBFFFF7FEBFFFF7FEBF3B
:1049B000FFF7FEBFFFF7FEBFFFF7FEBFFFF7FEBF2B
:1049C000FFF7FEBFFFF7FEBFFFF7FEBFFFF7FEBF1B
:1049D000FFF7FEBFFFF7FEBFFFF7FEBFFFF7FEBF0B
:1049E000FFF7FEBFFFF7FEBFFFF7FEBFFFF7FEBFFB
:1049F000FFF7FEBFFFF7FEBFFFF7FEBFFFF7FEBFEB
:104A0000FFF7FEBFFFF7FEBFFFF7FEBFFFF7FEBFDA
:104A1000FFF7FEBFFFF7FEBFFFF7FEBFFFF7FEBFCA
:104A2000FFF7FEBFFFF7FEBFFFF7FEBFFFF7FEBFBA
:104A3000FFF7FEBFFFF7FEBFFFF7FEBFFFF7FEBFAA
:104A4000FFF7FEBFFFF7FEBFFFF7FEBFFFF7FEBF9A
:104A5000FFF7FEBFFFF7FEBFFFF7FEBFFFF7FEBF8A
:104A6000FFF7FEBFFFF7FEBFFFF7FEBFFFF7FEBF7A
:084A7000FFF7FEBFFFF7FEBFD8
:040000050020485936
:00000001FF
