:020000040800F2
:10000000F8290020ED6D0008A96B0008AB6B000813
:10001000AD6B0008AF6B0008B16B0008000000007A
:100020000000000000000000000000000166000861
:10003000B36B000800000000A9650008652E0008E9
:100040007D6E0008816E0008856E0008896E0008CC
:100050008D6E0008916E0008956E0008996E00087C
:100060009D6E0008A16E0008A56E0008B56B000823
:10007000A96E0008AD6E0008B16E0008B56E0008EC
:10008000B96E0008BD6E0008C16E0008C56E00089C
:10009000C96E0008CD6E0008D16E0008D56E00084C
:1000A000D96E0008DD6E0008E16E0008E56E0008FC
:1000B000BF6B0008E96E0008ED6E0008F16E0008E5
:1000C000F56E0008F96E0008FD6E0008016F00086B
:1000D000056F0008096F00080D6F0008116F000818
:1000E000156F0008196F00081D6F0008216F0008C8
:1000F000256F0008296F00082D6F0008316F000878
:10010000356F0008396F00083D6F0008416F000827
:10011000456F0008496F00084D6F0008516F0008D7
:10012000556F0008596F00085D6F0008616F000887
:10013000656F0008696F00086D6F0008716F000837
:10014000756F0008796F00087D6F0008816F0008E7
:10015000856F0008896F00088D6F0008916F000897
:10016000956F0008996F00089D6F0008A16F000847
:10017000A56F0008A96F0008AD6F0008B16F0008F7
:10018000B56F0008B96F0008BD6F0008C16F0008A7
:10019000C56F000800000000C96F0008CD6F00089F
:1001A000D16F0008D56F0008D96F0008DD6F000817
:1001B000E16F0008E56F0008E96F0008ED6F0008C7
:1001C000F16F0008F56F0008F96F0008FD6F000877
:1001D000017000080570000830B40024002907D021
:1001E0000B5D002B01D0641CFAE7A24200D2140080
:1001F000FF2C02D20470401C08E0FF230370401C57
:100200000470401C23001B0A0370401C0023A342FF
:1002100005D20D780570491C401C5B1CF7E730BC0B
:100220007047C01D704738B5DFF838550122694660
:10023000287E00F06BFE0400002C40D09DF80000EA
:10024000012810D0022811D0032812D0042813D07E
:10025000052814D0062815D0072816D07F2824D0CA
:10026000802815D022E000F089FA28E000F0F0FAAA
:1002700025E000F0F9FB22E000F0CEFB1FE000F0EB
:1002800001FB1CE000F097FD19E000F084FD16E092
:1002900001226946287E00F039FE0400002C03D0BC
:1002A0009DF8000000F028FD09E008E09DF800003E
:1002B000802804DB01226946287E00F027FE31BD3C
:1002C0002DE9FE4301208DF800000DF10100010031
:1002D000DFF890446269802A05D352F080030B70E6
:1002E000491CD209F7E70A704D1CDFF87C140E6830
:1002F000E768F71B2900B846B8F1800F06D358F01D
:1003000080000870491C5FEAD818F5E781F8008082
:1003100011F101096A46B9EB02026946607800F002
:10032000E7FE002804D0E6602178491E217002E033
:100330006169491C6161BDE8FE832DE9F84F050044
:100340000E001700DFF81CA49AF8000001280FD057
:100350009AF80000002800F0A9809AF8000002280E
:1003600006D1FFF7ADFF9AF80000012840F09E800B
:10037000202F05D2DAF81C00F840C00700F1968063
:10038000182F02D26D1E2F7065E0701B8046B8F1E9
:10039000800F08D3681E4146C9090170401E58F0FD
:1003A0008001017002E0681E80F800807F2F02D279
:1003B000451E2F704FE0B7F5804F08D2401E390020
:1003C000C9090170451E57F08000287043E0B7F559
:1003D000001F0ED2401E3900890B0170401E3900EB
:1003E000C90951F080010170451E57F08000287046
:1003F00031E0B7F1805F14D2401E3900490D017021
:10040000401E3900890B51F080010170401E3900F7
:10041000C90951F080010170451E57F08000287015
:1004200019E0401E3900090F0170401E3900490DC6
:1004300051F080010170401E3900890B51F080019C
:100440000170401E3900C90951F080010170451E3C
:1004500057F080002870DFF8100300688146DAF852
:100460000C00B9EB000000903000DDF800B0BBF1EB
:10047000800F06D35BF080010170401C5FEADB1B3C
:10048000F5E780F800B0401C0600721B29009AF8BE
:10049000010000F02DFE0400002C02D0CAF80C90E0
:1004A00004E09AF80000401C8AF800001821DFF8E8
:1004B000C4229AF8180048431044C06E9AF81830C5
:1004C00001FB03F11144096F401A00280BD09AF880
:1004D0000200002807D101208AF80200FFF7A3FEDE
:1004E00000208AF80200BDE8F18F2DE9F8430400EE
:1004F0000D0016001F00DFF86C82DFF84C96002319
:100500004FF48062DFF84416484600F063FD88F837
:10051000010098F8010088F81800002000900823D6
:10052000DFF82C26494698F8180000F09FFD0020BF
:10053000C8F81000DFF838020068C8F80C00C8F8E6
:100540002060C8F80440C8F80850C8F8247000209B
:1005500088F80000BDE8F183DFF8101208617047E9
:1005600070B50400EFF31186202080F31188DFF8C6
:100570000802FFF756FE0500220029002800FFF7B9
:10058000DCFE86F3118870BD2DE9F04704000D00F4
:10059000EFF31186202080F31188DFF8DC01FFF7EC
:1005A00040FE0700B8464046A946B9F1800F06D381
:1005B00059F080010170401C5FEAD919F5E780F815
:1005C000009010F1010A220051463800FFF7B5FEF5
:1005D00086F31188BDE8F0872DE9F84F04000D007F
:1005E0001600EFF31187202080F31188DFF88801CF
:1005F000FFF717FE8046404601002A00802A05D3F7
:1006000052F080030B70491CD209F7E70A7011F110
:1006100001094946B246BAF1800F06D35AF080006C
:100620000870491C5FEADA1AF5E781F800A011F1B9
:10063000010B220059464046FFF77FFE87F31188E1
:10064000BDE8F18F2DE9F14F0D0016001F00EFF30B
:100650001188202080F31188DFF81C01FFF7E1FDED
:1006600081464A4610002B00802B05D353F08001B1
:100670000170401CDB09F7E70370401C04003100E7
:10068000802905D351F080022270641CC909F7E764
:100690002170641C2200BA46BAF1800F06D35AF0CA
:1006A00080001070521C5FEADA1AF5E782F800A0A9
:1006B00012F1010B009A59464846FFF73EFE88F3B7
:1006C0001188BDE8F18F2DE9F34F81B015001E00B0
:1006D0000C9FEFF31188202080F31188DFF8980039
:1006E000FFF79FFD814648460100029B802B05D302
:1006F00053F080020A70491CDB09F7E70B704A1CB3
:1007000011002C00802C05D354F080000870491C87
:10071000E409F7E70C70481C03003100802905D379
:1007200051F080021A705B1CC909F7E719705C1C54
:100730002200BA46BAF1800F06D35AF0800010703A
:10074000521C5FEADA1AF5E782F800A012F1010BF9
:10075000019A59464846FFF7F0FD88F31188BDE835
:10076000F78F000090240020041000E09024002067
:10077000041000E05C1F0020781E00202DE9F843E3
:10078000DFF8F44601202070EFF31187202686F36E
:1007900011880A22DFF8E416607800F0A9FC87F3DC
:1007A00011880A20FFF7DCFEEFF3118586F311882C
:1007B000DFF85006FFF735FD0600300001006268E3
:1007C000802A05D352F080030B70491CD209F7E749
:1007D0000A70491C0B00A768802F05D357F08000D2
:1007E00018705B1CFF09F7E71F70581C0200236993
:1007F000802B05D353F080011170521CDB09F7E701
:100800001370571C39005FF00008B8F1800F06D351
:1008100058F080000870491C5FEAD818F5E781F8A5
:10082000008011F10109182249463000FFF785FDCB
:1008300085F31188606A002801D0606A804700F063
:1008400013F900F0E9F800F0B6FABDE8F183000012
:1008500070B5EFF31185202080F31188DFF8A4052F
:10086000FFF7DFFC0400DFF810663078002806D0C0
:100870000B2221002000FFF760FD0020307085F37F
:10088000118870BD2DE9F843EFF31184202080F327
:100890001188DFF87005FFF7C4FC0500280001008F
:1008A000DFF8D4657268802A05D352F080030B709C
:1008B000491CD209F7E70A70491C0B00B768802F62
:1008C00005D357F0800018705B1CFF09F7E71F7015
:1008D000581C02003369802B05D353F0800111703E
:1008E000521CDB09F7E71370571C39005FF0000852
:1008F000B8F1800F06D358F080000870491C5FEAF9
:10090000D818F5E781F8008011F10109182249464D
:100910002800FFF712FD84F31188706A002801D0C7
:10092000706A8047BDE8F1832DE9F84F0600EFF3C8
:100930001187202080F31188DFF8C804FFF771FCCD
:10094000804640460100DFF830953368D9F8102022
:100950009A1A802A05D352F080030B70491CD209E1
:10096000F7E70A704D1C2900D6F808A0BAF1800FED
:1009700006D35AF080000870491C5FEADA1AF5E7DE
:1009800081F800A04C1C202271682000FFF724FC95
:100990008346092259464046FFF7CFFC40460200F5
:1009A0003368D9F81010591A802905D351F0800303
:1009B0001370521CC909F7E71170521C1300F46838
:1009C000802C05D354F0800018705B1CE409F7E715
:1009D0001C70581C01003369802B05D353F0800232
:1009E0000A70491CDB09F7E70B704C1C210000253D
:1009F000802D05D355F080000870491CED09F7E7FC
:100A00000D7011F10109152249464046FFF795FC8A
:100A100087F31188BDE8F18F80B5DFF85C14086AB0
:100A2000002806D0086A4068002802D0086A40689A
:100A3000804701BDF8B50400EFF31187202080F353
:100A40001188DFF8C003FFF7ECFB060080222100CD
:100A50003000FFF7C1FB05000E2229003000FFF730
:100A60006CFC87F31188F1BD38B5DFF80C14086A07
:100A700000280ED0086A006800280AD0086A0068BA
:100A8000804704000D002A0021000D20FFF7A4FD7F
:100A900005E0DFF8EC0301680C20FFF775FD31BDC0
:100AA0002DE9F843EFF31184202080F31188DFF85B
:100AB0005403FFF7B6FB05002E00DFF8C803D0F89B
:100AC00000905FEAC9595FEAD9593000C846B8F1C9
:100AD000800F06D358F080010170401C5FEAD818DF
:100AE000F5E780F80080471C022239002800FFF754
:100AF00024FC84F31188BDE8F18338B5EFF3118548
:100B0000202080F31188DFF8FC02FFF78AFB040045
:100B1000032221002000FFF710FC85F3118831BD6E
:100B200038B5EFF31185202080F31188DFF8D40267
:100B3000FFF777FB0400122221002000FFF7FDFBE6
:100B400085F3118831BD00003C6E00087818002044
:100B50005C25002038B5EFF31185202080F3118843
:100B6000DFF8A002FFF75DFB040011222100200046
:100B7000FFF7E3FB85F3118831BD2DE9F84304004D
:100B8000EFF31185202080F31188DFF87802FFF75A
:100B900048FB06003700DFF8F0020069241A38002D
:100BA000A146B9F1800F06D359F080010170401CB5
:100BB0005FEAD919F5E780F8009010F101080822E2
:100BC00041463000FFF7B9FB85F31188BDE8F1839A
:100BD0002DE9F8430400EFF31185202080F31188FC
:100BE000DFF82002FFF71DFB06003700DFF8980250
:100BF0000069241A3800A146B9F1800F06D359F0D4
:100C000080010170401C5FEAD919F5E780F8009077
:100C100010F10108042241463000FFF78EFB85F3F6
:100C20001188BDE8F1832DE9F8430400EFF3118545
:100C3000202080F31188DFF8CC01FFF7F2FA0600DC
:100C40003700DFF844020069241A3800A146B9F1E0
:100C5000800F06D359F080010170401C5FEAD9195A
:100C6000F5E780F8009010F10108062241463000B7
:100C7000FFF763FB85F31188BDE8F1832DE9F047A9
:100C800007000C00EFF31185202080F31188DFF8B6
:100C90007401FFF7C6FA06003100DFF8EC010069C5
:100CA0003F1A08003A00802A05D352F080030370EF
:100CB000401CD209F7E7027010F101084046A14636
:100CC000B9F1800F06D359F080010170401C5FEA32
:100CD000D919F5E780F8009010F1010A0722514672
:100CE0003000FFF72AFB85F31188BDE8F087DFF8B5
:100CF00098110969401A70472DE9F84F0500DFF88F
:100D00008C110868002844D0086804000020060000
:100D10002800C0B2864204D22469002C01D0761C7F
:100D2000F6E7002C35D0EFF31187202080F31188EF
:100D30003448FFF776FA8046404601002A00D2B2D6
:100D4000802A05D352F080030B70491CD209F7E7C3
:100D50000A70491C00910099D4F80890B9F1800FED
:100D600006D359F080000870491C5FEAD919F5E7ED
:100D700081F8009011F1010A802221685046FFF7A6
:100D80002BFA8346162259464046FFF7D6FA87F3D8
:100D90001188BDE8F18F10B53C490868002809D0DA
:100DA00008680400E068002801D0E06880472469F2
:100DB000002CF7D110BD2DE9F041EFF31184202074
:100DC00080F311880F48FFF72CFA07003D00280038
:100DD0002F4991F80080B8F1800F06D358F08001B8
:100DE0000170401C5FEAD818F5E780F80080461CC7
:100DF0001B2231003800FFF7A0FA84F31188BDE808
:100E0000F0810000781E00202DE9F8430400EFF384
:100E10001185202080F311881E48FFF702FA060092
:100E2000802221003000FFF7D7F901000122802A3B
:100E300005D352F080030B70491CD209F7E70A7002
:100E40004F1C39005FF00008B8F1800F06D358F04E
:100E500080000870491C5FEAD818F5E781F8008027
:100E600011F101091A2249463000FFF766FA85F3AD
:100E70001188BDE8F183000090240020306E000846
:100E8000041000E004ED00E09024002098250020EC
:100E9000F7250020781E0020F8B5DFF84042A8258D
:100EA0000026270032002900380000F06BF90320EB
:100EB000206103206061DFF82802A061DFF82412BE
:100EC000E1614FF4806121620021A1620021616231
:100ED0000021E1622066DFF8100260661020A06643
:100EE000002020670020E06600206067BFF35F8F6E
:100EF0000020102807D2DFF8F41142421144C97BC8
:100F00002154401CF5E7BFF35F8FF1BD2DE9F14F90
:100F100084B00E001700DFF8C441A3469BF8000020
:100F2000002801D1FFF7B8FF04991820414304EBD2
:100F3000010010F16008B146D8F810A0D8F80C00F4
:100F4000019000240198504520D2D8F80800B0EB59
:100F50000A00B84201D2050000E03D00D8F80400C4
:100F600050440090039500980290CB46039A029952
:100F7000584600F04FF92C19A9447F1B15EB0A0ABB
:100F8000D8F80800824501D1002082460198B0EBD4
:100F90000A00B84201D2050000E03D00002D11D04A
:100FA000D8F8040050440090039500980290CB4676
:100FB000039A0299584600F02DF92C19A9447F1B79
:100FC00015EB0A0A002C01D0C8F810A0200005B0CB
:100FD000BDE8F08F2DE9F84305000E001700984694
:100FE000DFF8F840A14699F80000002801D1FFF78A
:100FF00053FFEFF31182202080F311880021182382
:1010000003FB01F02044C069002803D0491C20697B
:101010008142F4DB2069814220DA03FB01F02044A5
:10102000856103FB01F02044C66103FB01F020440D
:101030000762002003FB01FCA444CCF82800002038
:1010400003FB01FCA444CCF8240003FB01F304EBF4
:101050000300C0F82C80BFF35F8F02E05FF0FF3029
:10106000010082F311880800BDE8F2832DE9F84FF2
:1010700004000D0016001F00DDF82880DFF85CB0CA
:10108000DA469AF80000002801D1FFF705FF032C8B
:1010900020D2EFF31181202080F31188182000FB6B
:1010A00004F0584460308146002C0BD0C9F8005041
:1010B000C9F80460C9F808700020C9F810000020C1
:1010C000C9F80C00C9F81480BFF35F8F81F3118851
:1010D000002001E05FF0FF30BDE8F28F5C1F0020D0
:1010E000246E00087814002044250020B86D000804
:1010F000F0B400EB4003DFF8880000EBC30000F120
:1011000018063069F7687568874232D3B368DC1B0C
:10111000631E934214D37D19D019000011F8013BCE
:1011200005F8013B521E05D011F8013B05F8013BC3
:10113000521EF3D1BFF35F8FF0600120F0BC704707
:10114000C018904219D37819121B11F8013B00F80E
:10115000013B641EF9D1141C05D011F8013B05F8C0
:10116000013B521EF9D1BFF35F8FF4600120F0BC48
:101170007047C01B401E9042CDD20020F0BC70478B
:101180005C1F002062F30F2262F31F42401810F030
:10119000030308D0C91A1FD3DB0748BF00F8012D8D
:1011A00028BF20F8022D130030B41446154610391C
:1011B00028BF20E93C00FAD8490728BF20E90C00E5
:1011C00048BF40F8042D890028BF20F8022D48BFF1
:1011D00000F8012D30BC7047C91818BF00F8012D68
:1011E000CB0728BF00F8012D70470EE00268436866
:1011F000024408305FEAC37C44BF4B445B1E52F894
:1012000004CB43F804CB091FF9D150F8041B002983
:10121000ECD1704762B38B0708D0521E11F8013B26
:1012200000F8013B00F024808B07F6D1830740F0E3
:10123000208000BF103A07D330B4B1E83810103A1C
:10124000A0E83810F9D230BC530724BFB1E8081029
:10125000A0E8081044BF51F8043B40F8043BD20713
:1012600024BF31F8022B20F8022B44BF0B78037007
:101270007047121F17D35B0009D151F8043B20F8C7
:10128000023B1B0C121F20F8023BF6D20BE051F878
:10129000043B00F8013B1B0A20F8023B1B0C121F09
:1012A00000F8013BF3D238BF121D521E24BF11F8C3
:1012B000013B00F8013BF8D870470000826832F427
:1012C0007C120A4382607047826832F0E0720A43FF
:1012D00082607047806810F0E070704770B410F161
:1012E000600515EB81052E68DFF82844264012F0D2
:1012F000F84426431E4356F000462E6070BC7047EB
:10130000020012F1600010EB8100006810F0F8405C
:10131000704710B410F1600313EB81031C6824F0D4
:10132000004414431C6010BC704710B410F16003FB
:1013300013EB81031C6834F0807414431C6010BCF0
:10134000704710B410F1600313EB81031C6834F094
:10135000007414431C6010BC7047426922F00042C4
:101360000A4342617047C06810F4406F01D1012008
:1013700000E00020704770B410F130040B009B09AE
:1013800013F00C031C1925681F2611F01F039E4043
:10139000B543C2F3846611F01F039E4035432560B8
:1013A00070BC704770B410F114030C00E40D14F01D
:1013B0000404E3181C6807250E00360D16F01F06FE
:1013C000B540AC430D002D0D15F01F0512FA05F5C3
:1013D0002C431C6070BC704710B4DFF83C339A4259
:1013E00007D1D0F8B0404B035B0B1C43C0F8B040B2
:1013F00006E0D0F8B0404B035B0B9C43C0F8B04014
:1014000010BC7047806810F01F0070478268DFF8DA
:101410000C130A40826070478068400F10F0010092
:1014200070478268DFF8F8120A4052F080528260FA
:1014300070478068000F10F0010070478268DFF885
:10144000E0120A4052F0010282607047806810F09A
:10145000010070478268DFF8C8120A4052F00402A7
:10146000826070478068800810F0010070478068D3
:10147000C00810F0010070472DE9F84F04005FF03C
:10148000000900200090002C01D101203FE160699B
:10149000002802D094F824000128E06D002807D12C
:1014A000200000F05FFD00202066002084F8580036
:1014B0002068FFF7B1FF002802D02068FFF7A6FFE1
:1014C0002068FFF7B6FF002813D12068FFF7A9FFB7
:1014D000DFF850020068DFF85012B0FBF1F0401C5A
:1014E000400000900098002803D00098401E009013
:1014F000F8E72068FFF79DFF002809D1E06D50F064
:101500001000E065206E50F0010020660120814649
:101510002068FFF7A7FF0500E06DC00600F1EF802F
:10152000002D40F0EC80E06D30F4807050F002004F
:10153000E0652068FFF78AFF00283DD12068B0F100
:10154000A04F04D02068DFF81013884202D1DFF8E2
:101550000C0301E0DFF80803DFF800B358450AD1B7
:101560005FF0A040FFF772FF0600DFF8EC02FFF724
:101570006DFF06430EE0DFF8EC02FFF767FF0600A1
:10158000DFF8E402FFF762FF0643DFF8E002FFF74F
:101590005DFF0643002E0FD12068B0F1A04F04D0AC
:1015A0002068DFF8B412884200D101E0DFF8B0B261
:1015B00061685846FFF782FE607FE16B51EA403177
:1015C000E0680143A068014394F8240051EA004117
:1015D0008A4694F82400012803D1A06A401E5AEAE2
:1015E000404AE06A002807D0E06A10F4787050EAB8
:1015F0000A0A206B50EA0A0A2068C168DFF8700204
:1016000001405AEA01012068C1602068016931F097
:101610004061606B0143206801612068FFF722FF91
:1016200007002068FFF723FF804658EA07000028DC
:101630004CD1207F94F83810490051EA80318A4615
:101640002068C168DFF82C0201405AEA01012068D5
:10165000C1602069002810D02068006950F48030F3
:10166000216808612068D0F8C010890B89032069BF
:1016700001432068C0F8C0100DE02068006930F414
:101680008030216808612068D0F8C000800B80039A
:101690002168C1F8C00094F84000012810D12068EA
:1016A00001696FF38A01606C0143A06C0143E06C37
:1016B0000143206D014351F001012068016105E003
:1016C00020680069400840002168086160690128BD
:1016D00009D12068006B00090001216A491E0843F6
:1016E0002168086305E02068006B0009000121689B
:1016F00008630120E16D60F30101E16505E0E06D43
:1017000050F01000E065012081464846C0B2BDE8B7
:10171000F28F000000F0FF0300007F40C0FFFF5F7A
:10172000C0FFFF7F10000020400D03002DE9F041B5
:1017300005000E0017002868B0F1A04F03D02868FC
:101740004549884201D1454800E04548FFF75AFE27
:1017500004002868FFF786FE002876D195F8580027
:10176000012801D1022074E0012085F85800286882
:101770003E49884205D0002C03D0052C01D0092C0D
:101780005DD1280000F038FB80464046C0B20028FA
:1017900051D1E96D3848014051F48071E9652868FC
:1017A0002D49884202D15FF0A04006E028682E490A
:1017B000884201D12B4800E028682968884201D07E
:1017C000002C03D1E86D30F48010E865E86DC004AA
:1017D00004D5286E30F00600286601E00020286657
:1017E000DFF8D405696DC862DFF8D005696D08635C
:1017F000DFF8CC05696D48631C202968086000206B
:1018000085F858002868406850F010002968486042
:101810002868C06850F001002968C8603B003200A9
:10182000286810F14001686D00F088FC8046286847
:10183000FFF710FE0BE0002085F8580007E05FF08E
:101840000108002085F8580001E05FF002084046DA
:10185000C0B2BDE8F081000000010050000300505C
:101860000007005000040050000500500006005022
:101870000740F0FFFDBFFFFFFEF1FFFF2DE9F84F2E
:10188000804689465FF0000A00200090DFF844B5EA
:10189000D9F80C005845FFD198F85800012801D11B
:1018A000022086E2012088F85800D8F80000FFF7EF
:1018B000D9FD002840F07082D9F80020D9F8041032
:1018C000D8F80000FFF757FDD8F80000FFF7CAFD71
:1018D0000600D8F80000FFF7CAFD070057EA060027
:1018E000002840F00A81D9F80800B0F1004F0DD16E
:1018F0000022D9F80010D8F80000FFF753FD5FF080
:101900000041D8F80000FFF728FD0CE0D9F80820C6
:10191000D9F80010D8F80000FFF744FD0021D8F8EE
:101920000000FFF71AFDD9F81400D8F80010C968B4
:10193000C1F3C101490088400400D9F8100004280F
:101940001FD02300D9F80020D9F81010D8F80000D3
:10195000FFF7C4FCD9F81820D9F81010D8F8000007
:10196000FFF7E3FC99F81C00012802D15FF0007238
:1019700000E00022D9F81010D8F80000FFF7E1FCD1
:10198000BBE00021D8F80000FFF7BAFC400307D104
:101990000021D8F80000FFF7B3FCC0F3846008E032
:1019A0000021D8F80000FFF7ABFC90FAA0F0B0FAE5
:1019B00080F0D9F80010490304D1D9F80010C1F320
:1019C000846105E0D9F8001091FAA1F1B1FA81F132
:1019D000884205D100220021D8F80000FFF799FCC9
:1019E0000121D8F80000FFF78BFC400307D101214B
:1019F000D8F80000FFF784FCC0F3846008E0012100
:101A0000D8F80000FFF77CFC90FAA0F0B0FA80F064
:101A1000D9F80010490304D1D9F80010C1F384614A
:101A200005E0D9F8001091FAA1F1B1FA81F18842EC
:101A300005D100220121D8F80000FFF76AFC02213D
:101A4000D8F80000FFF75CFC400307D10221D8F86A
:101A50000000FFF755FCC0F3846008E00221D8F8CD
:101A60000000FFF74DFC90FAA0F0B0FA80F0D9F832
:101A70000010490304D1D9F80010C1F3846105E0D6
:101A8000D9F8001091FAA1F1B1FA81F1884205D19B
:101A900000220221D8F80000FFF73BFC0321D8F810
:101AA0000000FFF72DFC400307D10321D8F8000008
:101AB000FFF726FCC0F3846008E00321D8F800009B
:101AC000FFF71EFC90FAA0F0B0FA80F0D9F80010F1
:101AD000490304D1D9F80010C1F3846105E0D9F8B5
:101AE000001091FAA1F1B1FA81F1884205D10022EA
:101AF0000321D8F80000FFF70CFCD8F80000FFF72E
:101B0000A5FC002840F0A980D9F80C20D9F80010D5
:101B1000D8F80000FFF760FCD9F80C00584540F0F9
:101B20009C80D9F80000400304D1D9F80000C0F32C
:101B3000846005E0D9F8000090FAA0F0B0FA80F0D7
:101B4000401C10F01F000A283FD2D9F800004003C3
:101B500004D1D9F80000C0F3846105E0D9F8000091
:101B600090FAA0F0B0FA80F1D9F80000400304D157
:101B7000D9F80000C0F3846005E0D9F8000090FABD
:101B8000A0F0B0FA80F0D9F80020520304D1D9F8BF
:101B90000020C2F3846205E0D9F8002092FAA2F294
:101BA000B2FA82F2491C890611F0F8410123401C67
:101BB00010F01F0013FA00F00143521C12F01F0234
:101BC0000320424351EA025141E0D9F800004003AA
:101BD00004D1D9F80000C0F3846105E0D9F8000011
:101BE00090FAA0F0B0FA80F1D9F80000400304D1D7
:101BF000D9F80000C0F3846005E0D9F8000090FA3D
:101C0000A0F0B0FA80F0D9F80020520304D1D9F83E
:101C10000020C2F3846205E0D9F8002092FAA2F213
:101C2000B2FA82F2491C890611F0F8410123401CE6
:101C300010F01F0013FA00F00143521C12F01F02B3
:101C40000A3A0320424351EA025151F00071D9F897
:101C50000820D8F80000FFF7A5FBD9F80000DFF84E
:101C60007811084200F0A080D8F80000B0F1A04F31
:101C700005D0D8F80000DFF84C11884202D1DFF817
:101C8000480101E0DFF84401FFF724FB0500D9F823
:101C90000000DFF84811884205D0D9F80000DFF8CD
:101CA0004011884232D1280230D4D8F80000B0F177
:101CB000A04F05D0D8F80000DFF82811884273D172
:101CC000D8F80000B0F1A04F05D0D8F80000DFF838
:101CD000F410884202D1DFF8F00001E0DFF8EC00F8
:101CE00055F40001FFF7F0FADFF8FC000068DFF8B8
:101CF000FC10B0FBF1F1491C0C204143009100980D
:101D0000002851D00098401E0090F8E7D9F8000054
:101D1000DFF8DC10884220D1E8011ED4DFF8A400EF
:101D2000D8F80010814205D1D8F80010DFF8A020C3
:101D3000914239D0D8F80010B1F1A04F03D0D8F8B3
:101D40000010814202D1DFF8800001E0DFF87C0062
:101D500055F08071FFF7B8FA26E0D9F80000DFF8F7
:101D60009410884220D168021ED41648D8F800107A
:101D7000814219D0D8F80010B1F1A04F03D0D8F8A3
:101D80000010814201D1104801E0DFF8400055F415
:101D90008001FFF799FA07E0D8F85C0050F02000C6
:101DA000C8F85C0001208246002088F858005046A0
:101DB000C0B2BDE8F28F0000751E0008FB1E0008CF
:101DC000091F0008000100500003005000070050E8
:101DD0000005005000007F4000000880000021C383
:101DE0001000C0900006005010000020400D0300BD
:101DF000000052C7000084CB38B504002068FFF70C
:101E000025FB002834D1206880686FF39E100028DD
:101E100009D0E06D50F01000E065206E50F0010038
:101E20002066012025E02068FFF708FB00F0C4FAD7
:101E3000050020680068C0071AD42068FFF706FB79
:101E4000002802D12068FFF7F9FA00F0B5FA401B2C
:101E50000328EED320680068C007EAD4E06D50F094
:101E60001000E065206E50F001002066012000E0C7
:101E7000002032BD38B50400A56AE86D10F0500F9F
:101E80002FD1E86D50F40070E865286800680007FD
:101E900014D52868FFF767FA00281ED02868C068A4
:101EA00080041AD4E86D30F48070E865E86DC004F1
:101EB00013D4E86D50F00100E8650EE02868C068B2
:101EC00080070AD4E86D30F48070E865E86DC004DE
:101ED00003D4E86D50F00100E865280000F082FAB4
:101EE0000AE0E86DC00603D5280000F08FFA03E091
:101EF0002000696D496B884731BD38B50400A56A7B
:101F0000280000F05FFA31BD38B50400A56AE86D1D
:101F100050F04000E865286E50F004002866280064
:101F200000F074FA31BD000080B54648016851F0F8
:101F300001010160006810F0010000900098424823
:101F4000016851F080510160006810F080500090ED
:101F5000009800220F217FF0010000F0BAFA00F093
:101F600052FB01BD30B59BB004001421002201AD2D
:101F70002800FFF707F95421002206AD2800FFF7DB
:101F800001F920683149884248D15FF480300690D9
:101F90005FF00040189006A800F048FB002801D030
:101FA00000F04DFE2A48016851F48041016001684B
:101FB00011F4804100910099016851F00201016023
:101FC000006810F0020000900098022001900320A9
:101FD00002900020039001A91E4800F033FE1E4D20
:101FE0001E482860252068600020A8600020E86066
:101FF000802028614FF4807068614FF48060A86190
:102000002020E8614FF440502862280000F02AF8B0
:10201000002801D000F013FE6565AC621BB030BD36
:1020200081B001680E4A914209D107490A6852F00D
:1020300002020A60096811F002010091009901B0E2
:102040007047000060100240581002400004005029
:102050004C100240000400485022002008000240BA
:102060000004004038B50400002C01D1012064E0D8
:102070002068DFF81C1388420CD22168DFF81403B3
:1020800041181420B1FBF0F080006064DFF8080311
:1020900020640BE02168DFF8040341181420B1FB31
:1020A000F0F080006064DFF8F8022064022084F819
:1020B0002500206805686FF30E15A0680543E068E9
:1020C00005432069054360690543A0690543E0694C
:1020D0000543206A054320680560200000F028F9C8
:1020E000A068B0F5804F01D100206060207900F039
:1020F000FF00A16C0860206DE16C486060680028FA
:102100000CD06068052809D2200000F02FF90020CB
:10211000616D0860E06DA16D486005E000206065BC
:102120000020A0650020E0650020E063012084F825
:102130002500002084F82400002032BD2DE9F04164
:1021400004000D0016001F005FF0000894F8240042
:10215000012801D102204EE0012084F8240094F8E7
:102160002500012840D1022084F825000020E063EA
:102170002068006840084000216808603B00320089
:102180002900200000F0B2F8206B002806D020685B
:10219000006850F00E00216808600BE020680068BD
:1021A00030F00400216808602068006850F00A00E0
:1021B00021680860A06C0068C00305D5A06C0068A9
:1021C00050F48070A16C0860606D002805D0606DCF
:1021D000006850F48070616D08602068006850F0FD
:1021E00001002168086004E0002084F82400022037
:1021F00080464046C0B2BDE8F08170B50400206C56
:10220000056820680668042094F8441011F01F0146
:1022100010FA01F10D4219D0710717D5216809682C
:10222000890605D42168096831F00401226811602B
:1022300094F8441011F01F018840216C4860206B15
:10224000002852D02000216B88474EE0022094F8ED
:10225000441011F01F0110FA01F10D421FD0B10717
:102260001DD521680968890608D42168096831F0FC
:102270000A0122681160012184F8251094F84410A5
:1022800011F01F018840216C4860002084F8240070
:10229000E06A002829D02000E16A884725E008206C
:1022A00094F8441011F01F01884005421DD03007FA
:1022B0001BD52068006830F00E00216808600120FE
:1022C00094F8441011F01F018840216C48600120EF
:1022D000E063012084F82500002084F82400606B6E
:1022E000002802D02000616B884770BD30B4046DB7
:1022F000C56C6C60446D002C02D0C46D856D6C6043
:10230000012490F8445015F01F05AC40056C6C603A
:10231000046863608468102C04D10468A2600468B7
:10232000E16003E00468A1600468E26030BC7047CB
:1023300030B40168164A914201D21A4C00E01A4C9E
:102340002200017801F0FF0108391423B1FBF3F3F7
:10235000416C89088900891881641449C164012588
:1023600013F01F018D40056530BC7047017901F005
:10237000FF010F4A12EB810242650E4A826501227B
:1023800011F1FF0313F01F039A40C265704700006C
:1023900008040240F8FFFDBF00000240F8FBFDBF4B
:1023A0000004024000080240200802408008024069
:1023B000FC0802404009024001480068704700BF25
:1023C000A025002010B50400FEF76AFB0D4900208F
:1023D0000880002300220C48006800F066FEFEF72B
:1023E0008CFB10BD10B50400FEF75AFB0549012017
:1023F0000880002300220448006800F056FEFEF723
:102400007CFB10BDF42500209025002070470000C3
:1024100010B410F00703DFF8EC4022684FF6FF011C
:102420000A4052EA0322DFF8E0100A43226010BC9F
:10243000704734480068C0F302207047010049B279
:10244000002909D4012210F01F018A402F490300FE
:102450005BB25B0941F82320704710B4020052B20E
:10246000002A05D40A012A4B040064B21A5508E078
:102470000A01284B040064B214F00F04234403F84B
:10248000042C10BC704770B4030013F00704D4F19F
:102490000700052801D3042001E0D4F10700251D21
:1024A000072D01D2002500E0E51E012616FA00F0F6
:1024B000401E0140A94016FA05F56D1E2A40114341
:1024C000080070BC704710B504002000FFF7A0FFA3
:1024D00010BDF8B504000D001600FFF7AAFF0700B5
:1024E000320029003800FFF7CEFF0100200040B283
:1024F000FFF7B3FFF1BD10B50400200040B2FFF7B5
:102500009DFF10BD0CED00E00000FA0500E100E0C9
:1025100000E400E018ED00E010B40200002A32D11F
:10252000DFF8F000036813F4C063B3F5806F23D1C4
:10253000DFF8E4301C6834F480741C600123046804
:1025400063F34A240460DFF8D40003683220434375
:10255000DFF8CC00B3FBF0F0401C0100DFF8C40052
:1025600003685B0503D5002901D0491EF6E7006822
:10257000400545D5032044E0DFF89C00036833F4B0
:10258000807303603CE0B2F5007F32D1DFF8840055
:10259000036813F4C063B3F5806F23D1DFF878309C
:1025A0001C6854F480741C600123046863F34A249B
:1025B0000460DFF86800036832204343DFF86000FE
:1025C000B3FBF0F0401C0100DFF8580003685B0526
:1025D00003D5002901D0491EF6E7006840050FD554
:1025E00003200EE0DFF83000036853F480730360CB
:1025F00006E0DFF820000223046863F34A24046045
:10260000002010BC70470848016851F48041016007
:1026100070470000007000408070004010000020F3
:1026200040420F0014700040087000402DE9F84F40
:10263000050000275FF00008286800037AD55FF0E6
:102640000009DFF83CA3DAF80000C0000DD4DAF886
:10265000000050F08050CAF80000DAF8000010F0D6
:1026600080500090009801208146DFF818B3DBF815
:10267000000050F48070CBF80000FFF79DFE0600CC
:10268000DBF80000C00506D4FFF796FE801B032888
:10269000F6D3032007003800C0B200283FD1DFF88E
:1026A000E8B2DBF8000010F440700400002C15D0F4
:1026B000286D844212D0DBF8000030F44070040032
:1026C000DBF8000050F48030CBF80000DBF80000AD
:1026D00030F48030CBF80000CBF80040E0070FD595
:1026E000FFF76AFE0600DBF80000800708D4FFF75A
:1026F00063FE801B41F289318842F4D30320070036
:102700003800C0B2002808D1DBF8001031F4407165
:10271000286D0143CBF8001002E0B84600E0B8464F
:102720004846C0B2012805D1DAF8000030F08050E8
:10273000CAF800002878C00707D5DFF850120A68E9
:1027400092089200686802430A602878800707D5DB
:10275000DFF838120A6832F00C02A86802430A60F7
:102760002878400707D5DFF824120A6832F03002D3
:10277000E86802430A602878000707D5DFF80C12E2
:102780000A6832F0C002286902430A602878C0064D
:1027900007D5DFF8F8110A6832F44072686902431D
:1027A0000A602878800607D5DFF8E0110A6832F45D
:1027B0004062A86902430A602878400607D5DFF81E
:1027C000CC110A6832F44052E86902430A60287862
:1027D000000607D5DFF8B4110A6832F44042286ACF
:1027E00002430A602868C00507D5DFF8A0110A680F
:1027F00032F44032686A02430A602868800307D5D1
:10280000DFF88C110A6892089200A86A02430A60F5
:102810002868800507D5DFF874110A6832F4402271
:10282000E86A02430A602868400511D5DFF85C11A8
:102830000A6832F44012286B02430A60286BB0F534
:10284000801F05D1DFF84C01016851F4801101604F
:102850002868000511D5DFF834110A6832F4400207
:10286000686B02430A60686BB0F5800F05D1DFF832
:102870002401016851F4801101602868C00411D559
:10288000DFF808110A6832F04072A86B02430A6050
:10289000A86BB0F1807F05D1DFF8F800016851F432
:1028A000801101602868800411D5DFF8E0100A6803
:1028B00032F04062E86B02430A60E86BB0F1006FEF
:1028C00005D1DFF8D000016851F48011016028685B
:1028D000400411D5DFF8B4100A6832F04062286C69
:1028E00002430A60286CB0F1006F05D1DFF8A40044
:1028F000016851F4801101602868000411D5DFF8E7
:102900008C100A6832F04052686C02430A60686CAE
:10291000B0F1805F05D1DFF87C00016851F48031AF
:1029200001602868C00311D5DFF860100A6822F042
:102930004042A86C02430A60A86CB0F1804F05D1F8
:10294000DFF85000016851F48031016028684003CD
:1029500011D5DFF83C100A6832F44012E86C0243EB
:102960000A60E86CB0F5001F05D1DFF828000168A7
:1029700051F4801101604046C0B2BDE8F28F000002
:102980005810024000700040901002408810024031
:102990009C1002400C10024080B500F025FC00F0B5
:1029A0001EF800F033FC00F011F900F0F2F800F02E
:1029B00057F800F0B2F89348016851F00301016044
:1029C000914800F09EFC502290499148FEF7AEFEDF
:1029D00000F04CFF00F062FF00F096FFFEE718B534
:1029E00093B03821002205AC2000FEF7CBFB142168
:1029F00000226C462000FEF7C5FB0020FFF78CFD8F
:102A0000022005904FF48070089040200990022029
:102A10000C9002200D9004200E9055200F90022063
:102A20001090022011900220129005A800F070FF73
:102A3000002801D000F003F90F200090032001903E
:102A4000002002900020039000200490042168469A
:102A500001F0CDF9002801D000F0F1F814B010BD5C
:102A600018B58BB00C21002208AC2000FEF78AFBC1
:102A7000202100226C462000FEF784FB644C654850
:102A800020605FF4403060600020A0600020E060C3
:102A900000202061002060610420A06100202077D8
:102AA0000020607701202062002084F824004FF489
:102AB0009060E0624FF440602063012084F83800A9
:102AC0004FF48050E063002084F840002000FEF7BF
:102AD000D3FC002801D000F0B2F80020089008A92B
:102AE000200001F036FB002801D000F0A8F84A4889
:102AF000009006200190002002907F200390042087
:102B000004900020059069462000FEF7B7FE0028DB
:102B100001D000F094F80CB010BD18B587B01021AA
:102B2000002203AC2000FEF72DFB0C2100226C4696
:102B30002000FEF727FB344C3848206000206060FE
:102B40000020A06044F26720E060002020610020A7
:102B5000A061200000F098FB002801D000F06FF881
:102B60004FF48050039003A9200000F031FD0028AD
:102B700001D000F064F82020009000200290694607
:102B8000200001F0B7FB002801D000F058F808B091
:102B900010BD80B52248016851F004010160016850
:102BA00011F0040100910099016851F001010160E8
:102BB000006810F0010000900098002205210B2011
:102BC000FFF787FC0B20FFF796FC01BD10B586B020
:102BD0001421002201AC2000FEF7D4FA114801684C
:102BE00051F002010160006810F0020000900098AE
:102BF000022001900320029001A90B4800F022F866
:102C000006B010BD082004E0B823002004200020F6
:102C1000E4210020000400500200300400040040C1
:102C2000481002404C1002400004004810B5040057
:102C30002068B0F1804F01D101F0CCFB10BD72B61D
:102C4000FEE70000F8B4030000250868E84000280B
:102C500000F0CB8001260F6816FA05F007403A0015
:102C6000002A00F0C080087910F00300012804D089
:102C7000087910F00300022819D19F685FF0030C57
:102C800068001CFA00FC37EA0C07D1F80CC0680099
:102C90001CFA00FC5CEA07079F605868AE40B0432E
:102CA0004E68C6F30016AE40304304005C600879FD
:102CB00010F0030003280AD0DE680327680087406D
:102CC000BE438F68680087403E433400DC6008796B
:102CD00010F00300022816D12800C00803EB800082
:102CE000006A0F26AF0017F01C07BE40B0430E6904
:102CF000AF0017F01C07BE40304304002800C00896
:102D000003EB800004621E68032768008740BE430F
:102D10000F7917F00307680087403E4334001C60BA
:102D2000486810F4403F5ED03748066856F0010608
:102D30000660006810F0010000900098334E2800F3
:102D4000800856F820000F275FEA850C1CF00C0C59
:102D500017FA0CF7B843B3F1904F01D1002419E0F2
:102D60002B4CA34201D1012414E02A4CA34201D1EF
:102D700002240FE0284CA34201D103240AE0274C8F
:102D8000A34201D1042405E0254CA34201D105242E
:102D900000E00624AF0017F00C07BC4020432C00D5
:102DA000A40846F824001F4E346894434F68FF027D
:102DB00000D5144334601C4E306890434F68BF0206
:102DC00000D510433060194C266896434F68BF0306
:102DD00000D5164326601648046894434F68FF03E5
:102DE00000D5144304606D1C2FE7F1BC704713003D
:102DF000DBB2002B03D00B009BB2836102E00B001F
:102E00009BB28362704700006010024008000140DE
:102E10000004004800080048000C0048001000486A
:102E200000140048080401400C040140040401405F
:102E30000004014010B4020052B2002A06D40A0174
:102E4000DFF8A031040064B21A5509E00A01DFF886
:102E50009831040064B214F00F04234403F8042CE6
:102E600010BC704780B5DFF88401006801F094FF62
:102E7000012801D002F022F901BD80B500217FF0C8
:102E80000400FFF7D7FF01BDEFF30580002802D053
:102E90007FF005000AE0DFF858110868002803D128
:102EA00001200860002001E05FF0FF30704710B59E
:102EB000EFF30580002802D07FF005000EE0DFF878
:102EC00030412068012807D1FFF7D7FF022020609A
:102ED00001F012FC002001E05FF0FF3010BD2DE991
:102EE000FF4707008846140000200390EFF3058099
:102EF000002862D1380000285FD080208246182048
:102F00000500002081465FF0FF300600002C33D022
:102F10002068002801D020688146A069002801D0DF
:102F2000A0690500002D04D0392D02D22079C007F8
:102F300001D5002042E06069002802D06069800865
:102F40008246A06800280BD0E0685C2808D320697E
:102F5000002805D06069002802D0012006000DE09D
:102F6000A06800280AD1E068002807D1206900285D
:102F700004D10020060001E000200600012E0CD143
:102F8000A068029020690190009543465246494648
:102F9000380001F02BFA03900FE0002E0DD103A8AA
:102FA000019000954346524692B24946380001F0DE
:102FB0006AFA012801D000200390039804B0BDE80C
:102FC000F08738B50400EFF30580002802D07FF0C9
:102FD000050505E00025002C02D0200001F061FB72
:102FE000280032BD00E400E018ED00E010E000E051
:102FF000642500202DE9F84305000E0014005FF061
:103000000008EFF3058000284CD1002D4AD0002E97
:1030100048D05FF0FF300700002C1FD0A0680028C8
:103020000DD0E06850280AD32069002807D06069D5
:1030300006FB05F1884202D30120070010E0A068DA
:1030400000280DD1E06800280AD12069002807D1A6
:103050006069002804D10020070001E0002007007B
:10306000012F09D100200090A368226931002800B7
:1030700002F0CAF8804607E0002F05D10022310097
:10308000280002F022F98046B8F1000F0AD0002C87
:1030900002D02068814601E0002081464946404632
:1030A00002F0EEFC4046BDE8F2832DE9F84307004C
:1030B0000C0090461D003E005FF00009EFF3058014
:1030C000002825D0002E03D0002C01D0002D03D0E5
:1030D0007FF00300814634E00020009000236A4620
:1030E0002100300002F033FA012803D07FF0020003
:1030F000814626E00098002807D0FDF711FD5FF01B
:103100008050DFF8E01008601BE0FDF7F6FC18E0E7
:10311000002E01D0002C03D17FF00300814610E087
:1031200000232A002100300002F01AF9012808D0FB
:10313000002D03D07FF00100814602E07FF0020005
:1031400081464846BDE8F2832DE9F84307000C00AC
:1031500090461D003E005FF00009EFF30580002857
:1031600024D0002E03D0002C01D0002D03D07FF0FE
:103170000300814632E0002000906A4621003000C2
:1031800002F04CFB012803D07FF00200814625E0CD
:103190000098002807D0FDF7C3FC5FF08050DFF8EF
:1031A000441008601AE0FDF7A8FC17E0002E01D0DB
:1031B000002C03D17FF0030081460FE02A0021009C
:1031C000300002F046FA012808D0002D03D07FF02D
:1031D0000100814602E07FF0020081464846BDE8DA
:1031E000F283000004ED00E010B500240320FFF797
:1031F0006AF90F2002F088FC002802D001200400A8
:1032000001E0FEF791FE2000C0B210BD10B586B0FF
:103210001948016851F004010160006810F00400D1
:10322000009000981421002201AC2000FDF7AAFFB5
:103230001248008801900120029000200390002095
:10324000049001A90E480068FFF7FCFC002000F084
:1032500007F806B010BD0B480168491C01607047B3
:1032600010B504002200D2B2044801880448006866
:10327000FFF7BDFD10BD00004C10024014000020FF
:10328000000000206825002010B50400002C01D1AA
:10329000012035E094F83D00002805D1002084F895
:1032A0003C002000FEF7BCFE022084F83D00211DFA
:1032B000206800F01DFA012084F84800012084F8FD
:1032C0003E00012084F83F00012084F840000120E6
:1032D00084F84100012084F84200012084F8430072
:1032E000012084F84400012084F84500012084F87E
:1032F0004600012084F84700012084F83D000020AA
:1033000010BD010091F83D00012801D0012048E0E6
:10331000022081F83D000868C06850F001000B6889
:10332000D8600868DFF87C30984221D00868B0F196
:10333000804F1DD00868DFF87030984218D00868B8
:10334000DFF86830984213D00868DFF8643098429C
:103350000ED00868DFF85C30984209D00868DFF8C2
:103360005830984204D00868DFF85030984211D1A4
:1033700008688368DFF8480003401A00062A0FD067
:10338000B2F5803F0CD00868006850F001000B686F
:10339000186005E00868006850F001000B681860CC
:1033A00000207047002C014000040040000800404D
:1033B000000C00400034014000400140005001403A
:1033C0000700010010B504002068006980071AD5C5
:1033D0002068C068800716D57FF002002168086168
:1033E000012020772068806910F0030F03D02000AF
:1033F00002F0E6FB05E0200002F0E3FB200002F013
:10340000E1FB002020772068006940071AD520687A
:10341000C068400716D57FF00400216808610220CB
:1034200020772068806910F4407F03D0200002F0EC
:10343000C7FB05E0200002F0C4FB200002F0C2FB45
:10344000002020772068006900071AD52068C0682E
:10345000000716D57FF00800216808610420207756
:103460002068C06910F0030F03D0200002F0A8FB11
:1034700005E0200002F0A5FB200002F0A3FB0020E5
:10348000207720680069C0061AD52068C068C00689
:1034900016D57FF010002168086108202077206889
:1034A000C06910F4407F03D0200002F089FB05E0E2
:1034B000200002F086FB200002F084FB0020207731
:1034C00020680069C0070AD52068C068C00706D513
:1034D0007FF00100216808612000FFF7A7FB20684A
:1034E000006900060AD52068C068000606D57FF08E
:1034F000800021680861200002F065FB20680069F7
:10350000C0050AD52068C068000606D57FF4807023
:1035100021680861200002F057FB2068006940061E
:103520000AD52068C068400606D57FF040002168B3
:103530000861200002F049FB2068006980060AD576
:103540002068C068800606D57FF0200021680861E9
:10355000200002F03BFB20680069C0020AD5206809
:10356000C068C00206D57FF4801021680861200081
:1035700002F02DFB2068006980020AD52068C0682F
:10358000800206D57FF4001021680861200002F057
:103590001FFB2068006940020AD52068C06840020D
:1035A00006D57FF4800021680861200002F011FB3D
:1035B0002068006900020AD52068C068000206D5AC
:1035C0007FF4000021680861200002F003FB10BDB9
:1035D000F8B504000D00002694F83C00012801D144
:1035E000022083E0012084F83C00022084F83D00A2
:1035F00020688768DFF83C02074037F47F4720687F
:1036000087602868002862D0103860D010385ED0FB
:1036100010385CD0103850D010383AD0103842D022
:1036200010381BD04FF47961401A16D04FF48051F6
:10363000401A21D05FF47E21401A48D0103846D07D
:10364000103844D0103842D0103840D010383ED016
:1036500010383CD010383AD03EE03FE0EB686A6862
:10366000A968206800F0EEF82068806850F07700C4
:1036700007002068876031E0EB686A68A968206805
:1036800000F0E0F82068806850F48040216888608D
:1036900024E0EA686968206800F09EF850212068FC
:1036A00000F0BFF81AE0EA686968206800F0A6F840
:1036B0006021206800F0B5F810E0EA6869682068C9
:1036C00000F08AF84021206800F0ABF806E0296895
:1036D000206800F0A6F801E001200600012084F82F
:1036E0003D00002084F83C003000C0B2F2BD000074
:1036F00010B40468314B984216D0B0F1804F13D00B
:10370000DFF8BC2090420FD0DFF82C2190420BD084
:10371000DFF82821904207D0DFF8A820904203D09C
:10372000DFF8B020904203D134F070044A681443AB
:1037300098421ED0B0F1804F1BD0DFF88420904219
:1037400017D0DFF8F420904213D0DFF8F020904239
:103750000FD01C4A90420CD01B4A904209D01B4A01
:10376000904206D01A4A904203D0DFF86820904277
:1037700003D134F44074CA68144334F080044A69B5
:10378000144304608A68C2620A68826298420FD059
:103790000C4A90420CD00C4A904209D00B4A9042FD
:1037A00006D00B4A904203D0DFF82820904201D186
:1037B0000A6902630122426110BC7047002C01407B
:1037C000000400400034014000400140004401403A
:1037D000004801400050014010B4046A036A5B08CD
:1037E0005B000362836933F0F00353EA021334F0A1
:1037F0000A040C438361046210BC704710B4036A6E
:1038000033F0100303628369046A33F4704353EAAC
:10381000023334F0A00454EA01148361046210BC42
:1038200070478368064A13400B4353F007038360D5
:103830007047000088FFCEFF00080040000C0040E9
:103840008FFFCFFF10B4846834F47F440C431443DB
:1038500054EA0324846010BC7047000080B50A4815
:10386000FDF7E8F80948FDF7E5F801BD80B508481F
:10387000084B094A01680068FCF737FE5FF080508A
:10388000FCF76AFE01BD0000746B0008AC6C000818
:10389000100000205D3800084C6E000880B5FFF76E
:1038A000F3FA0E4A02210120FFF7A4FB0C4908603D
:1038B0000C4A00210C48FFF712FB0C4908600C4A27
:1038C00000210C48FFF70BFB0B4908600B4A002155
:1038D0000B48FFF704FB0B49086001BD746D00083D
:1038E00090250020F86B0008596D00088425002001
:1038F0001C6C0008916A000888250020406C0008B4
:10390000CD6C00088C25002080B5FFF7D0FA01BDF2
:103910002DE9FC470400002C01D1012065E220784C
:10392000C00760D5DFF8D407006810F00C0006006F
:10393000DFF8D807006810F0030007000C2E01D153
:10394000032F01D0082E09D1DFF8A80700688003F3
:1039500049D56068002846D1012046E26068B0F58C
:10396000803F06D1DFF88C07016851F48031016097
:1039700018E06068B0F5A02F0AD1DFF87807016879
:1039800051F480210160016851F48031016009E047
:10399000DFF86007016831F480310160016831F4BB
:1039A00080210160606800280ED0FEF705FD05004B
:1039B000DFF840070068800315D4FEF7FDFC401BCC
:1039C0006528F5D3032010E2FEF7F6FC0500DFF8CA
:1039D00024070068800306D5FEF7EEFC401B65282F
:1039E000F5D3032001E22078800766D5DFF80C07C5
:1039F000006810F00C000600DFF81007006810F0F7
:103A0000030007000C2E01D1022F01D0042E1BD180
:103A1000DFF8E0060068400504D5E068002801D121
:103A20000120E2E1DFF8D006016831F0FE412269B1
:103A300051EA02610160DFF8D006006802F064F824
:103A400000283AD00120D0E1E06800281FD0DFF83C
:103A5000A486D8F8000050F48070C8F80000FEF783
:103A6000ABFC0500D8F80000400506D4FEF7A4FC26
:103A7000401B0328F6D30320B7E1DFF87C0601687A
:103A800031F0FE41226951EA0261016015E0DFF880
:103A90006486D8F8000030F48070C8F80000FEF7A3
:103AA0008BFC0500D8F80000400506D5FEF784FC25
:103AB000401B0328F6D3032097E1207800072ED57A
:103AC0006069002815D0DFF84886D8F8000050F06B
:103AD0000100C8F80000FEF76FFC0500D8F80000F0
:103AE00080071CD4FEF768FC401B0328F6D3032094
:103AF0007BE1DFF81C86D8F8000040084000C8F8D9
:103B00000000FEF759FC0500D8F80000800706D534
:103B1000FEF752FC401B0328F6D3032065E1207812
:103B2000400740F181805FF00008DFF8E895D9F8A0
:103B30000000C0000DD4D9F8000050F08050C9F842
:103B40000000D9F8000010F080500090009801208B
:103B50008046DFF8C4A5DAF80000C00513D4DAF80F
:103B6000000050F48070CAF80000FEF725FC050044
:103B7000DAF80000C00506D4FEF71EFC401B03283F
:103B8000F6D3032031E1A068012806D1DFF88C05C7
:103B9000016851F00101016017E0A06805280AD111
:103BA000DFF87805016851F004010160016851F007
:103BB0000101016009E0DFF8640501684908490076
:103BC0000160016831F004010160A068002810D094
:103BD000FEF7F2FB0500DFF844050068800719D402
:103BE000FEF7EAFB401B41F289318842F3D3032000
:103BF000FBE0FEF7E1FB0500DFF820050068800729
:103C000008D5FEF7D9FB401B41F289318842F3D336
:103C10000320EAE04046C0B2012805D1D9F80000EF
:103C200030F08050C9F80000207880062ED5A069B9
:103C3000002815D0DFF8E884D8F8000050F0010023
:103C4000C8F80000FEF7B8FB0500D8F800008007B0
:103C50001CD4FEF7B1FB401B0328F6D30320C4E0BD
:103C6000DFF8BC84D8F8000040084000C8F8000025
:103C7000FEF7A2FB0500D8F80000800706D5FEF786
:103C80009BFB401B0328F6D30320AEE0E06900282D
:103C900000F0AA80DFF86404006810F00C000C2823
:103CA0006FD0E06902284BD1DFF84894D9F80000C2
:103CB00030F08070C9F80000FEF77EFB8046D9F82E
:103CC0000000800107D5FEF777FBB0EB0800032862
:103CD000F5D3032089E0DFF834140A68DFF84404E0
:103CE0000240206A0243606A401E52EA0012A06A43
:103CF00052EA0022206B4008401E52EA4052606B9C
:103D00004008401E52EA4062E06A52EAC0620A601D
:103D1000D9F8000050F08070C9F80000086850F031
:103D200080700860FEF748FB0500D9F800008001AC
:103D30005AD4FEF741FB401B0328F6D3032054E07E
:103D4000DFF8B083D8F8000030F08070C8F80000C9
:103D5000DFF8B81308688008800008600A68DFF898
:103D6000C80302400A60FEF727FB0500D8F80000F0
:103D7000800139D5FEF720FB401B0328F6D3032032
:103D800033E0E069012801D101202EE0DFF87C0357
:103D90000068070017F00300216A884222D117F05B
:103DA000F000616A491EB0EB011F1BD117F4FE4001
:103DB000A16AB0EB012F15D117F07840E16AB0EBA2
:103DC000C16F0FD117F4C000216B4908491EB0EB39
:103DD000415F07D117F0C060616B4908491EB0EB25
:103DE000416F01D0012000E00020BDE8F6872DE9F9
:103DF000F04704000D005FF00008002C01D1012005
:103E0000EAE0DFF82893D9F8000010F00F00A8428C
:103E10000ED2D9F80000000900012843C9F80000BB
:103E2000D9F8000010F00F00A84201D00120D3E023
:103E30002078C00763D56068032821D1DFF8B40279
:103E40000068800101D40120C6E000F02FF90700CE
:103E5000DFF8DC02874234D3DFF8A012086810F0E4
:103E6000F00F05D0207880072BD5A068002828D136
:103E700008200A6860F307120A608020804620E06C
:103E80006068022806D1DFF86C020068800308D45D
:103E90000120A1E0DFF85C020068400501D40120A8
:103EA0009AE000F09BF80700DFF88402874208D30D
:103EB000DFF848020821026861F3071202608020DF
:103EC0008046DFF838A2DAF80010890889006068B7
:103ED0000143CAF80010FEF76FFA0600DAF8000096
:103EE00010F00C006168B0EB810F08D0FEF764FAA7
:103EF000801B41F289318842F0D303206CE02078A6
:103F000080071BD52078400705D5DFF8F001016850
:103F100051F4E06101602078000706D5DFF8DC018C
:103F20000721026861F30D220260DFF8D0110A68F0
:103F300032F0F002A06802430A6008E0B8F1800F96
:103F400005D1DFF8B801016831F0F0010160D9F85E
:103F5000000010F00F00854218D2D9F800000009C7
:103F600000012843C9F80000FEF726FA0600D9F838
:103F7000000010F00F00A84208D0FEF71DFA801BC9
:103F800041F289318842F2D3032025E020784007AE
:103F900006D55A490A6832F4E062E06802430A60D2
:103FA0002078000707D55548016831F4605122692F
:103FB00051EAC201016000F011F85E494F4A1268EF
:103FC000C2F30312895C11F01F01C8404D4908601B
:103FD0004D48006801F098FDBDE8F08770B447488F
:103FE000056815F00C05042D01D1454832E005683F
:103FF00015F00C05082D01D14F482BE0006810F09A
:104000000C000C2825D1414D286810F00300020057
:104010002868C0F30310401C0400032A08D1464856
:10402000B0FBF4F62868C0F306204643310007E0F1
:104030003348B0FBF4F62868C0F30620464331004D
:104040002868C0F34160401C40000300B1FBF3F05E
:1040500000E0002070BC70472A480068704780B5B7
:10406000FFF7FAFF3549254A1268C2F30222895C3C
:1040700011F01F01C84002BD0F2202601F4A1368E1
:1040800013F003034360136813F0F00383601368B5
:1040900013F4E063C3601268D20812F4E0620261B4
:1040A000224A126812F00F020A60704710B4174AD1
:1040B000146814F003041068C0F303135B1C032C92
:1040C00007D11D48B0FBF3F11068C0F3062041434F
:1040D00006E00B48B0FBF3F11068C0F30620414343
:1040E0001068C0F34162521C5200B1FBF2F010BCE8
:1040F0007047000000100240041002400810024007
:104100000024F40010000020080000200C100240E1
:10411000941002405810024000700040901002407D
:10412000981002400C809F01FFFFEEFE002002402D
:1041300001B4C404DC6D000800366E01546E000842
:10414000806810F0010070478068800810F001005E
:1041500070472DE9F0439BB006000F005FF00008A8
:104160003868002896F85800012801D10220AEE0F6
:10417000012086F858000020179000201890306821
:10418000B0F1A04F02D15648009008E0306857497E
:10419000884202D15148009001E000200090009830
:1041A000002808D1F06D50F02000F065002086F85E
:1041B000580001208BE00098FFF7C6FF8146306869
:1041C000FFF7C2FF59EA0000002875D13068B0F14E
:1041D000A04F03D030684249884201D1414D00E0F0
:1041E0003D4D3868002838D0A96831F460417868BE
:1041F000014396F8380051EA4031A9603068B0F1C7
:10420000A04F03D030683649884201D1354800E0DC
:1042100031483449884209D15FF0A040FFF790FF50
:1042200004002F48FFF78CFF04430BE02F48FFF7F3
:1042300087FF04002948FFF783FF04432A48FFF75C
:104240007FFF0443002C3DD1A9682948014038680C
:104250000143B8680143A96034E0A86830F46040C5
:10426000A8603068B0F1A04F03D030681C49884284
:1042700001D11C4800E018481A49884209D15FF072
:10428000A040FFF75DFF04001548FFF759FF044306
:104290000BE01648FFF754FF04001048FFF750FFEB
:1042A00004431148FFF74CFF0443002C0AD1A968CE
:1042B0000F480140A96005E0F06D50F02000F06566
:1042C00001208046002086F858004046C0B21BB04E
:1042D000BDE8F0830000000000070050000500501A
:1042E0000001005000030050000600500004005080
:1042F000E0F0FFFF70B4020092F83C00012801D109
:10430000022055E0012082F83C00022082F83D00A6
:104310001068436810688468DFF898501068A842F5
:1043200009D01068DFF89060B04204D01068DFF860
:104330008C60B04203D133F4700348680343DFF864
:104340008000034008680343106843601068A84277
:1043500021D01068B0F1804F1DD01068DFF8645094
:10436000A84218D01068DFF86050A84213D0106837
:10437000DFF85850A8420ED01068DFF83C50A84231
:1043800009D01068DFF84850A84204D01068DFF860
:104390002C50A84205D134F080048868044310688A
:1043A0008460012082F83D00002082F83C0000205B
:1043B00070BC7047002C01400034014000500140A7
:1043C0008FFFFFFD0004004000080040000C00408B
:1043D0000040014003490A680348006882180A60E7
:1043E000704700BFA02500200C0000202DE9F847F1
:1043F00085B006000F00904699460F9C109D002C3A
:1044000007D1502080F31188BFF34F8FBFF36F8F18
:10441000FEE7002D07D1502080F31188BFF34F8FA6
:10442000BFF36F8FFEE75C20009000985C2807D0F8
:10443000502080F31188BFF34F8FBFF36F8FFEE7DB
:104440000098002D19D0002C17D0AA46CAF8304089
:1044500002208AF8590000200390CDF808A004A893
:1044600001900E9800904B4642463900300000F013
:1044700043F8504600F0B3F801E00020049004989F
:1044800006B0BDE8F0872DE9F84384B006000F00C0
:1044900090469946404680B2800001F09DFB0500A1
:1044A000002D0BD05C2001F097FB0400002C01D004
:1044B000256304E0280001F023FC00E00024002C28
:1044C00015D0002084F859000020039002940D9824
:1044D00001900C9800904B46424692B23900300051
:1044E00000F00AF8200000F07AF8012001E05FF007
:1044F000FF3005B0BDE8F0832DE9F94F81B00C0025
:1045000016000C9F0D9DDDF83880B00000905FF024
:10451000A50BD8F830A05A4600995046FCF732FE59
:10452000D8F8300000EB8600B0F1040A5FEADA0A3E
:104530005FEACA0A1AF00700002807D0502080F36B
:104540001188BFF34F8FBFF36F8FFEE7002C15D09C
:1045500000208146B9F1100F0CD214F8090008EBC5
:10456000090181F8340014F80900002802D019F17B
:104570000109EFE7002088F8430002E0002088F8F6
:104580003400382F01D337200700C8F82C70C8F842
:104590004C700020C8F8500018F1040001F06FFCC6
:1045A00018F1180001F06BFCC8F81080D7F1380042
:1045B000C8F81800C8F824800020C8F8540000206B
:1045C00088F85800029A0199504600F0B7FCC8F8E4
:1045D0000000002D01D0C5F80080BDE8F78F38B588
:1045E000040000F03BFDDFF8D4120868401C0860AE
:1045F000DFF8CC522868002806D12C600868012812
:104600000DD100F02FFB0AE0DFF8C8030068002896
:1046100005D1E06A2968C96A884200D32C60DFF8B6
:10462000B8030168491C016000686064002C0DD06B
:104630002000FCF7A2FA2168206B091A0091236B75
:10464000E26A14F13401200001F091FC2000FCF733
:10465000EAFADFF888030168E26A914201D2E16A6E
:104660000160211DDFF87823E36A1420434302EB45
:10467000030001F007FC00F00BFDDFF858030068B1
:1046800000280DD02868C06AE16A884208D25FF02D
:104690008050DFF864140860BFF34F8FBFF36F8F53
:1046A00031BD38B505000024002D19D0DFF8FC031A
:1046B0000068002807D0502080F31188BFF34F8F87
:1046C000BFF36F8FFEE700F074F829002320FBF79B
:1046D0005BFF0021280000F0D3FB00F070F804001D
:1046E000002C08D15FF08050DFF80C140860BFF395
:1046F0004F8FBFF36F8F31BD70B586B0002004902F
:104700000020039005AA03A904A801F093FCDFF898
:10471000AC56DFF8AC460498029003980190002054
:1047200000900023059A21000FF21550FFF75EFE5E
:1047300028602868002801D0012500E00025012D0F
:1047400002D101F083FC0500012D25D1502080F31A
:104750001188BFF34F8FBFF36F8F5FF0FF30DFF82B
:10476000641608600120DFF86C1208600020DFF892
:104770008C130860524E052221003068343001F05D
:10478000C5FE002803D03068FCF722FA01E0FCF7F0
:10479000E1F900F0FCFB0AE015F1010F07D1502010
:1047A00080F31188BFF34F8FBFF36F8FFEE706B022
:1047B00070BDDFF8F8020168491C01607047F8B568
:1047C00000250026DFF8E4422068002807D15020A9
:1047D00080F31188BFF34F8FBFF36F8FFEE700F0B8
:1047E0003DFC2068401E20602068002856D13348D8
:1047F0000068002852D0DFF8C0150868002827D0CC
:10480000C868C068050015F1180001F062FB281D9A
:1048100001F05FFB2800FCF706FA70480168EA6ABD
:10482000914201D2E96A0160291D6D4AEB6A1420A8
:10483000434302EB030001F025FBE86A20490968C5
:10484000C96A8842D7D30120DFF818160860D2E77A
:10485000002D01D000F08DFADFF80C763C68002CBA
:104860000CD000F02FF8002803D00120DFF8F41559
:104870000860641E002CF4D100203860DFF8E405E5
:10488000006800280AD0012006005FF08050DFF8A1
:1048900068120860BFF34F8FBFF36F8F00F0F8FB13
:1048A0003000F2BDDFF854020068704780B500F0B8
:1048B00021FC0021DFF84402006802BDB42500207D
:1048C000A42500202DE9F041002778480068002841
:1048D00078D18A480468641C0460002C1CD1DFF87D
:1048E000AC1208680068002807D0502080F31188B7
:1048F000BFF34F8FBFF36F8FFEE7D1F80080DFF873
:10490000900202680A60C0F80080DFF86005016864
:10491000491C016000F02DFADFF8A884D8F80000E7
:1049200084423BD3994908680068002804D15FF0AD
:10493000FF30C8F8000031E00868C068C0680500B2
:1049400068680600B44202D2C8F8006026E0281D5C
:1049500001F0BFFAA86A002803D015F1180001F091
:10496000B8FA2800FCF75FF91C480168EA6A91422E
:1049700001D2E96A0160291D194AEB6A14204343F8
:1049800002EB030001F07EFAE86ADFF8E41409683C
:10499000C96A8842C6D301200700C3E7DFF8D00404
:1049A00000680F49C26A142042438858022801D384
:1049B00001200700DFF8AC040068002807D00120C0
:1049C000070004E0DFF8A0040168491C016038001A
:1049D000BDE8F081C0250020D0250020BC250020A6
:1049E000180C002010B531480068002804D00120C0
:1049F000DFF8701408603EE00020DFF868140860FB
:104A0000DFF8702410681423DFF86C4403FB00F116
:104A1000615800290BD1002807D1502181F311885A
:104A2000BFF34F8FBFF36F8FFEE7401EEBE703FB33
:104A300000F304EB03014B685B684B604B6811F1BA
:104A40000804A34202D14B685B684B60DFF8204446
:104A50004968C968216010600522DFF86413206886
:104A6000343001F053FD002803D02068FCF7B0F883
:104A700001E0FCF76FF810BD38B504000D00002C04
:104A800007D1502080F31188BFF34F8FBFF36F8F92
:104A9000FEE7DFF8DC03006810F11801200001F0E8
:104AA000FDF90121280000F0EBF931BDDC250020E3
:104AB00070B505000E001400002D07D1502080F3C2
:104AC0001188BFF34F8FBFF36F8FFEE7DFF8A003AE
:104AD000006810F11801280001F0D4F9002C02D070
:104AE0005FF0FF3006002420FBF73AFD2100300084
:104AF00000F0C6F970BD000004ED00E0B82500200C
:104B000038B50500E868C468002C07D1502080F350
:104B10001188BFF34F8FBFF36F8FFEE714F11800BA
:104B200001F0D7F9DFF854030068002818D1201DE0
:104B300001F0CFF92000FCF776F8DFF838030168C0
:104B4000E26A914201D2E16A0160211DDFF8282367
:104B5000E36A1420434302EB030001F093F905E0FC
:104B600014F11801DFF8500201F08CF9DFF80003AE
:104B70000068C06AE16A884205D201200121DFF89D
:104B8000E422116000E0002032BD0000A8250020D2
:104B9000AC250020DFF8D41209680160DFF8641347
:104BA0000968416070472DE9F04104000D00002CB8
:104BB00007D1502080F31188BFF34F8FBFF36F8F61
:104BC000FEE7002D07D1502080F31188BFF34F8FEF
:104BD000BFF36F8FFEE700F041FADFF828030668A5
:104BE0006768F71B286810F1010F02D15FF0000819
:104BF0001BE0DFF8780200682168884205D0606811
:104C0000864202D35FF001080FE02868874208D28D
:104C10002868C01B28602000FFF7BCFF5FF0000879
:104C200003E0002028605FF0010800F031FA404600
:104C3000BDE8F0810120DFF82C1208607047000009
:104C400010B5040000F038F8DFF82C0200680228E4
:104C5000F8D35FF0805028490860BFF34F8FBFF34F
:104C60006F8FEFE770B50024382C09D2DFF8080207
:104C7000142101FB04F1084401F0F2F8641CF3E78D
:104C8000DFF88452280001F0EBF8DFF88062300092
:104C900001F0E6F8484801F0E3F8DFF8740201F0AB
:104CA000DFF8DFF8700201F0DBF8DFF86C02056076
:104CB000DFF86802066070BD38B5DFF86452286816
:104CC000002817D000F0CAF9DFF84402C068C068B5
:104CD0000400201D01F0FDF8DFF848020168491EBC
:104CE00001602868401E286000F0D2F9200000F022
:104CF0001EF8E2E731BD000004ED00E001000020F5
:104D00000A78A52A02D1491C401CF9E7800880B224
:104D1000704770B50400002C03D1DFF80C02056861
:104D200000E025002E6B3000FFF7E8FF70BD10B5E6
:104D3000040094F85900002806D1206B00F0E0FF31
:104D4000200000F0DDFF13E094F85900012803D1A2
:104D5000200000F0D5FF0BE094F85900022807D09E
:104D6000502080F31188BFF34F8FBFF36F8FFEE7A2
:104D700010BDDFF8A42110680068002804D15FF09E
:104D8000FF30104A106006E01068C068C06801007B
:104D900048680C4A10607047DFF8900100680028EE
:104DA00001D1012007E0DFF888010068002801D167
:104DB000022000E000207047E0240020D8250020D9
:104DC0005C6E0008D425002070B504002500002684
:104DD000002C45D0DFF898000068854207D05020AD
:104DE00080F31188BFF34F8FBFF36F8FFEE7286DFD
:104DF000002807D1502080F31188BFF34F8FBFF3F5
:104E00006F8FFEE7286D401E2865E86AE96C8842CE
:104E100026D0286D002823D1281D01F05AF8210042
:104E20004A20FBF7B1FBE86CE862E86AD0F1380091
:104E3000A8612800FBF7F7FEDFF838000168EA6A8E
:104E4000914201D2E96A0160291DDFF8E820EB6A8E
:104E50001420434302EB030001F014F80120060084
:104E6000300070BDC8250020C4250020CC250020BE
:104E7000A4250020BC250020180C0020DC250020E3
:104E80002DE9F04105000C001E480768DFF8988006
:104E9000D8F80000001D01F01CF815F1010F08D131
:104EA000002C06D0D8F80000011D1A4800F0EAFFD7
:104EB00024E0E8190600D8F800004660BE420CD293
:104EC0000421D8F80000FBF7D9FED8F80000011D36
:104ED0001248006800F0E2FF10E00421D8F800005A
:104EE000FBF7CCFED8F80000011D0B48006800F06D
:104EF000D5FF114801688E4200D20660BDE8F081FE
:104F000000000000B8250020B8240020CC24002098
:104F1000F424002008250020A8250020AC2500202E
:104F2000B0250020B4250020A4250020C0250020A5
:104F3000DC250020180C0020D4250020001F5FF085
:104F400080730360001F4B085B000360001F0FF2BB
:104F50001503036014380260001F7FF00203036032
:104F6000203870477748006810F1010F07D05020B3
:104F700080F31188BFF34F8FBFF36F8FFEE7502090
:104F800080F31188BFF34F8FBFF36F8FFEE7E0B55B
:104F90006D4801686D4A914207D1502080F3118815
:104FA000BFF34F8FBFF36F8FFEE7006868498842F9
:104FB00007D1502080F31188BFF34F8FBFF36F8F5D
:104FC000FEE7644801780191FF21017001788DF8B6
:104FD00000109DF8001011F050015F4A11705F49F8
:104FE00007220A609DF80020120608D50A68521EA2
:104FF0000A609DF8002052008DF80020F2E70A6850
:10500000D2F10702042A07D0502181F31188BFF39F
:105010004F8FBFF36F8FFEE70A6812020A600A68BB
:1050200012F4E0620A60019901704D48016851F480
:1050300070010160016851F07041016001F09AFA5D
:1050400000204049086001F0F9FA4648016851F033
:105050004041016001F0E2FA00200EBD502080F3D3
:105060001188BFF34F8FBFF36F8F36490A68521C08
:105070000A60096801290AD13B490968090606D076
:1050800080F31188BFF34F8FBFF36F8FFEE7704738
:105090002C490868002807D1502080F31188BFF3FD
:1050A0004F8FBFF36F8FFEE70868401E08600868E7
:1050B000002802D1002080F31188704780B550206D
:1050C00080F31188BFF34F8FBFF36F8FFBF7E8FCBE
:1050D000FFF7F8FB002806D0FBF722FD5FF08050B9
:1050E0002149086001E0FBF708FD002080F31188EA
:1050F00001BD0000EFF30580102811D31B4A126890
:10510000125C11000A00144B1B78D2B29A4207D2EB
:10511000502282F31188BFF34F8FBFF36F8FFEE7EA
:105120000E4A1268124B1B6813F4E0639A4207D2CE
:10513000502282F31188BFF34F8FBFF36F8FFEE7CA
:10514000704700000400002000ED00E071C20F4134
:1051500070C20F4100E400E0F625002094250020F5
:1051600020ED00E034EF00E004ED00E0786E000890
:105170000CED00E070B506000C003500002D07D1E5
:10518000502080F31188BFF34F8FBFF36F8FFEE77E
:10519000FFF764FF2968EA6B286C424301EB0200C9
:1051A000A8600020A863286868602968EA6B521E1E
:1051B000286C424301EB0200E8605FF0FF3085F8A5
:1051C000440085F84500002C12D12869002817D02A
:1051D00015F11000FFF794FC002811D05FF080500B
:1051E000DFF834160860BFF34F8FBFF36F8F07E00F
:1051F00015F1100000F034FE15F1240000F030FE2F
:10520000FFF746FF012070BD2DE9F84306000C00B2
:1052100015001F00DDF82090002E07D1502080F3EC
:105220001188BFF34F8FBFF36F8FFEE7002F07D1B9
:10523000502080F31188BFF34F8FBFF36F8FFEE7CD
:10524000002D01D0002C01D0012000E00020C0B2D0
:10525000002807D1502080F31188BFF34F8FBFF390
:105260006F8FFEE7002D01D1002C01D1012000E05D
:105270000020C0B2002807D1502080F31188BFF36E
:105280004F8FBFF36F8FFEE750200090009850289B
:1052900007D0502080F31188BFF34F8FBFF36F8F7B
:1052A000FEE70098B846B8F1000F0BD0012088F84F
:1052B0004600CDF800804B46DBB22A0021003000CA
:1052C00000F02CF84046BDE8F2832DE9F8430400D5
:1052D0000E001700002C07D1502080F31188BFF377
:1052E0004F8FBFF36F8FFEE706FB04F919F15000F3
:1052F00000F072FC0500002D0DD0280050308046D3
:10530000002085F8460000953B00DBB242463100A4
:10531000200000F003F82800BDE8F2832DE9F041F9
:1053200005000C0016001F00DDF81880002C02D1CB
:10533000C8F8008001E0C8F80060C8F83C50C8F820
:10534000404001214046FFF715FF88F84C703B00B4
:10535000DBB2220029007320FBF774F9BDE8F0816D
:105360002DE9F64383B080460D0099460024464659
:10537000002E07D1502080F31188BFF34F8FBFF369
:105380006F8FFEE7002D02D1306C002801D1012083
:1053900000E00020C0B2002807D1502080F311881F
:1053A000BFF34F8FBFF36F8FFEE7B9F1020F02D14A
:1053B000F06B012801D1012000E00020C0B20028DC
:1053C00007D1502080F31188BFF34F8FBFF36F8F49
:1053D000FEE7FFF7E1FC002802D10498002801D184
:1053E000012000E00020C0B2002807D1502080F347
:1053F0001188BFF34F8FBFF36F8FFEE7FFF72EFECD
:10540000B06BF16B884202D3B9F1020F32D1300098
:10541000FBF76DFCCDF80090049B2A0001005A2098
:10542000FBF751F94A462900300000F06CFA0700FA
:10543000706A00280FD016F12400FFF761FB0028E6
:1054400014D05FF08050DFF8D0130860BFF34F8FA7
:10545000BFF36F8F0AE0002F08D05FF08050DFF8B5
:10546000B8130860BFF34F8FBFF36F8FFFF710FEC5
:10547000012069E0049800280ED1FFF709FE3000F2
:10548000FBF735FCCDF80090049B2A0001005A2060
:10549000FBF719F9002057E0002C04D101A8FFF711
:1054A00079FB01200400FFF7F3FDFFF782F9FFF716
:1054B000D5FD96F9440010F1010F02D1002086F8C5
:1054C000440096F9450010F1010F02D1002086F842
:1054D0004500FFF7DDFD04A901A8FFF764FB0028E4
:1054E00021D1300000F0BDFA002816D0049916F141
:1054F0001000FFF7C1FA300000F06EFAFFF75FF915
:1055000000287FF47BAF5FF08050DFF80C13086059
:10551000BFF34F8FBFF36F8F70E7300000F05CFA7E
:10552000FFF74DF96AE7300000F056FAFFF747F948
:105530003000FBF7DCFBCDF80090049B2A00010053
:105540005A20FBF7C0F8002005B0BDE8F0832DE934
:10555000F84F07000C00150098463E00002E07D1BA
:10556000502080F31188BFF34F8FBFF36F8FFEE79A
:10557000002C02D1306C002801D1012000E0002075
:10558000C0B2002807D1502080F31188BFF34F8F9D
:10559000BFF36F8FFEE7B8F1020F02D1F06B012865
:1055A00001D1012000E00020C0B2002807D1502026
:1055B00080F31188BFF34F8FBFF36F8FFEE7FFF7C4
:1055C00099FDEFF31189502080F31188BFF34F8FBD
:1055D000BFF36F8FB06BF16B884202D3B8F1020F4B
:1055E0002AD196F945A0D6F838B03000FBF77FFBFA
:1055F0002A0001006020FAF7EFFF42462100300048
:1056000000F081F950465FF0FF3140B288420DD181
:10561000706A002809D016F12400FFF771FA0028FB
:1056200003D0002D01D00120286003E01AF1010011
:1056300086F84500012008E03000FBF758FB2A00FF
:1056400001006020FAF7C8FF002089F31188BDE847
:10565000F28F2DE9F64383B080460E0000244746C2
:10566000002F07D1502080F31188BFF34F8FBFF375
:105670006F8FFEE7002E02D1386C002801D1012087
:1056800000E00020C0B2002807D1502080F311882C
:10569000BFF34F8FBFF36F8FFEE7FFF77DFB00284F
:1056A00002D10498002801D1012000E00020C0B2FE
:1056B000002807D1502080F31188BFF34F8FBFF32C
:1056C0006F8FFEE7FFF7CAFCBD6B002D2AD03100BB
:1056D000380000F066F90020FBF709FB814638002E
:1056E000FBF705FB01210091049B4A4601005C2069
:1056F000FAF7E9FF681EB863386900280ED017F181
:105700001000FFF7FDF9002808D05FF08050DFF8A7
:1057100008110860BFF34F8FBFF36F8FFFF7B8FC1E
:10572000012076E00498002812D1FFF7B1FC002098
:10573000FBF7DDFA81463800FBF7D9FA0121009129
:10574000049B4A4601005C20FAF7BDFF002060E0A0
:10575000002C04D101A8FFF71DFA01200400FFF777
:1057600097FCFFF726F8FFF779FC97F9440010F152
:10577000010F02D1002087F8440097F9450010F18D
:10578000010F02D1002087F84500FFF781FC04A932
:1057900001A8FFF708FA002820D1380000F053F9DB
:1057A000002815D0049917F12400FFF765F9380097
:1057B00000F012F9FFF703F8002883D15FF0805062
:1057C000DFF854100860BFF34F8FBFF36F8F79E796
:1057D000380000F001F9FEF7F2FF73E7380000F03F
:1057E000FBF8FEF7ECFF380000F02DF900283FF43D
:1057F00069AF0020FBF77BFA05003800FBF777FA6A
:1058000001210091049B2A0001005C20FAF75BFF54
:10581000002005B0BDE8F08304ED00E02DE9F84F6D
:1058200080460C0015004646002E07D1502080F31C
:105830001188BFF34F8FBFF36F8FFEE7002C02D1AB
:10584000306C002801D1012000E00020C0B2002807
:1058500007D1502080F31188BFF34F8FBFF36F8FB4
:10586000FEE7FFF747FCEFF31189502080F3118822
:10587000BFF34F8FBFF36F8FB76B002F2FD096F909
:1058800044B02000FBF733FA82463000FBF72FFAD2
:105890002B00524601006220FAF7D4FE21003000AE
:1058A00000F07FF8781EB06358465FF0FF3140B2D9
:1058B00088420DD1306900280ED016F11000FFF794
:1058C0001FF9002808D0002D06D00120286003E031
:1058D0001BF1010086F844005FF0010A0EE05FF062
:1058E000000A2000FBF703FA83463000FBF7FFF9BC
:1058F0002B005A4601006220FAF7A4FE89F31188B2
:105900005046BDE8F28F2DE9F84F06000F00140055
:105910005FF00008B56B306C002809D130680028B2
:105920003AD1B068FFF750FA80460020B06033E00B
:10593000002C14D1D6F84090BA46D6F804B04A46A6
:1059400051465846FBF766FC7068316C084470603D
:105950007068B16888421FD3306870601CE0D6F868
:105960004090BA46D6F80CB04A4651465846FBF726
:1059700051FCF068316C49420844F060F0683168CD
:10598000884204D2B068316C49420844F060022C6D
:1059900002D1002D00D06D1E681CB0634046BDE8EA
:1059A000F28F2DE9F04104000D00206C002811D089
:1059B000E068216C0844E060E068A168884201D397
:1059C0002068E060266CE768A8463200390040464F
:1059D000FBF720FCBDE8F081F8B50400FFF73EFBC3
:1059E00094F94550280040B201280CDB606A002879
:1059F00009D014F12400FFF783F8002801D0FFF745
:105A000019F96D1EEEE75FF0FF3684F84560FFF789
:105A10003FFBFFF723FB94F94470380040B20128A4
:105A20000CDB2069002809D014F11000FFF768F89A
:105A3000002801D0FFF7FEF87F1EEEE784F84460EF
:105A4000FFF726FBF1BD38B50400FFF707FBA06B9D
:105A5000002801D1012500E00025FFF719FB2800EF
:105A600032BD38B50400FFF7F9FAA06BE16B88424C
:105A700001D1012500E00025FFF70AFB280032BD17
:105A800070B504000D000026082E14D20A4951F802
:105A9000360000280DD141F8365001EBC6004460B5
:105AA0002000FBF724F92A0001007120FAF794FD89
:105AB00001E0761CE8E770BD50240020F8B5040032
:105AC0000D0016002700FFF7C9FA97F9440010F1FE
:105AD000010F02D1002087F8440097F9450010F12A
