:020000040800F2
:10000000F03D00200D490008514700085347000803
:1000100055470008574700085947000800000000EE
:10002000000000000000000000000000B116000801
:100030005B4700080000000059160008DD31000889
:1000400085490008894900088D4900089149000840
:1000500095490008994900089D490008A1490008F0
:10006000A5490008A9490008AD490008B1490008A0
:10007000B5490008B9490008BD490008C149000850
:10008000C5490008C9490008CD490008D149000800
:10009000D5490008D9490008DD490008E1490008B0
:1000A000E5490008E9490008ED490008F149000860
:1000B0005D470008F5490008F9490008FD490008B6
:1000C000014A0008054A0008094A00080D4A0008CC
:1000D000114A0008154A0008194A00081D4A00087C
:1000E000214A0008254A0008294A00082D4A00082C
:1000F000314A0008354A0008394A00083D4A0008DC
:10010000414A0008454A0008494A00084D4A00088B
:10011000514A0008554A0008594A00085D4A00083B
:1001200067470008614A0008654A0008694A0008F4
:100130006D4A0008714A0008754A0008794A0008AB
:100140007D4A0008814A0008854A0008894A00085B
:100150008D4A0008914A0008954A0008994A00080B
:100160009D4A0008A14A0008A54A0008A94A0008BB
:10017000AD4A0008B14A0008B54A00080000000076
:10018000B94A0008BD4A00082DE9F84785B00600C5
:100190000F00904699460F9C109D002C07D15020CF
:1001A00080F31188BFF34F8FBFF36F8FFEE7002DF1
:1001B00007D1502080F31188BFF34F8FBFF36F8FAB
:1001C000FEE75C20009000985C2807D0502080F368
:1001D0001188BFF34F8FBFF36F8FFEE70098002D9C
:1001E00019D0002C17D0AA46CAF8304002208AF84D
:1001F000590000200390CDF808A004A801900E98A3
:1002000000904B4642463900300000F043F850461B
:1002100000F0B3F801E000200490049806B0BDE8B7
:10022000F0872DE9F84384B006000F009046994608
:10023000404680B2800000F0B1FC0500002D0BD0DC
:100240005C2000F0ABFC0400002C01D0256304E02E
:10025000280000F037FD00E00024002C15D000201D
:1002600084F859000020039002940D9801900C9896
:1002700000904B46424692B23900300000F00AF836
:10028000200000F07AF8012001E05FF0FF3005B0B7
:10029000BDE8F0832DE9F94F81B00C0016000C9FEA
:1002A0000D9DDDF83880B00000905FF0A50BD8F808
:1002B00030A05A460099504600F0B4FDD8F83000FE
:1002C00000EB8600B0F1040A5FEADA0A5FEACA0AC4
:1002D0001AF00700002807D0502080F31188BFF3E0
:1002E0004F8FBFF36F8FFEE7002C15D000208146A3
:1002F000B9F1100F0CD214F8090008EB090181F8CC
:10030000340014F80900002802D019F10109EFE7C0
:10031000002088F8430002E0002088F83400382FDD
:1003200001D337200700C8F82C70C8F84C700020A3
:10033000C8F8500018F1040000F0B6FD18F11800DC
:1003400000F0B2FDC8F81080D7F13800C8F81800E6
:10035000C8F824800020C8F85400002088F858000D
:10036000029A0199504600F0DDFDC8F80000002D0A
:1003700001D0C5F80080BDE8F78F38B5040000F063
:1003800061FEDFF8DC130868401C0860DFF8D45316
:100390002868002806D12C60086801280DD100F0DB
:1003A000C1FA0AE0DFF8C0030068002805D1E06A5E
:1003B0002968C96A884200D32C60DFF8B00301685D
:1003C000491C016000686064DFF8A4030168E26A08
:1003D000914201D2E16A0160211DDFF89823E36AAE
:1003E0001420434302EB030000F061FD00F044FEE3
:1003F000DFF87403006800280DD02868C06AE16A3D
:10040000884208D25FF08050DFF84C140860BFF3D8
:100410004F8FBFF36F8F31BD10B586B000200490B1
:100420000020039005AA03A904A800F08FFEDFF8BE
:10043000A8460498029003980190002000900023A1
:10044000059ADFF898160FF2B940FFF79DFE20607D
:100450002068002801D0012400E00024012C02D1F2
:1004600000F080FE0400012C16D1502080F311888A
:10047000BFF34F8FBFF36F8F5FF0FF30DFF8601671
:1004800008600120DFF8E01208600020DFF8B013F8
:10049000086000F070FD0AE014F1010F07D1502050
:1004A00080F31188BFF34F8FBFF36F8FFEE706B065
:1004B00010BDDFF888030168491C01607047F8B57A
:1004C00000250026DFF874432068002807D150205B
:1004D00080F31188BFF34F8FBFF36F8FFEE700F0FB
:1004E000B1FD2068401E20602068002857D1DFF849
:1004F00070020068002852D0DFF8D815086800287C
:1005000027D0C868C068050015F1180000F0F6FC97
:10051000281D00F0F3FCDFF858020168EA6A9142F6
:1005200001D2E96A0160291DDFF84822EB6A142034
:10053000434302EB030000F0BAFCE86ADFF8241240
:100540000968C96A8842D7D30120DFF89815086086
:10055000D2E7002D01D000F053FADFF88C753C682B
:10056000002C0CD000F023F8002803D00120DFF885
:1005700074150860641E002CF4D100203860DFF888
:100580006405006800280AD0012006005FF0805052
:10059000DFF8C4120860BFF34F8FBFF36F8F00F016
:1005A0006BFD3000F2BDDFF89802006870472DE95E
:1005B000F0410027A1480068002875D1DFF88002CB
:1005C0000468641C0460002C1CD1DFF82013086848
:1005D0000068002807D0502080F31188BFF34F8FA8
:1005E000BFF36F8FFEE7D1F80080DFF810030268D9
:1005F0000A60C0F80080DFF8F4040168491C01605B
:1006000000F0FEF9DFF8D884D8F80000844238D32F
:10061000DFF8D81208680068002804D15FF0FF30C6
:10062000C8F800002DE00868C068C0680500686868
:100630000600B44202D2C8F8006022E0281D00F093
:100640005DFCA86A002803D015F1180000F056FCE4
:1006500047480168EA6A914201D2E96A0160291DAE
:10066000444AEB6A1420434302EB030000F01FFCF2
:10067000E86A3C490968C96A8842C9D30120070071
:10068000C6E7384800683B49C26A1420424388588C
:10069000022801D301200700DFF848040068002881
:1006A00007D00120070004E0DFF83C040168491C82
:1006B00001603800BDE8F08110B46048006800288F
:1006C00004D00120DFF81C1408602CE00020DFF8C3
:1006D00014140860264A10681423264C03FB00F10A
:1006E000615800290BD1002807D1502181F31188CE
:1006F000BFF34F8FBFF36F8FFEE7401EECE703FBA6
:1007000000F304EB03014B685B684B604B6811F12D
:100710000804A34202D14B685B684B604968C96812
:10072000104B1960106010BC704738B504000D0004
:10073000002C07D1502080F31188BFF34F8FBFF3F7
:100740006F8FFEE7DFF8A803006810F118012000A2
:1007500000F0B9FB0121280000F0D2F931BD000002
:10076000A839002098390020B4390020C43900206D
:10077000B0390020502B002070B505000E00140089
:10078000002D07D1502080F31188BFF34F8FBFF3A6
:100790006F8FFEE7DFF8D403006810F1180128001E
:1007A00000F085FB002C02D05FF0FF300600210036
:1007B000300000F0A5F970BD38B50500E868C468E0
:1007C000002C07D1502080F31188BFF34F8FBFF367
:1007D0006F8FFEE714F1180000F090FB17480068D7
:1007E000002815D1201D00F089FBDFF808030168FF
:1007F000E26A914201D2E16A0160211DDFF8F8222C
:10080000E36A1420434302EB030000F050FB05E0D1
:1008100014F11801DFF8BC0200F049FBDFF8D00248
:100820000068C06AE16A884205D201200121DFF830
:10083000B422116000E0002032BD0000D039002059
:10084000AC390020DFF8A41209680160DFF820133A
:10085000096841607047000004ED00E02DE9F041B7
:1008600004000D00002C07D1502080F31188BFF345
:100870004F8FBFF36F8FFEE7002D07D1502080F31D
:100880001188BFF34F8FBFF36F8FFEE700F0DAFBE5
:10089000DFF8DC0206686768F71B286810F1010FB3
:1008A00002D15FF000081BE0DFF840020068216819
:1008B000884205D06068864202D35FF001080FE0ED
:1008C0002868874208D22868C01B28602000FFF7EC
:1008D000B9FF5FF0000803E0002028605FF0010826
:1008E00000F0CAFB4046BDE8F08100009C390020C2
:1008F0000120DFF8F011086070470000A0390020E7
:1009000010B5040000F039F8DFF8EC0100680228A7
:10091000F8D35FF0805028490860BFF34F8FBFF3D2
:100920006F8FEFE770B50024382C09D2DFF8C801CB
:10093000142101FB04F1084400F0A7FA641CF3E75A
:10094000DFF83052280000F0A0FADFF82C62300007
:1009500000F09BFADFF87C0100F097FADFF81C0248
:1009600000F093FADFF8180200F08FFADFF81402B3
:100970000560DFF81402066070BD38B5DFF80C5270
:100980002868002817D000F05DFBDFF8F001C06890
:10099000C0680400201D00F0B1FADFF8F40101681E
:1009A000491E01602868401E286000F065FB200099
:1009B00000F004F8E2E731BD04ED00E010B50400FA
:1009C00094F85900002806D1206B00F07BF9200034
:1009D00000F078F913E094F85900012803D12000C1
:1009E00000F070F90BE094F85900022807D050206D
:1009F00080F31188BFF34F8FBFF36F8FFEE710BDF9
:100A0000DFF8802110680068002804D15FF0FF3013
:100A1000334A106006E01068C068C068010048688A
:100A20002F4A10607047DFF86C010068002801D180
:100A3000012007E0DFF8C4000068002801D102208F
:100A400000E00020704770B5040025000026002C4F
:100A50003ED0DFF89C000068854207D0502080F32C
:100A60001188BFF34F8FBFF36F8FFEE7286D00280B
:100A700007D1502080F31188BFF34F8FBFF36F8FE2
:100A8000FEE7286D401E2865E86AE96C88421FD0A1
:100A9000286D00281CD1281D00F030FAE86CE862AF
:100AA000E86AD0F13800A861DFF848000168EA6A16
:100AB000914201D2E96A0160291DDFF83C20EB6A0E
:100AC0001420434302EB030000F0F1F9012006007B
:100AD000300070BDF8380020CC390020644900088F
:100AE000C8390020BC390020B8390020C0390020A6
:100AF00098390020B0390020502B0020D039002038
:100B00002DE9F04105000C0019480768DFF85C800A
:100B1000D8F80000001D00F0F1F915F1010F08D11F
:100B2000002C06D0D8F80000011D154800F0BFF9D0
:100B30001AE0E8190600D8F800004660BE4207D265
:100B4000D8F80000011D1048006800F0BCF90BE067
:100B5000D8F80000011D0B48006800F0B4F90E48F9
:100B600001688E4200D20660BDE8F081983900200D
:100B7000AC390020D0380020E43800200C390020A7
:100B8000203900209C390020A0390020A439002001
:100B9000A8390020B4390020C83900202DE9F84FC9
:100BA00004005FF00008FFF784FCDFF85492D9F8E6
:100BB0000000002801D100F0C3F8DFF848A2DAF8FD
:100BC000000004426DD1002C15D08F480068041934
:100BD00014F0070F0FD014F1080014F00704041BE1
:100BE00014F0070F07D0502080F31188BFF34F8F08
:100BF000BFF36F8FFEE7002C53D0DFF810B2DBF8A5
:100C00000000A0424DD382480600006805006868D5
:100C1000A04205D22868002802D02E002D68F6E7F1
:100C2000D9F8000085423CD0774831680268114409
:100C3000884629683160006840006968091B88425D
:100C400015D205EB0400070017F00700002807D0B5
:100C5000502080F31188BFF34F8FBFF36F8FFEE7F3
:100C60006868001B78606C60380000F09AF8DBF868
:100C700000106868091ACBF800106648DBF800100D
:100C80000268914202D2DBF8001001606968DAF86C
:100C9000000001436960002028605F480168491C2A
:100CA0000160FFF70CFC18F00700002807D0502067
:100CB00080F31188BFF34F8FBFF36F8FFEE740467D
:100CC000BDE8F28F70B504002600002C37D04E48E6
:100CD00000684042064435004A4968680A68104284
:100CE00007D1502080F31188BFF34F8FBFF36F8F70
:100CF000FEE72868002807D0502080F31188BFF352
:100D00004F8FBFF36F8FFEE768680A68104216D0F6
:100D10002868002813D16A68086882436A60FFF770
:100D2000C8FB3A490A68686882180A60280000F01F
:100D300038F83A480168491C0160FFF7C0FB70BDF4
:100D400070B44FF440623648010011F0070F04D030
:100D5000C91DC908C900521A82180B002C4803602B
:100D600000244460D41828480068241AE408E400E9
:100D7000234D2C6000202E68706000202E683060AB
:100D80001800261A46602D6805604568214E3560BA
:100D900045681E4E35605FF000451A4E356070BCE8
:100DA000704730B41A4A1168814201D21268FAE7DA
:100DB000140051682144814204D153684168CB1822
:100DC000536010000300416819441568A94210D10E
:100DD0000B4914680D68AC4208D044681168496832
:100DE0000C19446011680968016004E00968016039
:100DF00001E011680160824200D0106030BC704791
:100E0000683900207C3900207C4900086C390020BA
:100E10005C390020703900207439002078390020B6
:100E2000501F002062F30F2262F31F42401810F09F
:100E3000030308D0C91A1FD3DB0748BF00F8012DF0
:100E400028BF20F8022D130030B41446154610397F
:100E500028BF20E93C00FAD8490728BF20E90C0048
:100E600048BF40F8042D890028BF20F8022D48BF54
:100E700000F8012D30BC7047C91818BF00F8012DCB
:100E8000CB0728BF00F8012D704710F10801416021
:100E90005FF0FF31816010F10801C16010F10801BD
:100EA00001610021016070470021016170474268C3
:100EB0004A6093688B609368596091600861036829
:100EC0005B1C0360704710B40B6813F1010F01D174
:100ED000026907E010F1080254682468A34201D3B4
:100EE0005268F9E754684C604C68A1608A605160B0
:100EF00008610468641C046010BC70470100086944
:100F00008A684B689A604A688B685A6042688A426D
:100F100001D18A68426000220A610268521E0260A2
:100F200000687047001F5FF080730360001F4B086C
:100F30005B000360001F0FF21503036014380260AA
:100F4000001F7FF002030360203870477348006879
:100F500010F1010F07D0502080F31188BFF34F8F9D
:100F6000BFF36F8FFEE7502080F31188BFF34F8FE0
:100F7000BFF36F8FFEE7E0B569480168694A9142A7
:100F800007D1502080F31188BFF34F8FBFF36F8FCD
:100F9000FEE700686449884207D1502080F3118839
:100FA000BFF34F8FBFF36F8FFEE760480178019169
:100FB000FF21017001788DF800109DF8001011F0EC
:100FC00050015B4A11705B4907220A609DF80020BE
:100FD000120608D50A68521E0A609DF800205200C9
:100FE0008DF80020F2E70A68D2F10702042A07D040
:100FF000502181F31188BFF34F8FBFF36F8FFEE74E
:101000000A6812020A600A6812F4E0620A60019932
:1010100001704948016851F470010160016851F0A4
:101020007041016000F0FEFA00203C49086000F0C9
:101030005DFB4248016851F04041016000F046FB11
:1010400000200EBD502080F31188BFF34F8FBFF3F7
:101050006F8F32490A68521C0A60096801290AD157
:1010600037490968090606D080F31188BFF34F8F0E
:10107000BFF36F8FFEE7704728490868002807D143
:10108000502080F31188BFF34F8FBFF36F8FFEE7BF
:101090000868401E08600868002802D1002080F31C
:1010A0001188704780B5502080F31188BFF34F8FAF
:1010B000BFF36F8FFFF77BFA002803D05FF08050FB
:1010C0001F490860002080F3118801BDEFF30580FF
:1010D000102811D31B4A1268125C11000A00144B2D
:1010E0001B78D2B29A4207D2502282F31188BFF302
:1010F0004F8FBFF36F8FFEE70E4A1268124B1B68CB
:1011000013F4E0639A4207D2502282F31188BFF3AE
:101110004F8FBFF36F8FFEE7704700000000002085
:1011200000ED00E071C20F4170C20F4100E400E029
:10113000EA3900209039002020ED00E034EF00E093
:1011400004ED00E0804900080CED00E0034B036073
:10115000034B0B6080231360704700BFB036002044
:10116000B033002038B586B0002400F01DFADFF857
:101170008404006800281ED0002004900020039002
:1011800005AA03A904A800F0BFFADFF86C5404987C
:10119000029003980190022000900023059ADFF846
:1011A0005C140FF21D10FEF7EFFF2860286800287E
:1011B00001D001200400002C07D1502080F31188B9
:1011C000BFF34F8FBFF36F8FFEE7200007B030BD36
:1011D0002DE9FF4704000D0016001F00DDF83080E8
:1011E0005FF00009002C07D1502080F31188BFF375
:1011F0004F8FBFF36F8FFEE7DFF8F8A3DAF8000038
:10120000002822D0009501960294062D15DAFFF7EA
:101210000AFC022808D1002342466946DAF8000099
:1012200000F06DFB814610E0002300226946DAF8E9
:10123000000000F064FB814607E000233A006946A5
:10124000DAF8000000F02EFC8146484604B0BDE804
:10125000F087F8B505000E00DFF8A4030068C06849
:10126000C768381DFFF74AFE97F8280040071CD5CD
:101270002B003200B9694919380000F090F80028B5
:1012800019D00020009000232A0000213800FFF729
:101290009FFF0400002C07D1502080F31188BFF37A
:1012A0004F8FBFF36F8FFEE705E097F8280010F02F
:1012B000FE0087F828003800396A8847F1BD000031
:1012C00038B50400684600F042F80500009928008F
:1012D00000F003F800F08CF8F4E77CB505000C0092
:1012E000FFF7E7F8684600F046F806000098002887
:1012F0002AD1002C08D1AE4206D3FFF7E0F8310026
:101300002800FFF7A6FF21E0002C08D0DFF8F40248
:1013100000680068002801D1012400E000242200B8
:10132000A91BDFF8D002006800F010FEFFF7C7F835
:1013300000280BD15FF08050DFF8CC120860BFF3BB
:101340004F8FBFF36F8F01E0FFF7B9F873BD010056
:10135000DFF8AC2210680068002801D1012000E00D
:10136000002008600868002803D11068C068006881
:1013700000E00020704770B50400FFF714F9050085
:10138000DFF888623068854204D200F0C6F8012098
:10139000206001E0002020603560280070BD2DE94C
:1013A000F04104000D0016001F005FF000086560AA
:1013B0002461AE420DD3F01BA169884202D3012003
:1013C000804612E0211DDFF83C020068FFF77BFD3C
:1013D0000BE0BE4204D2BD4202D30120804604E0AD
:1013E000211D87480068FFF76EFD4046BDE8F0818B
:1013F000F8B586B0002201A97E48006800F0C4FB61
:10140000002800F088800198002804D502AFB96850
:1014100078683A68904701980028EBD40398050053
:101420006869002802D0281DFFF768FD05A8FFF7AE
:10143000A2FF0600019800280ED002280CD00BD382
:1014400004283DD035D3062806D054D3082830D000
:1014500002D3092834D05DE095F8280050F001004F
:1014600085F82800029B32000299A86941182800DB
:10147000FFF795FF00281BD02800296A884795F8B8
:101480002800400714D5002000900023029AA86984
:10149000821800212800FFF79BFE0400002C07D1D2
:1014A000502080F31188BFF34F8FBFF36F8FFEE79B
:1014B000A0E795F8280010F0FE0085F8280099E7CD
:1014C00095F8280050F0010085F828000298A861DE
:1014D000A869002807D1502080F31188BFF34F8FEF
:1014E000BFF36F8FFEE733003200A9698919280026
:1014F000FFF755FF7EE795F82800800703D4280002
:10150000FFF7E0FB05E095F8280010F0FE0085F8F5
:1015100028006FE76EE707B0F0BD2DE9FC41DFF86A
:10152000E080D8F800000068002834D0D8F8000027
:10153000C06800680500D8F80000C068C0680700EF
:10154000381DFFF7DBFC3800396A884797F8280018
:101550004007E4D5B86940190600B54207D27E605D
:101560003F61391DD8F80000FFF7ADFCD7E7002038
:10157000009000232A0000213800FFF729FE040014
:10158000002C07D1502080F31188BFF34F8FBFF399
:101590006F8FFEE7C3E7D8F800001A490A68C8F859
:1015A00000200860BDE8F3817CB5FFF74BFD114CCE
:1015B000206800281BD1164D2800FFF766FC154E49
:1015C0003000FFF762FC0E4805600E480660002000
:1015D0000090114B114A10210A2000F0EBF8206016
:1015E0002068002803D00E49206800F09AFCFFF71D
:1015F00043FD73BDDC390020E03900206C49000850
:10160000D4390020D839002004ED00E0E43900206E
:10161000343900204839002068370020B0350020D8
:10162000744900080848002101600021074A116040
:10163000074909684FF47A72B1FBF2F1491E054A75
:10164000116007210160704710E000E018E000E041
:101650000800002014E000E0EFF30980BFF36F8F73
:10166000264B1A681EF0100F08BF20ED108A20E9E3
:10167000F04F106009B44FF0500080F31188BFF3B1
:101680004F8FBFF36F8FFFF717F84FF0000080F315
:10169000118809BC19680868B0E8F04F1EF0100FF7
:1016A00008BFB0EC108A80F30988BFF36F8F7047D2
:1016B000124B19680868B0E8F04F80F30988BFF34F
:1016C0006F8F4FF0000080F3118870470C4800685E
:1016D000006880F308884FF0000080F3148862B639
:1016E00061B6BFF34F8FBFF36F8F00DFDFF81400D9
:1016F000016841F4700101607047000098390020D2
:1017000008ED00E088ED00E0034B0360034B0B6045
:101710004FF48073136070470C370020B02F002007
:1017200070B506000C003500002D07D1502080F365
:101730001188BFF34F8FBFF36F8FFEE7FFF782FC77
:101740002968EA6B286C424301EB0200A860002084
:10175000A863286868602968EA6B521E286C4243B7
:1017600001EB0200E8605FF0FF3085F8440085F887
:101770004500002C12D12869002817D015F110005F
:10178000FFF71AF8002811D05FF08050DFF86415D9
:101790000860BFF34F8FBFF36F8F07E015F11000A4
:1017A000FFF773FB15F12400FFF76FFBFFF764FCF5
:1017B000012070BD2DE9F84306000C0015001F0044
:1017C000DDF82090002E07D1502080F31188BFF360
:1017D0004F8FBFF36F8FFEE7002F07D1502080F3AC
:1017E0001188BFF34F8FBFF36F8FFEE7002D01D03D
:1017F000002C01D0012000E00020C0B2002807D159
:10180000502080F31188BFF34F8FBFF36F8FFEE737
:10181000002D01D1002C01D1012000E00020C0B238
:10182000002807D1502080F31188BFF34F8FBFF3FA
:101830006F8FFEE7502000900098502807D050206E
:1018400080F31188BFF34F8FBFF36F8FFEE70098CF
:10185000B846B8F1000F0BD0012088F84600CDF84B
:1018600000804B46DBB22A002100300000F02CF84B
:101870004046BDE8F2832DE9F84304000E0017004E
:10188000002C07D1502080F31188BFF34F8FBFF396
:101890006F8FFEE706FB04F919F15000FFF77EF9A0
:1018A0000500002D0DD0280050308046002085F81E
:1018B000460000953B00DBB242463100200000F0BC
:1018C00003F82800BDE8F2832DE9F04105000C0083
:1018D00016001F00DDF81880002C02D1C8F8008027
:1018E00001E0C8F80060C8F83C50C8F84040012149
:1018F0004046FFF715FF88F84C70BDE8F0812DE9F0
:10190000F74380460D00994600244646002E07D135
:10191000502080F31188BFF34F8FBFF36F8FFEE726
:10192000002D02D1306C002801D1012000E0002000
:10193000C0B2002807D1502080F31188BFF34F8F29
:10194000BFF36F8FFEE7B9F1020F02D1F06B0128F0
:1019500001D1012000E00020C0B2002807D15020B2
:1019600080F31188BFF34F8FBFF36F8FFEE7FFF750
:101970005AF8002802D10298002801D1012000E085
:101980000020C0B2002807D1502080F31188BFF397
:101990004F8FBFF36F8FFEE7FFF754FBB06BF16B18
:1019A000884202D3B9F1020F27D14A4629003000FC
:1019B00000F0FAF90700706A00280FD016F1240031
:1019C000FEF7FAFE002814D05FF08050DFF82413F1
:1019D0000860BFF34F8FBFF36F8F0AE0002F08D06E
:1019E0005FF08050DFF80C130860BFF34F8FBFF338
:1019F0006F8FFFF741FB012052E00298002803D1CE
:101A0000FFF73AFB00204BE0002C04D16846FEF7BC
:101A100019FF01200400FFF72FFBFEF74AFDFFF737
:101A200011FB96F9440010F1010F02D1002086F855
:101A3000440096F9450010F1010F02D1002086F80C
:101A40004500FFF719FB02A96846FEF707FF0028CB
:101A500020D1300000F056FA002815D0029916F176
:101A60001000FEF762FE300000F007FAFEF727FDD7
:101A7000002891D15FF08050DFF878120860BFF342
:101A80004F8FBFF36F8F87E7300000F0F6F9FEF756
:101A900016FD81E7300000F0F0F9FEF710FD0020A0
:101AA000BDE8FE832DE9F84F07000C0015009846AD
:101AB0003E00002E07D1502080F31188BFF34F8FD6
:101AC000BFF36F8FFEE7002C02D1306C002801D1EC
:101AD000012000E00020C0B2002807D1502080F390
:101AE0001188BFF34F8FBFF36F8FFEE7B8F1020F7E
:101AF00002D1F06B012801D1012000E00020C0B22A
:101B0000002807D1502080F31188BFF34F8FBFF317
:101B10006F8FFEE7FFF7DAFAEFF31189502080F3B9
:101B20001188BFF34F8FBFF36F8FB06BF16B88429B
:101B300002D3B8F1020F22D196F945A0D6F838B0F9
:101B400042462100300000F02FF950465FF0FF318F
:101B500040B288420DD1706A002809D016F12400E5
:101B6000FEF72AFE002803D0002D01D001202860B6
:101B700003E01AF1010086F84500012000E0002092
:101B800089F31188BDE8F28F2DE9F64182B08046D5
:101B90000E0000244746002F07D1502080F3118803
:101BA000BFF34F8FBFF36F8FFEE7002E02D1386C6B
:101BB000002801D1012000E00020C0B2002807D198
:101BC000502080F31188BFF34F8FBFF36F8FFEE774
:101BD000FEF729FF002802D10398002801D1012037
:101BE00000E00020C0B2002807D1502080F3118807
:101BF000BFF34F8FBFF36F8FFEE7FFF723FABD6B85
:101C0000002D1BD03100380000F01CF9681EB863AD
:101C1000386900280ED017F11000FEF7CDFD00281E
:101C200008D05FF08050DFF8CC100860BFF34F8F12
:101C3000BFF36F8FFFF720FA012057E003980028C9
:101C400003D1FFF719FA002050E0002C04D16846B8
:101C5000FEF7F8FD01200400FFF70EFAFEF729FC5D
:101C6000FFF7F0F997F9440010F1010F02D10020BD
:101C700087F8440097F9450010F1010F02D10020C8
:101C800087F84500FFF7F8F903A96846FEF7E6FD77
:101C9000002820D1380000F027F9002815D003993A
:101CA00017F12400FEF741FD380000F0E6F8FEF7DA
:101CB00006FC0028A1D15FF08050DFF838100860E2
:101CC000BFF34F8FBFF36F8F97E7380000F0D5F861
:101CD000FEF7F5FB91E7380000F0CFF8FEF7EFFBD9
:101CE000380000F001F9002887D0002004B0BDE8DA
:101CF000F081000004ED00E02DE9F04780460C0083
:101D000015004646002E07D1502080F31188BFF3FE
:101D10004F8FBFF36F8FFEE7002C02D1306C00288D
:101D200001D1012000E00020C0B2002807D15020DE
:101D300080F31188BFF34F8FBFF36F8FFEE7FFF77C
:101D4000C5F9EFF31189502080F31188BFF34F8F4D
:101D5000BFF36F8FB76B002F21D096F944A02100FD
:101D6000300000F06FF8781EB06350465FF0FF312E
:101D700040B288420DD1306900280ED016F1100013
:101D8000FEF71AFD002808D0002D06D0012028609B
:101D900003E01AF1010086F84400012000E0002071
:101DA00089F31188BDE8F0872DE9F84F06000F0090
:101DB00014005FF00008B56B306C002809D1306862
:101DC00000283AD1B068FEF73EFE80460020B060A1
:101DD00033E0002C14D1D6F84090BA46D6F804B0BF
:101DE0004A465146584600F0D7F87068316C0844AE
:101DF00070607068B16888421FD3306870601CE002
:101E0000D6F84090BA46D6F80CB04A4651465846E5
:101E100000F0C2F8F068316C49420844F060F068A4
:101E20003168884204D2B068316C49420844F0609D
:101E3000022C02D1002D00D06D1E681CB0634046FC
:101E4000BDE8F28F2DE9F04104000D00206C002860
:101E500011D0E068216C0844E060E068A168884225
:101E600001D32068E060266CE768A846320039009C
:101E7000404600F091F8BDE8F081F8B50400FFF7A6
:101E8000E1F894F94550280040B201280CDB606A63
:101E9000002809D014F12400FEF78EFC002801D0A0
:101EA000FEF726FD6D1EEEE75FF0FF3684F8456015
:101EB000FFF7E2F8FFF7C6F894F94470380040B233
:101EC00001280CDB2069002809D014F11000FEF76E
:101ED00073FC002801D0FEF70BFD7F1EEEE784F8AF
:101EE0004460FFF7C9F8F1BD38B50400FFF7AAF860
:101EF000A06B002801D1012500E00025FFF7BCF808
:101F0000280032BD38B50400FFF79CF8A06BE16BE8
:101F1000884201D1012500E00025FFF7ADF8280037
:101F200032BD10B40023082B0CD2074C54F83320D8
:101F3000002A05D144F8331004EBC302506001E0DD
:101F40005B1CF0E710BC704790380020F8B5040027
:101F50000D0016002700FFF775F897F9440010F1FF
:101F6000010F02D1002087F8440097F9450010F1D5
:101F7000010F02D1002087F84500FFF77DF8B86B0C
:101F8000002805D13200290017F12400FEF7F4FBE8
:101F90003800FFF772FFF1BD62B38B0708D0521E05
:101FA00011F8013B00F8013B00F024808B07F6D1CB
:101FB000830740F0208000BF103A07D330B4B1E867
:101FC0003810103AA0E83810F9D230BC530724BFBB
:101FD000B1E80810A0E8081044BF51F8043B40F8ED
:101FE000043BD20724BF31F8022B20F8022B44BF58
:101FF0000B7803707047121F17D35B0009D151F89B
:10200000043B20F8023B1B0C121F20F8023BF6D2C7
:102010000BE051F8043B00F8013B1B0A20F8023B9F
:102020001B0C121F00F8013BF3D238BF121D521EC9
:1020300024BF11F8013B00F8013BF8D870470EE0CF
:1020400002684368024408305FEAC37C44BF4B44E3
:102050005B1E52F804CB43F804CB091FF9D150F8AA
:10206000041B0029ECD1704738B504000025002C72
:1020700001D1012029E0A06ADFF8B0148842206C69
:10208000002807D1200000F0D7FA0020606400206B
:1020900084F83C00206CC00610D4206C30F48850CA
:1020A00050F002002064200000F092F900206064EB
:1020B0000120216C60F30101216401E00120050091
:1020C000002084F83C002800C0B232BDF8B50500FD
:1020D0000E0017000020009095F83C00012801D167
:1020E0000220B6E0012085F83C0028688068C0071F
:1020F00016D42868806850F0010029688860DFF8ED
:1021000030040068DFF82C14B0FBF1F103204143E8
:1021100000910098002803D00098401E0090F8E736
:1021200028688068C00505D52868806830F480700C
:102130002968886028688068C00740F18180296C20
:10214000DFF8F403014051F4807129642868406885
:10215000400504D50120296C60F30D312964286CF9
:10216000C00404D5686C30F00600686401E000200B
:102170006864002085F83C00DFF8C00304000FF21B
:10218000D130A96BC8630FF24540A96B08640FF208
:102190004D40A96BC8647FF0220029680860286858
:1021A000406850F08060296848602868806850F472
:1021B0008070296888603B003200286810F14C016B
:1021C000A86B00F022FB606810F01F0F27D1286871
:1021D000DFF86C13884216D02868DFF8681388424D
:1021E00005D1DFF86403006810F01F0F0BD02868DA
:1021F000DFF8581388422BD1DFF84C03006810F049
:102200001F00102824D22868806810F0405F1FD17A
:102210002868806850F080402968886018E0286845
:10222000DFF81C13884213D12868806810F0405FE3
:102230000ED12868806850F080402968886007E0E7
:10224000286C50F010002864686C50F0010068643D
:102250000020F2BD38B402000020009092F83C004B
:10226000012801D10220B1E0012082F83C00086879
:102270000A2818D31068C368072408680A38032599
:1022800010FB05F08440A3431068C3601068C36866
:102290008C6808680A38032510FB05F08440234346
:1022A0001068C36013E01068036907240D680320F9
:1022B0004543AC40A34310680361106803698C6810
:1022C0000D6803204543AC40234310680361486810
:1022D000072818D21068436B1F244868401E052544
:1022E00010FB05F08440A343106843631068436B00
:1022F0000C884868401E052510FB05F084402343E8
:102300001068436333E048680D2818D21068036BE7
:102310001F244868C01F052510FB05F08440A34317
:10232000106803631068036B0C884868C01F05259C
:1023300010FB05F0844023431068036317E0106826
:10234000C36A1F2448680D38052510FB05F084403A
:10235000A3431068C3621068C36A0C8848680D38CC
:10236000052510FB05F0844023431068C362734BBE
:1023700073481468844206D10C68122C03D15C683F
:1023800054F480045C60146884421BD108681028EF
:1023900002D00868112815D1586850F40000586020
:1023A000086810280ED162480068624CB0FBF4F453
:1023B0000A20444300940098002803D00098401E4F
:1023C0000090F8E7002082F83C00002032BC704703
:1023D0005A4A516831F440315160536841680B43A7
:1023E00053600168496831F480710368596001687D
:1023F0004968036951EA0321036859600168496823
:1024000031F040710368596001684B6881680B4383
:1024100001684B600168896831F400610368996064
:1024200001688B68C1680B4301688B60816A3F4B10
:10243000994218D00168896831F070610368996029
:1024400001688B68816A0B4301688B600168896849
:1024500031F040510368996001688B68C16A0B4391
:1024600001688B600BE00168896831F07061036876
:1024700099600168896831F040510368996001688A
:10248000896831F002010368996001688968037EF8
:1024900051EA43010368996090F82010002914D094
:1024A0000168496851F4006103685960016849682E
:1024B00031F460410368596001684968436A5B1EF2
:1024C00051EA43310368596005E00168496831F415
:1024D0000061036859600168C96A31F470010368DA
:1024E000D9620168C96AC3695B1E51EA0351036876
:1024F000D9620168896831F40071036899600168E4
:10250000896890F8303051EA432103689960016886
:10251000896831F48061036899600168896843695A
:1025200051EA832103689960704700000100000FA1
:102530000800002040420F00FEF9FFFF0023014089
:1025400000200140002101400423014000220140FD
:1025500038B50400A56B286C10F0500F29D1286CF9
:1025600050F4007028642868806810F0405F1CD127
:10257000287E002819D12868C06A10F4700F03D093
:1025800028688068400510D42868406830F0200032
:1025900029684860286C30F480702864286CC00476
:1025A00003D4286C50F001002864280000F008FBD8
:1025B0000AE0286CC00603D5280000F011FB03E0F8
:1025C0002000A96BC96C884731BD000038B50400F4
:1025D000A56B280000F0E8FA31BD000038B5040012
:1025E000A56B40202864686C50F0040068642800E3
:1025F00000F0F6FA31BDFEE780B5002000904248B9
:10260000016851F480410160006810F4804000903E
:102610000098002000903D48016851F08051016011
:10262000006810F080500090009800220F217FF089
:10263000010000F039FB01BD38B586B0040014215B
:10264000002201AD2800FEF7EDFB206830498842EA
:1026500045D1002000902C48016851F48061016050
:10266000006810F4806000900098002000902948D5
:10267000016851F001010160006810F00100009054
:10268000009801200190032002900020039001A9EE
:10269000214800F02FFB214D214828605FF0806029
:1026A00068600020A8600020E8604FF48060286126
:1026B0004FF4006068614FF40050A8614FF48070DF
:1026C000E8615FF40030286200206862280000F0B2
:1026D0002BF8002801D000F060FDA563AC6307B0C3
:1026E00030BD81B001680F4A91420BD100210091A9
:1026F00006490A6852F002020A60096811F00201F4
:102700000091009901B070474438024040380240BF
:1027100000220140303802400000024050360020C4
:10272000106402400004004070B50400002600F070
:1027300037FD0500002C01D1012065E0606A00280A
:10274000022084F83500002084F8340020680068F6
:10275000400840002168086020680068C0070BD569
:1027600000F01EFD401B0628F6D3202060650320E4
:1027700084F83500032047E020680168DFF8800313
:10278000014060680143A0680143E068014320699B
:10279000014360690143A0690143E0690143206A84
:1027A0000143606A042803D1E06A0143206B0143BE
:1027B0002068016020684669F608F600606A0643F2
:1027C000606A042810D1A06A0643E06A00280BD092
:1027D000200000F09BF9002806D040206065012011
:1027E00084F8350001200FE020684661200000F0E9
:1027F0006DF901003F22E06D82408A600020606533
:10280000012084F83500002070BD2DE9F843040054
:102810000D0016001F005FF00008D4F8589094F8DF
:102820003400012801D1022033E0012084F8340073
:1028300094F83500012825D1022084F835000020C5
:1028400060653B0032002900200000F028F93F219C
:10285000E06D8140C9F808102068006850F016004B
:1028600021680860206C002805D02068006850F0BE
:102870000800216808602068006850F001002168A5
:10288000086004E0002084F83400022080464046BE
:10289000C0B2BDE8F283F8B5040000200090DFF874
:1028A000640200684FF41651B0FBF1F5A66D37686D
:1028B0000821E06D11FA00F0074210D0206800688E
:1028C00040070CD52068006830F0040022681060D2
:1028D000E06D8140B160606D50F001006065E06DB9
:1028E0003900C140C8070BD520684069000607D5EC
:1028F0000121E06D8140B160606D50F002006065C3
:102900000421E06D11FA00F007420AD02068006847
:10291000800706D5E06D8140B160606D50F0040025
:1029200060651021E06D11FA00F007422CD020689C
:102930000068000728D5E06D8140B160206800681C
:10294000400311D520680068000306D4206C0028DD
:102950001AD02000216C884716E0A06C002813D004
:102960002000A16C88470FE020680068C00505D4EE
:102970002068006830F0080021680860206C00289A
:1029800002D02000216C88472021E06D11FA00F070
:1029900007425FD020680068C0065BD5E06D8140CB
:1029A000B16094F83500052828D12068006830F01F
:1029B0001600216808602068406930F080002168B6
:1029C0004861206C002802D1A06C002805D0206846
:1029D000006830F00800216808603F21E06D814008
:1029E000B160012084F83500002084F83400206DA7
:1029F000002802D02000216D88474FE02068006841
:102A0000400311D520680068000306D4606C0028DC
:102A100020D02000616C88471CE0E06B002819D0B2
:102A20002000E16B884715E020680068C0050BD4E2
:102A30002068006830F0100021680860012084F8E8
:102A40003500002084F83400E06B002802D020001C
:102A5000E16B8847606D002820D0606DC00717D5F6
:102A6000052084F83500206800684008400021688F
:102A700008600098401C0090854203D320680068DD
:102A8000C007F6D4012084F83500002084F8340013
:102A9000E06C002802D02000E16C8847F1BD30B422
:102AA0000468246834F4802405682C60046863603A
:102AB0008468402C04D10468A2600468E16003E0EB
:102AC0000468A1600468E26030BC7047017801F0DE
:102AD000FF0110391822B1FBF2F10B4A525CC265BA
:102AE000042905D30268920A9202121D826503E04E
:102AF0000268920A92028265806D704700000000B1
:102B00003F8010F0080000205449000810B4020073
:102B10000020936A9169002916D1002B05D0022B61
:102B200003D008D3032B0DD00DE0D16AC90101D524
:102B30000121080035E0D16AB1F1C07F01D1012146
:102B400008002EE02DE02CE09169B1F5005F18D16E
:102B5000002B05D0022B03D005D3032B09D00FE0A7
:102B6000012108001DE0D16AC90101D50121080039
:102B700017E0D16AB1F1C07F01D10121080010E056
:102B80000FE019000029022902D9C91E03D008E06C
:102B90000121080005E0D16AC90101D50121080021
:102BA000FFE7C0B210BC704710B504000A4900200E
:102BB0000880002300220948006800F022FC10BDB4
:102BC00010B50400044901200880002300220348B6
:102BD000006800F016FC10BDE83900208C39002098
:102BE0007047FEE710B410F00703DFF8F4402268E6
:102BF0004FF6FF010A4052EA0322DFF8E8100A43C9
:102C0000226010BC7047DFF8D8000068C0F30220D3
:102C10007047010049B2002909D4012210F01F01B8
:102C20008A40314903005BB25B0941F823207047B9
:102C300010B4020052B2002A05D40A012B4B040042
:102C400064B21A5508E00A01294B040064B214F07A
:102C50000F04234403F8042C10BC704770B4030025
:102C600013F00704D4F10700052801D3042001E084
:102C7000D4F10700251D072D01D2002500E0E51E37
:102C8000012616FA00F0401E0140A94016FA05F58B
:102C90006D1E2A401143080070BC704710B5040037
:102CA0002000FFF79FFF10BD2DE9F04104000D004B
:102CB00016000027FFF7A7FF804632002900404694
:102CC000FFF7CCFF0100200040B2FFF7B1FFBDE8E5
:102CD000F08110B50400200040B2FFF79AFF10BD4C
:102CE0000CED00E00000FA0500E100E000E400E087
:102CF00018ED00E0F8B50023002400250026102E72
:102D000080F0F980012717FA06F213000A681A40CA
:102D100014009C4240F0ED800A7912F00302012A6F
:102D200004D00A7912F00302022A1BD1D0F808C09D
:102D30005FF0030E72001EFA02FE3CEA0E0CD1F8A0
:102D40000CE072001EFA02FE5EEA0C0CC0F808C02D
:102D50004268B740BA434F68C7F30017B7403A43D9
:102D6000150045600A7912F00302032A10D0C768E3
:102D70005FF0030C72001CFA02FC37EA0C07D1F872
:102D800008C072001CFA02FC5CEA07073D00C5603F
:102D90000A7912F00302022A1AD13200D20800EB9B
:102DA0008202126A0F275FEA860C1CF01C0C17FACD
:102DB0000CF7BA430F695FEA860C1CF01C0C17FA7B
:102DC0000CF73A4315003200D20800EB820215627C
:102DD00007685FF0030C72001CFA02FC37EA0C076C
:102DE00091F804C01CF0030C72001CFA02FC5CEAAF
:102DF00007073D0005604A6812F4403F79D0002281
:102E00000092DFF8F420176857F4804717601268C3
:102E100012F480420092009A384F3200920857F81C
:102E200022205FF00F0C5FEA860E1EF00C0E1CFADB
:102E30000EFC32EA0C02DFF8C8C0604501D1002563
:102E400023E0304DA84201D101251EE02E4DA842BD
:102E500001D1022519E02D4DA84201D1032514E02E
:102E60002B4DA84201D104250FE02A4DA84201D1E3
:102E700005250AE0284DA84201D1062505E0274D89
:102E8000A84201D1072500E00825EDB25FEA860CD3
:102E90001CF00C0C15FA0CF52A433500AD0847F868
:102EA00025201F4F3D68A543D1F804C05FEACC2C14
:102EB00000D525433D601B4F3A68A243D1F804C0BA
:102EC0005FEA8C2C00D522433A60174D2F68A74348
:102ED000D1F804C05FEA8C3C00D527432F60134A29
:102EE0001568A543D1F804C05FEACC3C00D5254362
:102EF0001560761C03E7F1BD4438024008380140F4
:102F0000000002400004024000080240000C0240A1
:102F1000001002400014024000180240001C024051
:102F2000083C01400C3C0140043C0140003C014095
:102F300080B500F0FBFA00F016F800F0F4F800F0AD
:102F4000DCF800F064F800F09DF8864800F03FFBE4
:102F50004FF47A6284498548FFF7B8F800F078FDAD
:102F600000F0ACFDFEE710B592B03021002206ACB7
:102F70002000FDF757FF1421002201AC2000FDF7CF
:102F800051FF002000907A48016851F080510160A3
:102F9000006810F080500090009800200090754864
:102FA000016851F480410160006810F48040009095
:102FB0000098022006900120099010200A9002201B
:102FC0000C9000200D9008200E90A8200F90022059
:102FD00010900720119006A800F074FD002801D081
:102FE00000F0DBF80F2001900220029000200390F7
:102FF0004FF4A050049002200590052101A800F094
:1030000057FF002801D000F0C8F812B010BD1FB55E
:10301000102100226C462000FDF704FF534C564857
:1030200020605FF4803060600020A060002020619C
:1030300000202076002084F820005FF04050E062FD
:103040005FF00060A0620020E0600120E0610120EC
:1030500084F83000012060612000FFF705F80028A7
:1030600001D000F09AF8002000900120019000208B
:10307000029069462000FFF7EDF8002801D000F02B
:103080008CF81FBD10B586B01021002202AC2000C4
:10309000FDF7C8FE082100226C462000FDF7C2FEA5
:1030A000304C36482060002060600020A060A720DF
:1030B000E060002020610020A061200000F050FAB4
:1030C000002801D000F069F84FF48050029002A966
:1030D000200000F092FB002801D000F05EF82020D4
:1030E0000090002001906946200000F0B7FF002802
:1030F00001D000F052F806B010BD80B5002000905D
:103100001F48016851F480010160006810F48000DC
:1031100000900098002205213820FFF7C5FD3820D7
:10312000FFF7D7FD01BD10B586B01421002201AC18
:103130002000FDF777FE002000901148016851F053
:1031400001010160006810F001000090009801206A
:1031500001900320029001A90A48FFF7CBFD06B0B9
:1031600010BD00000038002010000020B8370020FB
:10317000403802400070004000220140000400403E
:10318000303802400000024010B504002068B0F161
:10319000804F01D100F0B8FF10BD72B6FEE700000D
:1031A00001480068704700BF9439002010B4020045
:1031B00052B2002A06D40A01DFF88031040064B25A
:1031C0001A5509E00A01DFF87831040064B214F0FE
:1031D0000F04234403F8042C10BC704780B5DFF8BB
:1031E00064010068FDF71FFC012801D0FDF75AFFBC
:1031F00001BD80B500217FF00400FFF7D7FF01BDBE
:10320000EFF30580002802D07FF005000AE0DFF828
:1032100038110868002803D101200860002001E06F
:103220005FF0FF30704710B5EFF30580002802D043
:103230007FF005000EE0DFF810412068012807D17B
:10324000FFF7D7FF02202060FDF7E6F8002001E03D
:103250005FF0FF3010BD2DE9FF47070088461400DE
:1032600000200390EFF30580002862D13800002889
:103270005FD08020824618200500002081465FF044
:10328000FF300600002C33D02068002801D02068D1
:103290008146A069002801D0A0690500002D04D056
:1032A000392D02D22079C00701D5002042E06069A3
:1032B000002802D0606980088246A06800280BD0F0
:1032C000E0685C2808D32069002805D060690028E0
:1032D00002D0012006000DE0A06800280AD1E068B5
:1032E000002807D12069002804D10020060001E051
:1032F00000200600012E0CD1A068029020690190E8
:1033000000954346524649463800FCF73DFF03907E
:103310000FE0002E0DD103A80190009543465246C0
:1033200092B249463800FCF77CFF012801D000200A
:103330000390039804B0BDE8F087000000E400E0CB
:1033400018ED00E010E000E0643900202DE9F843BA
:1033500005000E0014005FF00008EFF30580002860
:103360004CD1002D4AD0002E48D05FF0FF3007002E
:10337000002C1FD0A06800280DD0E06850280AD388
:103380002069002807D0606906FB05F1884202D356
:103390000120070010E0A06800280DD1E068002897
:1033A0000AD12069002807D16069002804D10020D3
:1033B000070001E000200700012F09D10020009044
:1033C000A368226931002800FEF7F4F9804607E07F
:1033D000002F05D1002231002800FEF74CFA80466C
:1033E000B8F1000F0AD0002C02D02068814601E01D
:1033F0000020814649464046FEF793FD4046BDE821
:10340000F2832DE9F84307000C0090461D003E00B2
:103410005FF00009EFF30580002820D0002E03D0D4
:10342000002C01D0002D03D07FF0030081462FE057
:103430000020009000236A4621003000FEF732FB96
:10344000012803D07FF00200814621E00098002887
:103450001ED05FF08050DFF8D010086018E0002E1A
:1034600001D0002C03D17FF00300814610E000233F
:103470002A0021003000FEF742FA012808D0002D72
:1034800003D07FF00100814602E07FF00200814618
:103490004846BDE8F2832DE9F84307000C0090464A
:1034A0001D003E005FF00009EFF3058000281FD0EB
:1034B000002E03D0002C01D0002D03D07FF003009C
:1034C00081462DE0002000906A4621003000FEF782
:1034D00013FC012803D07FF00200814620E0009811
:1034E00000281DD05FF08050DFF83C10086017E026
:1034F000002E01D0002C03D17FF0030081460FE0A5
:103500002A0021003000FEF73FFB012808D0002DE3
:1035100003D07FF00100814602E07FF00200814687
:103520004846BDE8F283000004ED00E080B50B489A
:10353000016851F400710160016851F4806101601B
:10354000016851F4807101600320FFF7A7FB0F2091
:1035500000F0E6FDFFF750F8002002BD003C0240FD
:1035600010B50400002C01D101202FE094F83D009B
:10357000002805D1002084F83C002000FFF7B1F8B6
:10358000022084F83D00211D206800F0B0F90120E0
:1035900084F84600012084F83E00012084F83F00B2
:1035A000012084F84000012084F84100012084F8C3
:1035B0004200012084F84300012084F844000120E7
:1035C00084F84500012084F83D00002010BD010072
:1035D00091F83D00012801D0012044E0022081F84B
:1035E0003D000868C06850F001000B68D8600868AA
:1035F000DFF87430984221D00868B0F1804F1DD0B8
:103600000868DFF86830984218D00868DFF8603042
:10361000984213D00868DFF85C3098420ED00868F2
:10362000DFF85430984209D00868DFF850309842EB
:1036300004D00868DFF8483098420DD108688068E7
:1036400010F007000200062A0CD00868006850F04D
:1036500001000B68186005E00868006850F0010080
:103660000B68186000207047000001400004004013
:1036700000080040000C00400004014000400140F0
:103680000018004010B504002068006980071AD5B2
:103690002068C068800716D57FF0020021680861A5
:1036A000012020772068806910F0030F03D02000EC
:1036B00000F09EFD05E0200000F09BFD200000F0E2
:1036C00099FD002020772068006940071AD52068FE
:1036D000C068400716D57FF0040021680861022009
:1036E00020772068806910F4407F03D0200000F02C
:1036F0007FFD05E0200000F07CFD200000F07AFD59
:10370000002020772068006900071AD52068C0686B
:10371000000716D57FF00800216808610420207793
:103720002068C06910F0030F03D0200000F060FD96
:1037300005E0200000F05DFD200000F05BFD0020B2
:10374000207720680069C0061AD52068C068C006C6
:1037500016D57FF0100021680861082020772068C6
:10376000C06910F4407F03D0200000F041FD05E067
:10377000200000F03EFD200000F03CFD00202077FE
:1037800020680069C0070AD52068C068C00706D550
:103790007FF00100216808612000FFF7F5FC206838
:1037A000006900060AD52068C068000606D57FF0CB
:1037B000800021680861200000F01DFD206800697C
:1037C00040060AD52068C068400606D57FF0400054
:1037D00021680861200000F00FFD20680069800664
:1037E0000AD52068C068800606D57FF020002168D1
:1037F0000861200000F001FD10BDF8B504000D00C7
:10380000002694F83C00012801D102206EE001203E
:1038100084F83C00022084F83D002068876837F077
:10382000770737F47F4720688760286800284ED0E4
:1038300010284CD020284AD0302848D040283CD0EE
:10384000502826D060282ED0702807D0B0F5805F91
:1038500003D0B0F5005F0FD03EE03FE0EB686A6850
:10386000A968206800F0E9F82068806850F07700C7
:1038700007002068876031E0EB686A68A968206803
:1038800000F0DBF82068806850F480402168886090
:1038900024E0EA686968206800F0A2F850212068F6
:1038A00000F0C3F81AE0EA686968206800F0AAF836
:1038B0006021206800F0B9F810E0EA6869682068C3
:1038C00000F08EF84021206800F0AFF806E029688B
:1038D000206800F0AAF801E001200600012084F829
:1038E0003D00002084F83C003000C0B2F2BD10B4AE
:1038F0000468DFF8C030984212D0B0F1804F0FD08A
:10390000DFF8B42090420BD0DFF8B020904207D00F
:10391000DFF8AC20904203D0DFF8A820904203D11A
:1039200034F070044A68144398422AD0B0F1804FB2
:1039300027D0DFF88420904223D0DFF88020904207
:103940001FD0DFF87C2090421BD0DFF87820904217
:1039500017D0DFF87420904213D0DFF87020904227
:103960000FD0DFF86C2090420BD0DFF86820904237
:1039700007D0DFF86420904203D0DFF86020904247
:1039800003D134F44074CA68144334F080044A69A3
:10399000144304608A68C2620A688262984202D054
:1039A000084A904201D10A6902630122426110BCB7
:1039B0007047000000000140000400400008004083
:1039C000000C004000040140004001400044014060
:1039D0000048014000180040001C0040002000404A
:1039E00010B4046A036A5B085B000362836933F006
:1039F000F00353EA021334F00A040C4383610462B7
:103A000010BC704710B4036A33F01003036283697B
:103A1000046A33F4704353EA023334F0A00454EAE6
:103A200001148361046210BC7047826832F0700236
:103A30000A4352F007028260704710B4846834F47D
:103A40007F440C43144354EA0324846010BC704741
:103A500080B5FFF7D5FB0E4A02210120FFF776FC67
:103A60000C4908600C4A00210C48FFF7F4FB0C4994
:103A700008600C4A00210C48FFF7EDFB0B49086079
:103A80000B4A00210B48FFF7E6FB0B49086001BD1C
:103A9000C04800088C390020A0470008F72500081E
:103AA00080390020C4470008B94600088439002046
:103AB000E8470008E32B00088839002080B5FFF7AD
:103AC000B2FB01BD2DE9F8430400002C01D1012017
:103AD000D8E12078C0075FD5DFF8AC03016811F0AA
:103AE0000C01042909D0006810F00C0008280ED140
:103AF000DFF898030068400209D5DFF894030068F6
:103B0000800349D56068002846D10120BAE1606889
:103B1000B0F5803F06D1DFF87803016851F48031B9
:103B2000016018E06068B0F5A02F0AD1DFF86003EB
:103B3000016851F480210160016851F48031016015
:103B400009E0DFF84C03016831F48031016001685D
:103B500031F480210160606800280ED0FFF720FB5F
:103B60000500DFF82C030068800315D4FFF718FB6D
:103B7000401B6528F5D3032084E1FFF711FB050006
:103B8000DFF80C030068800306D5FFF709FB401B34
:103B90006528F5D3032075E1207880074CD5DFF840
:103BA000E802016811F00C0F08D0006810F00C005A
:103BB000082814D1B5480068400210D4B448016800
:103BC000890704D5E168012901D001205AE1016883
:103BD00031F0F801226951EAC20101602CE0E0688D
:103BE000002818D00120AB490860FFF7D9FA05007A
:103BF000A7480168890706D4FFF7D2FA401B0328BB
:103C0000F6D303203EE1016831F0F801226951EA60
:103C1000C201016010E000209E490860FFF7C0FA71
:103C200005009B480068800706D5FFF7B9FA401BDE
:103C30000328F6D3032025E12078000724D5606906
:103C4000002810D0012094490860FFF7A9FA050068
:103C500092480068800717D4FFF7A2FA401B032898
:103C6000F6D303200EE100208B490860FFF798FA95
:103C700005008A480068800706D5FFF791FA401BC7
:103C80000328F6D30320FDE0207840077CD50027E9
:103C9000DFF80C82D8F80000C0000FD4002000909C
:103CA000D8F8000050F08050C8F80000D8F80000A4
:103CB00010F080500090009801200700DFF8E49198
:103CC000D9F80000C00513D4D9F8000050F4807072
:103CD000C9F80000FFF764FA0500D9F80000C00534
:103CE00006D4FFF75DFA401B0328F6D30320C9E092
:103CF000A068012805D16C48016851F001010160FC
:103D000015E0A068052809D16748016851F0040151
:103D10000160016851F00101016008E0624801683A
:103D2000490849000160016831F004010160A068A0
:103D300000280FD0FFF734FA05005B4800688007C1
:103D400018D4FFF72DFA401B41F289318842F4D391
:103D5000032097E0FFF724FA050053480068800726
:103D600008D5FFF71DFA401B41F289318842F4D390
:103D7000032087E03800C0B2012805D1D8F8000040
:103D800030F08050C8F80000A069002879D03E4883
:103D9000006810F00C00082847D0A069022833D131
:103DA000424F00203860FFF7FBF98046DFF8E090D3
:103DB000D9F80000800107D5FFF7F2F9B0EB080051
:103DC0000328F3D303205DE0E169206A0143606AC0
:103DD00051EA8011A06A4008401E51EA0041E06AA1
:103DE00051EA00612948016001203860FFF7D8F9E5
:103DF0000500D9F80000800143D4FFF7D1F9401B3A
:103E00000328F6D303203DE0002028490860FFF78F
:103E1000C7F905001E480068800132D5FFF7C0F9D8
:103E2000401B0328F6D303202CE0A069012801D110
:103E3000012027E0154800680600A06901281ED06F
:103E400016F48000E169884219D116F03F00216A1A
:103E5000884214D147F6C0703040616AB0EB811FD0
:103E60000DD116F44030A16A4908491EB0EB014F4C
:103E700005D116F07060E16AB0EB016F01D001204E
:103E800000E00020BDE8F283083802400438024018
:103E90000038024000004742800E4742743802401A
:103EA00040380240007000407038024060004742D5
:103EB0002DE9F04104000D00002C01D1012095E016
:103EC0005F4F386810F00700A84207D23D7038688D
:103ED00010F00700A84201D0012087E02078800779
:103EE00016D52078400704D55648016851F4E051B2
:103EF00001602078000704D55248016851F4604100
:103F0000016050490A6832F0F002A06802430A607A
:103F10002078C00738D56068012805D14A48006874
:103F2000800313D4012061E06068022802D0606839
:103F3000032805D144480068800107D4012055E0DA
:103F400041480068800701D401204FE0DFF8F48089
:103F5000D8F800108908890060680143C8F800108B
:103F6000FFF71EF90600D8F8000010F00C00616899
:103F7000B0EB810F08D0FFF713F9801B41F28931B4
:103F80008842F0D3032031E0386810F00700854202
:103F900007D23D70386810F00700A84201D0012018
:103FA00024E02078400706D526490A6832F4E0521A
:103FB000E06802430A602078000707D521480168BD
:103FC00031F46041226951EAC201016000F016F942
:103FD0001E491C4A1268C2F30312895CC8401C497E
:103FE00008601C48006800F09BF80020BDE8F081E4
:103FF00017480068704780B5FFF7FAFF1649114A65
:104000001268C2F38222895CC84002BD0F2202609E
:104010000C4A136813F003034360136813F0F003B2
:104020008360136813F4E053C3601268D20812F47B
:10403000E0520261024A126812F007020A607047F9
:10404000003C02400838024000380240FC480008AA
:1040500008000020040000205C49000830B4020081
:1040600092F83C00012801D102203CE0012082F8B6
:104070003C00022082F83D001068436810688468A4
:1040800033F0700308680343106843601068174DED
:10409000A8421BD01068B0F1804F17D01068144DA3
:1040A000A84213D01068134DA8420FD01068124DCB
:1040B000A8420BD01068114DA84207D01068104DCF
:1040C000A84203D010680F4DA84205D134F08004F7
:1040D0004868044310688460012082F83D00002095
:1040E00082F83C00002030BC704700000000014016
:1040F0000004004000080040000C004000040140A3
:10410000004001400018004003480168034A12784B
:1041100089180160704700BF943900200C0000200E
:104120002DE9F84787B00500002700260020009001
:104130002B48016851F001010160006810F0010096
:104140000090009801A902A8FFF760FF059C002CD1
:1041500003D1FFF750FF070003E0FFF74CFF070014
:104160007F002048B7FBF0F8B8F10108DFF878903D
:104170005FF08040C9F8000040F2E730C9F80C0059
:10418000C9F804800020C9F810000020C9F8080010
:104190000020C9F818004846FFF7E2F98246504669
:1041A000C0B2002816D14846FFF711FA82465046A1
:1041B000C0B200280ED11C20FEF78BFD102D07D2B7
:1041C000002229001C20FEF76FFD0848056001E071
:1041D000012082465046C0B208B0BDE8F08700001A
:1041E0004038024040420F004838002004000020C0
:1041F0007047704770477047704770472DE9F0412E
:1042000000240025002600271F48006810F00C003D
:10421000002804D0042804D0082804D031E01B482A
:1042200030E01B482EE0DFF86C80D8F8000010F07A
:104230003F000400D8F8000040020CD5D8F8000078
:10424000C0F388101249A1FB00012200002300F0F6
:1042500045F805000BE0D8F80000C0F388100B49C2
:10426000A1FB00012200002300F038F80500D8F877
:104270000000C0F30140401C40000600B5FBF6F012
:1042800000E00248BDE8F081083802400024F40054
:1042900040787D010438024013F0004C03D55B42A6
:1042A000524263F100039CEA210C00F0178010B524
:1042B000644603D34942404261F1000100F00EF828
:1042C000640004D34942404261F10001244203D515
:1042D0005B42524263F1000310BD0000BBBBE1B181
:1042E000B2F5803F80F07E80022A1ED98C46B1FB59
:1042F000F2F102FB11C31B0443EA1043B3FBF2FCCF
:1043000002FB1C3380B240EA0343B3FBF2F002FB32
:10431000103240EA0C4000237047022A05D9844637
:10432000B0FBF2F002FB10C270474AB105D100F0B9
:10433000010249085FEA30007047002200237047FD
:1043400000F0E4B80B00020000210020704790420A
:1043500071EB030CF6D3B3F5803F2FD2F0B5B3FA6F
:1043600083F7B1FA81F4A7F10F0E3D1B5340CEF154
:10437000200602FA0EF2F3415340B5F10F0746D87A
:104380000F3C2C444140C4F12006A040F141414083
:10439000B1FBF3F603FB1611A2FB0645001BA94176
:1043A00002D2761E8018594180EA010221FA0EF3EA
:1043B00062FA0EF200215A403046F0BD30B4B1FB33
:1043C000F3FC03FB1C11A2FB0C45001BA94103D20B
:1043D000ACF1010C8018594130BC02460B466046D6
:1043E00000217047B2F1807F65D3F0B5B2FA82F751
:1043F000B1FA81F4C7F10F063D1B22FA06F307F16B
:10440000110EF24120355A40B5F10F07B8D941409D
:10441000C4F12006A040F1414140B1FBF3FC03FB95
:104420001C11A2FB0C45001BA94103D2BCF1010CDD
:10443000801859410F2F12D30F3FC90341EA504151
:10444000B1FBF3F603FB1611A2FB0645D4EBC0301B
:10445000A94102D2761E8018594146EACC3C07B3E6
:104460004140C7F12006B840F1414140B1FBF3F6AD
:1044700003FB1611A2FB0645001BA94102D2761EC2
:104480008018594180EA010221FA0EF3C7F1200495
:1044900062FA0EF20CFA07F05A402CFA04F130439B
:1044A000F0BD80EA010221FA0EF3002162FA0EF259
:1044B00060465A40F0BD8C46B1FBF2F102FB11C3DD
:1044C0001B0243EA1063B3FBF2FC02FB1C331B022A
:1044D0004CEA002043EA1063B3FBF2FC02FB1C33FE
:1044E0001B024CEA002043EA1063B3FBF2FC02FB20
:1044F0001C331B024CEA002043EA1063B3FBF2FCBE
:1045000002FB1C324CEA0020002370477047000079
:10451000F8B502001400200000B201287CDB200066
:1045200000B2B0FA80F0B0F11103D80702D424B27F
:104530009C4003E024B213F1FF00844025002DB21B
:104540006D10260000EE104ABAEE600A8DED000AEA
:104550000098344FB7EB60070097DDED000AB0EE2E
:10456000601ABEEEC91A11EE100A84460FFA8CFCCE
:1045700010FB00F0C01310FB05F0C01300B2D0F523
:10458000405000FB0CFC5FEAEC3C5FEA8C00844688
:104590000FFA8CFC10FB00F0C01310FB05F0C013E9
:1045A00000B2D0F5405000FB0CFC5FEAEC3C5FEA47
:1045B0008C0084460FFA8CFC10FB00F0C01310FB3B
:1045C00005F0C01300B2D0F5405000FB0CFC5FEAD0
:1045D000EC3C5FEA8C0016FB00F0C0135FEA400C75
:1045E000D8070AD40FFA8CFC180000B25FF0020E54
:1045F00090FBFEF05CFA00FC0AE00FFA8CFC18005D
:1046000000B2401E5FF0020E90FBFEF05CFA00FC70
:10461000A1F800C0002003E0002008805FF0FF3018
:10462000F2BD00BFDF59375F2DE9F84F070088461C
:10463000914600240025C4465FEA9C0CBCF1000FA3
:1046400011D03E683A1D20002900C6FBC601136840
:104650009B46171D02000B00CBFBCB2314001D0053
:10466000BCF1010CEAE718F00306002E0FD0B7F9F1
:1046700000008246BF1C524612B253461BB22000B5
:104680002900C3FBC20104000D00761EEDE7494678
:1046900089462000290042460023FFF7FDFDC00B9C
:1046A00040EA4140C91300F30F00494600B2FFF74A
:1046B0002FFFBDE8F18F0000F8B504000020ADF831
:1046C00000000025104F5FF0FF33002239000F4833
:1046D0000068FEF7E0FE060038880500280080B27A
:1046E000002806D16A464FF4FA610948FFF79CFF9B
:1046F000E8E7280080B20128E4D16A464FF4FA6165
:104700000448FFF791FFDDE7E83900208C390020ED
:1047100010000020B00F002030B4002512E050F847
:10472000042BD30744BF4A44521E091F042942F8F0
:10473000045BFAD213468C0744BF15809B1CC90743
:1047400048BF1D7050F8041B0029E8D130BC7047E9
:10475000FEE7FEE7FEE7FEE7FEE7704780B50448A8
:10476000FEF790FF01BD80B50248FEF794F801BD49
:10477000483800205036002010B5074979441831D8
:10478000064C7C44163404E00A68081D114488472E
:104790000146A142F8D110BD98000000B800000009
:1047A0003C4900080000000000000000000000007C
:1047B00000000000000200001800000000000000DF
:1047C00000000000EC4800080000000000000000AD
:1047D00000000000000000000002000036000000A1
:1047E0000000000000000000484900080000000030
:1047F00000000000000000000000000000020000B7
:104800000800000000000000000000004EF6885183
:10481000CEF20001086840F470000860BFF34F8FCB
:10482000BFF36F8F4FF00170E1EE100A7047000088
:10483000E9FEFFFFDC39000010000020000000004E
:10484000FFD7FFFF10000000E40000000000002080
:104850000000000000F00DF8002801D0FFF78CFFE9
:10486000AFF300800020AFF3008000F004F800F008
:1048700007F80120704780B5FEF75AFB002002BD03
:1048800000F000B80746384600F002F8FBE70000E9
:1048900080B5AFF30080024A11001820ABBEFBE7E1
:1048A000260002000548014603B4684680F30988E3
:1048B000AFF30080FFF7AAFFFFF7CCFFA5EDF5FEF1
:1048C000D8480008000000000000000000000000C0
:1048D000000000000000000043616C63756C6174AF
:1048E000696F6E4E6F7469667900000041435F43E3
:1048F000616C63756C6174696F6E54000000000038
:10490000000000000102030406070809014880476F
:10491000014800471D490008A548000802480168F1
:1049200051F470010160704788ED00E0AAAAAAAABC
:10493000100000000024F4000100000068696768AE
:104940005072696F000000006D656469756D50728A
:10495000696F000000061016000610160000000027
:104960000102030449444C4500000000546D7220CC
:1049700053766300546D725100000000080000007F
:10498000F0E300E0FFF7FEBFFFF7FEBFFFF7FEBF5B
:10499000FFF7FEBFFFF7FEBFFFF7FEBFFFF7FEBF4B
:1049A000FFF7FEBFFFF7FEBFFFF7FEBFFFF7FEBF3B
:1049B000FFF7FEBFFFF7FEBFFFF7FEBFFFF7FEBF2B
:1049C000FFF7FEBFFFF7FEBFFFF7FEBFFFF7FEBF1B
:1049D000FFF7FEBFFFF7FEBFFFF7FEBFFFF7FEBF0B
:1049E000FFF7FEBFFFF7FEBFFFF7FEBFFFF7FEBFFB
:1049F000FFF7FEBFFFF7FEBFFFF7FEBFFFF7FEBFEB
:104A0000FFF7FEBFFFF7FEBFFFF7FEBFFFF7FEBFDA
:104A1000FFF7FEBFFFF7FEBFFFF7FEBFFFF7FEBFCA
:104A2000FFF7FEBFFFF7FEBFFFF7FEBFFFF7FEBFBA
:104A3000FFF7FEBFFFF7FEBFFFF7FEBFFFF7FEBFAA
:104A4000FFF7FEBFFFF7FEBFFFF7FEBFFFF7FEBF9A
:104A5000FFF7FEBFFFF7FEBFFFF7FEBFFFF7FEBF8A
:104A6000FFF7FEBFFFF7FEBFFFF7FEBFFFF7FEBF7A
:104A7000FFF7FEBFFFF7FEBFFFF7FEBFFFF7FEBF6A
:104A8000FFF7FEBFFFF7FEBFFFF7FEBFFFF7FEBF5A
:104A9000FFF7FEBFFFF7FEBFFFF7FEBFFFF7FEBF4A
:104AA000FFF7FEBFFFF7FEBFFFF7FEBFFFF7FEBF3A
:104AB000FFF7FEBFFFF7FEBFFFF7FEBFFFF7FEBF2A
:04000005080048A502
:00000001FF
