:020000040800F2
:1000000068660020A1300008D1300008D530000813
:10001000D9300008DD300008E130000800000000A1
:10002000000000000000000000000000C51A0008E9
:10003000E5300008000000006D1A000819290008CA
:10004000E9300008ED300008F1300008F530000814
:10005000F9300008FD3000080131000805310008C2
:10006000093100080D310008113100081531000870
:10007000193100081D310008213100082531000820
:10008000293100082D3100083131000835310008D0
:10009000393100083D310008413100084531000880
:1000A000493100084D310008513100085531000830
:1000B000D7260008593100085D3100086131000879
:1000C00065310008693100086D31000871310008A0
:1000D00075310008793100087D3100088131000850
:1000E00085310008893100088D3100089131000800
:1000F00095310008993100089D310008A1310008B0
:10010000A5310008A9310008AD310008B13100085F
:10011000B5310008B9310008BD310008C13100080F
:1001200009270008C5310008C9310008CD31000891
:10013000D1310008D5310008D9310008DD3100087F
:10014000E1310008E5310008E9310008ED3100082F
:10015000F1310008F5310008F9310008FD310008DF
:100160000132000805320008093200080D3200088B
:100170001132000815320008193200080000000092
:100180001D32000821320008F0B585B050260B9DC5
:1001900025B986F3118800F08CFAFEE70C9C24B98F
:1001A00086F3118800F085FAFEE75C270097DDF8FA
:1001B00000E0BEF15C0F04D086F3118800F079FAFC
:1001C000FEE7009E25630026022584F8595004AFFF
:1001D0000A9D039602940197009500F034F820469A
:1001E00000F078F8049805B0F0BD2DE9F843064614
:1001F000174684B088469946B80000F0EBFB05002E
:100200001CD05C2000F0E6FB040014D00020256325
:1002100084F85900039002940D980C990190009174
:100220004B463A464146304600F00DF8204600F075
:1002300051F8012004E0284600F055FC4FF0FF3053
:1002400005B0BDE8F0832DE9F0470A9F81460C46D2
:100250001546386B9A46A522A90000F093FC396B2D
:1002600001EB8502101FC0084FEAC00808F0070024
:1002700007F1340554B10021625C6A54605C10B12E
:10028000491C1029F8D30020E87300E02870089E6C
:10029000372E88BF3726099CFE62AE61E861C6F141
:1002A0003806381D00F098FC07F1180000F094FCA7
:1002B0003F61BE617F6200202862002187F85810EC
:1002C00052464946404600F0C3FC386004B12760FE
:1002D000BDE8F0872DE9FC4100F081F8DFF86C55AE
:1002E000DFF89085E86C401CE8641426A86A28BBF7
:1002F000AC62E86C012829D1002706FB07F04044D6
:1003000000F05DFC7F1C382FF7D305F1780000F07A
:1003100056FC05F18C07384600F051FC284600F0E9
:100320004EFC05F1140000F04AFC05F1380000F025
:1003300046FC05F17800E8622F6307E0A86D28B954
:10034000E06AA96ACA6A904228BFAC62A86E401CE3
:10035000A866606464B1204601F050F8236B206801
:10036000C01A009004F13401E26A204601F05AF903
:1003700000F009FAE06A696D814238BF686546435A
:10038000211D08EB060000F02AFC00F0ECFCA86D33
:1003900030B100F0E7F903D200F0DAFA00F089F9A1
:1003A000BDE8F38110B5040016D0DFF8A014486F43
:1003B00020B100F017F800F07CF9FEE74A6F521CFC
:1003C0004A672146232000F093FE0021204600F0DA
:1003D000C7FA00F057F808B900F066F910BD0446F6
:1003E00000F0A8BC502181F31188704738B586B061
:1003F00000210591049103AA04A905A801F05EF962
:10040000059804990FF27025DFF84044029000220D
:10041000009201910023039A0FF2F1302946FFF771
:10042000B3FE2067F0B101F053F9502101281BD130
:1004300081F3118800F03DF94FF0FF30E0660121B3
:10044000A165002020650522A06A2946343001F00C
:10045000E9FA18B1A06A00F0EEFF01E000F0C9FF70
:1004600000F018FC07B030BD10F1010FFAD181F394
:10047000118800F01EF9FEE7DFF8D003416F491C38
:100480004167704770B5DFF8C463706F00240025C2
:1004900020B9FFF7A7FF00F00CF9FEE700F04AFCD7
:1004A000706F401E7067706F002838D1F06CE0B933
:1004B00035E0F068C46800F034F800F050F900F05E
:1004C00062F9E06A716D814238BF70651423DFF80C
:1004D000A4235843211D104400F081FBE06AB16A57
:1004E000CA6A904224BF0121316630680028E0D1F9
:1004F0000CB100F0D8F9F46D44B100F021F808B166
:1005000001203066641EF8D10020F065306E30B1F5
:10051000DFF8AC144FF08050012500F0C9F800F06E
:1005200010BA04F1180000F080BBDFF89804006DE9
:10053000704780B500F042FCDFF88804006D02BD12
:100540002DE9F843DFF80473786F0026002853D1B3
:100550003C6D641C3C6510D1F86A006820B1FFF75F
:1005600041FF00F0A6F8FEE7F86A396BF9623863DC
:10057000786E401C786600F096F9F86EDFF8F49219
:1005800084424FF0140828D320E0F96AC868C5688F
:10059000686884422ED300F0D8F9A86A18B105F132
:1005A000180000F042FB00F0D8F9E86A796D81424A
:1005B00038BF786508FB00F0291D484400F00FFBA8
:1005C000E86AB96ACA6A904228BF0126F86A0068D8
:1005D0000028DAD14FF0FF31F966B86AC06A08FB2B
:1005E00000F859F80810022928BF0126386E30B1EA
:1005F000012604E0F866F0E7F86D401CF865304627
:10060000BDE8F28310B5DFF84442606F10B10121FC
:10061000216610BD2066616DDFF8AC2300E0491E45
:1006200014234B43D05830B90029F8D100F028F8F2
:1006300000F03FF8FEE7D01800F108034268526866
:1006400042609A4204BF526842604068C368A36235
:1006500061650522D4F8283007A103F1340001F0C8
:10066000E1F920B1A06ABDE8104000F0E4BEBDE8A9
:10067000104000F0BEBE000049444C4500000000A0
:10068000502080F31188704710B50C4620B9FFF751
:10069000F7FF00F00EF8FEE700F02CF800F0ACFADF
:1006A0002046BDE8104009E0DFF814134FF08050F9
:1006B0000860BFF34F8FBFF36F8F7047012100F0C9
:1006C0004FB938B50D46144620B9FFF7D9FFFFF7EB
:1006D000F0FFFEE700F00EF800F081FA0CB14FF0E9
:1006E000FF35242000F0FDFC21462846BDE83440BB
:1006F00000F036B9DFF8CC22936A03F11801704795
:1007000038B5C068C46824B9FFF7BAFFFFF7D1FF56
:10071000FEE7FFF706FFDFF8AC52686F50B900F054
:100720001EF800F030F800F02AF838BF6A6500F0D3
:100730000FF802E004F11801284600F050FA00F02A
:1007400011F803D201212966012032BD002032BDFB
:100750001420DFF874324243211D98187047201D81
:1007600000F063BAA86AC16AE06A81427047142047
:10077000DFF854324243211D981800F030BAE26A83
:10078000686D90427047204600F05ABEDFF8341280
:100790004A6E0260096D41607047F8B504460D4627
:1007A000502024B980F31188FFF783FFFEE725B9B5
:1007B00080F31188FFF77DFFFEE700F0BBFADFF85A
:1007C0000402016D62682E688B1A16F1010F0ED0BB
:1007D000476ED4F800C0674501D091420BD2B342B6
:1007E00007D2F31A2B60416E2160006D6060002417
:1007F00002E000202860012400F0B5FA2046F2BD96
:10080000DFF8C011012008667047000070B5194C70
:10081000DFF8B05111E000F08DFA286AC668301D8B
:1008200000F003FAE86C401EE864686B401E6863E1
:1008300000F099FA304600F01FF8686B0028EAD102
:1008400021680229F9D3FFF72FFFF6E7686100203E
:100850000146002000E0401C11F8012BA52AFAD027
:100860008003000C704710B9DFF85801806A006BF4
:10087000EEE700008454002010B5044694F85900B7
:1008800040B9206B00F02FF92046BDE8104000F081
:100890002AB910BD0128F7D00228FAD0FFF7F0FEE0
:1008A000FFF707FFFEE7DFF81C11C86A006810B900
:1008B0004FF0FF3203E0C86AC268D0684268CA6677
:1008C0007047DFF80011886D08B901207047486F44
:1008D00008B9022070470020704738B5044600214F
:1008E000002C2CD0DFF8DC50A86A5022844204D0BF
:1008F00082F31188FFF7DDFEFEE7206D20B982F359
:100900001188FFF7D6FEFEE7E26AE36C401E9A42CA
:10091000206514D098B9FFF722FF21464A2000F045
:10092000E7FBE06CE062C0F13800A061FFF72BFF4D
:10093000FFF725FF38BF6A65FFF719FF0121084659
:1009400032BD00F010FA284670BD281D00F06DB9C8
:100950001B4A4FF0805111607047284600F070BD6F
:10096000F8B5184D2F6D0C46A96A0646081D00F013
:100970005CF916F1010F05D124B1A86A011D05F13A
:10098000380023E0A86AF619BE4246600AD2A86A77
:10099000042100F05AFDA86A011D286BBDE8F4404F
:1009A00000F02AB9A86A042100F04FFDA86A011DD1
:1009B000E86A00F021F9E86E864238BFEE66F1BDC4
:1009C00004ED00E06861002084540020BDE8F4409C
:1009D00000F005B92DE9F8430446FFF74DFD684FD7
:1009E000B8684FF00009002508BB07F1200307F1A4
:1009F000200113F0070F4FF440600A4605D0CA1DCE
:100A0000D208D200C2F54060081880180838C00823
:100A1000C0003A607D60B86045600560831A53602D
:100A2000106050683861F8604FF00040F8614FF096
:100A30005008F869044246D1002C44D0083414F020
:100A4000070F04D004F1080004F00704041B002C75
:100A500039D0F868A04236D33E68394601E03146C5
:100A600006467068A04202D230680028F7D1B86804
:100A7000864228D00A683068086002F10809726866
:100A8000121B112A0CD3311911F0070002D000F00B
:100A900023F8FEE7301D02517460084600F04DF85F
:100AA0007168F8683C69401AF860FA68A24288BF29
:100AB0002246F8693A6101437160356009F0070523
:100AC0007869401C7861FFF7DDFC15B100F004F88F
:100AD000FEE74846BDE8F28388F31188BFF34F8FE5
:100AE000BFF36F8F7047002800D1704738B5A0F171
:100AF0000805234C6968E2695023114204D183F34D
:100B00001188FFF7EBFFFEE7286820B183F3118817
:100B1000FFF7E4FFFEE791436960FFF7ADFCE16892
:100B200068684118E160284600F007F8A069401C99
:100B3000A061BDE83140FFF7A5BC30B510490A46B9
:100B400000E01A4613688342FBD35368D4188442EA
:100B500003D14068C3185360104643681468C51831
:100B6000A54208D189688C4204D06168CB184360E3
:100B7000246800E00C460460824218BF106030BD5B
:100B8000943E002062F30F2262F31F4200B500BFC3
:100B9000130096469446103928BFA0E80C50FAD8A6
:100BA0005FEA417C28BF0CC048BF40F8042BC9074E
:100BB00028BF20F8022B48BF00F8012B00BD4FF0E2
:100BC000FF3200F1080182604160C16000F108025B
:100BD000026100210160704700210161704710B57A
:100BE00042684A6093688B609468616091600861B4
:100BF0000168491C016010BD30B50A6812F1010F8F
:100C000008BF036907D000F1080300E023465C68D1
:100C10002568AA42FAD25A684A6091608B6059608E
:100C200008610168491C016030BD43680169826840
:100C30009A60836842685A604A68824204BF836847
:100C40004B60002202610868401E08600868704717
:100C5000490810B54900A0F120034FF08074996154
:100C60001A60DC616FF002020FF20D01596140F869
:100C7000242D203810BD00005D494A68502012F133
:100C8000010F80F31188BFF34F8FBFF36F8F00D038
:100C9000FEE7FEE77CB5574A574B10685021984253
:100CA00002D100F0B7F8FEE71068544B984202D129
:100CB00000F0B0F8FEE7524B1C780194FF251D7040
:100CC0001E784B4C8DF800609DF8000000F050003D
:100CD0002070072005E09DF800506D00401E8DF843
:100CE00000509DF800502E06F5D4454215F1030F33
:100CF00003D0A06000F08EF8FEE7000200F4E06090
:100D0000A06001981870116A41F470011162106AB4
:100D100040F07040106200F095FE0020606000F02E
:100D2000EFFE3848016841F04041016000F0D8FE14
:100D3000002076BD502080F31188BFF34F8FBFF3A2
:100D40006F8F2B494A68521C012A4A600AD12E49EA
:100D50000A68130606D080F31188BFF34F8FBFF3E4
:100D60006F8FFEE770472249486838B9502080F3FA
:100D70001188BFF34F8FBFF36F8FFEE7401E4860AF
:100D800008BF80F31188704780B5502080F3118828
:100D9000BFF34F8FBFF36F8F00F0F1FAFFF7D0FB77
:100DA00030B100F011FB18494FF08050086001E0AD
:100DB00000F000FB002080F3118801BD10B5EFF3B7
:100DC0000580502110280A4A07D3104B185C14786C
:100DD000A04202D200F01EF8FEE790680C4A1368A9
:100DE00003F4E063984202D200F014F8FEE710BD6D
:100DF0000000002000ED00E071C20F4170C20F4101
:100E000000E400E034EF00E004ED00E0F0E300E097
:100E10000CED00E081F31188BFF34F8FBFF36F8FAC
:100E200070470EE002684368024408305FEAC37C02
:100E300044BF4B445B1E52F804CB43F804CB091F5C
:100E4000F9D150F8041B0029ECD1704710B50024EB
:100E500051B100E0641C0B5D002BFBD1A24288BFA6
:100E600022461446FF2C02D200F8014B05E0FF2277
:100E70000270230A44708370C01C002204E011F841
:100E8000013B00F8013B521CA242F8D310BD1CB537
:100E9000DFF80806047E00F038F8002834D09DF80A
:100EA0000000012810D0022811D0032812D00428F5
:100EB00013D0052814D0062815D0072816D07F286F
:100EC00022D0802815D01CE000F08FF913BD00F06F
:100ED000C1F913BD00F03EFA13BD00F02DFA13BDA9
:100EE00000F0CDF913BD00F044FB13BD00F036FB5C
:100EF00013BD00F00AF838B19DF8000000F0FEFACA
:100F000013BD01DB00F001F813BD01226946204644
:100F100000F03EBE2DE9F84FDFF88065DFF8A895B8
:100F20003778D6F80C80012F84B082460C461546DF
:100F30001ED0380034D0022F1AD101208DF80000C5
:100F40000DF10102D6F814B0584600F090F8D9F827
:100F500000000390A0EB080000F089F86B46707861
:100F6000D21A694600F0DAFEB8B1DDF80C8001272C
:100F7000202D03D2F069E840C10760D4182D5146F6
:100F8000224612D3501A80280BD3C30901F8013C22
:100F900040F0800001F8020D05E00BF101007061E6
:100FA0004DE001F8010D7F2D02D201F8015D30E026
:100FB000EB090C1FB5F5804F45F0800003D2E370BC
:100FC00001F8020D25E0B5F5001F43F080034FEA5C
:100FD000953A05D284F803A0A37001F8030D18E038
:100FE000B5F1805F4AF0800A4FEA555C07D284F879
:100FF00003C084F802A0637001F8040D09E02D0F0E
:10100000E5704CF08005A57084F801A0237001F80C
:10101000050DD9F80040A4EB080004E040F080037F
:1010200002F8013BC0098028F8D202F8010B521ADD
:10103000707800F073FE002814BFA0467F1C327E3B
:10104000DFF8A804377018214A438118C6F80C80CD
:10105000C86E096F401A07D0B07828B90121B17065
:10106000FFF715FF0020B07005B0BDE8F08F04E079
:1010700040F0800102F8011BC0098028F8D202F874
:10108000010B70472DE9F84304460D461646984675
:101090000FF23C59DFF8047400234FF4806207F12B
:1010A0002C01484600F0B0FD787000217878387641
:1010B0000091082307F22C42494600F0E7FD00208A
:1010C000DFF8041438610A68FA603E627C60BD6033
:1010D000C7F824803870BDE8F183DFF8C0130861D9
:1010E000704710B5024600F0F7F9DFF8D41465E157
:1010F00038B502460B4600F074F9014604E043F0AF
:10110000800501F8015BDB09802BF8D201F8013B77
:1011100000F051BA70B5EFF31185202383F31188E5
:10112000DFF89C341C4604E041F0800604F8016BB3
:10113000C9098029F8D204F8011B04E042F08001BB
:1011400004F8011BD209802AF8D204F8012B2146A9
:1011500002469CE1F8B500F00EF805F8013B0246A6
:1011600029462DE0F8B500F006F8069905F8013B90
:1011700000F02EF824E0EFF31186202484F3118888
:10118000DFF83C44254604E041F0800705F8017B88
:10119000C9098029F8D205F8011B04E042F080015A
:1011A00005F8011BD209802AF8D205F8012B04E0CA
:1011B00043F0800105F8011BDB09802BF8D2704752
:1011C0002046FFF7A7FE86F31188F1BD05F8012B35
:1011D00004E041F0800205F8012BC9098029F8D20A
:1011E00005F8011B02462946704770B5AB4C01203B
:1011F0002070EFF31185202686F311880A2260788B
:101200000FF2D43100F08AFD85F311880A20FFF730
:1012100068FFEFF3118586F3118804F23B406268A2
:1012200000F0BCF8A26800F0BAF8226900F0B7F844
:10123000002201F8012B1822FFF76CFE85F31188BC
:10124000606A00B1804700F085F800F075F8BDE8ED
:1012500070408EE138B500F00CF8904D287838B128
:1012600005F23B410B220846FFF754FE00232B708A
:10127000A3E1EFF31184202181F31188704738B581
:1012800000F036F9854D6A6805F23B4000F086F8BB
:10129000AA6800F084F82A6900F081F8002301F8B8
:1012A000013B1822FFF736FE84F31188686A10B1FB
:1012B000BDE83240004731BDF8B500F02BF8774F5C
:1012C0002268396907F23B463046511A00F029F886
:1012D000A16800F026F820226168FFF7B7FD0146FB
:1012E00009223046FFF716FE226838693146101A87
:1012F00000F0DEF8E06800F0DBF8206900F0D8F8D4
:101300001522002001F8010B3046FFF703FE85F39C
:101310001188F1BD0446EFF31185202080F3118878
:10132000704704E041F0800200F8012BC9098029D0
:10133000F8D200F8011B70475848006A18B140689D
:10134000002818BF0047704738B500F021F9014662
:101350000E222FE180B55148006A00281CBF0068AA
:10136000002806D080470A46BDE8084001460D2007
:10137000D0E655480168BDE804400C20B8E610B539
:1013800000F0B6F8DFF83C22DFF8340212680146BC
:10139000C2F3080200F003F8022210E0014604E064
:1013A00042F0800301F8013BD209802AF8D201F80B
:1013B000012B704710B500F00CF803220846FFF728
:1013C000A9FD84F3118810BD10B500F002F81222B7
:1013D000F4E7EFF31184202080F31188DFF8E011A7
:1013E0007047EFF31184202080F31188DFF8D001DB
:1013F000704710B5FFF7EDFF1122DFE738B500F0B9
:1014000002F80822D7E00246EFF31184202080F38F
:101410001188DFF8B43103F23B401B690146D21A50
:1014200004E042F0800501F8015BD209802AF8D27D
:1014300001F8012B704738B5FFF7E5FF0422BAE049
:1014400038B5FFF7E0FF0622B5E070B5EFF3118580
:10145000202282F31188114A02F23B4312691C4692
:10146000801A04E040F0800604F8016BC00980286F
:10147000F8D204F8010B04E041F0800004F8010BFD
:10148000C9098029F8D204F8011B07222146184611
:10149000FFF740FD85F3118870BD0000B44A0020BD
:1014A000EFF31184202181F31188DFF814311946FC
:1014B00004E040F0800201F8012BC0098028F8D236
:1014C00001F8010B70470000041000E003F8010B65
:1014D00080221846FFF7BABCEFF31184202383F370
:1014E00011887047384A1169401A7047CC4F002064
:1014F000EFF31184202080F311887047324A0146AF
:10150000906A002800D1704738B5002302E00069D6
:10151000C0B15B1C8B42FAD3A0B1FFF7DDFF02F232
:101520003B452B4600F00FF8816800F00CF8802254
:101530000168FFF7CEFF014616222846FFF7EAFCB6
:1015400084F3118831BD04E041F0800203F8012BDF
:10155000C9098029F8D203F8011B704710B51A4851
:10156000846A2CB1E06800B180472469002CF9D16D
:1015700010BD10B5FFF7BCFF144A11481278FFF7F1
:101580000DFF1B221BE738B500F002F801230AE02B
:101590000146EFF31184202080F31188084D80224A
:1015A0002846FFF753BC00F8013B002100F8011B5F
:1015B0001A2201462846FFF7ADFC84F3118831BD9D
:1015C000EF4E002004ED00E0B44A002062620020EB
:1015D0005379735669657700000000000000000031
:1015E000000000007CB50024234D0FE014222349A5
:1015F00062438E18641C3068FFF735F93061009043
:10160000F368B2687168306800F03CF8286884427A
:10161000ECD373BD80B5FEF78CFF4FF47A71A1FB5C
:10162000000104BDF8B505460C4616461F460522C6
:1016300020A1204600F0F6F9E8B10F490A68082A0F
:1016400004D3BDE8F2400E48FFF79DBF4FF0140CE5
:101650000A4B06980CFB02FC6344521C1D605C6044
:101660009E60DF6018610A6000903B46324621466A
:10167000284600F007F8F1BD5C620020C860002039
:10168000D02E00082DE9F84185B006460F460C9C87
:1016900090461D461421684600F08AFB009601978B
:1016A000CDF80880039504946846FFF705FE06B060
:1016B000BDE8F08149444C4500000000034B036045
:1016C00003F15C000860802111607047405D0020DC
:1016D00010B586B000F072F9DFF83043A068C0B1F1
:1016E00000210591049103AA04A905A800F064FB58
:1016F0000598049902900222009201910023039A16
:101700000FF210310FF28100FEF73EFD0028E0607D
:1017100005D1502181F3118800F00AF8FEE701207D
:1017200006B010BD2046BDE8F681502080F3118838
:10173000BFF34F8FBFF36F8F7047F8B5044684B087
:101740001E46002014B9FFF7F0FFFEE7DFF8BC7279
:10175000BD68BDB106290091019202940CDAFFF731
:10176000B0F8022807BF0A9A002300230022B868B5
:10177000694600F0D4FB05E000233246694628465E
:1017800000F079FC05B0F0BDF8B586B09F4D296832
:10179000086810B90124002602E0C8680668002421
:1017A000FEF76AFE01A800F0B4F807460198002889
:1017B0003FD154BBB7422DD3FEF764FE2868C16801
:1017C000CC68201DFFF731FA94F82800410717D59F
:1017D000A16933463A468919204600F0D5F840B150
:1017E000002000900023324600212046FFF7A5FF8D
:1017F00018B1216A2046884725E0FFF796FFFEE7EB
:1018000000F0FE0084F82800F3E7686801684C1EC9
:10181000A441E40FA8682246F11B00F051FEFEF738
:1018200031FE80B97A494FF080500860FFF780FFA1
:1018300009E0FEF727FE06E094F8280081073BD474
:101840002046FFF750F9A868002202A900F071FCB9
:1018500000289CD00298002803D505990498039A83
:10186000904702980028EED4049C606910B1201DB6
:10187000FFF7DBF901A800F04CF802990929E2D83A
:10188000DFE801F02121211A070621211A07DAE7F2
:10189000D2E794F8282042F0010284F82820039926
:1018A000A16131B1034602460918204600F06CF8E8
:1018B000C9E7FFF73AFFFEE794F8280000F0FE00C2
:1018C00084F82800BFE794F8281041F0010184F85B
:1018D000281002460399A0690B464118204600F0E3
:1018E00053F80028AFD0216A2046884794F8280092
:1018F0004107A8D5002000900023039AA069821810
:1019000000212046FFF719FF00289CD1FFF70DFFAB
:10191000FEE72DE9FC410646FEF707FE3B4D044677
:101920002869844209D3002131602C61FAE678608D
:101930003F61391D2868FFF75FF929680868F0B131
:10194000C868D0F80080C768381DFFF76EF9396A9B
:101950003846884797F828004107EED5B8694044D3
:101960008045E4D300200090002342460021384601
:10197000FFF7E3FE0028E0D1FFF7D7FEFEE7686837
:10198000696028600121CFE738B500248A424160B0
:1019900000611E4D06D38169D21A8A4206D2011D0A
:1019A000686807E09A4203D2994201D3012403E018
:1019B000011D2868FFF720F9204632BD1CB5FFF74E
:1019C000B9F9124CA068E0B904F11400FFF7F7F878
:1019D00004F12800FFF7F3F804F1140004F12801E2
:1019E000002220606160009204F13C0304F18C024B
:1019F00010210A2000F025FAA06010B107A100F024
:101A00003FFDBDE81340FFF7AEB900009C5F00202A
:101A100004ED00E0546D722053766300546D7251F2
:101A20000000000003000020521E22BF13F8010B2B
:101A300011F801CBB0EB0C00F6D0521C08BF1046D9
:101A4000704700000748084B0021016000228260B7
:101A50004FF47A721968B1FBF2F2521E426007210C
:101A60000160704710E000E00C000020EFF30980F7
:101A7000BFF36F8F264B1A681EF0100F08BF20EDC2
:101A8000108A20E9F04F106009B44FF0500080F345
:101A90001188BFF34F8FBFF36F8FFEF7B3FD4FF089
:101AA000000080F3118809BC19680868B0E8F04F9D
:101AB0001EF0100F08BFB0EC108A80F30988BFF346
:101AC0006F8F7047124B19680868B0E8F04F80F3C9
:101AD0000988BFF36F8F4FF0000080F311887047C3
:101AE0000C480068006880F308884FF0000080F31D
:101AF000148862B661B6BFF34F8FBFF36F8F00DFFC
:101B0000DFF81400016841F47001016070470000C3
:101B10009061002008ED00E088ED00E010B5DFF8EE
:101B2000D841A821204600F043F903222261032076
:101B3000606104F1A8010FF2C410A061E1614FF4EB
:101B4000806222620021A16200226262E16220665C
:101B5000102104F595606066A166002020670021D1
:101B6000E16600286067BFF35F8F0FF29C1142426D
:101B70000A44D27B2254401C1028F8D3BFF35F8F55
:101B800010BD00007068C1192246404600F0BCBC80
:101B90002DE9F84300F030F808B9FFF7BFFF18202F
:101BA0004443281900F1600600243769F568BD42F6
:101BB0000AD2B468E41B4C4588BF4C46FFF7E2FFED
:101BC00000F013F808BF0027ED1B4D4588BF4D46B8
:101BD00035B17068C1192A46FFF7D7FF2C19EF19E4
:101BE00004B137612046BDE8F283B168E719A0442B
:101BF000A9EB04098F427047DFF8FC5004462878AF
:101C000088469146704700002DE9F04100F037F812
:101C100008B9FFF783FF00F02AF807F11C0C03FB5B
:101C200001FE5CF80E0018B13869491C8142F6DBF0
:101C3000D7F810C061450CDA00F013F88461C56173
:101C40000662836200244462C0F82C80BFF35F8F79
:101C500001E04FF0FF3100BF82F311880846BDE874
:101C6000F08103FB01F307EB030000237047EFF360
:101C70001182202080F311880021182370471E4F05
:101C8000044638780D461646984670472DE9F041CF
:101C900000F029F808B9FFF741FF032C0ED200F03D
:101CA00019F86032002C01D000F00CF80698506151
:101CB000BFF35F8F81F31188002001E04FF0FF3008
:101CC000BDE8F08115605660976000201061002328
:101CD000D3607047EFF31181202080F31188182220
:101CE000624342447047DFF81080044698F80000D1
:101CF0000D4616461F467047CC4F00205465726D46
:101D0000696E616C00000000000000000000545487
:101D1000522052454747455300000000F0B400EB05
:101D20004003DFF8880000EBC30000F118063069BB
:101D3000F7687568874232D3B368DC1B631E934231
:101D400014D37D19D019000011F8013B05F8013BAF
:101D5000521E05D011F8013B05F8013B521EF3D18C
:101D6000BFF35F8FF0600120F0BC7047C018904255
:101D700019D37819121B11F8013B00F8013B641EBE
:101D8000F9D1141C05D011F8013B05F8013B521E96
:101D9000F9D1BFF35F8FF4600120F0BC7047C01B26
:101DA000401E9042CDD20020F0BC7047CC4F0020A6
:101DB0000022FEF7EBBE0000044B036003F15C0061
:101DC00008604FF480711160704700BFE458002034
:101DD00070B504000D4602D100F099F8FEE7FEF759
:101DE000A9FF206CE16B226800FB01F3491E484308
:101DF00010441344A3600026A663E060626004F10F
:101E000044004FF0FF310170417075B92069A0B1F5
:101E100004F11000FEF774FC78B1DFF898164FF06B
:101E20008050086000F017FA07E004F11000FEF798
:101E3000C6FE04F12400FEF7C2FEFEF794FF012067
:101E400070BD7CB51C46502320B983F3118800F087
:101E500002FAFEE724B983F3118800F0FCF9FEE7EB
:101E60002AB129B983F3118800F0F5F9FEE779B9B1
:101E700050250095009E502E0FD1009B34B1069B3B
:101E8000012584F84650009400F028F8204676BDDD
:101E900083F3118800F0DFF9FEE783F3118800F087
:101EA000DAF9FEE7F8B505000E46174602D100F054
:101EB0002EF8FEE706FB05F05030FEF78BFD040020
:101EC0000AD0002084F8460000943B4604F15002FA
:101ED0003146284600F002F82046F2BDF8B5069FCC
:101EE00005460C001E460CBF3F603A60FD633C6433
:101EF00001213846FFF76CFF87F84C6033462246D5
:101F0000294601B0BDE8F0407320FFF723B9502007
:101F100080F31188BFF34F8FBFF36F8F70472DE9A8
:101F2000F44783B005460C461F46502625B986F374
:101F3000118800F090F9FEE70CB9286C70B9022FF7
:101F400002D1E86B01280ED1FEF7BBFC80B90398E3
:101F500070B186F3118800F07EF9FEE786F31188F0
:101F600000F079F9FEE786F3118800F074F9FEE7D6
:101F7000A0462E460024DFF840954FF0805A2CE012
:101F8000039800284ED014B900F077F90124FEF729
:101F9000EAFEFEF771FAFEF7CDFE00F071F904BF1C
:101FA0000022027000F064F904BF00224270FEF7C4
:101FB000DAFE00F05CF800284DD1FEF7BBFEB06BF6
:101FC000F16B884214BF00250125FEF7CCFE002DE1
:101FD00031D100F03CF9FEF755FAFEF7ABFEB06BDD
:101FE000F16B884201D3022FCAD13046FFF77AFA4B
:101FF00000F036F83A464146304600F0BAF9716AC8
:1020000029B106F12400FEF77BFB08B904E018B102
:10201000C9F800A000F01FF9FEF7A5FE012004B0EA
:10202000BDE8F087FEF79FFE3046FFF75BFA00F051
:1020300017F80020F3E7039906F11000FEF724FBE0
:1020400000F005F9FEF71EFA0028C6D1C9F800A075
:1020500000F001F9C1E700F0FAF8FEF713FAE3E740
:10206000039B0097014642465A20FFF77BB803A91D
:1020700001A8FEF792BB2DE9F04704000E46154675
:102080001F464FF0500804D188F3118800F0E3F8A0
:10209000FEE70EB9206C70BB022F02D1E06B012865
:1020A0002ED1FEF78BFEEFF3118A88F3118800F032
:1020B0005AF9E26B9142204601D3022F2BD194F9B9
:1020C0004590A16BFFF70EFA00F02EF83A46314624
:1020D000204600F04EF919F1010F16D1606AC0B127
:1020E00004F12400FEF70CFB002818BF002D10D0CF
:1020F000012028600DE088F3118800F0ACF8FEE7BD
:1021000088F3118800F0A7F8FEE709F1010984F8C7
:102110004590012004E0FFF7E5F900F005F8002004
:102120008AF31188BDE8F08701462A466020FEF751
:10213000F1BF2DE9F64383B006460F460024502533
:1021400026B985F3118800F086F8FEE70FB9306CE8
:1021500048B9FEF7B6FB78B9049868B185F31188E1
:1021600000F079F8FEE785F3118800F074F8FEE7D7
:1021700000F06DF8FEF786F9FEF7DCFDB56BDFF8D1
:102180003883002D4FF0805932D1049800284AD06E
:1021900014B900F072F80124FEF7E5FDFEF76CF9C2
:1021A000FEF7C8FD06F14400415711F1010F04BFCD
:1021B0000022027000F05CF804BF00224270FEF7BB
:1021C000D2FD04A9FFF754FF0028304635D100F0B6
:1021D0004CF90028CCD000F046F800F038F8FEF7B3
:1021E00051F90028C8D1C8F8009000F034F8C3E7CE
:1021F0003946304600F0F1F800F055F800F047F8A5
:1022000000F049F86D1EB563306940B106F1100069
:10221000FEF776FA18B1C8F8009000F01CF8FEF747
:10222000A2FD01201CE0FEF79EFD00F03CF800F04E
:102230002EF800F030F80020F4E700F0E2F8FEF7A6
:1022400021F9304600F011F9002895D0EDE730462D
:10225000D7E087F31188BFF34F8FBFF36F8F7047BD
:1022600005B0BDE8F083049906F12400FEF70CBA2E
:1022700090F9011011F1010F704701A8FEF786BA1D
:1022800006F1440090F9001011F1010F7047044667
:102290003046FFF727B9012100910146049B2246F1
:1022A0005C20FEF75FBF0020FFF71CB92DE9F84F57
:1022B0000546502625B986F31188FFF7CCFFFEE7C7
:1022C0000800009101D1286CF8B91446FEF776FD9C
:1022D000EFF3118986F31188FFF7BDFFAE6B00980D
:1022E000A046AB46B6B9FFF7FDF805465846FFF7DE
:1022F000F9F8014643462A466220FEF72BFF0024E8
:1023000089F311882046BDE8F28F86F31188FFF724
:10231000A2FFFEE795F94470FFF7E4F882465846BD
:10232000FFF7E0F80146434652466220FEF712FFEF
:102330000099284600F051F8761E17F1010FAE63A0
:102340000CD1286968B105F11000FEF7D9F9002811
:1023500018BF002C05D00120206002E07F1C85F80A
:1023600044700124CCE7BFF34F8FBFF36F8FA16B95
:102370007047F8B506461546B46B326C002742B973
:10238000306830BBB068FEF7A8FA00210746B1609C
:102390001FE065B9706800F0B7F87068316CB2681A
:1023A00008449042706014D33068706011E0F068A7
:1023B00000F0AAF8306CF16840420144F1603268E4
:1023C000914202D2B1680844F060022D01D104B1FB
:1023D000641E641CB4633846F2BD026C002A0B46CE
:1023E00000D1704710B5C16884681144C160A14232
:1023F00024BF0168C160C168BDE81040184600F004
:1024000083B8F8B50546FEF795FC05F1440494F948
:10241000016007E005F12400FEF772F908B1FEF74C
:10242000EFF9761E70B2012802DB686A0028F1D14C
:102430004FF0FF366670FEF796FCFEF77BFC94F9D2
:10244000007007E005F11000FEF75AF908B1FEF739
:10245000D7F97F1E78B2012802DB28690028F1D164
:102460002670BDE8F140FEF77EBC10B50446FEF7CD
:1024700061FCA06B441EA441FEF775FCE00F10BD8B
:1024800010B50C4600220D4B53F8321019B1521CF6
:10249000082AF9D310BD03EBC20143F8324048606B
:1024A000FFF720F82246BDE8104001467120FEF7F4
:1024B00031BE000004ED00E004ED00E00862002001
:1024C000F8B504460D461646FEF734FC04F138070D
:1024D00097F90C0010F1010F04BF0021397397F92F
:1024E0000D0010F1010F04BF00217973FEF73BFCD2
:1024F000386828B93246294604F12400FEF7E1F88D
:102500002046BDE8F2407CE74AB1000011F8013BEB
:10251000521E00F8013B1CBF11F8013BF8E7704761
:1025200010B500F0A8F88F4C206840F0080020603B
:1025300000228D48016841F080710160826120684D
:1025400040F0010020608948016841F0030101600A
:10255000606940F4807060618548816A21F470018F
:102560008162016B490949010163026822F48072AA
:102570000260416821F002014160C16841F0070139
:10258000C160416841F000514160416841F08051B3
:102590004160416821F070614160416841F0C06173
:1025A0004160416841F480614160416841F480715B
:1025B0004160416841F400714160416841F00101AE
:1025C0004160416841F080414160206840F48000F2
:1025D00020606848016821F0C0010160026842F48F
:1025E00080720260016841F480610160026842F417
:1025F00020520260016821F060610160026842F0CF
:1026000010020260016841F008010160026842F0B6
:10261000040202604FF47A62016841F00201016035
:102620005548564900F067F85549564B4FF08070B1
:10263000086050221A704FF08041206940F001007C
:102640002061A72200208862CA624FF68F704B6813
:1026500003404B604A6842F020024A60C86840F07C
:102660000100C8600A6842F001020A6000F0A7F8A1
:1026700000F0CAF8FEE74448016C41F08051016463
:1026800042490A6842F480420A6081688160826837
:1026900042F42042826081683D4A41F4A051816049
:1026A0004260016841F08071016002689101FCD5CF
:1026B00040F20562374B1A608168890889008160A1
:1026C000816841F002018160816801F00C010829F4
:1026D000FAD100F0D9B830480168CA0706D5416878
:1026E000CA0703D5416849084900416022482B4A7E
:1026F0000168118070471F4B5A609860D960186854
:1027000040F001001860704770B5254E254C3068C8
:10271000254DC1060FD5B06840F01000B060002113
:10272000012000F0F3F80021298000232068002216
:10273000294600F0BFF93068810611D5B06840F035
:102740002000B0600021022000F0E0F80120288085
:1027500029462068BDE870400023002200F0AAB995
:1027600070BD000030380240000C02400000024002
:1027700004200140106402404C200140541F0020FE
:1027800004E100E038E400E000380240007000405E
:10279000082A0007003C02400C0000401000002006
:1027A00000640240546200206062002080B50B4843
:1027B000FEF7CAFDBDE802400CA0FEF7C5BD80B51E
:1027C0000748084B0168084A0846FEF75BFCBDE86D
:1027D00002404FF08050FEF780BC0000582F0008E8
:1027E0000C000020AD270008C8300008492331350F
:1027F0003D5379735469636B2C492332373D444D03
:10280000415F49535200000038B500F092F800BF14
:1028100014A2022101200E4C0E4D00F01BF9E060C5
:102820002A4600210C4800F0AEF8206005F1240291
:1028300000210A4800F0A7F8606005F14802002175
:10284000074800F0A0F8A060BDE8314000F080B873
:1028500048620020642E0008E92D00087D2D000844
:10286000F32D0008683000080000000000000000A0
:102870000000000000000000000000001A4801688D
:1028800041F47001016070471849486800F00C007D
:10289000042802D0082802D019E0154818E008687A
:1028A0000A68C0F3805002F03F02002814BF1048AD
:1028B00010480B68B0FBF2F2C3F38810424308687B
:1028C000C0F30140401C4000B2FBF0F000E00948BA
:1028D000094A00BF09A310604968C1F30311595C9C
:1028E000C84010607047000088ED00E004380240E6
:1028F00040787D010024F4000C000020000000005E
:10290000000000000102030406070809890001F124
:10291000604108607047704780B5DFF82C0101689E
:10292000FDF7CFFF012803D0BDE80140FEF72CBA28
:1029300001BDEFF3058000B16EE0DFF8101108680B
:1029400010B901220A6070474FF0FF307047000055
:1029500080B5EFF3058000B10FE0DFF8F00001680B
:10296000012909D1DFF8E81000220A700223036070
:10297000FDF73CFD002002BD02E06FF0050002BD46
:102980004FF0FF3002BDF8B584B000230393EFF39E
:102990000583002B3DD103003BD080251826002461
:1029A0005AB3136803B11C4693691BB11E0004D0CF
:1029B000392E02D21379DF0701D500202AE05369AE
:1029C00003B19D08D2F80CC0976887B1BCF15C0FC9
:1029D0001FD31269002A18BF002B1AD001920B4690
:1029E000029700962A462146FDF7CEFB10E0BCF187
:1029F000000F04BF1269002A0BD103AB01930096AC
:102A00000B46AAB22146FDF7F0FB012801D00020B9
:102A10000390039805B0F0BD6FF00500704710B546
:102A2000EFF3058111B16FF0050403E0002408B154
:102A3000FDF7B8FC204610BDDFF838114FF080508C
:102A4000086070470000000010E000E058620020BD
:102A50001FED00E0F8B514460025EFF305823ABB00
:102A6000002818BF002923D0E4B1E268A36893B11D
:102A7000502A1DD32269DAB1666901FB00F7BE4214
:102A800016D30095FFF7DDF9050011D0002C14BF17
:102A9000216800210AE0002A04BF2269002A07D128
:102AA00062692AB90022FFF7FDF9EDE7FFF7E8FCBC
:102AB0002846F2BD7CB500F056F8A2B1002818BF38
:102AC000002914D09CB900946A46FFF7D4FA012873
:102AD0001AD1009820B1FEF777FCFFF7ADFF14E0A4
:102AE000FEF768FC11E0002818BF002902D16FF042
:102AF00003050AE000232246FFF711FA012804D05B
:102B000014B16FF0010500E03546284676BD7CB56E
:102B100000F029F8A2B1002818BF002914D09CB9F0
:102B200000936A46FFF7C2FB012819D1009820B133
:102B3000FEF74AFCFFF780FF13E0FEF73BFC10E0D6
:102B4000002818BF002902D16FF0030509E02246D2
:102B5000FFF7EFFA012804D014B16FF0010500E08F
:102B60003546284676BD1C4600256FF00206EFF379
:102B70000582704704ED00E013F0004C03D55B4282
:102B8000524263F100039CEA210C00F0178010B55B
:102B9000644603D34942404261F1000100F00EF85F
:102BA000640004D34942404261F10001244203D54C
:102BB0005B42524263F1000310BD0000D3BBD9B1A8
:102BC000B2F5803F5BD2022A1ED98C46B1FBF2F1EE
:102BD00002FB11C31B0443EA1043B3FBF2FC02FBEC
:102BE0001C3380B240EA0343B3FBF2F002FB103225
:102BF00040EA0C4000237047022A05D98446B0FB06
:102C0000F2F002FB10C270474AB105D100F0010298
:102C100049085FEA3000704700220023704700F047
:102C200051B80B000200002100207047F7D30022AA
:102C300000237047904271EB030CF2D370B5B1FAE8
:102C400081F4B3FA83F52C1BA340C4F1200532FABA
:102C500005F63343A2405FF00046E64002E05B0821
:102C60005FEA3202841A71EB030524BF204629462D
:102C70007641F4D302000B003000002170BD70B526
:102C8000B1FA81F4B2FA82F5C4F120046419B4F106
:102C90002006DAD3B2405FF00044F440002502E0A1
:102CA00052085FEA3303C61A71EB020E24BF3046A6
:102CB000714664416D41F3D302000B0020002900EE
:102CC00070BD00007047000038B5002840DDB0FA44
:102CD00080F2A2F111031BB2DC0752BF984003F14E
:102CE000FF0290401D4A00B2054600EE105ABAEEAF
:102CF000600A8DED000AC403009DA2EB65020092FC
:102D000024149DED000ABEEEC90A10EE102A12B27C
:102D100000F026F800F024F812FB02F56D002D14E7
:102D200014FB05F464002414C4F540546243D21328
:102D3000920412145043C01340040014DA0748BF31
:102D40005B1E03EBD3735B1018410880002032BD7B
:102D5000002008804FF0FF3032BD0000DF59375FA0
:102D600012FB02F56D002D1465436D002D14C5F5A1
:102D700040556A43D2139204121470472DE9FC4166
:102D80000020ADF80000DFF85480154F154E11E01B
:102D9000012D06D16A464FF4FA6108F57A6000F019
:102DA00035F8641E13D141F288340120FFF7B3FDDA
:102DB000641EFAD138684FF0FF3300223146FFF726
:102DC000A6FE00210520FFF7A1FD35880424002D73
:102DD000DED16A464FF4FA614046E0E71400002075
:102DE000546200206062002080B50120FFF717FECA
:102DF000FBE710B54CF250340120FFF78CFD641E48
:102E0000FAD14FF4FA70FFF70AFEF3E7F8B503467C
:102E10000F4600240025B80808E01E68191DC6FBEF
:102E2000C6450E680B1DC6FBC645401EF5D117F002
:102E3000030004E033F9021BC1FBC145401EF9D178
:102E40001646204629463A460023FFF795FEC00B5A
:102E500040EA41403146BDE8F44000F30F00FFF77F
:102E600033BF0000B0300008000000000000000088
:102E70000000000000000000000200001800000038
:102E8000000000000000000090300008000000007A
:102E90000000000000000000000000000002000030
:102EA000360000000000000000000000BC300008F8
:102EB0000000000000000000000000000000000012
:102EC00000020000080000000000000000000000F8
:102ED00053595354454D564945573A20436F756CE5
:102EE00064206E6F74207265636F72642074617306
:102EF0006B20696E666F726D6174696F6E2E204D06
:102F00006178696D756D206E756D626572206F6692
:102F1000207461736B7320726561636865642E0051
:102F200030B4002512E050F8042BD30744BF4A44C4
:102F3000521E091F042942F8045BFAD213468C077B
:102F400044BF15809B1CC90748BF1D7050F8041B67
:102F50000029E8D130BC70474E3D46726565525439
:102F60004F532044656D6F204170706C69636174CC
:102F7000696F6E2C443D436F727465782D4D342C0F
:102F80004F3D4672656552544F53000010B50749D6
:102F900079441831064C7C44163404E00A68081D54
:102FA000114488470146A142F8D110BD2C00000011
:102FB0004C0000004EF68851CEF20001086840F443
:102FC00070000860BFF34F8FBFF36F8F4FF0017039
:102FD000E1EE100A7047000049FFFFFF5062000059
:102FE00014000020000000003BDEFFFF1400000082
:102FF0008C000000000000200000000000F00DF830
:10300000002801D0FFF7C2FFAFF300800020AFF32C
:10301000008000F004F800F007F80120704780B548
:10302000FFF77EFA002002BD00F000B807463846E0
:1030300000F002F8FBE7000080B5AFF30080024A21
:1030400011001820ABBEFBE7260002000548014630
:1030500003B4684680F30988AFF30080FFF7AAFF46
:10306000FFF7CCFFA5EDF5FE43616C63756C6174F1
:10307000696F6E4E6F746966790000000000000091
:10308000AAAAAAAA000000000024F400510200002D
:1030900041435F43616C63756C6174696F6E54008A
:1030A00001488047014800477D2800084D3000084E
:1030B00064656661756C745461736B0054657374F8
:1030C0005461736B0000000015160008E515000838
:1030D000FFF7FEBFFFF7FEBFFFF7FEBFFFF7FEBF24
:1030E000FFF7FEBFFFF7FEBFFFF7FEBFFFF7FEBF14
:1030F000FFF7FEBFFFF7FEBFFFF7FEBFFFF7FEBF04
:10310000FFF7FEBFFFF7FEBFFFF7FEBFFFF7FEBFF3
:10311000FFF7FEBFFFF7FEBFFFF7FEBFFFF7FEBFE3
:10312000FFF7FEBFFFF7FEBFFFF7FEBFFFF7FEBFD3
:10313000FFF7FEBFFFF7FEBFFFF7FEBFFFF7FEBFC3
:10314000FFF7FEBFFFF7FEBFFFF7FEBFFFF7FEBFB3
:10315000FFF7FEBFFFF7FEBFFFF7FEBFFFF7FEBFA3
:10316000FFF7FEBFFFF7FEBFFFF7FEBFFFF7FEBF93
:10317000FFF7FEBFFFF7FEBFFFF7FEBFFFF7FEBF83
:10318000FFF7FEBFFFF7FEBFFFF7FEBFFFF7FEBF73
:10319000FFF7FEBFFFF7FEBFFFF7FEBFFFF7FEBF63
:1031A000FFF7FEBFFFF7FEBFFFF7FEBFFFF7FEBF53
:1031B000FFF7FEBFFFF7FEBFFFF7FEBFFFF7FEBF43
:1031C000FFF7FEBFFFF7FEBFFFF7FEBFFFF7FEBF33
:1031D000FFF7FEBFFFF7FEBFFFF7FEBFFFF7FEBF23
:1031E000FFF7FEBFFFF7FEBFFFF7FEBFFFF7FEBF13
:1031F000FFF7FEBFFFF7FEBFFFF7FEBFFFF7FEBF03
:10320000FFF7FEBFFFF7FEBFFFF7FEBFFFF7FEBFF2
:10321000FFF7FEBFFFF7FEBFFFF7FEBFFFF7FEBFE2
:04322000FFF7FEBFF7
:040000050800304D72
:00000001FF
