:020000040020DA
:1000000000200020953A2000C5392000C739200083
:10001000C9392000CB392000CD3920000000000074
:10002000000000000000000000000000F1142000AB
:10003000CF3920000000000095142000670D20003B
:10004000C53A2000C93A2000CD3A2000D13A20001C
:10005000D53A2000D93A2000DD3A2000E13A2000CC
:10006000E53A2000E93A2000ED3A2000F13A20007C
:10007000F53A2000F93A2000FD3A2000013B20002B
:10008000053B2000093B20000D3B2000113B2000D8
:10009000153B2000193B20001D3B2000213B200088
:1000A000253B2000293B20002D3B2000313B200038
:1000B000353B2000393B2000D13920003D3B20005A
:1000C000413B2000453B2000493B20004D3B2000A8
:1000D000513B2000553B2000593B20005D3B200058
:1000E000613B2000653B2000693B20006D3B200008
:1000F000713B2000753B2000793B20007D3B2000B8
:10010000813B2000853B2000893B20008D3B200067
:10011000913B2000953B2000993B20009D3B200017
:10012000D7392000A13B2000A53B2000A93B20009F
:10013000AD3B2000B13B2000B53B2000B93B200087
:10014000BD3B2000C13B2000C53B2000C93B200037
:10015000CD3B2000D13B2000D53B2000D93B2000E7
:10016000DD3B2000E13B2000E53B2000E93B200097
:10017000ED3B2000F13B2000F53B2000000000009B
:10018000F93B2000FD3B2000013C2000053C200005
:10019000093C20000D3C2000113C2000153C2000B3
:1001A000193C20001D3C2000213C2000253C200063
:1001B000293C20002D3C2000313C2000353C200013
:1001C000393C20003D3C2000F0B585B050260B9D09
:1001D00015B900F024F8FEE70C9C14B900F01FF8E4
:1001E000FEE75C270097DDF800E0BEF15C0F02D06F
:1001F00000F015F8FEE7009E25630225002784F82D
:10020000595004AD0397029401950A9E009600F0A0
:100210003DF8204600F081F8049805B0F0BD72B6B4
:1002200086F31188BFF34F8FBFF36F8F62B67047AD
:100230002DE9F8430646174684B088469946B8002B
:1002400000F094FB05001CD05C2000F08FFB040044
:1002500014D00020256384F859000D9A03900C985F
:1002600001924B4600903A4602944146304600F0D7
:100270000DF8204600F051F8012004E0284600F077
:1002800007FC4FF0FF3005B0BDE8F0832DE9F047E3
:100290000A9F81460C4615469A46A522386BA9004E
:1002A00000F046FC3A6B02EB850107F13405081FAC
:1002B000C0084FEAC00808F0070054B10021625C92
:1002C0006A54605C10B1491C1029F8D30020E8730F
:1002D00000E02870089E372E88BF3726099CFE62F2
:1002E000AE61C6F13806E861381D00F04BFC07F13D
:1002F000180000F047FC3F610020BE6100217F62D2
:1003000052462862404687F85810494600F08CFC57
:10031000386004B12760BDE8F0872DE9F04100F0B6
:1003200054F8E86C1426DFF89085401CE864A86A4D
:1003300028BBAC62E96C012929D1002706FB07F034
:100340007F1C404400F011FC382FF7D305F17400F6
:1003500005F1880700F009FC384600F006FC284645
:1003600000F003FC05F1140000F0FFFB05F138007C
:1003700000F0FBFB05F17401E9622F6307E0A86D53
:1003800028B9E16AA86AC26A914228BFAC62A86E25
:10039000E26A401C6064696D914238BF6A655643E9
:1003A000A866211D08EB060000F0EFFB00F0C8FC7A
:1003B000A86D40B1A96AE26AC86A904203D200F00F
:1003C0002CF800F00CF8BDE8F0810446DFF8085581
:1003D00000F099BC4FF08050DFF800150860BFF3C3
:1003E0004F8FBFF36F8F704780B578B1DFF8E82487
:1003F000116F11B100F017F8FEE7116F491C11677A
:10040000002100F07CFA00F05AF808B9FFF7E2FF8B
:1004100001BD04F1180000F0DEBB4FF08051DFF8A1
:10042000BC341960704772B6502080F31188BFF356
:100430004F8FBFF36F8F62B6704780B586B00020D4
:10044000059003AA049004A905A800F03DFE059AB2
:10045000049802920021039A0190009100230FF268
:1004600004510FF25130FFF7AFFE88B100F044FEA7
:10047000502101280ED100F013F8DFF8D4044FF01A
:10048000FF31C166012282650023036500F0F0FBA5
:1004900007B000BD10F1010FFAD100F001F8FEE73E
:1004A00072B681F31188BFF34F8FBFF36F8F62B6BF
:1004B0007047DFF89C04016F491C0167704770B5F5
:1004C000DFF814640024306F002510B900F0A3F8A1
:1004D000FEE700F018FC306F401E3067316F0029D6
:1004E00037D1F06CD0B934E0F168CC68FFF791FFF8
:1004F00000F0B4F9E06A716D814238BF7065142371
:10050000DFF850245843211D104400F03EFBE06A00
:10051000B16ACA6A904224BF01233366306800285A
:10052000E2D10CB100F080F9F46D44B100F016F89E
:1005300008B101203066641EF8D10021F165306EEB
:1005400038B14FF08051DFF8102401251160FFF71A
:1005500046FFBCE1DFF8F803006D70472DE9F84372
:10056000DFF874730026386F00284DD13C6D641C91
:100570003C650ED1F86A006810B100F04CF8FEE757
:10058000F86A396BF9623863786E401C786600F05F
:100590004BF9F86E4FF01408DFF8B893844227D374
:1005A0001FE0F96ACA68D568686884422AD3281DA2
:1005B00000F011FBA86A18B105F1180000F00BFB60
:1005C000E86A796D814238BF786508FB00F0291D23
:1005D000484400F0DAFAE86AB96ACA6A904228BF69
:1005E0000126F86A00680028DBD14FF0FF31F96678
:1005F000B86AC06A08FB00F859F80810022906D347
:10060000012604E0F866F3E7F96D491CF965386ED8
:1006100000B1012664E172B6502181F31188BFF365
:100620004F8FBFF36F8F62B6704710B5DFF8A82207
:10063000106F10B10121116610BD1066516DDFF809
:10064000143300E0491E14244C43185920B90029E2
:10065000F8D1FFF7E0FFFEE7181900F1080443683E
:100660005B684360A34204BF5B6843604068C36843
:100670009362516510BD10B50C4610B9FFF7D3FE5B
:10068000FEE700F01BF800F08DFA20460121BDE8DE
:10069000104000F034B938B50D46144610B9FFF7D4
:1006A000C2FEFEE700F00AF800F06FFA0CB14FF05E
:1006B000FF3521462846BDE8344020E1DFF890228E
:1006C000936A03F11801704738B5C068C46814B95B
:1006D000FFF7A1FFFEE704F11800DFF8745200F005
:1006E0007AFA296F41B900F0B9F800F013F838BF71
:1006F0006A6500F0FEF802E004F11801284600F0F7
:1007000044FA00F0F1F803D2012301202B6632BD38
:10071000002032BDE26A686D904270471420DFF815
:1007200034324243211D981800F02FBADFF820120E
:100730004A6E0260096D41607047F8B504460D4687
:10074000502014B900F028F8FEE715B900F024F89D
:10075000FEE700F0D8FADFF8F801016D62682E6854
:100760008B1A16F1010F0ED0476ED4F800C0674502
:1007700001D091420BD2B34207D2F31A2B60416EE3
:100780002160006D6060002402E0002129600124E6
:1007900000F0D6FA2046F2BD72B680F31188BFF39E
:1007A0004F8FBFF36F8F62B670470120DFF8A01143
:1007B0000866704770B5404CDFF81C5111E000F03E
:1007C000A2FA286AC668301D00F005FAE86C401EDF
:1007D000E864696B491E696300F0B2FA304600F0C4
:1007E0000EF8686B0028EAD121680229F9D34FF08E
:1007F0008050DFF864211060FFF7F1FDF1E710B5DC
:10080000044694F8590040B9206B00F041F92046A5
:10081000BDE8104000F03CB910BD0128F7D0022817
:10082000FAD0FFF700FEFEE72B49C86A006818B946
:100830004FF0FF32CA667047C86AC268D36858680A
:10084000C8667047DFF80811886D08B90120704745
:10085000086F08B90220704700207047201D00F083
:10086000BAB938B50446002114B3DFF8E450502279
:10087000A86A844202D000F021F8FEE7206D10B98A
:1008800000F01CF8FEE7E26A401EE36C20659A4225
:100890000ED068B9FFF7E2FFE26CE262C2F1380005
:1008A000A061696D914238BF6A65FFF737FF01218A
:1008B000084632BD00000000085C012072B682F3D9
:1008C0001188BFF34F8FBFF36F8F62B6704700F090
:1008D00037FA284670BD00004C68012004ED00E0A6
:1008E0003046BDE8F2830000A86AE26AC16A91421C
:1008F00070471420174B4243211D98187047F8B5D4
:10090000134D0C462F6DA96A0646081D00F063F9C9
:1009100016F1010F05D124B1A86A011D05F13800B7
:100920001CE0A86AF619BE424660A86A05D2011DFD
:10093000286BBDE8F44000F035B9011DE86A00F00D
:1009400031F9E86E864238BFEE66F1BD0000000066
:100950004C680120085C012004ED00E0BDE8F44093
:1009600000F013B949444C45000000002DE9F8435C
:1009700004466E4FFFF79DFDB8680026002508BBB2
:1009800007F1180313F0070F07F118014FF4705027
:100990000A4605D0CA1DD208D200C2F57050081808
:1009A00080180838C008C0003A60811A7D60B860BD
:1009B000456005605160106050683861F8604FF024
:1009C0000040786179694FF050080C424ED1002CFC
:1009D0004CD0083414F0070F04D004F1080004F0E0
:1009E0000704041B002C41D0F868A0423ED33946CE
:1009F000D7F8009001E049468146D9F80420A24288
:100A000003D2D9F800000028F5D1B86881452DD06F
:100A10000A68D9F800300B6002F10806D9F8042002
:100A2000121B112A0FD309EB040111F0070002D0A9
:100A300000F025F8FEE709F1040002510846C9F864
:100A4000044000F04EF8D9F80410F8683C69401AE8
:100A5000F860FA68A24288BF224678693A61014389
:100A6000C9F80410C9F8005006F00705FFF727FD84
:100A700015B100F004F8FEE73046BDE8F28372B627
:100A800088F31188BFF34F8FBFF36F8F62B6704743
:100A9000002800D1704738B5A0F10804234D6168E3
:100AA0006A695023114205D172B683F31188FFF7AA
:100AB000E9FFFEE7206828B172B683F31188FFF7DB
:100AC000E1FFFEE791436160FFF7F3FCE9686068CE
:100AD00041182046E96000F004F8BDE83140FFF716
:100AE000EEBC124930B50A4600E01A46136883424C
:100AF000FBD35368D418844203D14068C31810460E
:100B0000536043681468C518A54208D189688C42AF
:100B100004D06168CB184360246800E00C46046090
:100B2000824218BF106030BD000000001C00012090
:100B300062F30F2262F31F4200B500BF1300964616
:100B40009446103928BFA0E80C50FAD85FEA417CDF
:100B500028BF0CC048BF40F8042BC90728BF20F8A5
:100B6000022B48BF00F8012B00BD4FF0FF3200F10F
:100B70000801826000F1080341600022C360016146
:100B80000260704700210161704710B542684A60F9
:100B900093688B6094686160916008610168491C8A
:100BA000016010BD30B50A6812F1010F08BF03697A
:100BB00007D000F1080300E023465C682568AA42DC
:100BC000FAD25A684A6091608B6059600861016886
:100BD000491C016030BD10B54368016982689A60A4
:100BE0008268446854604B68834204BF82684A60EC
:100BF000002303610868401E0860086810BD0EE00D
:100C000002684368024408305FEAC37C44BF4B4437
:100C10005B1E52F804CB43F804CB091FF9D150F8FE
:100C2000041B0029ECD170474908490010B5A0F118
:100C300020034FF0807499610FF215011A606FF074
:100C40000202DC61596140F8242D203810BD0000FB
:100C50005C4950204A6812F1010F72B680F3118886
:100C6000BFF34F8FBFF36F8F62B600D0FEE7FEE792
:100C70001CB55549FF230A7801920B700C788DF84A
:100C800000409DF800004F4C00F0500020700720FD
:100C900005E09DF80020401E52008DF800209DF8D0
:100CA00000301A06F5D4424212F1030F03D0A060BF
:100CB00000F01FF8FEE7000200F4E060A060019879
:100CC00008704248016841F470010160026842F016
:100CD0007042026000F0C8FB0020606000F026FC5B
:100CE0003B48016841F04041016000F00FFC0020EA
:100CF00016BD72B6502080F31188BFF34F8FBFF33B
:100D00006F8F62B6704772B6502080F31188BFF3C0
:100D10004F8FBFF36F8F62B62A494A68521C012A6F
:100D20004A600CD12B490A68130608D072B680F3CA
:100D30001188BFF34F8FBFF36F8F62B6FEE7704726
:100D40002049486848B972B6502080F31188BFF333
:100D50004F8FBFF36F8F62B6FEE7401E486008BF3B
:100D600080F31188704780B5FFF7C3FFFFF7F6FBEC
:100D700018B14FF0805017490860002282F31188A3
:100D800001BD000010B5EFF30580502110280D4A79
:100D90000AD3114B185C1478A04205D272B681F3C5
:100DA0001188FFF7AAFFFEE790680C4A136803F466
:100DB000E063984205D272B681F31188FFF79DFF78
:100DC000FEE710BD0000012000E400E020ED00E09F
:100DD00034EF00E004ED00E0F0E300E00CED00E0B3
:100DE000EFF3058060B9DFF85811EFF310800028A9
:100DF00004BFEFF31180002803D00A68022A00D153
:100E00007FE0086810B901220A6070474FF0FF3098
:100E10007047000080B5EFF3058058B9DFF8201166
:100E200000F072F804BFEFF31180002803D00868C7
:100E3000022800D109E00A68012A05D102200860D1
:100E4000FFF7FBFA002002BD02E06FF0050002BDD3
:100E50004FF0FF3002BDF8B584B000230393EFF3E9
:100E60000583002B4AD1EFF31083002B04BFEFF36F
:100E70001183002B04D0DFF8C8301C68022C3DD051
:100E800003003BD08025182600245AB3136803B111
:100E90001C4693691BB11E0004D0392E02D213796F
:100EA000DF0701D500202AE0536903B19D08976848
:100EB000D2F80CC087B1BCF15C0F1FD31269002AB5
:100EC00018BF002B1AD001920B4602972A460096B3
:100ED0002146FFF779F910E0BCF1000F04BF126959
:100EE000002A0BD103AB009601930B46AAB2214610
:100EF000FFF79EF9012801D000200390039805B068
:100F0000F0BD6FF005007047EFF3108000287047C8
:100F100010B5EFF3058149B900F014F804BFEFF301
:100F20001181002905D000F011F802D16FF00504FD
:100F300003E0002408B1FFF757FA204610BD000077
:100F4000E4690120EFF3108100297047DFF89C115C
:100F50000A68022A70474FF08051034A1160BFF3BC
:100F60004F8FBFF36F8F704704ED00E0F8B5144664
:100F70000025EFF30582002A31D100F032F804BFDA
:100F8000EFF31182002A02D000F02FF827D00028BA
:100F900018BF002923D0E4B1A368E26893B1502AB6
:100FA0001DD32269DAB1666901FB00F7BE4216D390
:100FB000009500F002FB050011D0002C14BF216841
:100FC00000210AE0002A04BF2369002B07D16269CF
:100FD0002AB9002200F021FBEDE700F0ADFD284624
:100FE000F2BDEFF31082002A7047404A1368022BCB
:100FF00070477CB500F061F84AB9FFF7F2FF04BF13
:10100000EFF31182002A13D0FFF7EFFF10D1002871
:1010100018BF002910D07CB9009400236A4600F064
:10102000CDFB012815D10098A0B1FFF794FF11E086
:10103000002818BF002902D16FF003050AE0002341
:10104000224600F023FB012804D014B16FF0010503
:1010500000E03546284676BD7CB500F02EF84AB94A
:10106000FFF7BFFF04BFEFF31182002A12D0FFF792
:10107000BCFF0FD1002818BF00290FD074B900950C
:101080006A4600F08FFC012814D1009898B1FFF750
:1010900062FF10E0002818BF002902D16FF003059D
:1010A00009E0224600F0DDFB012804D014B16FF006
:1010B000010500E03546284676BD1C4600256FF048
:1010C0000206EFF305827047094B036003F15C00F1
:1010D0000860802111607047064B036003F15C00DB
:1010E00008604FF48071116070470000E4690120CE
:1010F000C46401206860012010B586B0DFF8504359
:1011000000F07EF9A068C0B1002204A9059205A8EC
:10111000049203AAFFF7E0FF0222059800920499C7
:10112000039A0290019100230FF22C310FF2750007
:10113000FFF74AF80028E06009D172B6502181F328
:101140001188BFF34F8FBFF36F8F62B6FEE70120A8
:1011500006B010BDF8B5044684B01E46002014B990
:1011600000F02AF9FEE7DFF8E872BD68BDB1062994
:101170000091019202940CDAFFF764FB022807BF8A
:101180000A9A002300230022B868694600F07EFA1C
:1011900005E0002332466946284600F00FFB05B003
:1011A000F0BD0000F8B586B0DFF8A45229680868E1
:1011B00010B90124002602E0C86800240668FFF781
:1011C00078F901A800F0B5F807460198002841D148
:1011D00054BBB7422DD3FFF772F92868C168CC68B9
:1011E000201DFFF7F8FC94F82800410717D5A169E6
:1011F00033463A462046891900F0E8F840B100200D
:1012000000230090324600212046FFF7A3FF18B1CB
:10121000216A2046884727E000F0CEF8FEE700F07C
:10122000FE0084F82800F3E7686801684C1EA441BA
:10123000E40FA8682246F11B00F092FCFFF73FF98B
:1012400090B94FF0805083490860BFF34F8FBFF3D0
:101250006F8F09E0FFF733F906E094F82800810763
:101260003BD42046FFF714FCA868002202A900F036
:10127000F8FA00289AD00298002803D50599049816
:10128000039A904702980028EED4049C606910B13C
:10129000201DFFF7A0FC01A800F04BF802990929D6
:1012A000E2D8DFE801F02121211A070621211A07DF
:1012B000DAE7D2E794F8282042F0010284F82820E7
:1012C0000399A16131B1034602460918204600F096
:1012D0007DF8C9E700F070F8FEE794F8280000F008
:1012E000FE0084F82800BFE794F828100246A069A1
:1012F00041F0010184F8281003990B46411820465B
:1013000000F064F80028AFD0216A2046884794F89E
:1013100028004207A8D50021039A0091A069002364
:1013200082182046FFF716FF00289DD100F044F8F0
:10133000FEE72DE9FC410646454DFFF70BF9044653
:10134000286984420ED30021316020462C61BDE81B
:10135000F681C8F8040008F10401C8F81080286874
:10136000FFF720FC2968086808B3C868D0F80C802B
:10137000076808F10400FFF72EFCD8F8201040465B
:10138000884798F828004207ECD5D8F81800C0190B
:101390008742DED30020002300903A4600214046D9
:1013A000FFF7D8FE0028DDD100F006F8FEE76868F8
:1013B000696028600121C7E772B6502080F3118868
:1013C000BFF34F8FBFF36F8F62B6704738B50024FD
:1013D0008A4241601E4D006106D3D21A83699A4247
:1013E00006D2011D686807E09A4203D2994201D3F0
:1013F000012403E0011D2868FFF7D4FB204632BD1D
:101400001CB5FFF780FC124CA068E0B904F1140091
:10141000FFF7ABFB04F12800FFF7A7FB04F1140072
:1014200004F1280100222060616004F13C03009275
:1014300004F18C0210210A2000F0BFF8A06010B166
:1014400007A100F079FBBDE81340FFF779BC00006D
:101450002067012004ED00E0546D72205376630094
:10146000546D72510000000030B508480021016041
:1014700000228260064B1C684FF47A750721B4FB8A
:10148000F5F56D1E4560016030BD00BF10E000E065
:1014900018000120EFF30980BFF36F8F274B1A6804
:1014A0001EF0100F08BF20ED108A20E9F04F1060E9
:1014B00009B44FF0500072B680F31188BFF34F8F1C
:1014C000BFF36F8F62B6FFF7B0F84FF0000080F304
:1014D000118809BC19680868B0E8F04F1EF0100FB9
:1014E00008BFB0EC108A80F30988BFF36F8F704794
:1014F000124B19680868B0E8F04F80F30988BFF311
:101500006F8F4FF0000080F3118870470C4800681F
:10151000006880F308884FF0000080F3148862B6FA
:1015200061B6BFF34F8FBFF36F8F00DFDFF814009A
:10153000016841F470010160704700007468012087
:1015400008ED00E088ED00E070B504000D4602D122
:1015500000F092F8FEE7FFF7D6FB206CE16B226803
:10156000002600FB01F3491E48434FF0FF311344AE
:10157000A3601044A663E06004F14400626001705F
:10158000417075B92069A0B104F11000FFF79CF813
:1015900078B14FF08050DFF8C015086000F009F90D
:1015A00007E004F11000FFF7E0FA04F12400FFF770
:1015B000DCFAFFF7C5FB012070BD7CB51C4650234B
:1015C00010B900F021F8FEE714B900F01DF8FEE7AD
:1015D0001AB119B900F018F8FEE779B9502500954D
:1015E000009E502E0DD1009B34B1069B012584F83E
:1015F0004650009400F030F8204676BD00F004F824
:10160000FEE700F001F8FEE772B683F31188BFF33E
:101610004F8FBFF36F8F62B67047F8B506000D4667
:10162000174602D100F028F8FEE7002D0EBF50202B
:1016300005FB06F05030FFF799F904000AD00020AE
:101640003B4684F8460004F1500200942946304697
:1016500000F002F82046F2BD38B51C46049D002972
:101660000CBF2D602A60E863284629640121FFF73A
:101670006BFF85F84C4031BD72B6502080F3118865
:10168000BFF34F8FBFF36F8F62B670472DE9F647F8
:1016900082B004469A46502714B900F07AF9FEE762
:1016A0000E0001D1206C68B9BAF1020F02D1E06BD3
:1016B00001280AD1FFF7C6F850B9039840B100F0ED
:1016C00068F9FEE700F065F9FEE700F062F9FEE771
:1016D0002746002400F03AF92DE00398002849D06D
:1016E0000CB900F050F9FFF72BFBFEF7E2FEFFF715
:1016F0000AFB07F1440000F03CF904BF002202702D
:1017000000F03CF904BF00224270FFF719FB00F023
:101710004AF8002841D1FFF7F6FAB86BF96B884216
:1017200014BF00250125FFF70BFB3DBB384600F039
:10173000C4F9FEF7C4FEFFF7E6FAB86BF96B88420E
:1017400002D3BAF1020FC8D152463146384600F0F2
:101750006DF9796A29B107F12400FEF7B5FF08B9E0
:1017600002E008B100F023F8FFF7EAFA012004B024
:10177000BDE8F087FFF7E4FA0020F8E7039907F1E6
:101780001000FEF778FF384600F097F9FEF797FE55
:101790000028D0D100F00BF8CDE7384600F08DF9E5
:1017A000FEF78DFEE8E703A96846FEF7C6BFC8F856
:1017B0000090BFF34F8FBFF36F8F70472DE9F84351
:1017C00004000E46154698464FF0500902D100F02D
:1017D0003FF8FEE70EB9206C48BBB8F1020F02D10A
:1017E000E06B012826D1FFF7CDFAEFF3118700F067
:1017F0002FF8A06BE16B884202D3B8F1020F22D11F
:1018000094F9459042463146204600F00FF919F10F
:10181000010F12D1606AA0B104F12400FEF754FF59
:10182000002818BF002D0CD00120286009E000F02E
:101830000FF8FEE700F00CF8FEE709F1010984F863
:101840004590012000E0002087F31188BDE8F28375
:1018500072B689F31188BFF34F8FBFF36F8F62B6F3
:1018600070472DE9F74306460F460024502516B968
:1018700000F071F8FEE70FB9306C38B9FEF7E2FFFF
:1018800058B9029848B100F066F8FEE700F063F836
:10189000FEE700F07CF8FEF712FEFFF734FAB56BB6
:1018A00000F054F8002D2FD10298002840D00CB938
:1018B00000F069F8FFF744FAFEF7FBFDFFF723FAA3
:1018C00006F14400415711F1010F04BF00220270DC
:1018D00000F054F804BF00224270FFF731FA02A969
:1018E000FFF762FF0028304626D100F01AF90028E1
:1018F000CFD000F039F800F04AF8FEF7E0FD0028FC
:10190000CBD1FFF754FFC8E73946304600F0C2F8A4
:101910006D1EB563306930B106F11000FEF7D4FEDC
:1019200008B1FFF744FFFFF70BFA0120BDE8FE8383
:10193000FFF706FA0020F9E700F0BFF8FEF7BFFD59
:10194000304600F0EEF80028A7D0F3E7DFF8088271
:101950004FF08059704772B685F31188BFF34F8FEF
:10196000BFF36F8F62B67047029906F12400FEF74D
:1019700082BE90F9001011F1010F704790F901102B
:1019800011F1010F704768460124FEF7CFBE3046C3
:1019900093E072B687F31188BFF34F8FBFF36F8F59
:1019A00062B670472DE9F84304460F4615465026A7
:1019B00014B900F032F8FEE70FB9206C60B9FFF7F8
:1019C000E1F9EFF3118800F028F8A66B3EB900208A
:1019D00088F31188BDE8F28300F01FF8FEE794F960
:1019E000449039462046761E00F054F8A66319F15B
:1019F000010F0CD1206970B104F11000FEF764FEF4
:101A0000002818BF002D06D00120286003E009F14E
:101A1000010984F844900120DAE772B686F3118850
:101A2000BFF34F8FBFF36F8F62B67047F8B50646AE
:101A30001546B46B326C002742B9316831BBB068CF
:101A4000FEF70FFF00210746B1601FE065B970681F
:101A500000F0AAF8B2687068316C08449042706077
:101A600014D33068706011E0F06800F09DF8306CBD
:101A7000F16840420144F1603268914202D2B36899
:101A80001844F060022D01D104B1641E641C384674
:101A9000B463F2BD38B5026C0B466AB1C1688468A4
:101AA0001144C160A14224BF0568C560C1681846E1
:101AB000BDE8384000F078B831BDF8B5054605F10D
:101AC0004404FFF720F994F9016007E005F12400D0
:101AD000FEF7FAFD08B1FEF768FE761E70B2012827
:101AE00002DB686A0028F1D14FF0FF366670FFF71D
:101AF00027F9FFF708F994F9007007E005F11000E5
:101B0000FEF7E2FD08B1FEF750FE7F1E78B2012815
:101B100002DB28690028F1D12670BDE8F140FFF70B
:101B20000FB910B50446FFF7EEF8A06B441EA441B0
:101B3000FFF706F9E00F10BD10B50023074C54F86D
:101B400033201AB15B1C082BF9D310BD44F83310B5
:101B500004EBC301486010BD04ED00E0946901206E
:101B6000F8B504460D46164604F13807FFF7CBF8E2
:101B700097F90C0010F1010F04BF0021397397F998
:101B80000D0010F1010F04BF00217973FFF7D8F8A1
:101B9000386828B93246294604F12400FEF77BFD57
:101BA0002046BDE8F24088E74AB1000011F8013B49
:101BB000521E00F8013B1CBF11F8013BF8E77047CB
:101BC0002DE9FC4104460025002C16D02078DFF8D2
:101BD000C064C10713D5B26802F00C02042A07D012
:101BE000B06800F00C0008283DD1716848023AD571
:101BF0003268910303D56068002800F07081217875
:101C00008A0719D5B06810F00C0F07D0B16801F041
:101C10000C01082962D1706841025FD432689007D4
:101C200003D5E168012940F05A813068216920F02C
:101C3000F80040EAC10030602278130779D5606966
:101C400000286DD0716F41F00101716700F036FA24
:101C50000746706F810773D400F030FAC01B02286A
:101C6000F7D903203EE16068B0F5803F0FD038B966
:101C7000316821F480313160306820F4802009E03F
:101C8000B0F5A02F08D1316841F48021316030686F
:101C900040F48030306007E0326822F480323260F5
:101CA000316821F480213160606858B100F006FA93
:101CB000074631688803A2D400F000FAC01B6528EB
:101CC000F7D3CEE700F0FAF907463068810396D5DE
:101CD00000F0F4F9C01B6528F7D3C2E7E06878B1DB
:101CE000316841F00101316000F0E8F907463068E1
:101CF00081079AD400F0E2F9C01B0228F7D9B0E7B7
:101D0000306840084000306000F0D8F9074631687C
:101D1000880791D500F0D2F9C01B0228F7D9A0E7B7
:101D2000706F40084000706700F0C8F90746706F98
:101D3000810705D500F0C2F9C01B0228F7D990E74A
:101D40002078410761D5326CD00009D4316C01256F
:101D500041F080513164306C00F080500090009967
:101D6000DFF83C733868C10510D43A6842F48072D9
:101D70003A6000F0A3F980463868C10506D400F047
:101D80009DF9A0EB08006528F6D36AE7A068012852
:101D900004D1306F40F00100306713E008B9306FB4
:101DA00009E00528306F06D140F004003067316F3C
:101DB00041F0010105E0400840003067316F21F03B
:101DC00004013167A06841F2893760B100F076F90B
:101DD0008046306F810713D400F070F9A0EB080043
:101DE000B842F6D33DE700F069F98046306F8107CD
:101DF00006D500F063F9A0EB0800B842F6D330E74F
:101E00001DB1306C20F080503064A069002868D08B
:101E1000B16801F00C0108293ED00228306820F09A
:101E2000807030602CD100F049F905463168880196
:101E300005D500F043F9401B0228F7D911E7E06906
:101E4000216A626AA36A0843E16A40EA82105B0879
:101E50005B1E40EA034040EA016040F000507060C1
:101E6000306840F08070306000F028F90446316836
:101E7000880136D400F022F9001B0228F7D9F0E6D9
:101E800000F01CF90446316888012AD500F016F9E3
:101E9000001B0228F7D9E4E6012871681FD0E26927
:101EA00001F48000904202BF01F03F03206A8342A8
:101EB00001BF47F6C0720A40636AB2EB831F0ED1BE
:101EC000A26A01F4403000F580305208B0EB024FB6
:101ED00002BF01F07061E06AB1EB006F01D0012038
:101EE00000E00020BDE8F6812DE9F04104008846BD
:101EF00051D06C4E306800F00F00404502D200F027
:101F000070F848D12068624D810712D5400703D58B
:101F1000A96841F4E051A9602078010703D5AA68B7
:101F200042F46042AA60A968A06821F0F001014370
:101F3000A9602178CA0726D56068012802D12968DE
:101F40008A0303E0022803D129688A0103D422E02E
:101F50002B6899071FD5AA68920840EA8200A860FA
:101F600000F0ACF80746A868616800F00C00B0EB20
:101F7000810F08D000F0A2F8C01B41F289329042D4
:101F8000F1D303202BE0306800F00F00804504D22D
:101F900000F027F801D0012021E02078410705D585
:101FA000AA68E06822F4E0520243AA6021780A0796
:101FB00006D5A868216920F4604040EAC100A86005
:101FC00000F019F8AA683849324BC2F30312895C51
:101FD000C84018603048006800F076F80020BDE87E
:101FE000F0813168090948EA01113160326802F074
:101FF0000F024245704730B52D4C606800F00C0070
:10200000042802D0082802D019E02A4830BD2268EE
:10201000206825680023410202F03F02C5F38810C2
:102020004CBF24491D49A1FB000100F0BDF8216807
:10203000C1F30141491C4900B0FBF1F030BD174824
:1020400030BD1448194A006813681B49C3F3822243
:10205000FFE7895CC840704710B50F220260134A41
:10206000136803F003034360146804F0F004846011
:10207000136803F4E053C3601268D20802F4E0521C
:1020800002610848036803F00F030B6010BD0000F5
:102090000038024018000120140001200024F40040
:1020A00000700040003C0240F43920000838024033
:1020B0000438024000127A00BC3A2000014840680F
:1020C000704700BF0C00012078B5044687B0204857
:1020D000016841F004010160006801A900F00400FA
:1020E0000090009A02A8FFF7B7FF059911B9FFF712
:1020F000A8FF02E0FFF7A5FF4000164B164D174959
:1021000040F2E732B0FBF3F02960401E6860002126
:10211000EA6028462961A960A96100F0C9F80600B3
:1021200012D1284600F0D1F806000DD11E2000F093
:102130002EFB102C07D2002221461E2000F00AFBA5
:102140000748046000E00126304608B070BD00007A
:102150004038024040420F0048690120000800401A
:102160001400012013F0004C03D55B42524263F18E
:1021700000039CEA210C00F0178010B5644603D3DD
:102180004942404261F1000100F00EF8640004D3BE
:102190004942404261F10001244203D55B42524270
:1021A00063F1000310BD0000D3BBD9B1B2F5803F8D
:1021B0005BD2022A1ED98C46B1FBF2F102FB11C39D
:1021C0001B0443EA1043B3FBF2FC02FB1C3380B256
:1021D00040EA0343B3FBF2F002FB103240EA0C404A
:1021E00000237047022A05D98446B0FBF2F002FBB7
:1021F00010C270474AB105D100F0010249085FEAF8
:102200003000704700220023704700F0D5BA0B0061
:102210000200002100207047F7D3002200237047FE
:10222000904271EB030CF2D370B5B1FA81F4B3FABA
:1022300083F52C1BA340C4F1200532FA05F6334385
:10224000A2405FF00046E64002E05B085FEA32022F
:10225000841A71EB030524BF204629467641F4D346
:1022600002000B003000002170BD70B5B1FA81F49E
:10227000B2FA82F5C4F120046419B4F12006DAD36D
:10228000B2405FF00044F440002502E052085FEAEB
:102290003303C61A71EB020E24BF30467146644107
:1022A0006D41F3D302000B002000290070BD000037
:1022B00038B5040001D1012032BD00F07DF818B915
:1022C00000F076F800F0E1FA4BE010B590F83D1020
:1022D000012901D0012010BD022280F83D200168B3
:1022E000DFF8AC20CB6843F00103CB60016891427A
:1022F00018BFB1F1804F17D0DFF8983099421CBF5A
:10230000DFF8942091420FD0DFF89040A1421CBF2B
:10231000DFF88C30994207D0DFF8882091421CBF4B
:10232000DFF88440A14208D100F00EF818BFB2F5E2
:10233000803F07D000F00EF804E00B461A6842F028
:1023400001020A60002010BD8A68DFF860100A40B0
:10235000062A70470268116841F0010110460160C9
:1023600070470220211D6870206800F039F90120B3
:10237000012128730122A970EA7028716971AA717C
:10238000E87129726A72A8720020E9726A7032BD1F
:10239000000001400004004000080040000C004024
:1023A0000004014000400140001800400700010007
:1023B000002120462970704704F13C056878704779
:1023C00010B50446206801698A0715D5C3689907C6
:1023D00012D56FF00202012302612377806910F0A9
:1023E000030F204602D000F071FA03E000F06FFA0C
:1023F00000F094F800202077206801694A0715D57D
:10240000C368590712D56FF00402022302612377D3
:10241000806910F4407F204602D000F057FA03E0B4
:1024200000F055FA00F07AF8002020772068016962
:102430000A0715D5C368190712D56FF008020423DF
:1024400002612377C06910F0030F204602D000F02C
:102450003DFA03E000F03BFA00F060F8002020773E
:1024600020680169CA0615D5C368D90612D56FF070
:102470001002082302612377C06910F4407F2046D0
:1024800002D000F023FA03E000F021FA00F046F851
:102490000020207720680169CA0708D5C368D907DA
:1024A00005D56FF001020261204600F01FFB206895
:1024B00001690A0608D5C368190605D56FF08002C0
:1024C0000261204600F02CFB20680169CA0508D58E
:1024D000C368190605D56FF480720261204600F0CA
:1024E00020FB206801694A0608D5C368590605D54E
:1024F0006FF040020261204600F014FB2068016981
:102500008A060AD5C368990607D56FF020020261D2
:102510002046BDE8104000F006BB10BD204600F08C
:1025200003BBF8B5064606F13C05287800240128CF
:1025300001D10220F2BD012202232A70DFF84401FA
:102540006B7032689368034093600868070018BF97
:10255000102830D0202818BF30282CD0402826D072
:10256000502819D060281BD0702806D0B0F5805FA5
:1025700027D0B0F5005F07D022E000F02CF83068DB
:10258000816841F0770105E000F025F83068816846
:1025900041F48041816014E000F019F850210BE013
:1025A000CA684968306800F096F8602104E000F0DD
:1025B0000EF8402100E00146306800F09EF800E08F
:1025C000012401200021687020462970F2BDCA68EC
:1025D000496830686EE0CB684A688968306894E082
:1025E000F0B5DFF8A4500668DFF8A040DFF8A030AF
:1025F000DFF8A070DFF8A0C0A84218BFB0F1804F8C
:1026000007D0604518BFB84203D0984218BFA04217
:102610000DD14A6826F070061643A84218BFB0F1E3
:10262000804F1AD060451CBFB842984215D0A042D6
:102630001CBFDFF8683098420FD0DFF8642090426A
:102640001CBFDFF86070B84207D0174B98421FBF1D
:10265000164A9042164FB84203D1CB6826F4407612
:102660001E434A6926F080061643A84206608B681E
:10267000C3620E68866212BFA0420969016301222B
:102680004261F0BD8800FEFF0000014000040140EF
:10269000000C0040000800400004004000400140E1
:1026A000004401400048014000180040001C004068
:1026B0000020004030B5036A046A640864000462C4
:1026C000856923F00A03194325F0F00545EA021550
:1026D0008561016230BD10B5036A23F01003036207
:1026E0008369046A23F4704343EA023324F0A004AC
:1026F000836144EA0114046210BD826822F0700212
:10270000114341F007018160704710B5846824F4DB
:102710007F442143114341EA0321816010BD000041
:102720000901020002D41F48815470471E4B02F079
:102730000F021A4402F8041C70471C4B4FF6FF02AC
:102740001968000200F4E06011400843184908438A
:102750001860704770B5154B1C68C4F30223012440
:10276000C3F10705052D2EBF0F2504FA05F56D1ED3
:102770001E1D072E34BF0023DB1E2940994004FA9A
:1027800003F35B1E1A401143BDE87040C8E7010027
:1027900007D4012200F01F018A40064B400943F88C
:1027A0002020704700E400E018ED00E00CED00E0B0
:1027B0000000FA0500E100E07047000082B03B48ED
:1027C000016841F080510160026802F0805200927D
:1027D0000099426842F4804242604068002200F45E
:1027E0008040009000996FF0010002B00F21FFF7C8
:1027F000B1BF38B586B00446142101A800F096F99F
:1028000022682B4B9A423ED12A482B4D416941F414
:1028100080614161426902F480620092009903681C
:1028200043F02003036002684023244802F02002A2
:10283000009200990322019300210292039101A9C1
:1028400000F078F91E484FF0806128604FF48060F6
:102850006960002228614FF40061AA604FF4807023
:10286000696100234FF40052E8614FF44031EB609E
:10287000AA61284629626B6200F070FA08B100F084
:102880004DF9A563AC6307B030BD81B000680E4957
:10289000884209D10B48026842F0010202600068D8
:1028A00000F001000090009901B0704740380240EC
:1028B0000022014030380240E86801200014024044
:1028C00010640240443802400000014070477047E5
:1028D00078B587B0894C00F0FBFB00F0BEF81421FE
:1028E00001A800F023F92068854D40F02000206009
:1028F000216801F0200100910098226842F08002D6
:102900002260216801F0800100910098226842F065
:1029100002022260216801F0020100910098226801
:1029200042F0010222602168002201F001010091C1
:1029300000980121284600F0F2F9012100230191BD
:102940002846029101A90393049300F0F3F820684C
:10295000002240F4800020602168002401F48001FE
:102960000091009805213820FFF7F4FE3820FFF78A
:102970000EFF684600210022002380E81E004FF46D
:102980008032604C626060494FF040522160E262E8
:1029900001224FF01061626104F13005A3602361F0
:1029A0002046A36184F82030A162E360E2612A70CE
:1029B00000F0A4FB08B100F0B1F80421012200915D
:1029C0000023019269460293204600F0F8FC08B10A
:1029D00000F0A4F803A80022002100230026EA61E9
:1029E00080E84E006946002081E80D0047482A62D1
:1029F000A86140F25310686204F14800AA62EA62DA
:102A00002A63FFF755FC08B100F088F84FF48050B6
:102A100003A9039004F14800FFF783FD08B100F01B
:102A20007DF820214FF4001200916946019204F1D3
:102A30004800029600F0D4FD08B100F06FF804F1F0
:102A40004800FFF742FC4FF47A6204F194012046FB
:102A500000F016FC00F014FEFEE780B592B03021C5
:102A600006A800F063F8142101A800F05FF82848D8
:102A7000016841F080510160006800F080500090D2
:102A800000992448026842F440420260036802222E
:102A900006A803F4404300930099069201231021F5
:102AA0000C920A91002108220D910E92AA21022275
:102AB00009930F9110921192FFF782F808B100F07C
:102AC0002DF80F21022201914FF4A0510292002310
:102AD00004914FF4805203930521059201A8FFF75A
:102AE00003FA08B100F01AF813B000BD00680A49F3
:102AF000884208BF00F0FEBD704700003038024039
:102B000000040240343C012000220140000001404A
:102B100040380240007000400008004072B6FEE7F6
:102B20007047704770477047704700000022FEF7FB
:102B300003B800002DE9F84F0D460026DFF8E81134
:102B4000DFF8E8210F2304462F680120B04000EA97
:102B50000708804540F0DD804FEA460C032707FA5E
:102B60000CF76FEA070E6F6807F00309B9F1010F60
:102B70001CBF07F00307022F12D1A768D5F80C90ED
:102B80000EEA070709FA0CF949EA0707A760676820
:102B900027EA00006F68C7F30017B740384360604A
:102BA0002F79B00007F00307032F22D0E768D5F88C
:102BB00008900EEA070709FA0CF949EA0707E760E7
:102BC0002F7907F00307022F13D14FEAD60904EB40
:102BD000890700F01C0903FA09FBD7F820A02AEAAC
:102BE0000B0AD5F810B00BFA09F949EA0A09C7F837
:102BF000209027680EEA070E2F7907F0030707FADF
:102C00000CF747EA0E0CC4F800C06F6817F4403F99
:102C100000F07F80D2F800E04FEA960C00F00C0044
:102C20004EF4804EC2F800E0176807F48047009722
:102C3000DDF800E03E4F57F82C7003FA00FE27EA5B
:102C40000E0E3C4FBC4208BF00272CD03A4FBC426E
:102C500008BF012727D0394FBC4208BF022722D026
:102C6000374FBC4208BF03271DD0364FBC4208BFB8
:102C7000042718D0344FBC4208BF052713D0334F68
:102C8000BC4208BF06270ED0314FBC4208BF072701
:102C900009D0304FBC4208BF082704D02E4FBC4299
:102CA0000CBF09270A2707FA00F040EA0E00DFF8F8
:102CB00080E04EF82C00D1F808C06F686FEA080079
:102CC00000EA0C0CFF0248BF48EA0C0CC1F808C02F
:102CD000D1F80CC06F6800EA0C0CBF0248BF48EA8C
:102CE0000C0CC1F80CC0D1F804C06F6800EA0C0CE1
:102CF000BF0348BF48EA0C0CC1F804C0D1F800C0BB
:102D000000EA0C0C6868C00348BF48EA0C0CC1F824
:102D100000C0761C0F2E7FF617AFBDE8F18F02B909
:102D20000904816170470000003C014044380240C2
:102D30000838014000000240000402400008024040
:102D4000000C024000100240001402400018024033
:102D5000001C0240002002400024024070B50446DE
:102D6000FFF7ACF906460CB9012070BD04F134053B
:102D7000022068700021297000F09FF8236818680D
:102D8000C1070AD5FFF79AF9801B0628F6D3202041
:102D9000032128620320697070BD1E686168DFF836
:102DA000C422A0681640E2680E43216906436069A8
:102DB0001643A2690E43E1690643206A1643626A1C
:102DC0000E430643042A03D1E16A206B0E430643F7
:102DD0001E6023685A69606AD20840EAC202042869
:102DE0000AD1A66AE16A324331B1A06980B9002EE6
:102DF00018BF022E1ED015D35A61204600F050F99C
:102E0000A96A3F228A40826000202862012217E0DE
:102E1000B0F5005F0AD1032EEED8DFE806F00D0B07
:102E20000D03E9E7B1F1C07FE6D105E0022E03D939
:102E3000F61EE1D1C801DFD540210122296201201F
:102E40006A7070BDF8B50025044604F13406307888
:102E5000776A012801D10220F2BD0120307070781C
:102E6000012826D14FF0020EAC4686F801E020463C
:102E7000C6F820C000F004F9B06A3F2101FA00FE54
:102E8000C7F808E02068016841F016010160206879
:102E9000426942F080024261F06820B12068016816
:102EA00041F0080101602068026842F001020260FE
:102EB00001E0357002252846F2BD206802685208FC
:102EC0005200026070472DE9FC41044604F13406CB
:102ED000002065490090776A0A684FF4165308216C
:102EE0003D68B06AB2FBF3F800F0C0F810D020687B
:102EF000026853070CD5D0F800C02CF0040CC0F8C1
:102F000000C0B06A8140B960316A41F001013162AC
:102F1000B06A25FA00F2D1070BD523685A69110669
:102F200007D5012303FA00F0B860306A40F00200D0
:102F30003062B06A042100F099F808D02268116864
:102F40008B0704D5B860306A40F004003062B06A84
:102F5000102100F08BF81BD0226811680B0717D5E1
:102F6000B860206801684A0307D5006801030BD5E3
:102F7000716969B1204688470AE00168CA0503D42F
:102F8000036823F008030360F16809B1204688470D
:102F9000B06A202100F06AF842D022681168CB069E
:102FA0003ED5B8602068717805291FD1026822F0EB
:102FB000160202602068436923F080034361F168D0
:102FC000002904BF7069002801D000F053F8B06AEE
:102FD0003F2201218240BA6000227170F169327093
:102FE00000293CD02046BDE8FC41084701684A035F
:102FF00007D5006801030FD4316989B1204688479D
:103000000EE00168CA0507D40368002123F010030D
:103010000360012070703170B16809B120468847A3
:10302000306AE0B1316AC80713D505227270206892
:1030300001684908490001600098401C80450090E3
:1030400003D320680168CA07F6D4012300207370F7
:103050003070B16919B12046BDE8FC410847BDE8B0
:10306000F38100003F8010F01800012001FA00F009
:10307000054270472068016821F00801016070472F
:1030800030B50468256825F4802525606360806874
:10309000402802D1A260E16030BDA160E26030BD95
:1030A00030B501461823086807A400F0FF02103A63
:1030B000B2FBF3F2A55C800A8002042ACD6528BF2A
:1030C000001D886530BD00000006101600061016B1
:1030D00080B50948016841F400710160026842F45A
:1030E000807202600320FFF728FB0F20FEF7ECFF41
:1030F000FFF764FB002002BD003C024070B50446AF
:1031000000250CB9012070BD04F13006306928B9E2
:103110002046FFF76EFB0021716131733169C806EB
:1031200000F1A0803269DFF8001422F4885242F0E6
:10313000020232610B6823F440330B600A68606856
:1031400002430A602068416821F480714160206870
:103150004268216942EA012242602068426822F006
:103160004072426021684B68A06803434B6020684E
:10317000816821F40061816021688A68E068024307
:103180008A60A16ADFF8A4232068914213D0836883
:1031900023F07063836021688A68A06A02438A60B2
:1031A0002068816821F04051816021688A68E06A66
:1031B00002438A6008E0816821F0706181602068C4
:1031C000826822F0405282602068816821F002010A
:1031D000816020688268A16942EA4102826094F8B5
:1031E0002000216880B14A6842F400624A60206889
:1031F000416821F46041416020684268616A491E6B
:1032000042EA4132426003E0486820F400604860CE
:103210002068C16A21F47001C1622068C26AE16954
:10322000491E42EA0152C2622068816821F400719D
:10323000816020688268317842EA41228260206899
:10324000826822F48062826020688168626941EA53
:1032500082218160002070613069012161F30100E9
:10326000306100E0012500203073284670BD82687F
:1032700042F0804282607047816811F0405F704781
:10328000F8B504460020009004F13C031D78012DA0
:1032900001D10220F2BD0120187020688568EE0778
:1032A00015D48768DFF89C52DFF89CC247F001070D
:1032B00087602E68B6FBFCFC0CEB4C0CCDF800C014
:1032C00002E0009D6D1E009500980028F9D1256848
:1032D000AE68F70769D5D3F804C0994800EA0C0036
:1032E00040F4807CC3F804C06D68680504D5586854
:1032F000012565F30D3058605D68E80404D59E68CB
:1033000026F006069E6001E00020986000250FF27E
:10331000B5261D70A06B0FF23923C363A36B0FF2A8
:10332000AD201E64A56B6FF02203E864266833604D
:10333000206813460A46456845F080654560206868
:10334000866846F480768660206800F14C01A06BA8
:10335000FFF778FD206874490A6812F01F0F05D145
:10336000FFF78AFF29D1FFF782FF26E0704B9842D2
:103370000AD17248026812F0405F18BF08681CD179
:10338000026842F0804202600968C80615D42268CB
:10339000684B9A4202BF6848016811F0405F0CD147
:1033A000026842F08042026007E0586840F0100076
:1033B0005860996841F0010199600020F2BD024611
:1033C0000020F8B5009092F83C30012B01D102208A
:1033D000F2BD0120072482F83C000B685B480A2BF1
:1033E0001CD3B3F1004F19D015680A3B03EB43031C
:1033F000EE689C4026EA0404EC600C688B6884420A
:1034000004D1EC6844EA0364EC6018E00A3CEE681E
:1034100004EB4404A3403343EB6010E0156803EB76
:1034200043032E6904FA03F326EA03032B612B6995
:103430000E688C6806EB4606B44023432B614C684B
:103440001F251368072C0CD2641E5E6B00F065F814
:103450005D635D6B4C680E88671E00F059F85D6314
:103460001BE00D2C0CD2E41F1E6B00F056F81D6300
:103470001D6B4C680E88E71F00F04AF81D630CE0D6
:103480000D3CDE6A00F049F8DD62DD6A4C680E88AA
:10349000A4F10D0700F03CF8DD62254DAB4232D1BE
:1034A0000C68214BB4F1004F03D11D6825F4400591
:1034B0001D600C68122C07D11D6825F400051D60E5
:1034C0001E6846F480061E600C68844218BF112CEA
:1034D00019D11C6824F480041C601D6845F40005A3
:1034E0001D600B6883420ED1164C174D26680A21C9
:1034F000B6FBF5F54D43009502E0009B5B1E009383
:1035000000980028F9D10021002082F83C10F2BD7B
:1035100007EB8707BE403543704704EB8404A540A2
:1035200026EA050570470000042301400100000F52
:1035300000200140002201400822014008200140F3
:10354000FEF9FFFF1800012040420F00120000109A
:1035500010B5816B0A6C12F0500F26D1086C40F444
:10356000007008640A68936813F0405F04BF8869BC
:10357000002815D1D36A13F4700F02D09068430568
:103580000ED4546824F020045460086C20F4807039
:1035900008640A6CD00403D40B6C43F001030B6481
:1035A0000846BDE8104000F0B1B80A6CD30604D557
:1035B0000846BDE8104000F0B9B8896BCA6CBDE898
:1035C00010401047806B00F09DB80000806B4021D8
:1035D0000164426C42F00402426400F0A7B80000AB
:1035E000F0B500F13C042278012A01D10220F0BD9F
:1035F000012302222370DFF878E062700668DFF8AA
:1036000074C07768B568764518BF664503D14B68C6
:1036100027F470071F430A6827F070071743776085
:103620000268724518BFB2F1804F10D00F48824235
:103630001CBF114B9A420AD00B4EB24218BF6245D2
:1036400005D0084882421CBF0C4B9A4204D18868BE
:1036500025F080050543956001210022617000205E
:103660002270F0BD00400140000C0040000400400A
:103670000000014000040140000800400018004024
:1036800038B5FDF7ADFB00BF14A2022101200E4C9E
:10369000FDF76CFCE0600D4D2A4600210C48FDF75B
:1036A000DAFB206005F1240200210A48FDF7D3FB74
:1036B000606005F1480200210748FDF7CCFBA060DF
:1036C000BDE83140FDF7A6BBD4690120F4372000E6
:1036D000B938200061382000C3382000703A20003B
:1036E00000000000000000000000000000000000DA
:1036F000000000000248416802788A184260704762
:103700000C00012010B50749002002E010B5054962
:1037100001200880044C206800230022BDE81040EE
:10372000FDF767BCE8690120E069012070470000EF
:10373000002878B556DDB0FA80F2A2F111031BB271
:10374000DC0752BF984003F1FF029040284A00B2C4
:103750000546C40300EE105A2414BAEE600A8DED3B
:10376000000A009DA2EB650200929DED000ABEEEEC
:10377000C90A10EE102A12B212FB02F676003614B5
:10378000664376003614C6F540567243D21392044F
:10379000121412FB02F56D002D1465436D002D14FB
:1037A000C5F540556A43D2139204121412FB02F677
:1037B0007600361414FB06F464002414C4F5405457
:1037C0006243D213920412145043C01340040014F5
:1037D000DC0748BF5B1E03EBD3735B101841088006
:1037E000002072BD002008804FF0FF3072BD00BF86
:1037F000DF59375FA43A20000000000000000000FD
:10380000000000000000000000020000180000009E
:103810000000000000000000843A200000000000CA
:103820000000000000000000000000000002000096
:10383000360000000000000000000000B03A200048
:103840000000000000000000000000000000000078
:10385000000200000800000000000000000000005E
:103860002DE9FC410020DFF84480ADF80000104F46
:10387000104E0AE0012D06D16A464FF4FA6108F5B0
:103880007A6000F01FF8641E08D138684FF0FF33EB
:10389000002231460424FDF7DFFB3588002DE9D1F5
:1038A0006A464FF4FA614046EBE70000C83C01204D
:1038B000E0690120E869012080B50120FDF728FBBF
:1038C000FBE7FEE7F8B503460F4600240025B808DD
:1038D00008E01E68191D0B1D401EC6FBC6450E687C
:1038E000C6FBC645F5D117F0030004E033F9021B0F
:1038F000401EC1FBC145F9D11646204629463A462D
:103900000023FEF72FFCC00B40EA41403146BDE8E2
:10391000F44000F30F00FFF70BBF30B4002512E0B6
:1039200050F8042BD30744BF4A44521E091F0429F0
:1039300042F8045BFAD213468C0744BF15809B1CE7
:10394000C90748BF1D7050F8041B0029E8D130BCDE
:103950007047000010B5074979441831064C7C4483
:10396000163404E00A68081D114488470146A14244
:10397000F8D110BD2C0000004C0000004EF688511C
:10398000CEF20001086840F470000860BFF34F8F6A
:10399000BFF36F8F4FF00170E1EE100A7047000027
:1039A0007BFFFFFFD06900001C0001200000000029
:1039B0004FD2FFFF1C000000880200000000012021
:1039C00000000000FEE7FEE7FEE7FEE7FEE77047C7
:1039D0000248FEF7F5BC0248FFF775BA48690120B6
:1039E000E86801200248016841F4700101607047F5
:1039F00088ED00E000000000000000000102030468
:103A00000607080900F00DF8002801D0FFF7A2FF13
:103A1000AFF300800020AFF3008000F004F800F066
:103A200007F80120704780B5FEF752FF002002BD65
:103A300000F000B80746384600F002F8FBE7000047
:103A400080B5AFF30080024A11001820ABBEFBE73F
:103A5000260002000548014603B4684680F3098841
:103A6000AFF30080FFF78AFFFFF7CCFFA5EDF5FE6F
:103A700043616C63756C6174696F6E4E6F746966D7
:103A80007900000041435F43616C63756C61746948
:103A90006F6E54000148804701480047E539200017
:103AA000553A200064656661756C745461736B00EF
:103AB000546573745461736B0000000000000000D3
:103AC00001020304FFF7FEBFFFF7FEBFFFF7FEBFD3
:103AD000FFF7FEBFFFF7FEBFFFF7FEBFFFF7FEBF1A
:103AE000FFF7FEBFFFF7FEBFFFF7FEBFFFF7FEBF0A
:103AF000FFF7FEBFFFF7FEBFFFF7FEBFFFF7FEBFFA
:103B0000FFF7FEBFFFF7FEBFFFF7FEBFFFF7FEBFE9
:103B1000FFF7FEBFFFF7FEBFFFF7FEBFFFF7FEBFD9
:103B2000FFF7FEBFFFF7FEBFFFF7FEBFFFF7FEBFC9
:103B3000FFF7FEBFFFF7FEBFFFF7FEBFFFF7FEBFB9
:103B4000FFF7FEBFFFF7FEBFFFF7FEBFFFF7FEBFA9
:103B5000FFF7FEBFFFF7FEBFFFF7FEBFFFF7FEBF99
:103B6000FFF7FEBFFFF7FEBFFFF7FEBFFFF7FEBF89
:103B7000FFF7FEBFFFF7FEBFFFF7FEBFFFF7FEBF79
:103B8000FFF7FEBFFFF7FEBFFFF7FEBFFFF7FEBF69
:103B9000FFF7FEBFFFF7FEBFFFF7FEBFFFF7FEBF59
:103BA000FFF7FEBFFFF7FEBFFFF7FEBFFFF7FEBF49
:103BB000FFF7FEBFFFF7FEBFFFF7FEBFFFF7FEBF39
:103BC000FFF7FEBFFFF7FEBFFFF7FEBFFFF7FEBF29
:103BD000FFF7FEBFFFF7FEBFFFF7FEBFFFF7FEBF19
:103BE000FFF7FEBFFFF7FEBFFFF7FEBFFFF7FEBF09
:103BF000FFF7FEBFFFF7FEBFFFF7FEBFFFF7FEBFF9
:103C0000FFF7FEBFFFF7FEBFFFF7FEBFFFF7FEBFE8
:103C1000FFF7FEBFFFF7FEBFFFF7FEBFFFF7FEBFD8
:103C2000FFF7FEBFFFF7FEBFFFF7FEBFFFF7FEBFC8
:103C3000FFF7FEBFFFF7FEBFFFF7FEBFFFF7FEBFB8
:103C400000000000AAAAAAAA0000000001000000CB
:0C3C500000000000100000000024F40040
:0400000500203A5548
:00000001FF
