:020000040020DA
:100000007078002071612000315F2000335F200094
:10001000355F2000375F2000395F200000000000BE
:10002000000000000000000000000000E12E2000A1
:100030003B5F200000000000852E2000D32220001E
:10004000096220000D62200011622000156220006C
:10005000196220001D62200021622000256220001C
:10006000296220002D6220003162200035622000CC
:10007000396220003D62200041622000456220007C
:10008000496220004D62200051622000556220002C
:10009000596220005D6220006162200065622000DC
:1000A000696220006D62200071622000756220008C
:1000B000796220007D6220003D5F20008162200087
:1000C00085622000896220008D62200091622000FC
:1000D00095622000996220009D622000A1622000AC
:1000E000A5622000A9622000AD622000B16220005C
:1000F000B5622000B9622000BD622000C16220000C
:10010000C5622000C9622000CD622000D1622000BB
:10011000D5622000D9622000DD622000E16220006B
:10012000475F2000E5622000E9622000ED622000C8
:10013000F1622000F5622000F9622000FD622000DB
:100140000163200005632000096320000D63200087
:100150001163200015632000196320001D63200037
:100160002163200025632000296320002D632000E7
:100170003163200035632000396320000000000057
:100180003D63200041632000456320004963200057
:100190004D63200051632000556320005963200007
:1001A0005D632000616320006563200069632000B7
:1001B0006D63200071632000756320007963200067
:1001C0007D6320008163200030B40024002907D023
:1001D0000B5D002B01D0641CFAE7A24200D2140090
:1001E000FF2C02D20470401C08E0FF230370401C67
:1001F0000470401C23001B0A0370401C0023A34210
:1002000005D20D780570491C401C5B1CF7E730BC1B
:100210007047C01D704738B5DFF838550122694670
:10022000287E00F06BFE0400002C40D09DF80000FA
:10023000012810D0022811D0032812D0042813D08E
:10024000052814D0062815D0072816D07F2824D0DA
:10025000802815D022E000F089FA28E000F0F0FABA
:1002600025E000F0F9FB22E000F0CEFB1FE000F0FB
:1002700001FB1CE000F097FD19E000F084FD16E0A2
:1002800001226946287E00F039FE0400002C03D0CC
:100290009DF8000000F028FD09E008E09DF800004E
:1002A000802804DB01226946287E00F027FE31BD4C
:1002B0002DE9FE4301208DF800000DF10100010041
:1002C000DFF890446269802A05D352F080030B70F6
:1002D000491CD209F7E70A704D1CDFF87C140E6840
:1002E000E768F71B2900B846B8F1800F06D358F02D
:1002F00080000870491C5FEAD818F5E781F8008093
:1003000011F101096A46B9EB02026946607800F012
:10031000E7FE002804D0E6602178491E217002E043
:100320006169491C6161BDE8FE832DE9F84F050054
:100330000E001700DFF81CA49AF8000001280FD067
:100340009AF80000002800F0A9809AF8000002281E
:1003500006D1FFF7ADFF9AF80000012840F09E801B
:10036000202F05D2DAF81C00F840C00700F1968073
:10037000182F02D26D1E2F7065E0701B8046B8F1F9
:10038000800F08D3681E4146C9090170401E58F00D
:100390008001017002E0681E80F800807F2F02D289
:1003A000451E2F704FE0B7F5804F08D2401E390030
:1003B000C9090170451E57F08000287043E0B7F569
:1003C000001F0ED2401E3900890B0170401E3900FB
:1003D000C90951F080010170451E57F08000287056
:1003E00031E0B7F1805F14D2401E3900490D017031
:1003F000401E3900890B51F080010170401E390008
:10040000C90951F080010170451E57F08000287025
:1004100019E0401E3900090F0170401E3900490DD6
:1004200051F080010170401E3900890B51F08001AC
:100430000170401E3900C90951F080010170451E4C
:1004400057F080002870DFF8100300688146DAF862
:100450000C00B9EB000000903000DDF800B0BBF1FB
:10046000800F06D35BF080010170401C5FEADB1B4C
:10047000F5E780F800B0401C0600721B29009AF8CE
:10048000010000F02DFE0400002C02D0CAF80C90F0
:1004900004E09AF80000401C8AF800001821DFF8F8
:1004A000C4229AF8180048431044C06E9AF81830D5
:1004B00001FB03F11144096F401A00280BD09AF890
:1004C0000200002807D101208AF80200FFF7A3FEEE
:1004D00000208AF80200BDE8F18F2DE9F8430400FE
:1004E0000D0016001F00DFF86C82DFF84C96002329
:1004F0004FF48062DFF84416484600F063FD88F848
:10050000010098F8010088F81800002000900823E6
:10051000DFF82C26494698F8180000F09FFD0020CF
:10052000C8F81000DFF838020068C8F80C00C8F8F6
:100530002060C8F80440C8F80850C8F824700020AB
:1005400088F80000BDE8F183DFF8101208617047F9
:1005500070B50400EFF31186202080F31188DFF8D6
:100560000802FFF756FE0500220029002800FFF7C9
:10057000DCFE86F3118870BD2DE9F04704000D0004
:10058000EFF31186202080F31188DFF8DC01FFF7FC
:1005900040FE0700B8464046A946B9F1800F06D391
:1005A00059F080010170401C5FEAD919F5E780F825
:1005B000009010F1010A220051463800FFF7B5FE05
:1005C00086F31188BDE8F0872DE9F84F04000D008F
:1005D0001600EFF31187202080F31188DFF88801DF
:1005E000FFF717FE8046404601002A00802A05D307
:1005F00052F080030B70491CD209F7E70A7011F121
:1006000001094946B246BAF1800F06D35AF080007C
:100610000870491C5FEADA1AF5E781F800A011F1C9
:10062000010B220059464046FFF77FFE87F31188F1
:10063000BDE8F18F2DE9F14F0D0016001F00EFF31B
:100640001188202080F31188DFF81C01FFF7E1FDFD
:1006500081464A4610002B00802B05D353F08001C1
:100660000170401CDB09F7E70370401C04003100F7
:10067000802905D351F080022270641CC909F7E774
:100680002170641C2200BA46BAF1800F06D35AF0DA
:1006900080001070521C5FEADA1AF5E782F800A0B9
:1006A00012F1010B009A59464846FFF73EFE88F3C7
:1006B0001188BDE8F18F2DE9F34F81B015001E00C0
:1006C0000C9FEFF31188202080F31188DFF8980049
:1006D000FFF79FFD814648460100029B802B05D312
:1006E00053F080020A70491CDB09F7E70B704A1CC3
:1006F00011002C00802C05D354F080000870491C98
:10070000E409F7E70C70481C03003100802905D389
:1007100051F080021A705B1CC909F7E719705C1C64
:100720002200BA46BAF1800F06D35AF0800010704A
:10073000521C5FEADA1AF5E782F800A012F1010B09
:10074000019A59464846FFF7F0FD88F31188BDE845
:10075000F78F000008730020041000E008730020E9
:10076000041000E0986E0020B46D00202DE9F843DD
:10077000DFF8F44601202070EFF31187202686F37E
:1007800011880A22DFF8E416607800F0A9FC87F3EC
:1007900011880A20FFF7DCFEEFF3118586F311883C
:1007A000DFF85006FFF735FD0600300001006268F3
:1007B000802A05D352F080030B70491CD209F7E759
:1007C0000A70491C0B00A768802F05D357F08000E2
:1007D00018705B1CFF09F7E71F70581C02002369A3
:1007E000802B05D353F080011170521CDB09F7E711
:1007F0001370571C39005FF00008B8F1800F06D362
:1008000058F080000870491C5FEAD818F5E781F8B5
:10081000008011F10109182249463000FFF785FDDB
:1008200085F31188606A002801D0606A804700F073
:1008300013F900F0E9F800F0B6FABDE8F183000022
:1008400070B5EFF31185202080F31188DFF8A4053F
:10085000FFF7DFFC0400DFF810663078002806D0D0
:100860000B2221002000FFF760FD0020307085F38F
:10087000118870BD2DE9F843EFF31184202080F337
:100880001188DFF87005FFF7C4FC0500280001009F
:10089000DFF8D4657268802A05D352F080030B70AC
:1008A000491CD209F7E70A70491C0B00B768802F72
:1008B00005D357F0800018705B1CFF09F7E71F7025
:1008C000581C02003369802B05D353F0800111704E
:1008D000521CDB09F7E71370571C39005FF0000862
:1008E000B8F1800F06D358F080000870491C5FEA09
:1008F000D818F5E781F8008011F10109182249465E
:100900002800FFF712FD84F31188706A002801D0D7
:10091000706A8047BDE8F1832DE9F84F0600EFF3D8
:100920001187202080F31188DFF8C804FFF771FCDD
:10093000804640460100DFF830953368D9F8102032
:100940009A1A802A05D352F080030B70491CD209F1
:10095000F7E70A704D1C2900D6F808A0BAF1800FFD
:1009600006D35AF080000870491C5FEADA1AF5E7EE
:1009700081F800A04C1C202271682000FFF724FCA5
:100980008346092259464046FFF7CFFC4046020005
:100990003368D9F81010591A802905D351F0800313
:1009A0001370521CC909F7E71170521C1300F46848
:1009B000802C05D354F0800018705B1CE409F7E725
:1009C0001C70581C01003369802B05D353F0800242
:1009D0000A70491CDB09F7E70B704C1C210000254D
:1009E000802D05D355F080000870491CED09F7E70C
:1009F0000D7011F10109152249464046FFF795FC9B
:100A000087F31188BDE8F18F80B5DFF85C14086AC0
:100A1000002806D0086A4068002802D0086A4068AA
:100A2000804701BDF8B50400EFF31187202080F363
:100A30001188DFF8C003FFF7ECFB060080222100DD
:100A40003000FFF7C1FB05000E2229003000FFF740
:100A50006CFC87F31188F1BD38B5DFF80C14086A17
:100A600000280ED0086A006800280AD0086A0068CA
:100A7000804704000D002A0021000D20FFF7A4FD8F
:100A800005E0DFF8EC0301680C20FFF775FD31BDD0
:100A90002DE9F843EFF31184202080F31188DFF86B
:100AA0005403FFF7B6FB05002E00DFF8C803D0F8AB
:100AB00000905FEAC9595FEAD9593000C846B8F1D9
:100AC000800F06D358F080010170401C5FEAD818EF
:100AD000F5E780F80080471C022239002800FFF764
:100AE00024FC84F31188BDE8F18338B5EFF3118558
:100AF000202080F31188DFF8FC02FFF78AFB040056
:100B0000032221002000FFF710FC85F3118831BD7E
:100B100038B5EFF31185202080F31188DFF8D40277
:100B2000FFF777FB0400122221002000FFF7FDFBF6
:100B300085F3118831BD0000C0612000B46700203A
:100B4000D473002038B5EFF31185202080F311888D
:100B5000DFF8A002FFF75DFB040011222100200056
:100B6000FFF7E3FB85F3118831BD2DE9F84304005D
:100B7000EFF31185202080F31188DFF87802FFF76A
:100B800048FB06003700DFF8F0020069241A38003D
:100B9000A146B9F1800F06D359F080010170401CC5
:100BA0005FEAD919F5E780F8009010F101080822F2
:100BB00041463000FFF7B9FB85F31188BDE8F183AA
:100BC0002DE9F8430400EFF31185202080F311880C
:100BD000DFF82002FFF71DFB06003700DFF8980260
:100BE0000069241A3800A146B9F1800F06D359F0E4
:100BF00080010170401C5FEAD919F5E780F8009088
:100C000010F10108042241463000FFF78EFB85F306
:100C10001188BDE8F1832DE9F8430400EFF3118555
:100C2000202080F31188DFF8CC01FFF7F2FA0600EC
:100C30003700DFF844020069241A3800A146B9F1F0
:100C4000800F06D359F080010170401C5FEAD9196A
:100C5000F5E780F8009010F10108062241463000C7
:100C6000FFF763FB85F31188BDE8F1832DE9F047B9
:100C700007000C00EFF31185202080F31188DFF8C6
:100C80007401FFF7C6FA06003100DFF8EC010069D5
:100C90003F1A08003A00802A05D352F080030370FF
:100CA000401CD209F7E7027010F101084046A14646
:100CB000B9F1800F06D359F080010170401C5FEA42
:100CC000D919F5E780F8009010F1010A0722514682
:100CD0003000FFF72AFB85F31188BDE8F087DFF8C5
:100CE00098110969401A70472DE9F84F0500DFF89F
:100CF0008C110868002844D0086804000020060011
:100D00002800C0B2864204D22469002C01D0761C8F
:100D1000F6E7002C35D0EFF31187202080F31188FF
:100D20003448FFF776FA8046404601002A00D2B2E6
:100D3000802A05D352F080030B70491CD209F7E7D3
:100D40000A70491C00910099D4F80890B9F1800FFD
:100D500006D359F080000870491C5FEAD919F5E7FD
:100D600081F8009011F1010A802221685046FFF7B6
:100D70002BFA8346162259464046FFF7D6FA87F3E8
:100D80001188BDE8F18F10B53C490868002809D0EA
:100D900008680400E068002801D0E0688047246902
:100DA000002CF7D110BD2DE9F041EFF31184202084
:100DB00080F311880F48FFF72CFA07003D00280048
:100DC0002F4991F80080B8F1800F06D358F08001C8
:100DD0000170401C5FEAD818F5E780F80080461CD7
:100DE0001B2231003800FFF7A0FA84F31188BDE818
:100DF000F0810000B46D00202DE9F8430400EFF30A
:100E00001185202080F311881E48FFF702FA0600A2
:100E1000802221003000FFF7D7F901000122802A4B
:100E200005D352F080030B70491CD209F7E70A7012
:100E30004F1C39005FF00008B8F1800F06D358F05E
:100E400080000870491C5FEAD818F5E781F8008037
:100E500011F101091A2249463000FFF766FA85F3BD
:100E60001188BDE8F183000008730020B461200000
:100E7000041000E004ED00E0087300200874002076
:100E80006B740020B46D0020F8B5DFF84042A8254F
:100E90000026270032002900380000F06BF90320FB
:100EA000206103206061DFF82802A061DFF82412CE
:100EB000E1614FF4806121620021A1620021616241
:100EC0000021E1622066DFF8100260661020A06653
:100ED000002020670020E06600206067BFF35F8F7E
:100EE0000020102807D2DFF8F41142421144C97BD8
:100EF0002154401CF5E7BFF35F8FF1BD2DE9F14FA1
:100F000084B00E001700DFF8C441A3469BF8000030
:100F1000002801D1FFF7B8FF04991820414304EBE2
:100F2000010010F16008B146D8F810A0D8F80C0004
:100F3000019000240198504520D2D8F80800B0EB69
:100F40000A00B84201D2050000E03D00D8F80400D4
:100F500050440090039500980290CB46039A029962
:100F6000584600F04FF92C19A9447F1B15EB0A0ACB
:100F7000D8F80800824501D1002082460198B0EBE4
:100F80000A00B84201D2050000E03D00002D11D05A
:100F9000D8F8040050440090039500980290CB4686
:100FA000039A0299584600F02DF92C19A9447F1B89
:100FB00015EB0A0A002C01D0C8F810A0200005B0DB
:100FC000BDE8F08F2DE9F84305000E0017009846A4
:100FD000DFF8F840A14699F80000002801D1FFF79A
:100FE00053FFEFF31182202080F311880021182392
:100FF00003FB01F02044C069002803D0491C20698C
:101000008142F4DB2069814220DA03FB01F02044B5
:10101000856103FB01F02044C66103FB01F020441D
:101020000762002003FB01FCA444CCF82800002048
:1010300003FB01FCA444CCF8240003FB01F304EB04
:101040000300C0F82C80BFF35F8F02E05FF0FF3039
:10105000010082F311880800BDE8F2832DE9F84F02
:1010600004000D0016001F00DDF82880DFF85CB0DA
:10107000DA469AF80000002801D1FFF705FF032C9B
:1010800020D2EFF31181202080F31188182000FB7B
:1010900004F0584460308146002C0BD0C9F8005051
:1010A000C9F80460C9F808700020C9F810000020D1
:1010B000C9F80C00C9F81480BFF35F8F81F3118861
:1010C000002001E05FF0FF30BDE8F28F986E002055
:1010D000A8612000B4630020BC73002028612000B8
:1010E000F0B400EB4003DFF8880000EBC30000F130
:1010F00018063069F7687568874232D3B368DC1B1D
:10110000631E934214D37D19D019000011F8013BDE
:1011100005F8013B521E05D011F8013B05F8013BD3
:10112000521EF3D1BFF35F8FF0600120F0BC704717
:10113000C018904219D37819121B11F8013B00F81E
:10114000013B641EF9D1141C05D011F8013B05F8D0
:10115000013B521EF9D1BFF35F8FF4600120F0BC58
:101160007047C01B401E9042CDD20020F0BC70479B
:10117000986E002062F30F2262F31F42401810F0B5
:10118000030308D0C91A1FD3DB0748BF00F8012D9D
:1011900028BF20F8022D130030B41446154610392C
:1011A00028BF20E93C00FAD8490728BF20E90C00F5
:1011B00048BF40F8042D890028BF20F8022D48BF01
:1011C00000F8012D30BC7047C91818BF00F8012D78
:1011D000CB0728BF00F8012D70470EE00268436876
:1011E000024408305FEAC37C44BF4B445B1E52F8A4
:1011F00004CB43F804CB091FF9D150F8041B002994
:10120000ECD1704762B38B0708D0521E11F8013B36
:1012100000F8013B00F024808B07F6D1830740F0F3
:10122000208000BF103A07D330B4B1E83810103A2C
:10123000A0E83810F9D230BC530724BFB1E8081039
:10124000A0E8081044BF51F8043B40F8043BD20723
:1012500024BF31F8022B20F8022B44BF0B78037017
:101260007047121F17D35B0009D151F8043B20F8D7
:10127000023B1B0C121F20F8023BF6D20BE051F888
:10128000043B00F8013B1B0A20F8023B1B0C121F19
:1012900000F8013BF3D238BF121D521E24BF11F8D3
:1012A000013B00F8013BF8D8704700002DE9F847F2
:1012B00085B006000F00904699460F9C109D002CAB
:1012C00009D172B6502080F31188BFF34F8FBFF35E
:1012D0006F8F62B6FEE7002D09D172B6502080F301
:1012E0001188BFF34F8FBFF36F8F62B6FEE75C20AC
:1012F000009000985C2809D072B6502080F31188C5
:10130000BFF34F8FBFF36F8F62B6FEE70098002DDB
:1013100019D0002C17D0AA46CAF8304002208AF80B
:10132000590000200390CDF808A004A801900E9861
:1013300000904B4642463900300000F043F85046DA
:1013400000F0B5F801E000200490049806B0BDE874
:10135000F0872DE9F84384B006000F0090469946C7
:10136000404680B2800000F06FFD0500002D0BD0DC
:101370005C2000F069FD0400002C01D0256304E02E
:10138000280000F0F7FD00E00024002C15D000201C
:1013900084F859000020039002940D9801900C9855
:1013A00000904B46424692B23900300000F00AF8F5
:1013B000200000F07CF8012001E05FF0FF3005B074
:1013C000BDE8F0832DE9F94F81B00C0016000C9FA9
:1013D0000D9DDDF83880B00000905FF0A50BD8F8C7
:1013E00030A05A4600995046FFF7C4FED8F83000A6
:1013F00000EB8600B0F1040A5FEADA0A5FEACA0A83
:101400001AF00700002809D072B6502080F3118826
:10141000BFF34F8FBFF36F8F62B6FEE7002C15D07E
:1014200000208146B9F1100F0CD214F8090008EB26
:10143000090181F8340014F80900002802D019F1DC
:101440000109EFE7002088F8430002E0002088F857
:101450003400382F01D337200700C8F82C70C8F8A3
:101460004C700020C8F8500018F1040000F03FFE56
:1014700018F1180000F03BFEC8F81080D7F13800D2
:10148000C8F81800C8F824800020C8F854000020CC
:1014900088F85800029A0199504600F067FEC8F893
:1014A0000000002D01D0C5F80080BDE8F78F38B5E9
:1014B000040000F0D8FEDFF8E8120868401C08605D
:1014C000DFF8F4532868002806D12C60086801284A
:1014D0000DD100F047FB0AE0DFF8E00300680028C8
:1014E00005D1E06A2968C96A884200D32C60DFF818
:1014F000D0030168491C016000686064002C0DD0B5
:101500002000FFF732FB2168206B091A0091236B42
:10151000E26A14F13401200000F06FFF2000FFF7B1
:101520007AFBDFF8A0030168E26A914201D2E16A26
:101530000160211DDFF89023E36A1420434302EB8E
:10154000030000F0D7FD00F0ACFEDFF87003006888
:1015500000280DD02868C06AE16A884208D25FF08E
:101560008050DFF888140860BFF34F8FBFF36F8F90
:1015700031BD38B505000024002D1BD0DFF81C0458
:101580000068002809D072B6502080F31188BFF39C
:101590004F8FBFF36F8F62B6FEE700F079F8290036
:1015A0002320FEF7E9FF0021280000F0F1FB00F006
:1015B00075F80400002C08D15FF08050DFF82C147F
:1015C0000860BFF34F8FBFF36F8F31BD70B586B02A
:1015D000002004900020039005AA03A904A801F0AC
:1015E0007AF9DFF8DC56DFF8DC46049802900398BD
:1015F0000190002000900023059A21000FF2415035
:10160000FFF754FE28602868002801D0012500E07B
:101610000025012D02D101F07BF90500012D28D113
:1016200072B6502080F31188BFF34F8FBFF36F8FD6
:1016300062B65FF0FF30DFF8901608600120DFF837
:101640007C1208600020DFF8A8130860DFF86862E9
:10165000052221003068343001F0C6FB002803D099
:101660003068FFF7ADFA01E0FFF76CFA00F0ABFD70
:101670000CE015F1010F09D172B6502080F31188EA
:10168000BFF34F8FBFF36F8F62B6FEE706B070BD3A
:10169000DFF808030168491C01607047F8B50025B0
:1016A0000026DFF8F8422068002809D172B65020E1
:1016B00080F31188BFF34F8FBFF36F8F62B6FEE7E1
:1016C00000F0D1FD2068401E20602068002856D11F
:1016D00033480068002852D0DFF8E0150868002879
:1016E00027D0C868C068050015F1180000F029FD72
:1016F000281D00F026FD2800FFF78DFA71480168CB
:10170000EA6A914201D2E96A0160291D6E4AEB6AD8
:101710001420434302EB030000F0ECFCE86A664946
:101720000968C96A8842D7D30120DFF848160860E3
:10173000D2E7002D01D000F09EFADFF834763C6845
:10174000002C0CD000F02EF8002803D00120DFF888
:1017500024160860641E002CF4D100203860DFF8E5
:101760001406006800280AD0012006005FF08050AF
:10177000DFF878120860BFF34F8FBFF36F8F00F070
:1017800090FD3000F2BDDFF868020068704780B558
:1017900000F0BCFD0021DFF85802006802BD000027
:1017A000247400202DE9F04100277C4800680028BF
:1017B00072D18F480468641C0460002C1ED1DFF8CD
:1017C000C41208680068002809D072B6502080F35F
:1017D0001188BFF34F8FBFF36F8F62B6FEE7D1F86A
:1017E0000080DFF8A40202680A60C0F80080DFF819
:1017F00088050168491C016000F03DFADFF8C884E3
:10180000D8F8000084423BD3DFF8781208680068FB
:10181000002804D15FF0FF30C8F8000030E008680D
:10182000C068C068050068680600B44202D2C8F803
:10183000006025E0281D00F084FCA86A002803D081
:1018400015F1180000F07DFC2800FFF7E4F91D48B1
:101850000168EA6A914201D2E96A0160291D1A4AC7
:10186000EB6A1420434302EB030000F043FCE86AF8
:1018700011490968C96A8842C6D301200700C3E735
:101880000D4800681049C26A142042438858022853
:1018900007D30120070004E0DFF8D4040168491CE5
:1018A0000160DFF8D0040068002801D001200700A3
:1018B0003800BDE8F081000014740020307400206E
:1018C000407400202C740020545B002010B5334875
:1018D0000068002804D00120DFF89814086040E078
:1018E0000020DFF890140860DFF8902410681423BB
:1018F000DFF88C4403FB00F1615800290DD100286A
:1019000009D172B6502181F31188BFF34F8FBFF315
:101910006F8F62B6FEE7401EE9E703FB00F304EBBE
:1019200003014B685B684B604B6811F10804A342EC
:1019300002D14B685B684B60DFF848444968C9686E
:10194000216010600522DFF87C132068343001F03C
:101950004BFA002803D02068FFF732F901E0FFF7C7
:10196000F1F810BD38B504000D00002C09D172B695
:10197000502080F31188BFF34F8FBFF36F8F62B693
:10198000FEE7DFF80004006810F11801200000F005
:10199000BDFB0121280000F0FBF931BD4C74002093
:1019A00070B505000E001400002D09D172B650204C
:1019B00080F31188BFF34F8FBFF36F8F62B6FEE7DE
:1019C000DFF8C003006810F11801280000F092FB56
:1019D000002C02D05FF0FF3006002420FEF7B8FD97
:1019E0002100300000F0D4F970BD000004ED00E0EB
:1019F0002874002038B50500E868C468002C09D1B7
:101A000072B6502080F31188BFF34F8FBFF36F8FF2
:101A100062B6FEE714F1180000F093FBDFF86C03E8
:101A20000068002818D1201D00F08BFB2000FFF774
:101A3000F2F8DFF848030168E26A914201D2E16AF4
:101A40000160211DDFF83823E36A1420434302EBD1
:101A5000030000F04FFB05E014F11801DFF85C0211
:101A600000F048FBDFF81C030068C06AE16A8842A6
:101A700005D201200121DFF81023116000E00020D1
:101A800032BD0000187400201C740020DFF8E8123A
:101A900009680160DFF878130968416070472DE933
:101AA000F04104000D00002C09D172B6502080F3E3
:101AB0001188BFF34F8FBFF36F8F62B6FEE7002D23
:101AC00009D172B6502080F31188BFF34F8FBFF356
:101AD0006F8F62B6FEE700F0C6FBDFF834030668DE
:101AE0006768F71B286810F1010F02D15FF000084A
:101AF0001BE0DFF8840200682168884205D0606836
:101B0000864202D35FF001080FE02868874208D2BE
:101B10002868C01B28602000FFF7B8FF5FF00008AE
:101B200003E0002028605FF0010800F0BAFB4046A7
:101B3000BDE8F0810120DFF8501208607047000016
:101B400010B5040000F038F8DFF83402006802280D
:101B5000F8D35FF0805028490860BFF34F8FBFF380
:101B60006F8FEFE770B50024382C09D2DFF8100230
:101B7000142101FB04F1084400F0AAFA641CF3E705
:101B8000DFF89052280000F0A3FADFF88C623000F2
:101B900000F09EFA494800F09BFADFF8800200F05E
:101BA00097FADFF87C0200F093FADFF8780205601C
:101BB000DFF87402066070BD38B5DFF8705228682F
:101BC000002817D000F04FFBDFF85002C068C06853
:101BD0000400201D00F0B5FADFF854020168491E28
:101BE00001602868401E286000F05BFB200000F0C8
:101BF0001EF8E2E731BD000004ED00E00100002026
:101C00000A78A52A02D1491C401CF9E7800880B255
:101C1000704770B50400002C03D1DFF81802056886
:101C200000E025002E6B3000FFF7E8FF70BD10B517
:101C3000040094F85900002806D1206B00F09AF9AE
:101C4000200000F097F915E094F85900012803D11D
:101C5000200000F08FF90DE094F85900022809D017
:101C600072B6502080F31188BFF34F8FBFF36F8F90
:101C700062B6FEE710BDDFF8AC21106800680028EE
:101C800004D15FF0FF30104A106006E01068C068B1
:101C9000C068010048680C4A10607047DFF898017E
:101CA0000068002801D1012007E0DFF890010068FA
:101CB000002801D1022000E0002070475873002066
:101CC00048740020E86120004474002070B50400CE
:101CD00025000026002C49D0DFF8A80000688542C6
:101CE00009D072B6502080F31188BFF34F8FBFF335
:101CF0006F8F62B6FEE7286D002809D172B65020BA
:101D000080F31188BFF34F8FBFF36F8F62B6FEE78A
:101D1000286D401E2865E86AE96C884226D0286D47
:101D2000002823D1281D00F00CFA21004A20FEF7DC
:101D300023FCE86CE862E86AD0F13800A86128006A
:101D4000FEF769FFDFF834000168EA6A914201D2C8
:101D5000E96A0160291DDFF8E820EB6A142043439B
:101D600002EB030000F0C6F901200600300070BD50
:101D700034740020387400203C7400202C7400203F
:101D8000545B002014740020387400204C74002030
:101D90002DE9F04105000C001D480768DFF894802C
:101DA000D8F80000001D00F0CCF915F1010F08D1A2
:101DB000002C06D0D8F80000011D194800F09AF94F
:101DC00024E0E8190600D8F800004660BE420CD2B4
:101DD0000421D8F80000FEF749FFD8F80000011DE3
:101DE0001148006800F092F910E00421D8F80000D2
:101DF000FEF73CFFD8F80000011D0A48006800F01B
:101E000085F9104801688E4200D20660BDE8F08175
:101E10002874002030730020447300206C7300206D
:101E200080730020187400201C740020207400208F
:101E30002474002014740020307400204C7400209E
:101E4000545B0020447400202DE9F84F04005FF03B
:101E50000008FFF71DFCDFF85C92D9F800000028AD
:101E600001D100F0C5F8DFF850A2DAF80000044212
:101E70006DD1002C17D091480068041914F0070F99
:101E800011D014F1080014F00704041B14F0070F1C
:101E900009D072B6502080F31188BFF34F8FBFF383
:101EA0006F8F62B6FEE7002C51D0DFF814B2DBF87A
:101EB0000000A0424BD38348060000680500686814
:101EC000A04205D22868002802D02E002D68F6E72F
:101ED000D9F8000085423AD0784831680268114448
:101EE000884629683160006840006968091B88429B
:101EF00017D205EB0400070017F00700002809D0EF
:101F000072B6502080F31188BFF34F8FBFF36F8FED
:101F100062B6FEE76868001B78606C60380000F00D
:101F200098F8DBF800106868091ACBF800106648CA
:101F3000DBF800100268914202D2DBF80010016069
:101F40006968DAF800000143696000202860FFF743
:101F5000A5FB18F00700002809D072B6502080F3C6
:101F60001188BFF34F8FBFF36F8F62B6FEE7404615
:101F7000BDE8F28F70B504002600002C37D04F4822
:101F800000684042064435004B4968680A681042C0
:101F900009D172B6502080F31188BFF34F8FBFF381
:101FA0006F8F62B6FEE72868002809D072B650200D
:101FB00080F31188BFF34F8FBFF36F8F62B6FEE7D8
:101FC00068680A68104212D0286800280FD16A6831
:101FD000086882436A60FFF75BFB39490A686868F2
:101FE00082180A60280000F034F8FFF757FB70BD34
:101FF00070B44FF470523548010011F0070F04D04F
:10200000C91DC908C900521A82180B002D48036067
:1020100000244460D41829480068241AE408E40025
:10202000244D2C6000202E68706000202E683060E7
:102030001800261A46602D6805604568224E3560F6
:1020400045681F4E35605FF000451B4E356070BC23
:10205000704730B41B4A1168814201D21268FAE716
:10206000140051682144814204D153684168CB185F
:10207000536010000300416819441568A94210D14B
:102080000C4914680D68AC4208D04468116849686E
:102090000C19446011680968016004E00968016076
:1020A00001E011680160824200D0106030BC7047CE
:1020B00000000000E4730020F073002000622000A4
:1020C000E8730020CC730020EC7300201400002083
:1020D00010F1080141605FF0FF31816010F10801EB
:1020E000C16010F108010161002101607047002109
:1020F0000161704742684A6093688B6093685960D9
:102100009160086103685B1C0360704710B40B6842
:1021100013F1010F01D1026907E010F108025468C0
:102120002468A34201D35268F9E754684C604C68B4
:10213000A1608A60516008610468641C046010BC7E
:102140007047010008698A684B689A604A688B6822
:102150005A6042688A4201D18A68426000220A615C
:102160000268521E0260006870470000001F5FF0A6
:1021700080730360001F4B085B000360001F0FF2B9
:102180001503036014380260001F7FF00203036030
:10219000203870477348006810F1010F09D072B6FB
:1021A000502080F31188BFF34F8FBFF36F8F62B65B
:1021B000FEE772B6502080F31188BFF34F8FBFF354
:1021C0006F8F62B6FEE7E0B5674801780191FF21A5
:1021D000017001788DF800109DF8001011F0500189
:1021E000624A1170624907220A609DF800201206B7
:1021F00008D50A68521E0A609DF8002052008DF82A
:102200000020F2E70A68D2F10702042A09D072B668
:10221000502181F31188BFF34F8FBFF36F8F62B6E8
:10222000FEE70A6812020A600A6812F4E0620A60B5
:10223000019901704F48016851F470010160016813
:1022400051F07041016000F003FE00204549086034
:1022500000F064FE4848016851F04041016000F020
:102260004DFE00200EBD72B6502080F31188BFF3E2
:102270004F8FBFF36F8F62B63A490A68521C0A60EB
:10228000096801290CD13D490968090608D072B6D0
:1022900080F31188BFF34F8FBFF36F8F62B6FEE7F5
:1022A000704730490868002809D172B6502080F381
:1022B0001188BFF34F8FBFF36F8F62B6FEE70868D8
:1022C000401E08600868002802D1002080F31188B1
:1022D000704780B572B6502080F31188BFF34F8FDE
:1022E000BFF36F8F62B6FEF7D3FBFFF75BFA0028F0
:1022F00006D0FEF70DFC5FF080502049086001E039
:10230000FEF7F3FB002080F3118801BDEFF3058099
:10231000102813D31A4A1268125C11000A00134BDA
:102320001B78D2B29A4209D272B6502282F3118837
:10233000BFF34F8FBFF36F8F62B6FEE70C4A126890
:10234000104B1B6813F4E0639A4209D272B6502214
:1023500082F31188BFF34F8FBFF36F8F62B6FEE732
:10236000704700000400002000E400E06A740020D0
:102370000474002020ED00E034EF00E004ED00E004
:10238000046220000CED00E07CB5002438480068B1
:10239000844222D21425374E05FB04F03058FFF753
:1023A00038FC05FB04F13144086105FB04F03044BE
:1023B0000069009005FB04F03044C36805FB04F09D
:1023C0003044826805FB04F03044416805FB04F5A5
:1023D000705900F055F8641CD8E773BD38B5FFF7A5
:1023E000D6F9020000234FF47A740025A4FB020101
:1023F00004FB031105FB021134BD2DE9FC4104006F
:102400000D0016001F00DDF8208005221A49280063
:1024100000F0EAFC002829D015480168082903D3F8
:102420001648FEF7E9FC21E01421124A03684B43E9
:10243000D45003684B4313445D6003684B4313441B
:102440009E6003684B431344DF60036801FB03F1A4
:102450001144C1F810800168491C0160CDF800806A
:102460003B0032002900200000F00AF8BDE8F381AB
:102470000C740020406F0020C8612000745E2000B2
:102480002DE9F04F85B004000D0016001F00DDF8A7
:1024900038805FF014095FF0000AEB465246494667
:1024A0005846FEF767FE0094019502960397CDF813
:1024B00010806846FEF730FA05B0BDE8F08F0000E6
:1024C0007047EFF3058000280CD1EFF3108000284F
:1024D00003D1EFF31180002807D0DFF8AC010068CA
:1024E000022802D17FF005000AE0DFF89C1108689D
:1024F000002803D101200860002001E05FF0FF30D8
:10250000704710B5EFF3058000280CD1EFF3108071
:10251000002803D1EFF31180002807D0DFF868010D
:102520000068022802D17FF005000EE0DFF8584174
:102530002068012807D1FFF7C3FF02202060FFF7C2
:1025400045F8002001E05FF0FF3010BD2DE9FF47A6
:1025500007008846140000200390EFF30580002850
:102560006FD1EFF31080002803D1EFF31180002822
:1025700004D0DFF814010068022862D03800002877
:102580005FD08020824618200500002081465FF041
:10259000FF300600002C33D02068002801D02068CE
:1025A0008146A069002801D0A0690500002D04D053
:1025B000392D02D22079C00701D5002042E06069A0
:1025C000002802D0606980088246A06800280BD0ED
:1025D000E0685C2808D32069002805D060690028DD
:1025E00002D0012006000DE0A06800280AD1E068B2
:1025F000002807D12069002804D10020060001E04E
:1026000000200600012E0CD1A068029020690190E4
:1026100000954346524649463800FEF747FE039070
:102620000FE0002E0DD103A80190009543465246BD
:1026300092B249463800FEF78CFE012801D00020F6
:102640000390039804B0BDE8F08738B50400EFF3B9
:10265000058000280CD1EFF31080002803D1EFF3A0
:102660001180002807D0DFF824000068022802D17A
:102670007FF0050505E00025002C02D02000FEF7C4
:1026800078FF280032BD0000DC730020DC730020DE
:102690002DE9F84305000E0014005FF00008EFF389
:1026A0000580002859D1EFF31080002803D1EFF303
:1026B0001180002804D0DFF84002006802284CD0C6
:1026C000002D4AD0002E48D05FF0FF300700002CCC
:1026D0001FD0A06800280DD0E06850280AD32069D8
:1026E000002807D0606906FB05F1884202D301206B
:1026F000070010E0A06800280DD1E06800280AD18A
:102700002069002807D16069002804D10020070053
:1027100001E000200700012F09D100200090A368EC
:1027200022693100280000F053FC804607E0002FAA
:1027300005D100223100280000F0B5FC8046B8F138
:10274000000F0AD0002C02D02068814601E0002052
:1027500081464946404601F0A1F84046BDE8F28373
:1027600000002DE9F84307000C0090461D003E00D4
:102770005FF00009EFF3058000280BD1EFF3108024
:10278000002803D1EFF3118000282CD05A480068AC
:10279000022828D1002E03D0002C01D0002D03D018
:1027A0007FF00300814637E00020009000236A4656
:1027B0002100300000F0C8FD012803D07FF00200A6
:1027C000814629E0009800280AD0FEF7A1F95FF0C1
:1027D00080504A490860BFF34F8FBFF36F8F1BE0F3
:1027E000FEF783F918E0002E01D0002C03D17FF012
:1027F0000300814610E000232A002100300000F091
:10280000A4FC012808D0002D03D07FF001008146F0
:1028100002E07FF0020081464846BDE8F2832DE9E0
:10282000F84307000C0090461D003E005FF00009D1
:10283000EFF3058000280BD1EFF31080002803D1BF
:10284000EFF3118000282BD02B480068022827D1F5
:10285000002E03D0002C01D0002D03D07FF0030008
:10286000814635E0002000906A462100300000F0EB
:10287000DDFE012803D07FF00200814628E00098A9
:1028800000280AD0FEF744F95FF080501B49086029
:10289000BFF34F8FBFF36F8F1AE0FEF726F917E0F3
:1028A000002E01D0002C03D17FF0030081460FE001
:1028B0002A002100300000F0CFFD012808D0002DB3
:1028C00003D07FF00100814602E07FF002008146E4
:1028D0004846BDE8F2830A4B03600A4B0B60802335
:1028E00013607047084B0360084B0B604FF4807314
:1028F0001360704700000000DC73002004ED00E06E
:10290000E0700020B46B00203C710020B45F002018
:1029100038B586B0002400F029FADFF89C0400687E
:1029200000281ED0002004900020039005AA03A9CF
:1029300004A8FFF7D7FFDFF88454049802900398A7
:102940000190022000900023059ADFF874140FF222
:102950002910FEF7ABFC28602868002801D0012070
:102960000400002C09D172B6502080F31188BFF307
:102970004F8FBFF36F8F62B6FEE7200007B030BD08
:102980002DE9FF4704000D0016001F00DDF8308020
:102990005FF00009002C09D172B6502080F3118835
:1029A000BFF34F8FBFF36F8F62B6FEE7DFF808A467
:1029B000DAF80000002822D0009501960294062D36
:1029C00015DAFFF76BF9022808D100234246694661
:1029D000DAF8000000F0B9FB814610E00023002285
:1029E0006946DAF8000000F0B0FB814607E00023FA
:1029F0003A006946DAF8000000F0A6FC8146484635
:102A000004B0BDE8F087F8B505000E00DFF8B403A8
:102A10000068C068C768381DFFF793FB97F8280067
:102A200040071ED52B003200B9694919380000F063
:102A300092F800281BD00020009000232A000021DB
:102A40003800FFF79DFF0400002C09D172B650201A
:102A500080F31188BFF34F8FBFF36F8F62B6FEE72D
:102A600005E097F8280010F0FE0087F828003800ED
:102A7000396A8847F1BD000038B50400684600F0A7
:102A800042F805000099280000F003F800F08CF8E7
:102A9000F4E77CB505000C00FEF7FAFD684600F08F
:102AA00046F80600009800282AD1002C08D1AE4232
:102AB00006D3FEF7F3FD31002800FFF7A4FF21E065
:102AC000002C08D0DFF8000300680068002801D15E
:102AD000012400E000242200A91BDFF8DC020068CA
:102AE00000F0FAFEFEF7DAFD00280BD15FF080500F
:102AF000DFF8D8120860BFF34F8FBFF36F8F01E08C
:102B0000FEF7CCFD73BD0100DFF8B8221068006845
:102B1000002801D1012000E000200860086800289A
:102B200003D11068C068006800E00020704770B5ED
:102B30000400FEF728FE0500DFF894623068854245
:102B400004D200F0CAF80120206001E000202060DB
:102B50003560280070BD2DE9F04104000D0016001D
:102B60001F005FF0000865602461AE420DD3F01BCA
:102B7000A169884202D30120804612E0211DDFF8BE
:102B800048020068FFF7C2FA0BE0BE4204D2BD4221
:102B900002D30120804604E0211D8A480068FFF727
:102BA000B5FA4046BDE8F081F8B586B0002201A92B
:102BB0008148006800F050FC002800F08C800198EB
:102BC000002804D502AFB96878683A689047019840
:102BD0000028EBD4039805006869002802D0281D5E
:102BE000FFF7AFFA05A8FFF7A2FF0600019800283B
:102BF0000ED002280CD00BD304283FD037D30628A0
:102C000006D058D3082832D002D3092836D061E044
:102C100095F8280050F0010085F82800029B32004A
:102C20000299A86941182800FFF795FF00281DD0D8
:102C30002800296A884795F82800400716D5002003
:102C400000900023029AA869821800212800FFF74B
:102C500097FE0400002C09D172B6502080F3118831
:102C6000BFF34F8FBFF36F8F62B6FEE79EE795F815
:102C7000280010F0FE0085F8280097E795F8280056
:102C800050F0010085F828000298A861A869002882
:102C900009D172B6502080F31188BFF34F8FBFF374
:102CA0006F8F62B6FEE733003200A96989192800E8
:102CB000FFF751FF7AE795F82800800703D4280032
:102CC000FFF758F905E095F8280010F0FE0085F8A8
:102CD00028006BE76AE707B0F0BD2DE9FC41DFF89B
:102CE000E480D8F800000068002836D0D8F800004A
:102CF000C06800680500D8F80000C068C068070018
:102D0000381DFFF71EFA3800396A884797F82800FF
:102D10004007E4D5B86940190600B54207D27E6085
:102D20003F61391DD8F80000FFF7F0F9D7E7002020
:102D3000009000232A0000213800FFF721FE040044
:102D4000002C09D172B6502080F31188BFF34F8F49
:102D5000BFF36F8F62B6FEE7C1E7D8F800001A49EB
:102D60000A68C8F800200860BDE8F3817CB5FFF769
:102D70007AFA114C206800281BD1164D2800FFF765
:102D8000A7F9154E3000FFF7A3F90E4805600E486D
:102D9000066000200090114B114A10210A2000F01B
:102DA00017F920602068002803D00E49206800F041
:102DB00075FDFFF776FA73BD587400205C7400202F
:102DC000F0612000507400205474002004ED00E0F5
:102DD0006074002094730020A87300209871002074
:102DE000E06F0020F86120000300002013F0030FC3
:102DF00009D0521E22BF13F8010B11F801CBB0EB22
:102E00000C00F3D0704711F0030F14D1121F22BF32
:102E100053F8040B51F804CB6045F7D0121D0AD2C9
:102E200000BA9CFA8CFCB0EB0C0038BF6FF00000CD
:102E300088BF01207047521E22BF13F8010B11F802
:102E400001CBB0EB0C00F6D0521C08BF1046704707
:102E50000848002101600021074A116007490968FC
:102E60004FF47A72B1FBF2F1491E054A1160072155
:102E70000160704710E000E018E000E00C00002066
:102E800014E000E0EFF30980BFF36F8F274B1A685F
:102E90001EF0100F08BF20ED108A20E9F04F1060DF
:102EA00009B44FF0500072B680F31188BFF34F8F12
:102EB000BFF36F8F62B6FEF709FD4FF0000080F39D
:102EC000118809BC19680868B0E8F04F1EF0100FAF
:102ED00008BFB0EC108A80F30988BFF36F8F70478A
:102EE000124B19680868B0E8F04F80F30988BFF307
:102EF0006F8F4FF0000080F3118870470C48006816
:102F0000006880F308884FF0000080F3148862B6F0
:102F100061B6BFF34F8FBFF36F8F00DFDFF8140090
:102F2000016841F4700101607047000014740020D2
:102F300008ED00E088ED00E070B506000C003500FB
:102F4000002D09D172B6502080F31188BFF34F8F46
:102F5000BFF36F8F62B6FEE7FFF785F92968EA6B6A
:102F6000286C424301EB0200A8600020A863286897
:102F700068602968EA6B521E286C424301EB02002C
:102F8000E8605FF0FF3085F8440085F84500002CCC
:102F900012D12869002817D015F11000FEF72AFD7C
:102FA000002811D05FF08050DFF87C160860BFF376
:102FB0004F8FBFF36F8F07E015F11000FFF788F810
:102FC00015F12400FFF784F8FFF76BF9012070BDBD
:102FD0002DE9F84306000C0015001F00DDF82090D5
:102FE000002E09D172B6502080F31188BFF34F8FA5
:102FF000BFF36F8F62B6FEE7002F09D172B6502083
:1030000080F31188BFF34F8FBFF36F8F62B6FEE777
:10301000002D01D0002C01D0012000E00020C0B222
:10302000002809D172B6502080F31188BFF34F8F6A
:10303000BFF36F8F62B6FEE7002D01D1002C01D1E6
:10304000012000E00020C0B2002809D172B6502053
:1030500080F31188BFF34F8FBFF36F8F62B6FEE727
:10306000502000900098502809D072B6502080F36C
:103070001188BFF34F8FBFF36F8F62B6FEE70098E2
:10308000B846B8F1000F0BD0012088F84600CDF803
:1030900000804B46DBB22A002100300000F033F8FC
:1030A0004046BDE8F2832DE9F84304000D00170007
:1030B000002C09D172B6502080F31188BFF34F8FD6
:1030C000BFF36F8F62B6FEE7002D02D15FF00009FB
:1030D00001E005FB04F919F15000FEF7B5FE06000A
:1030E000002E0DD0300050308046002086F846007B
:1030F00000963B00DBB242462900200000F003F8B6
:103100003000BDE8F2832DE9F04105000C00160007
:103110001F00DDF81880002C02D1C8F8008001E003
:10312000C8F80060C8F83C50C8F84040012140464B
:10313000FFF702FF88F84C703B00DBB22200290049
:103140007320FDF777FABDE8F0812DE9F64383B0EF
:1031500080460D00994600244646002E09D172B6DD
:10316000502080F31188BFF34F8FBFF36F8F62B68B
:10317000FEE7002D02D1306C002801D1012000E0D3
:103180000020C0B2002809D172B6502080F3118807
:10319000BFF34F8FBFF36F8F62B6FEE7B9F1020F37
:1031A00002D1F06B012801D1012000E00020C0B263
:1031B000002809D172B6502080F31188BFF34F8FD9
:1031C000BFF36F8F62B6FEE7FEF768FD002802D1FD
:1031D0000498002801D1012000E00020C0B200289E
:1031E00009D172B6502080F31188BFF34F8FBFF31F
:1031F0006F8F62B6FEE7FFF736F8B06BF16B88426F
:1032000002D3B9F1020F32D13000FDF768FDCDF8DD
:103210000090049B2A0001005A20FDF74CFA4A4610
:103220002900300000F07DFA0700706A00280FD0F6
:1032300016F12400FEF7DEFB002814D05FF080506A
:10324000DFF8E4130860BFF34F8FBFF36F8F0AE01E
:10325000002F08D05FF08050DFF8CC130860BFF378
:103260004F8FBFF36F8FFFF71CF8012069E00498C0
:1032700000280ED1FFF715F83000FDF730FDCDF82E
:103280000090049B2A0001005A20FDF714FA002048
:1032900057E0002C04D101A8FEF7F8FB0120040040
:1032A000FEF7FFFFFEF7F4F9FEF7DDFF96F94400A5
:1032B00010F1010F02D1002086F8440096F9450074
:1032C00010F1010F02D1002086F84500FEF7E9FF5A
:1032D00004A901A8FEF7E3FB002821D1300000F08B
:1032E000CEFA002816D0049916F11000FEF73AFB2A
:1032F000300000F07FFAFEF7D1F900287FF47BAFB1
:103300005FF08050DFF820130860BFF34F8FBFF3EA
:103310006F8F70E7300000F06DFAFEF7BFF96AE7D3
:10332000300000F067FAFEF7B9F93000FDF7D7FC7E
:10333000CDF80090049B2A0001005A20FDF7BBF94C
:10334000002005B0BDE8F0832DE9F04707000C0030
:10335000150098463E00002E09D172B6502080F329
:103360001188BFF34F8FBFF36F8F62B6FEE7002C5B
:1033700002D1306C002801D1012000E00020C0B251
:10338000002809D172B6502080F31188BFF34F8F07
:10339000BFF36F8F62B6FEE7B8F1020F02D1F06B98
:1033A000012801D1012000E00020C0B2002809D18D
:1033B00072B6502080F31188BFF34F8FBFF36F8F29
:1033C00062B6FEE7FEF7A2FFEFF3118972B6502056
:1033D00080F31188BFF34F8FBFF36F8F62B6B06B6E
:1033E000F16B884202D3B8F1020F28D196F945A0BB
:1033F0003000FDF774FC2A0001006020FDF7E4F8BE
:1034000042462100300000F08CF950465FF0FF3159
:1034100040B288420DD1706A00280ED016F1240007
:10342000FEF7E8FA002808D0002D06D00120286019
:1034300003E01AF1010086F84500012008E03000A1
:10344000FDF74DFC2A0001006020FDF7BDF80020CB
:1034500089F31188BDE8F0872DE9F64383B08046F3
:103460000E0000244746002F09D172B6502080F389
:103470001188BFF34F8FBFF36F8F62B6FEE7002E48
:1034800002D1386C002801D1012000E00020C0B238
:10349000002809D172B6502080F31188BFF34F8FF6
:1034A000BFF36F8F62B6FEE7FEF7F8FB002802D18C
:1034B0000498002801D1012000E00020C0B20028BB
:1034C00009D172B6502080F31188BFF34F8FBFF33C
:1034D0006F8F62B6FEE7FEF7C6FEBD6B002D29D0EA
:1034E0003100380000F06BF90020FDF7F8FB814651
:1034F0003800FDF7F4FB01210091049B4A460100CE
:103500005C20FDF7D8F8681EB863386900280DD034
:1035100017F11000FEF76EFA002807D05FF0805018
:1035200041490860BFF34F8FBFF36F8FFEF7B9FEBD
:10353000012075E00498002812D1FEF7B2FE0020A9
:10354000FDF7CDFB81463800FDF7C9FB0121009155
:10355000049B4A4601005C20FDF7ADF800205FE0C7
:10356000002C04D101A8FEF791FA01200400FEF717
:1035700098FEFEF78DF8FEF776FE97F9440010F1FD
:10358000010F02D1002087F8440097F9450010F19F
:10359000010F02D1002087F84500FEF782FE04A942
:1035A00001A8FEF77CFA00281FD1380000F059F975
:1035B000002814D0049917F12400FEF7D3F938003D
:1035C00000F018F9FEF76AF8002884D15FF0805007
:1035D00015490860BFF34F8FBFF36F8F7BE738004B
:1035E00000F008F9FEF75AF875E7380000F002F924
:1035F000FEF754F8380000F034F900283FF46BAFC0
:103600000020FDF76CFB05003800FDF768FB012189
:103610000091049B2A0001005C20FDF74CF800207B
:1036200005B0BDE8F083000004ED00E02DE9F84F9F
:1036300080460C0015004646002E09D172B6502077
:1036400080F31188BFF34F8FBFF36F8F62B6FEE731
:10365000002C02D1306C002801D1012000E00020B4
:10366000C0B2002809D172B6502080F31188BFF390
:103670004F8FBFF36F8F62B6FEE7FEF747FEEFF3A3
:10368000118972B6502080F31188BFF34F8FBFF3BA
:103690006F8F62B6B76B002F2FD096F944B0200021
:1036A000FDF71DFB82463000FDF719FB2B0052464B
:1036B00001006220FCF7BEFF2100300000F07FF81F
:1036C000781EB06358465FF0FF3140B288420DD19A
:1036D000306900280ED016F11000FEF78BF9002893
:1036E00008D0002D06D00120286003E01BF1010066
:1036F00086F844005FF0010A0EE05FF0000A200047
:10370000FDF7EDFA83463000FDF7E9FA2B005A4643
:1037100001006220FCF78EFF89F311885046BDE856
:10372000F28F2DE9F84F06000F0014005FF000083B
:10373000B56B306C002809D1306800283AD1B068E8
:10374000FEF7C4FA80460020B06033E0002C14D1AC
:10375000D6F84090BA46D6F804B04A465146584684
:10376000FDF750FD7068316C084470607068B16896
:1037700088421FD3306870601CE0D6F84090BA468B
:10378000D6F80CB04A4651465846FDF73BFDF06866
:10379000316C49420844F060F0683168884204D2D4
:1037A000B068316C49420844F060022C02D1002D0F
:1037B00000D06D1E681CB0634046BDE8F28F2DE955
:1037C000F04104000D00206C002811D0E068216C4D
:1037D0000844E060E068A168884201D32068E060A6
:1037E000266CE768A846320039004046FDF70AFD1E
:1037F000BDE8F081F8B50400FEF735FD94F94550B9
:10380000280040B201280CDB606A002809D014F1BE
:103810002400FEF7EFF8002801D0FEF78BF96D1EAB
:10382000EEE75FF0FF3684F84560FEF73AFDFEF7FD
:103830001AFD94F94470380040B201280CDB20696D
:10384000002809D014F11000FEF7D4F8002801D0A8
:10385000FEF770F97F1EEEE784F84460FEF721FD65
:10386000F1BD38B50400FEF7FEFCA06B002801D1C5
:10387000012500E00025FEF714FD280032BD38B513
:103880000400FEF7F0FCA06BE16B884201D101253A
:1038900000E00025FEF705FD280032BD70B50400EC
:1038A0000D000026082E14D20A4951F836000028CF
:1038B0000DD141F8365001EBC60044602000FDF701
:1038C0000EFA2A0001007120FCF77EFE01E0761C52
:1038D000E8E770BDC8720020F8B504000D001600BE
:1038E0002700FEF7C0FC97F9440010F1010F02D148
:1038F000002087F8440097F9450010F1010F02D12C
:10390000002087F84500FEF7CCFCB86B002805D1F5
:103910003200290017F12400FEF742F83800FFF7C3
:1039200069FFF1BD2DE9F84304000027002C01D107
:1039300001201CE22078C0076DD5DFF87006016811
:1039400011F00C01042909D0006810F00C000828BF
:103950000ED1DFF85C060068400209D5DFF84806A2
:103960000068800357D56068002854D10120FEE12B
:103970006068B0F5803F06D1DFF82C06016851F48D
:103980008031016026E0606800280AD1DFF818065F
:10399000016831F480310160016831F480210160F7
:1039A00018E06068B0F5A02F0AD1DFF8FC050168C7
:1039B00051F480210160016851F48031016009E017
:1039C000DFF8E405016831F480310160016831F409
:1039D00080210160606800280ED000F001FB050026
:1039E000DFF8C4050068800315D400F0F9FA401B25
:1039F0006528F5D30320BAE100F0F2FA0500DFF8FC
:103A0000A8050068800306D500F0EAFA401B652887
:103A1000F5D30320ABE1207880075AD5DFF88C0579
:103A2000016811F00C0F09D0006810F00C00082894
:103A300016D1DFF87C050068400211D4DFF8680574
:103A40000168890704D5E168012901D001208EE1D0
:103A5000016831F0F801226951EAC201016038E0E1
:103A6000E06800281FD0DFF84085D8F8000050F04B
:103A70000100C8F8000000F0B3FA0500D8F8000013
:103A8000800706D400F0ACFA401B0328F6D30320CD
:103A90006DE1D8F8000030F0F800216950EAC1006B
:103AA000C8F8000015E0DFF80085D8F800004008ED
:103AB0004000C8F8000000F093FA0500D8F80000B4
:103AC000800706D500F08CFA401B0328F6D30320AC
:103AD0004DE1207800072ED56069002815D0DFF869
:103AE000D484D8F8000050F00100C8F8000000F0BD
:103AF00077FA0500D8F8000080071CD400F070FAAF
:103B0000401B0328F6D3032031E1DFF8A884D8F85E
:103B1000000040084000C8F8000000F061FA05000D
:103B2000D8F80000800706D500F05AFA401B032899
:103B3000F6D303201BE12078400740F18D80DFF8A9
:103B40008484D8F80000C0000DD4D8F8000050F0EC
:103B50008050C8F80000D8F8000010F080500090A5
:103B6000009801200700DFF86094D9F80000C00534
:103B700013D4D9F8000050F48070C9F8000000F0A8
:103B80002FFA0500D9F80000C00506D400F028FA85
:103B9000401B6528F6D30320E9E0A068012806D180
:103BA000DFF82804016851F00101016025E0A068F8
:103BB00000280AD1DFF814040168490849000160AF
:103BC000016831F00401016017E0A06805280AD1FE
:103BD000DFF8F803016851F004010160016851F059
:103BE0000101016009E0DFF8E403016849084900C8
:103BF0000160016831F004010160A068002810D064
:103C000000F0EEF90500DFF8C4030068800719D45E
:103C100000F0E6F9401B41F289318842F3D30320DA
:103C2000A5E000F0DDF90500DFF8A00300688007DB
:103C300008D500F0D5F9401B41F289318842F3D311
:103C4000032094E03800C0B2012805D1D8F8000064
:103C500030F08050C8F80000A069002800F086808D
:103C6000DFF84803006810F00C00082856D0A0695F
:103C700002283DD1DFF83083D8F8000030F08070A2
:103C8000C8F8000000F0ACF98146D8F800008001C7
:103C900007D500F0A5F9B0EB09000328F5D3032000
:103CA00065E0E169206A0143606A51EA8011A06A17
:103CB0004008401E51EA0041E06A51EA006151F0BB
:103CC0000051DFF8EC020160D8F8000050F080707D
:103CD000C8F8000000F084F90500D8F80000800161
:103CE00044D400F07DF9401B0328F6D303203EE0C6
:103CF000DFF8B482D8F8000030F08070C8F8000017
:103D000000F06EF90500D8F8000080012ED500F013
:103D100067F9401B0328F6D3032028E0DFF8900260
:103D200000680600A06901281ED016F48000E16931
:103D3000884219D116F03F00216A884214D147F613
:103D4000C0703040616AB0EB811F0DD116F4403075
:103D5000A16A4908491EB0EB014F05D116F0706009
:103D6000E16AB0EB016F01D0012000E00020BDE866
:103D7000F2832DE9F04104000D000026002C01D152
:103D80000120A0E0DFF84872386810F00F00A84268
:103D90000BD238680009000128433860386810F0F9
:103DA0000F00A84201D001208DE02078800719D5AE
:103DB0002078400705D5DFF8F401016851F4E0519F
:103DC00001602078000705D5DFF8E001016851F4B3
:103DD00060410160DFF8D4110A6832F0F002A06897
:103DE00002430A602078C00737D56068012806D1F1
:103DF000DFF8B4010068800311D4012063E060683B
:103E0000022806D1DFF8A0010068800107D4012054
:103E100059E065480068800701D4012053E0DFF8CD
:103E20008C81D8F800108908890060680143C8F8BF
:103E3000001000F0D5F80600D8F8000010F00C00D3
:103E40006168B0EB810F08D000F0CAF8801B41F226
:103E500089318842F0D3032035E0386810F00F0034
:103E600085420BD238680009000128433860386861
:103E700010F00F00A84201D0012024E02078400774
:103E800006D54A490A6832F4E052E06802430A6003
:103E90002078000707D54548016831F46041226960
:103EA00051EAC201016000F010F84A493F4A126825
:103EB000C2F30312895CC84040490860404800686A
:103EC00000F094F80020BDE8F0812DE9F0410024D5
:103ED0000025002600273548006810F00C00002857
:103EE00004D0042804D0082804D031E0324830E05F
:103EF00039482EE0DFF8B880D8F8000010F03F0015
:103F00000400D8F8000040020CD5D8F80000C0F337
:103F100088103149A1FB00012200002300F0EEF8D7
:103F200005000BE0D8F80000C0F388102249A1FB7F
:103F300000012200002300F0E1F80500D8F800009D
:103F4000C0F30140401C40000600B5FBF6F000E065
:103F50001948BDE8F08119480068704780B5FFF73F
:103F6000FAFF1E49114A1268C2F38222895CC840D6
:103F700002BD0F2202600D4A136813F00303436071
:103F8000136813F0F0038360136813F4E053C36005
:103F90001268D20812F4E05202610D4A126812F05F
:103FA0000F020A60704700000038024008380240E3
:103FB00004380240743802400024F4000C00002051
:103FC0000800002040380240007000407038024075
:103FD000003C02406061200000127A00E061200095
:103FE00001480068704700BF107400202DE9F847B1
:103FF00087B00500002700262A48016851F0040117
:104000000160006810F004000090009801A902A867
:10401000FFF7AFFF059C002C03D1FFF79FFF0700C0
:1040200003E0FFF79BFF07007F001F48B7FBF0F896
:10403000B8F10108DFF874901D48C9F8000040F29B
:10404000E730C9F80C00C9F804800020C9F8100056
:104050000020C9F808000020C9F81800484600F000
:1040600065F982465046C0B2002816D1484600F095
:104070009AF982465046C0B200280ED11E2000F0A8
:1040800062FC102D07D2002229001E2000F046FC01
:104090000848056001E0012082465046C0B208B0E1
:1040A000BDE8F0874038024040420F0034720020E3
:1040B000000800400800002013F0004C03D55B42CC
:1040C000524263F100039CEA210C00F0178010B506
:1040D000644603D34942404261F1000100F00EF80A
:1040E000640004D34942404261F10001244203D5F7
:1040F0005B42524263F1000310BD0000BBBBE1B163
:10410000B2F5803F80F07E80022A1ED98C46B1FB3A
:10411000F2F102FB11C31B0443EA1043B3FBF2FCB0
:1041200002FB1C3380B240EA0343B3FBF2F002FB14
:10413000103240EA0C4000237047022A05D9844619
:10414000B0FBF2F002FB10C270474AB105D100F09B
:10415000010249085FEA30007047002200237047DF
:1041600000F002BC0B0002000021002070479042CA
:1041700071EB030CF6D3B3F5803F2FD2F0B5B3FA51
:1041800083F7B1FA81F4A7F10F0E3D1B5340CEF136
:10419000200602FA0EF2F3415340B5F10F0746D85C
:1041A0000F3C2C444140C4F12006A040F141414065
:1041B000B1FBF3F603FB1611A2FB0645001BA94158
:1041C00002D2761E8018594180EA010221FA0EF3CC
:1041D00062FA0EF200215A403046F0BD30B4B1FB15
:1041E000F3FC03FB1C11A2FB0C45001BA94103D2ED
:1041F000ACF1010C8018594130BC02460B466046B8
:1042000000217047B2F1807F65D3F0B5B2FA82F732
:10421000B1FA81F4C7F10F063D1B22FA06F307F14C
:10422000110EF24120355A40B5F10F07B8D941407F
:10423000C4F12006A040F1414140B1FBF3FC03FB77
:104240001C11A2FB0C45001BA94103D2BCF1010CBF
:10425000801859410F2F12D30F3FC90341EA504133
:10426000B1FBF3F603FB1611A2FB0645D4EBC030FD
:10427000A94102D2761E8018594146EACC3C07B3C8
:104280004140C7F12006B840F1414140B1FBF3F68F
:1042900003FB1611A2FB0645001BA94102D2761EA4
:1042A0008018594180EA010221FA0EF3C7F1200477
:1042B00062FA0EF20CFA07F05A402CFA04F130437D
:1042C000F0BD80EA010221FA0EF3002162FA0EF23B
:1042D00060465A40F0BD8C46B1FBF2F102FB11C3BF
:1042E0001B0243EA1063B3FBF2FC02FB1C331B020C
:1042F0004CEA002043EA1063B3FBF2FC02FB1C33E0
:104300001B024CEA002043EA1063B3FBF2FC02FB01
:104310001C331B024CEA002043EA1063B3FBF2FC9F
:1043200002FB1C324CEA00200023704710B5040049
:10433000002C01D1012035E094F83D00002805D182
:10434000002084F83C00200000F07DFB022084F86F
:104350003D00211D206800F0CCF9012084F84800C0
:10436000012084F83E00012084F83F00012084F8F9
:104370004000012084F84100012084F8420001201F
:1043800084F84300012084F84400012084F84500AB
:10439000012084F84600012084F84700012084F8B9
:1043A0003D00002010BD010091F83D00012801D022
:1043B000012048E0022081F83D000868C06850F004
:1043C00001000B68D8600868DFF87C30984221D083
:1043D0000868B0F1804F1DD00868DFF8703098424F
:1043E00018D00868DFF86830984213D00868DFF802
:1043F000643098420ED00868DFF85C30984209D0EB
:104400000868DFF85830984204D00868DFF8503068
:10441000984211D108688368DFF8480003401A0009
:10442000062A0FD0B2F5803F0CD00868006850F023
:1044300001000B68186005E00868006850F0010092
:104440000B68186000207047000001400004004025
:1044500000080040000C0040000401400040014002
:10446000001800400700010010B504002068006932
:1044700080071AD52068C068800716D57FF0020033
:1044800021680861012020772068806910F0030FFF
:1044900003D0200000F0F8FA05E0200000F0F5FA63
:1044A000200000F0F3FA0020207720680069400720
:1044B0001AD52068C068400716D57FF0040021682F
:1044C0000861022020772068806910F4407F03D0C3
:1044D000200000F0D9FA05E0200000F0D6FA200014
:1044E00000F0D4FA002020772068006900071AD570
:1044F0002068C068000716D57FF0080021680861B1
:10450000042020772068C06910F0030F03D020003A
:1045100000F0BAFA05E0200000F0B7FA200000F041
:10452000B5FA0020207720680069C0061AD52068F7
:10453000C068C00616D57FF0100021680861082009
:1045400020772068C06910F4407F03D0200000F07D
:104550009BFA05E0200000F098FA200000F096FA9F
:104560000020207720680069C0070AD52068C0684D
:10457000C00706D57FF0010021680861200000F027
:10458000ADFB2068006900060AD52068C0680006F7
:1045900006D57FF0800021680861200000F0C2FB92
:1045A00020680069C0050AD52068C068000606D5E5
:1045B0007FF4807021680861200000F0B4FB20685F
:1045C000006940060AD52068C068400606D57FF01D
:1045D000400021680861200000F0A6FB2068006907
:1045E00080060AD52068C068800606D57FF02000C6
:1045F00021680861200000F098FB10BDF8B50400A8
:104600000D00002694F83C00012801D102206FE043
:10461000012084F83C00022084F83D00206887686F
:10462000DFF89401074037F47F47206887602868E7
:1046300000284ED010284CD020284AD0302848D00E
:1046400040283CD0502826D060282ED0702807D093
:10465000B0F5805F03D0B0F5005F0FD03EE03FE0E3
:10466000EB686A68A968206800F0EBF82068806849
:1046700050F0770007002068876031E0EB686A68D7
:10468000A968206800F0DDF82068806850F4804058
:104690002168886024E0EA686968206800F0A4F86E
:1046A0005021206800F0C5F81AE0EA6869682068BF
:1046B00000F0ACF86021206800F0BBF810E0EA6878
:1046C0006968206800F090F84021206800F0B1F897
:1046D00006E02968206800F0ACF801E0012006003F
:1046E000012084F83D00002084F83C003000C0B276
:1046F000F2BD10B40468DFF8C430984212D0B0F1B3
:10470000804F0FD0DFF8B82090420BD0DFF8B420F4
:10471000904207D0DFF8B020904203D0DFF8AC2001
:10472000904203D134F070044A68144398422AD06E
:10473000B0F1804F27D0DFF88820904223D0DFF8F7
:10474000842090421FD0DFF8802090421BD0DFF8F9
:104750007C20904217D0DFF87820904213D0DFF809
:10476000742090420FD0DFF8702090420BD0DFF819
:104770006C20904207D0DFF86820904203D0DFF829
:104780006420904203D134F44074CA68144334F076
:1047900080044A69144304608A68C2620A688262BB
:1047A000984203D0DFF82420904201D10A690263C5
:1047B0000122426110BC704788FFFEFF00000140EB
:1047C0000004004000080040000C004000040140CC
:1047D00000400140004401400048014000180040F2
:1047E000001C00400020004010B4046A036A5B080B
:1047F0005B000362836933F0F00353EA021334F081
:104800000A040C438361046210BC704710B4036A4D
:1048100033F0100303628369046A33F4704353EA8C
:10482000023334F0A00454EA01148361046210BC22
:104830007047826832F070020A4352F007028260C9
:10484000704710B4846834F47F440C43144354EA32
:104850000324846010BC704710B410F00703DFF825
:10486000F44022684FF6FF010A4052EA0322DFF8C3
:10487000E8100A43226010BC7047DFF8D8000068D7
:10488000C0F302207047010049B2002909D4012277
:1048900010F01F018A40314903005BB25B0941F807
:1048A0002320704710B4020052B2002A05D40A0136
:1048B0002B4B040064B21A5508E00A01294B04008E
:1048C00064B214F00F04234403F8042C10BC7047A6
:1048D00070B4030013F00704D4F10700052801D3D6
:1048E000042001E0D4F10700251D072D01D2002589
:1048F00000E0E51E012616FA00F0401E0140A94026
:1049000016FA05F56D1E2A401143080070BC704769
:1049100010B504002000FFF79FFF10BD2DE9F04106
:1049200004000D0016000027FFF7A7FF80463200A5
:1049300029004046FFF7CCFF0100200040B2FFF7FE
:10494000B1FFBDE8F08110B50400200040B2FFF7D0
:104950009AFF10BD0CED00E00000FA0500E100E058
:1049600000E400E018ED00E07047000080B53E482C
:10497000016851F080510160006810F08050009093
:1049800000983A48016851F480410160006810F4D1
:1049900080400090009800220F217FF00100FFF777
:1049A000BDFF01BD38B586B004001421002201AD61
:1049B0002800FCF7DFFB20682D49884241D12B48B5
:1049C000016851F480610160006810F4806000901B
:1049D00000982848016851F020010160006810F03B
:1049E00020000090009840200190032002900020B9
:1049F000039001A9204800F099F9204D2048286033
:104A00005FF0806068600020A8600020E8604FF4DC
:104A1000806028614FF4006068614FF40050A86125
:104A20004FF48070E8615FF44030286200206862D3
:104A3000280000F0B7FA002801D000F071F9A56352
:104A4000AC6307B030BD81B001680E4A914209D114
:104A500006490A6852F001020A60096811F0010172
:104A60000091009901B0704740380240443802403C
:104A700000220140303802400014024080700020C3
:104A8000106402400000014070477047704700000A
:104A900080B500F0CDFC00F024F800F0DFFC00F061
:104AA00001F900F0EBF800F06DF800F0A6F890487E
:104AB000016851F0040101608E48016851F0010164
:104AC00001608D48FFF76FFC4FF47A628B498C4888
:104AD00000F034FD00F0DEFF00F0F4FF01F028F8F4
:104AE000FEE710B592B03021002206AC2000FCF7A2
:104AF00041FB1421002201AC2000FCF73BFB814864
:104B0000016851F080510160006810F08050009001
:104B100000987D48016851F440410160006810F43C
:104B2000404000900098022006900120099010203B
:104B30000A9002200C9000200D9008200E90AA20D0
:104B40000F90022010900220119006A8FEF7EAFEB6
:104B5000002801D000F0E4F80F200190022002901C
:104B6000002003904FF4A05004904FF48050059023
:104B7000052101A8FFF7FDF8002801D000F0D0F8CA
:104B800012B010BD1FB5102100226C462000FCF7AA
:104B9000F1FA5B4C5D4820605FF48030606000207B
:104BA000A060002020610020A061002084F8200087
:104BB0005FF04050E0625FF01060A0620020E060B3
:104BC0000120E061012084F83000012060612000B4
:104BD00000F082FC002801D000F0A2F80320009031
:104BE00001200190002002906946200000F055FD50
:104BF000002801D000F094F81FBD18B587B010212F
:104C0000002203AC2000FCF7B5FA0C2100226C4610
:104C10002000FCF7AFFA384C3D482060002060606F
:104C20000020A06040F25310E060002020610020CE
:104C300060610020A0612000FFF778FB002801D010
:104C400000F06EF84FF48050039003A92000FFF7A6
:104C5000D5FC002801D000F063F8202000905FF41C
:104C600000100190002002906946200000F064FFCF
:104C7000002801D000F054F808B010BD80B52548D8
:104C8000016851F480010160006810F48000009018
:104C90000098002205213820FFF740FE3820FFF75A
:104CA00052FE01BD10B586B01421002201AC2000D7
:104CB000FCF760FA1748016851F0010101600068D3
:104CC00010F001000090009808200190032002904D
:104CD00001A9114800F02AF806B010BD10B5040073
:104CE00020680E49884201D100F088FF10BD000005
:104CF000082004E00C2004E0E8710020143C0020AF
:104D000080720020403802400070004000220140C4
:104D1000000001403038024000000240000800401E
:104D200072B6FEE77047704770477047F8B50022CB
:104D30000023002400250026102E80F00581012785
:104D400017FA06F213000A681A4014009C4240F059
:104D5000F9800A7912F00302012A04D00A7912F0CC
:104D60000302022A1BD1D0F808C05FF0030E7200C4
:104D70001EFA02FE3CEA0E0CD1F80CE072001EFA9C
:104D800002FE5EEA0C0CC0F808C04268B740BA43A5
:104D90004F68C7F30017B7403A43150045600A79DA
:104DA00012F00302032A10D0C7685FF0030C7200F0
:104DB0001CFA02FC37EA0C07D1F808C072001CFA92
:104DC00002FC5CEA07073D00C5600A7912F00302A5
:104DD000022A1AD13200D20800EB8202126A0F278F
:104DE0005FEA860C1CF01C0C17FA0CF7BA430F692B
:104DF0005FEA860C1CF01C0C17FA0CF73A431500FE
:104E00003200D20800EB8202156207685FF0030CE3
:104E100072001CFA02FC37EA0C0791F804C01CF07F
:104E2000030C72001CFA02FC5CEA07073D000560F7
:104E30004A6812F4403F00F08580DFF828211768A7
:104E400057F480471760126812F480420092009A6B
:104E5000DFF814713200920857F822205FF00F0C2F
:104E60005FEA860E1EF00C0E1CFA0EFC32EA0C02F3
:104E7000DFF8F8C0604501D100252FE0DFF8F050E1
:104E8000A84201D1012529E0DFF8E850A84201D16C
:104E9000022523E0384DA84201D103251EE0374DFD
:104EA000A84201D1042519E0354DA84201D10525BC
:104EB00014E0344DA84201D106250FE0324DA8423E
:104EC00001D107250AE0314DA84201D1082505E0AE
:104ED0002F4DA84201D1092500E00A25EDB25FEA75
:104EE000860C1CF00C0C15FA0CF52A433500AD08A5
:104EF00047F82520274F3D68A543D1F804C05FEA55
:104F0000CC2C00D525433D60234F3A68A243D1F80D
:104F100004C05FEA8C2C00D522433A601F4D2F68F5
:104F2000A743D1F804C05FEA8C3C00D527432F602B
:104F30001B4A1568A543D1F804C05FEACC3C00D5F4
:104F400025431560761CF7E6F1BD1300DBB2002B9C
:104F500003D00B009BB2836103E00B009BB21B04E8
:104F60008361704744380240083801400000024025
:104F70000004024000080240000C02400010024001
:104F80000014024000180240001C024000200240B1
:104F900000240240083C01400C3C0140043C01401C
:104FA000003C014070B504000026FFF719F8050029
:104FB000002C01D1012065E0606A0028022084F8FD
:104FC0003500002084F83400206800684008400064
:104FD0002168086020680068C0070BD5FFF700F85B
:104FE000401B0628F6D320206065032084F8350096
:104FF000032047E020680168DFF88C030140606807
:105000000143A0680143E0680143206901436069EE
:105010000143A0690143E0690143206A0143606ADA
:10502000042803D1E06A0143206B0143206801603A
:1050300020684669F608F600606A0643606A04283C
:1050400010D1A06A0643E06A00280BD0200000F0CF
:10505000A1F9002806D040206065012084F83500C1
:1050600001200FE020684661200000F073F9010084
:105070003F22E06D82408A6000206065012084F854
:105080003500002070BD2DE9F84304000D00160026
:105090001F005FF00008D4F8589094F834000128FD
:1050A00001D1022039E0012084F8340094F8350061
:1050B00001282BD1022084F83500002060653B00D8
:1050C00032002900200000F02EF93F21E06D8140E0
:1050D000C9F808102068006850F0160021680860C0
:1050E0002068406950F0800021684861206C0028E9
:1050F00005D02068006850F008002168086020682A
:10510000006850F001002168086004E0002084F885
:105110003400022080464046C0B2BDE8F283F8B5B4
:10512000040000200090DFF8640200684FF416517C
:10513000B0FBF1F5A66D37680821E06D11FA00F0BB
:10514000074210D02068006840070CD5206800682E
:1051500030F0040022681060E06D8140B160606D45
:1051600050F001006065E06D3900C140C8070BD503
:1051700020684069000607D50121E06D8140B160DB
:10518000606D50F0020060650421E06D11FA00F0DE
:1051900007420AD020680068800706D5E06D81408C
:1051A000B160606D50F0040060651021E06D11FA8F
:1051B00000F007422CD020680068000728D5E06D79
:1051C0008140B16020680068400311D52068006804
:1051D000000306D4206C00281AD02000216C8847D8
:1051E00016E0A06C002813D02000A16C88470FE0C7
:1051F00020680068C00505D42068006830F0080009
:1052000021680860206C002802D02000216C8847AB
:105210002021E06D11FA00F007425FD0206800689D
:10522000C0065BD5E06D8140B16094F8350005287B
:1052300028D12068006830F01600216808602068D6
:10524000406930F0800021684861206C002802D15C
:10525000A06C002805D02068006830F008002168A4
:1052600008603F21E06D8140B160012084F8350085
:10527000002084F83400206D002802D02000216D29
:1052800088474FE020680068400311D52068006817
:10529000000306D4606C002820D02000616C884791
:1052A0001CE0E06B002819D02000E16B884715E076
:1052B00020680068C0050BD42068006830F010003A
:1052C00021680860012084F83500002084F834004B
:1052D000E06B002802D02000E16B8847606D002859
:1052E00020D0606DC00717D5052084F835002068F0
:1052F000006840084000216808600098401C009049
:10530000854203D320680068C007F6D4012084F8E2
:105310003500002084F83400E06C002802D0200022
:10532000E16C8847F1BD30B40468246834F480240B
:1053300005682C60046863608468402C04D10468AC
:10534000A2600468E16003E00468A1600468E260B0
:1053500030BC7047017801F0FF0110391822B1FB11
:10536000F2F10B4A525CC265042905D30268920A25
:105370009202121D826503E00268920A920282651F
:10538000806D7047000000003F8010F00C0000208E
:10539000D861200010B402000020936A91690029AE
:1053A00016D1002B05D0022B03D008D3032B0DD030
:1053B0000DE0D16AC90101D50121080035E0D16AAB
:1053C000B1F1C07F01D1012108002EE02DE02CE0D9
:1053D0009169B1F5005F18D1002B05D0022B03D0E5
:1053E00005D3032B09D00FE0012108001DE0D16A8D
:1053F000C90101D50121080017E0D16AB1F1C07FD0
:1054000001D10121080010E00FE019000029022954
:1054100002D9C91E03D008E00121080005E0D16AC5
:10542000C90101D501210800FFE7C0B210BC7047D7
:1054300080B50948016851F400710160016851F4B8
:10544000807101600320FFF763FA0F20FEF7CEFDA5
:10545000FFF78CFA002002BD003C024010B586B078
:105460001948016851F004010160006810F004005F
:10547000009000981421002201AC2000FBF77AFE76
:105480001248008801900120029000200390002023
:10549000049001A90E480068FFF748FC002000F0C6
:1054A00007F806B010BD0B480168491C0160704741
:1054B00010B504002200D2B20448018804480068F4
:1054C000FFF743FD10BD00003038024010000020FF
:1054D00000000020E073002038B504000025002CF7
:1054E00001D1012029E0A06ADFF8D0148842206CA5
:1054F000002807D12000FFF755FA00206064002043
:1055000084F83C00206CC00610D4206C30F4885025
:1055100050F002002064200000F0A3F90020606435
:105520000120216C60F30101216401E001200500EC
:10553000002084F83C002800C0B232BD7CB50400D5
:105540000D0016000020009094F83C00012801D1C5
:105550000220A1E0012084F83C0020688068C00798
:1055600016D42068806850F0010021688860DFF858
:1055700050040068DFF84C14B0FBF1F10320414304
:1055800000910098002803D00098401E0090F8E792
:1055900020688068C00776D5216CDFF82C040140B4
:1055A00051F48071216420684068400504D50120D1
:1055B000216C60F30D312164206CC00404D5606C53
:1055C00030F00600606401E000206064002084F890
:1055D0003C000FF20940A16BC8630FF27D40A16B44
:1055E00008640FF28540A16BC8647FF02200216837
:1055F00008602068406850F080602168486020683A
:10560000806850F480702168886033002A00206828
:1056100010F14C01A06BFFF736FDDFF8B003016815
:1056200011F01F0F0BD12068806810F0405F32D15D
:105630002068806850F08040216888602BE02168F5
:10564000DFF88C2391420AD12168896811F0405F0C
:1056500005D12168896851F0804122689160006815
:10566000C00618D42068DFF86C13884213D1206874
:10567000806810F0405F0ED12068806850F0804054
:105680002168886007E0206C50F010002064606C96
:1056900050F001006064002076BD38B402000020A4
:1056A000009092F83C00012801D10220D7E00120AF
:1056B00082F83C0008680A2828D30868B0F1004F37
:1056C00024D01068C368072408680A38032510FB33
:1056D00005F08440A3431068C3600868BE4B98423D
:1056E00007D11068C0688B6850EA03601368D860FF
:1056F00020E01068C3688C6808680A38032510FB2E
:1057000005F0844023431068C36013E01068036908
:1057100007240D6803204543AC40A3431068036190
:10572000106803698C680D6803204543AC4023432F
:10573000106803614868072818D21068436B1F245B
:105740004868401E052510FB05F08440A3431068FF
:1057500043631068436B0C884868401E052510FBA6
:1057600005F0844023431068436333E048680D2804
:1057700018D21068036B1F244868C01F052510FB52
:1057800005F08440A343106803631068036B0C8822
:105790004868C01F052510FB05F0844023431068AE
:1057A000036317E01068C36A1F2448680D38052595
:1057B00010FB05F08440A3431068C3621068C36AFD
:1057C0000C8848680D38052510FB05F084402343FC
:1057D0001068C3627E481368834208D10B68B3F136
:1057E000004F04D1794B1C6834F440041C601368EA
:1057F00083420BD10B68122B08D1744B1C6834F414
:1058000000041C601C6854F480041C60136883420C
:1058100021D1714B0868984202D0086811281AD12A
:105820006A48046834F480040460046854F4000492
:105830000460086898420ED161480068614BB0FB73
:10584000F3F30A20434300930098002803D0009804
:10585000401E0090F8E7002082F83C00002032BC97
:1058600070475A4A116831F4403111601368416839
:105870000B4313600168496831F48071026851601C
:1058800001684968026951EA0221026851600168B1
:10589000496831F040710268516001684A68816866
:1058A0000A4301684A600168896831F4006102684E
:1058B000916001688A68C1680A4301688A60816AE8
:1058C0003E4A914218D00168896831F070610268DF
:1058D000916001688A68816A0A4301688A60016888
:1058E000896831F040510268916001688A68C16A34
:1058F0000A4301688A600BE00168896831F07061D1
:10590000026891600168896831F0405102689160D5
:105910000168896831F00201026891600168896854
:10592000826951EA42010268916090F820100029D2
:1059300014D00168496851F400610268516001683F
:10594000496831F460410268516001684968426AFF
:10595000521E51EA42310268516005E0016849680F
:1059600031F40061026851600168C96A31F4700164
:105970000268D1620168C96AC269521E51EA0251C5
:105980000268D1620168896831F40071026891602F
:105990000168896890F8302051EA422102689160DC
:1059A0000168896831F480610268916001688968E2
:1059B000426951EA82210268916070470100000F3C
:1059C0000C00002040420F00FEF9FFFF04230140BD
:1059D00000200140002201401200001038B50400F0
:1059E000A56B286C10F0500F29D1286C50F4007072
:1059F00028642868806810F0405F1CD1A8690028DE
:105A000019D12868C06A10F4700F03D02868806824
:105A1000400510D42868406830F0200029684860AC
:105A2000286C30F480702864286CC00403D4286C7F
:105A300050F001002864280000F0FCF80AE0286C0F
:105A4000C00603D5280000F009F903E02000A96B87
:105A5000C96C884731BD000038B50400A56B28002B
:105A600000F0D8F831BD000038B50400A56B402027
:105A70002864686C50F004006864280000F0EEF8B8
:105A800031BD000080B50A48FAF7CCFF0948FAF7A3
:105A9000C9FF01BD80B50848084B094A0168006884
:105AA000FAF71BFD5FF08050FAF74EFD01BD0000D4
:105AB000FC5E2000346020000C000020855A20008D
:105AC000D061200080B5FCF7FCFC0E4A02210120C9
:105AD000FCF7DEFD0C4908600C4A00210C48FCF77D
