:020000040800F2
:10000000A83C0020BD210008F5210008F9210008C6
:10001000FD21000801220008052200080000000060
:1000200000000000000000000000000015110008A2
:100030000922000800000000BD100008411B000854
:100040000D220008112200081522000819220008BC
:100050001D2200082122000825220008292200086C
:100060002D2200083122000835220008392200081C
:100070003D220008412200084522000849220008CC
:100080004D2200085122000855220008592200087C
:100090005D2200086122000865220008692200082C
:1000A0006D220008712200087522000879220008DC
:1000B0007D2200088122000885220008892200088C
:1000C0008D2200089122000895220008992200083C
:1000D0009D220008A1220008A5220008A9220008EC
:1000E000AD220008B1220008B5220008B92200089C
:1000F000BD220008C1220008C5220008C92200084C
:10010000CD220008D1220008D5220008D9220008FB
:10011000DD220008E1220008E5220008E9220008AB
:10012000AB190008ED220008F1220008F5220008B2
:10013000F9220008FD220008012300080523000819
:10014000092300080D2300081123000815230008C7
:10015000192300081D230008212300082523000877
:10016000292300082D230008312300083523000827
:10017000392300083D230008412300080000000047
:100180004523000849230008F0B585B050260B9D93
:1001900025B986F3118800F02DFAFEE70C9C24B9EE
:1001A00086F3118800F026FAFEE75C270097DDF859
:1001B00000E0BEF15C0F04D086F3118800F01AFA5B
:1001C000FEE7009E25630026022584F8595004AFFF
:1001D0000A9D039602940197009500F034F820469A
:1001E00000F078F8049805B0F0BD2DE9F843064614
:1001F000174684B088469946B80000F061FB0500B8
:100200001CD05C2000F05CFB040014D000202563AF
:1002100084F85900039002940D980C990190009174
:100220004B463A464146304600F00DF8204600F075
:1002300051F8012004E0284600F0CBFB4FF0FF30DE
:1002400005B0BDE8F0832DE9F0470A9F81460C46D2
:100250001546386B9A46A522A90000F009FC396BB7
:1002600001EB8502101FC0084FEAC00808F0070024
:1002700007F1340554B10021625C6A54605C10B12E
:10028000491C1029F8D30020E87300E02870089E6C
:10029000372E88BF3726099CFE62AE61E861C6F141
:1002A0003806381D00F00EFC07F1180000F00AFCBB
:1002B0003F61BE617F6200202862002187F85810EC
:1002C00052464946404600F039FC386004B1276088
:1002D000BDE8F0872DE9F04100F054F8DFF8D8547C
:1002E000DFF83885E86C401CE8641426A86A28BB4F
:1002F000AC62E86C012829D1002706FB07F04044D6
:1003000000F0D3FB7F1C382FF7D305F1740000F009
:10031000CCFB05F18807384600F0C7FB284600F003
:10032000C4FB05F1140000F0C0FB05F1380000F03B
:10033000BCFB05F17400E8622F6307E0A86D28B9E3
:10034000E06AA96ACA6A904228BFAC62A86EE26AF3
:10035000401C6064696D914238BF6A65A866564367
:10036000211D08EB060000F0B0FB00F072FCA86D48
:1003700030B100F08CF903D200F061FA00F03AF9E4
:10038000BDE8F081044600F04BBC80B586B000218A
:100390000591049103AA04A905A800F0C7FC0598DB
:1003A000049902900022009201910023039A0FF217
:1003B00008510FF26530FFF7E7FE98B100F0C0FC7E
:1003C0005021012810D181F3118800F013F9DFF8D2
:1003D000D4044FF0FF31C16601228265002101651E
:1003E00000F0CEFB07B000BD10F1010FFAD181F390
:1003F000118800F0FFF8FEE7DFF8A804016F491C40
:100400000167704770B5DFF8B063306F00240025D6
:1004100020B900F043F800F0EDF8FEE700F000FC32
:10042000306F401E3067306F002836D1F06CD0B985
:1004300033E0F068C46800F035F800F0BFF9E06A16
:10044000716D814238BF70651423DFF85C24584316
:10045000211D104400F039FBE06AB16ACA6A90427B
:1004600024BF0121316630680028E2D10CB100F0D0
:100470008AF9F46D44B100F01DF808B1012030662E
:10048000641EF8D10020F065306E30B1DFF81C1426
:100490004FF08050012500F0ACF8C9E1502181F304
:1004A0001188704704F1180000F035BBDFF8F40341
:1004B000006D70472DE9F843DFF8FC72386F0026B5
:1004C000002852D13C6D641C3C6510D1F86A00686C
:1004D00020B1FFF7E3FF00F08DF8FEE7F86A396B13
:1004E000F9623863786E401C786600F04CF9F86E5B
:1004F000DFF8B49384424FF0140827D31FE0F96A61
:10050000C868C568686884422DD3281D00F003FBC5
:10051000A86A18B105F1180000F0FDFAE86A796DD3
:10052000814238BF786508FB00F0291D484400F07F
:10053000CCFAE86AB96ACA6A904228BF0126F86A0A
:1005400000680028DBD14FF0FF31F966B86AC06A55
:1005500008FB00F859F80810022928BF0126386E58
:1005600030B1012604E0F866F0E7F86D401CF8654C
:1005700062E110B5DFF84022106F10B10121116661
:1005800010BD1066516DDFF8203300E0491E1424C1
:100590004C43185930B90029F8D100F012F800F096
:1005A00029F8FEE7181900F1080443685B68436006
:1005B000A34204BF5B6843604068C36893625165AF
:1005C00010BD502080F31188704710B50C4620B93B
:1005D000FFF7F7FF00F00EF8FEE700F028F800F054
:1005E00081FA2046BDE8104009E0DFF8C0124FF064
:1005F00080500860BFF34F8FBFF36F8F70470121AA
:1006000000F028B938B50D46144620B9FFF7D9FFD8
:10061000FFF7F0FFFEE700F00AF800F056FA0CB121
:100620004FF0FF3521462846BDE8344012E1DFF89F
:100630007422936A03F11801704738B5C068C46822
:1006400024B9FFF7BEFFFFF7D5FFFEE7FFF72AFF4C
:10065000DFF85052286F40B900F0B0F800F013F8FE
:1006600038BF6A6500F0F0F802E004F1180128468E
:1006700000F02BFA00F00BF803D2012129660120CB
:1006800032BD002032BDE26A686D90427047A86AB0
:10069000C16AE06A81427047DFF808124A6E026060
:1006A000096D41607047F8B504460D46502024B9E5
:1006B00080F31188FFF79EFFFEE725B980F31188CC
:1006C000FFF798FFFEE700F0ABFADFF8D801016D05
:1006D00062682E688B1A16F1010F0ED0476ED4F89F
:1006E00000C0674501D091420BD2B34207D2F31A42
:1006F0002B60416E2160006D6060002402E00020EC
:100700002860012400F0A5FA2046F2BDDFF894111C
:10071000012008667047000070B5404CDFF8845136
:1007200011E000F07DFA286AC668301D00F0F3F988
:10073000E86C401EE864686B401E686300F089FA4C
:10074000304600F009F8686B0028EAD121680229D8
:10075000F9D3FFF74AFFF6E710B5044694F85900BD
:1007600040B9206B00F035F92046BDE8104000F09C
:1007700030B910BD0128F7D00228FAD0FFF721FFC9
:10078000FFF738FFFEE70C49C86A006810B94FF060
:10079000FF3203E0C86AC268D0684268CA66704720
:1007A000DFF80011886D08B901207047086F08B99B
:1007B0000220704700207047B4370020201D00F051
:1007C000AAB938B50446002134B3DFF8D850A86A76
:1007D0005022844204D082F31188FFF70BFFFEE71A
:1007E000206D20B982F31188FFF704FFFEE7E26A6B
:1007F000E36C401E9A4220650ED068B9FFF7DEFF19
:10080000E26CE262C2F13800A061696D914238BFCA
:100810006A6500F005F80121084632BD702B002002
:100820001420DFF884304243211D981800F04DB9A0
:1008300000F00FFA284670BD3046BDE8F2831B4A2F
:100840004FF08051116070471420174B4243211D17
:1008500098187047F8B5134D2F6D0C46A96A0646D7
:10086000081D00F058F916F1010F05D124B1A86A4E
:10087000011D05F138001BE0A86AF6194660BE426A
:10088000A86A05D2011D286BBDE8F44000F02AB922
:10089000011DE86A00F026F9E86E864238BFEE6670
:1008A000F1BD0000B4370020702B002004ED00E003
:1008B000BDE8F44000F009B949444C45000000008F
:1008C0002DE9F8430446FFF797FD684FB8684FF0ED
:1008D0000009002508BB07F1200307F1200113F0F0
:1008E000070F4FF440600A4605D0CA1DD208D20057
:1008F000C2F54060081880180838C008C0003A6087
:100900007D60B86045600560831A53601060506870
:100910003861F8604FF00040F8614FF05008F86916
:10092000044246D1002C44D0083414F0070F04D000
:1009300004F1080004F00704041B002C39D0F86807
:10094000A04236D33E68394601E03146064670681B
:10095000A04202D230680028F7D1B868864228D079
:100960000A683068086002F108097268121B112ACF
:100970000CD3311911F0070002D000F023F8FEE784
:10098000301D02517460084600F04DF87168F86837
:100990003C69401AF860FA68A24288BF2246F869AA
:1009A0003A6101437160356009F007057869401CC0
:1009B0007861FFF727FD15B100F004F8FEE748461F
:1009C000BDE8F28388F31188BFF34F8FBFF36F8FB9
:1009D0007047002800D1704738B5A0F10805234CB6
:1009E0006968E2695023114204D183F31188FFF74B
:1009F000EBFFFEE7286820B183F31188FFF7E4FFDF
:100A0000FEE791436960FFF7F7FCE1686868411809
:100A1000E160284600F007F8A069401CA061BDE82D
:100A20003140FFF7EFBC30B510490A4600E01A46E6
:100A300013688342FBD35368D418844203D14068BF
:100A4000C3185360104643681468C518A54208D1FE
:100A500089688C4204D06168CB184360246800E048
:100A60000C460460824218BF106030BD501F002049
:100A700062F30F2262F31F4200B500BF13009646D7
:100A80009446103928BFA0E80C50FAD85FEA417CA0
:100A900028BF0CC048BF40F8042BC90728BF20F866
:100AA000022B48BF00F8012B00BD4FF0FF3200F1D0
:100AB000080182604160C16000F10802026100210A
:100AC0000160704700210161704710B542684A60BB
:100AD00093688B6094686160916008610168491C4B
:100AE000016010BD30B50A6812F1010F08BF03693B
:100AF00007D000F1080300E023465C682568AA429D
:100B0000FAD25A684A6091608B6059600861016846
:100B1000491C016030BD4368016982689A6083683E
:100B200042685A604A68824204BF83684B60002270
:100B300002610868401E086008687047490810B5DF
:100B40004900A0F120034FF0807499611A60DC61C4
:100B50006FF002020FF20D01596140F8242D203888
:100B600010BD00005A494A68502012F1010F80F36D
:100B70001188BFF34F8FBFF36F8F00D0FEE7FEE702
:100B80007CB5544A544B10685021984202D100F071
:100B9000B1F8FEE71068514B984202D100F0AAF874
:100BA000FEE74F4B1C780194FF251D701E78484CC2
:100BB0008DF800609DF8000000F0500020700720C4
:100BC00005E09DF800506D00401E8DF800509DF826
:100BD00000502E06F5D4454215F1030F03D0A06056
:100BE00000F088F8FEE7000200F4E060A0600198E1
:100BF0001870116A41F470011162106A40F070407F
:100C0000106200F047FA0020606000F0A1FA354859
:100C1000016841F04041016000F08AFA002076BD91
:100C2000502080F31188BFF34F8FBFF36F8F284997
:100C30004A68521C012A4A600AD12B490A681306E5
:100C400006D080F31188BFF34F8FBFF36F8FFEE79D
:100C500070471F49486838B9502080F31188BFF3A6
:100C60004F8FBFF36F8FFEE7401E486008BF80F3D1
:100C70001188704780B5502080F31188BFF34F8FE3
:100C8000BFF36F8FFFF716FC18B117494FF0805074
:100C90000860002282F3118801BD000010B5EFF357
:100CA0000580502110280A4A07D3104B185C14788D
:100CB000A04202D200F01EF8FEE790680C4A1368CA
:100CC00003F4E063984202D200F014F8FEE710BD8E
:100CD0000000002000ED00E071C20F4170C20F4122
:100CE00000E400E034EF00E004ED00E0F0E300E0B9
:100CF0000CED00E081F31188BFF34F8FBFF36F8FCE
:100D000070470EE002684368024408305FEAC37C23
:100D100044BF4B445B1E52F804CB43F804CB091F7D
:100D2000F9D150F8041B0029ECD17047034B036044
:100D300003F15C0008608021116070472C340020B2
:100D400010B586B000F072F9DFF83043A068C0B18A
:100D500000210591049103AA04A905A800F006FA50
:100D60000598049902900222009201910023039AAF
:100D70000FF210310FF28100FFF706FA0028E06051
:100D800005D1502181F3118800F00AF8FEE7012017
:100D900006B010BD2046BDE8F681502080F31188D2
:100DA000BFF34F8FBFF36F8F7047F8B5044684B021
:100DB0001E46002014B9FFF7F0FFFEE7DFF8BC7213
:100DC000BD68BDB106290091019202940CDAFFF7CB
:100DD000E7FC022807BF0A9A002300230022B86814
:100DE000694600F06DFA05E0002332466946284660
:100DF00000F0FDFA05B0F0BDF8B586B09F4D29684A
:100E0000086810B90124002602E0C86806680024BA
:100E1000FFF7F2FA01A800F0B4F80746019800289D
:100E20003FD154BBB7422DD3FFF7ECFA2868C16815
:100E3000CC68201DFFF76FFE94F82800410717D5F6
:100E4000A16933463A468919204600F0D5F840B1E9
:100E5000002000900023324600212046FFF7A5FF26
:100E600018B1216A2046884725E0FFF796FFFEE784
:100E700000F0FE0084F82800F3E7686801684C1E63
:100E8000A441E40FA8682246F11B00F079FCFFF7AB
:100E9000B9FA80B97A494FF080500860FFF780FFB7
:100EA00009E0FFF7AFFA06E094F8280081073BD489
:100EB0002046FFF78EFDA868002202A900F0E7FA9D
:100EC00000289CD00298002803D505990498039A1D
:100ED000904702980028EED4049C606910B1201D50
:100EE000FFF719FE01A800F04CF802990929E2D891
:100EF000DFE801F02121211A070621211A07DAE78C
:100F0000D2E794F8282042F0010284F828200399BF
:100F1000A16131B1034602460918204600F06CF881
:100F2000C9E7FFF73AFFFEE794F8280000F0FE005B
:100F300084F82800BFE794F8281041F0010184F8F4
:100F4000281002460399A0690B464118204600F07C
:100F500053F80028AFD0216A2046884794F828002B
:100F60004107A8D5002000900023039AA0698218A9
:100F700000212046FFF719FF00289CD1FFF70DFF45
:100F8000FEE72DE9FC410646FFF790FA3B4D04468B
:100F90002869844209D3002131602C61FAE6786027
:100FA0003F61391D2868FFF79DFD29680868F0B189
:100FB000C868D0F80080C768381DFFF7ACFD396AF3
:100FC0003846884797F828004107EED5B86940446D
:100FD0008045E4D30020009000234246002138469B
:100FE000FFF7E3FE0028E0D1FFF7D7FEFEE76868D1
:100FF000696028600121CFE738B500248A4241604A
:1010000000611E4D06D38169D21A8A4206D2011DA3
:10101000686807E09A4203D2994201D3012403E0B1
:10102000011D2868FFF75EFD204632BD1CB5FFF7A5
:10103000F7FD124CA068E0B904F11400FFF735FD8C
:1010400004F12800FFF731FD04F1140004F1280138
:10105000002220606160009204F13C0304F18C02E4
:1010600010210A2000F0C7F8A06010B107A100F01D
:1010700073FBBDE81340FFF7ECBD0000883600208D
:1010800004ED00E0546D722053766300546D72518C
:10109000000000000748084B002101600022826028
:1010A0004FF47A721968B1FBF2F2521E42600721C6
:1010B0000160704710E000E00C000020EFF30980B1
:1010C000BFF36F8F264B1A681EF0100F08BF20ED7C
:1010D000108A20E9F04F106009B44FF0500080F3FF
:1010E0001188BFF34F8FBFF36F8FFFF742FA4FF0B6
:1010F000000080F3118809BC19680868B0E8F04F57
:101100001EF0100F08BFB0EC108A80F30988BFF3FF
:101110006F8F7047124B19680868B0E8F04F80F382
:101120000988BFF36F8F4FF0000080F3118870477C
:101130000C480068006880F308884FF0000080F3D6
:10114000148862B661B6BFF34F8FBFF36F8F00DFB5
:10115000DFF81400016841F470010160704700007D
:10116000DC37002008ED00E088ED00E0044B036070
:1011700003F15C0008604FF480711160704700BF9C
:10118000D02F002070B504000D4602D100F090F879
:10119000FEE7FFF745FD206CE16B226800FB01F3E1
:1011A000491E484310441344A3600026A663E06030
:1011B000626004F144004FF0FF310170417075B975
:1011C0002069A0B104F11000FFF737FA78B1DFF819
:1011D000A8154FF08050086000F0F1F907E004F125
:1011E0001000FFF762FC04F12400FFF75EFCFFF73C
:1011F00030FD012070BD7CB51C46502320B983F31F
:10120000118800F0DCF9FEE724B983F3118800F0BF
:10121000D6F9FEE72AB129B983F3118800F0CFF996
:10122000FEE779B950250095009E502E0FD1009B06
:1012300034B1069B012584F84650009400F028F84C
:10124000204676BD83F3118800F0B9F9FEE783F3F9
:10125000118800F0B4F9FEE7F8B505000E46174610
:1012600002D100F025F8FEE706FB05F05030FFF74D
:1012700027FB04000AD0002084F8460000943B4677
:1012800004F150023146284600F002F82046F2BD33
:1012900038B5049D1C4600290CBF2D602A60E86308
:1012A000296428460121FFF76DFF85F84C4031BDC8
:1012B000502080F31188BFF34F8FBFF36F8F7047BB
:1012C0002DE9F64782B004461E46502714B900F0B7
:1012D00074F9FEE75FEA010A01D1206C60B9022EC1
:1012E00002D1E06B01280AD1FFF75AFA50B90398EE
:1012F00040B100F062F9FEE700F05FF9FEE700F0B0
:101300005CF9FEE727460024DFF86C844FF0805933
:101310002EE0039800284BD014B900F041F90124C5
:10132000FFF797FCFFF768F8FFF77AFC07F1440036
:1013300000F039F904BF0022027000F039F904BF4F
:1013400000224270FFF785FC00F04DF8002844D1E0
:10135000FFF766FCB86BF96B884214BF00250125C6
:10136000FFF777FC45BB384600F0B7F9FFF74AF8BE
:10137000FFF756FCB86BF96B884201D3022EC8D137
:1013800032465146384600F060F9796A29B107F1D2
:101390002400FFF752F908B904E018B1C8F800902A
:1013A00000F00DF9FFF755FC012004B0BDE8F0870F
:1013B000FFF74FFC0020F8E7039907F11000FFF753
:1013C00004F9384600F089F9FFF71CF80028CFD15E
:1013D000C8F8009000F0F3F8CAE7384600F07DF94D
:1013E000FFF710F8E6E703A96846FFF75CB92DE9B7
:1013F000F8430446884615461E46502714B900F0A7
:10140000DCF8FEE7B8F1000F01D1206C28BB022EFA
:1014100002D1E06B012823D1FFF740FCEFF31189E3
:1014200000F02BF801D3022E22D194F94570A06B65
:1014300032464146204600F008F917F1010F12D15B
:10144000606A98B104F12400FFF7F7F8002818BF8C
:10145000002D0BD00120286008E000F0AEF8FEE778
:1014600000F0ABF8FEE77F1C84F84570012000E037
:10147000002089F31188BDE8F28387F31188BFF358
:101480004F8FBFF36F8FA06BE16B884270472DE9E0
:10149000F74306460F460024502526B985F31188E8
:1014A00000F08DF8FEE70FB9306C48B9FFF778F916
:1014B00078B9029868B185F3118800F080F8FEE7EA
:1014C00085F3118800F07BF8FEE700F067F8FEF77F
:1014D00099FFFFF7A5FBB56BDFF89C82002D4FF05D
:1014E000805932D10298002845D014B900F058F83C
:1014F0000124FFF7AEFBFEF77FFFFFF791FB06F13C
:101500004400415711F1010F04BF0022027000F0A6
:101510004FF804BF00224270FFF79BFB02A9FFF7C0
:1015200063FF002830462AD100F00BF90028CCD008
:1015300000F02FF800F032F8FEF764FF0028C8D161
:10154000C8F8009000F03BF8C3E73946304600F099
:10155000B0F86D1EB563306940B106F11000FFF7B9
:101560006CF818B1C8F8009000F029F8FFF771FB8B
:101570000120BDE8FE83FFF76CFB0020F9E700F0D7
:10158000ACF8FEF73FFF304600F0DBF80028A0D0B3
:10159000F3E7029906F12400FFF717B830469CE004
:1015A0006846FFF779B890F9001011F1010F704704
:1015B00090F9011011F1010F704787F31188BFF303
:1015C0004F8FBFF36F8F70472DE9F84304460F46E6
:1015D0001546502624B986F31188FFF7F0FFFEE781
:1015E0000FB9206C70B9FFF759FBEFF3118886F340
:1015F0001188FFF7E4FFA66B4EB9002088F311882D
:10160000BDE8F28386F31188FFF7D9FFFEE794F96E
:1016100044903946204600F04CF8761E19F1010F2F
:10162000A6630CD1206970B104F11000FFF705F832
:10163000002818BF002D06D00120286003E009F122
:10164000010984F844900120D8E7F8B5064615460C
:10165000B46B326C002742B9306830BBB068FFF71A
:10166000B0F800210746B1601FE065B9706800F06E
:10167000ABF87068316CB26808449042706014D363
:101680003068706011E0F06800F09EF8306CF1682E
:1016900040420144F1603268914202D2B16808448C
:1016A000F060022D01D104B1641E641CB46338469D
:1016B000F2BD026C002A0B4600D1704710B5C1681C
:1016C00084681144C160A14224BF0168C160C1683F
:1016D000BDE81040184600F077B8F8B50546FFF7AA
:1016E0009FFA05F1440494F9016007E005F1240034
:1016F000FEF7A3FF08B1FFF709F8761E70B20128C4
:1017000002DB686A0028F1D14FF0FF366670FFF700
:10171000A0FAFFF785FA94F9007007E005F11000D0
:10172000FEF78BFF08B1FEF7F1FF7F1E78B20128AC
:1017300002DB28690028F1D12670BDE8F140FFF7EF
:1017400088BA10B50446FFF76BFAA06B441EA4419B
:10175000FFF77FFAE00F10BD10B50023074C54F8D7
:1017600033201AB15B1C082BF9D310BD44F8331099
:1017700004EBC301486010BD04ED00E050380020C8
:10178000F8B504460D461646FFF74AFA04F1380745
:1017900097F90C0010F1010F04BF0021397397F97C
:1017A0000D0010F1010F04BF00217973FFF751FA0A
:1017B000386828B93246294604F12400FEF722FF92
:1017C0002046BDE8F24088E74AB1000011F8013B2D
:1017D000521E00F8013B1CBF11F8013BF8E77047AF
:1017E00010B500F0A9F8844C206840F00800206093
:1017F00000228248016841F08071016082612068A6
:1018000040F0010020607E48016841F00301016062
:10181000606940F4807060617A48816A21F47001E7
:101820008162016B490949010163026822F48072F7
:101830000260C168C908C900C160416841F0005137
:101840004160416841F080514160416821F00201EE
:101850004160416821F070614160416841F0007170
:101860004160416841F080614160416841F48061BC
:101870004160416841F480714160416841F4007108
:101880004160416841F001014160416841F080419F
:101890004160206840F4800020605B48016821F0CE
:1018A000C0010160026842F480720260016841F484
:1018B00080610160026842F420520260016821F0F8
:1018C00060610160026842F0100202604FF47A62C7
:1018D000016841F0080101604C484D4900F05CF896
:1018E0004C494D4B4FF08070086050221A704FF0F9
:1018F0008041206940F001002061A7220020886219
:10190000CA624FF68F704B6803404B604A6842F0E2
:1019100020024A60C86840F00100C8600A683F4879
:1019200042F001020A60016841F00201016000F02A
:1019300085F800F0AFF8FEE73948016C41F08051BE
:10194000016438490A6842F480420A608168816013
:10195000826842F4204282608168334A41F4A05197
:1019600081604260016841F080710160026891010C
:10197000FCD540F205622D4B1A6081688908890008
:101980008160816841F002018160816801F00C0191
:101990000829FAD100F092B81B4B5A609860D960C0
:1019A000186840F0010018607047F8B5204E214CCF
:1019B0003068214DC1060BD5B06840F01000B06012
:1019C00000272F80002320680022294600F078F9A4
:1019D000316888060ED5B16841F02001B160012060
:1019E00028802946206801B0BDE8F040002300228D
:1019F00000F066B9F1BD000030380240000C024032
:101A00000000024004200140106402404C200140CC
:101A10001000002004E100E038E400E0082004E0C9
:101A20000038024000700040082A0007003C0240D5
:101A3000006402409C380020A638002038B500F031
:101A40008CF800BF14A2022101200D4C0D4D00F0B6
:101A500007F9E0602A4600210B4800F0A8F8206052
:101A600005F124020021094800F0A1F8606005F1A9
:101A700048020021064800F09AF8A06031BD00003D
:101A800090380020741F0008BB1E00083920000891
:101A9000BF1E000800F070B8982100080000000088
:101AA0000000000000000000000000000000000036
:101AB0001A48016841F4700101607047184948688C
:101AC00000F00C00042802D0082802D019E01548C4
:101AD00018E008680A68C0F3805002F03F0200284E
:101AE00014BF104810480B68B0FBF2F2C3F3881023
:101AF00042430868C0F30140401C4000B2FBF0F0D4
:101B000000E00948094A00BF09A310604968C1F311
:101B10000311595CC84010607047000088ED00E078
:101B20000438024040787D010024F4000C000020BD
:101B3000000000000000000001020304060708097D
:101B400080B5DFF810010168FEF72AFE012803D0F6
:101B5000BDE80140FFF78EB801BDEFF3058000B18D
:101B60006EE0DFF8F410086810B901220A607047CF
:101B70004FF0FF307047000080B5EFF3058000B1F3
:101B80000FE0DFF8D4000168012909D1DFF8CC109B
:101B900000220A7002230360FEF7F7FB002002BD5B
:101BA00002E06FF0050002BD4FF0FF3002BDF8B556
:101BB00084B000230393EFF30583002B3DD1030092
:101BC0003BD08025182600245AB3136803B11C4665
:101BD00093691BB11E0004D0392E02D21379DF079E
:101BE00001D500202AE0536903B19D08D2F80CC04A
:101BF000976887B1BCF15C0F1FD31269002A18BF28
:101C0000002B1AD001920B46029700962A462146D5
:101C1000FEF7BAFA10E0BCF1000F04BF1269002A07
:101C20000BD103AB019300960B46AAB22146FEF7F7
:101C3000DCFA012801D000200390039805B0F0BD24
:101C40006FF005007047DFF824014FF0805101600C
:101C50007047000010E000E0A03800201FED00E019
:101C6000F8B514460025EFF305823ABB002818BFEB
:101C7000002923D0E4B1E268A36893B1502A1DD3B0
:101C80002269DAB1666901FB00F7BE4216D30095FE
:101C9000FFF7B1FA050011D0002C14BF2168002114
:101CA0000AE0002A04BF2269002A07D162692AB922
:101CB0000022FFF7D1FAEDE7FFF74EFD2846F2BD0F
:101CC0007CB500F04CF87AB1002818BF00290FD07D
:101CD00074B900946A46FFF78AFB012815D1009871
:101CE000A0B1FFF7B0FF11E0002818BF002902D112
:101CF0006FF003050AE000232246FFF7E1FA01280E
:101D000004D014B16FF0010500E03546284676BDD9
:101D10007CB500F024F87AB1002818BF00290FD054
:101D200074B900936A46FFF74FFC012814D100985C
:101D300098B1FFF788FF10E0002818BF002902D1F2
:101D40006FF0030509E02246FFF7A1FB012804D04C
:101D500014B16FF0010500E03546284676BD1C46FB
:101D600000256FF00206EFF30582704704ED00E0F6
:101D700013F0004C03D55B42524263F100039CEA2E
:101D8000210C00F0178010B5644603D3494240424D
:101D900061F1000100F00EF8640004D349424042B2
:101DA00061F10001244203D55B42524263F100031A
:101DB00010BD0000D3BBD9B1B2F5803F5BD2022A7F
:101DC0001ED98C46B1FBF2F102FB11C31B0443EA9E
:101DD0001043B3FBF2FC02FB1C3380B240EA034326
:101DE000B3FBF2F002FB103240EA0C4000237047D4
:101DF000022A05D98446B0FBF2F002FB10C27047FC
:101E00004AB105D100F0010249085FEA300070478D
:101E100000220023704700F051B80B00020000219F
:101E200000207047F7D3002200237047904271EBE7
:101E3000030CF2D370B5B1FA81F4B3FA83F52C1B1D
:101E4000A340C4F1200532FA05F63343A2405FF007
:101E50000046E64002E05B085FEA3202841A71EB5A
:101E6000030524BF204629467641F4D302000B0027
:101E70003000002170BD70B5B1FA81F4B2FA82F57C
:101E8000C4F120046419B4F12006DAD3B2405FF043
:101E90000044F440002502E052085FEA3303C61A0A
:101EA00071EB020E24BF3046714664416D41F3D39D
:101EB00002000B002000290070BDFEE77047FEE71E
:101EC00038B5002840DDB0FA80F2A2F111031BB250
:101ED000DC0752BF984003F1FF0290401D4A00B258
:101EE000054600EE105ABAEE600A8DED000AC403F2
:101EF000009DA2EB6502009224149DED000ABEEE47
:101F0000C90A10EE102A12B200F026F800F024F8E8
:101F100012FB02F56D002D1414FB05F4640024146B
:101F2000C4F540546243D213920412145043C013B8
:101F300040040014DA0748BF5B1E03EBD3735B1049
:101F400018410880002032BD002008804FF0FF308B
:101F500032BD0000DF59375F12FB02F56D002D1412
:101F600065436D002D14C5F540556A43D2139204A4
:101F700012147047DC21000800000000000000007F
:101F80000000000000000000000200001800000037
:101F90000000000000000000AC210008000000006C
:101FA000000000000000000000000000000200002F
:101FB000360000000000000000000000E8210008DA
:101FC0000000000000000000000000000000000011
:101FD00000020000080000000000000000000000F7
:101FE000F8B503460F4600240025B80808E01E682F
:101FF000191DC6FBC6450E680B1DC6FBC645401E17
:10200000F5D117F0030004E033F9021BC1FBC14511
:10201000401EF9D11646204629463A460023FFF7CE
:10202000A7FEC00B40EA41403146BDE8F44000F352
:102030000F00FFF745BF0000F8B50E4C0E4D0F4ED8
:102040000F4F05E02A464FF4FA612046FFF7C8FF1C
:1020500030684FF0FF3300223946FFF759FE3888C9
:102060000100EFD00128F3D12A464FF4FA6104F5BC
:102070007A60EBE710000020A43800209C38002094
:10208000A638002030B4002512E050F8042BD30706
:1020900044BF4A44521E091F042942F8045BFAD285
:1020A00013468C0744BF15809B1CC90748BF1D7091
:1020B00050F8041B0029E8D130BC704710B507491F
:1020C00079441831064C7C44163404E00A68081D33
:1020D000114488470146A142F8D110BD2C000000F0
:1020E0004C0000004EF68851CEF20001086840F422
:1020F00070000860BFF34F8FBFF36F8F4FF0017018
:10210000E1EE100A704700007DFFFFFF98380000E5
:102110001000002000000000EBEBFFFF10000000AB
:10212000AC000000000000200000000000F00DF8EE
:10213000002801D0FFF7C2FFAFF300800020AFF30B
:10214000008000F004F800F007F80120704780B527
:10215000FFF746FB002002BD00F000B807463846F6
:1021600000F002F8FBE7000080B5AFF30080024A00
:1021700011001820ABBEFBE726000200054801460F
:1021800003B4684680F30988AFF30080FFF7AAFF25
:10219000FFF7CCFFA5EDF5FE43616C63756C6174D0
:1021A000696F6E4E6F7469667900000041435F434A
:1021B000616C63756C6174696F6E5400014880478F
:1021C00001480047B11A00087D2100080000000006
:1021D000AAAAAAAA000000000024F400686967689F
:1021E0005072696F000000006D656469756D507212
:1021F000696F0000FFF7FEBFFFF7FEBFFFF7FEBFEE
:10220000FFF7FEBFFFF7FEBFFFF7FEBFFFF7FEBF02
:10221000FFF7FEBFFFF7FEBFFFF7FEBFFFF7FEBFF2
:10222000FFF7FEBFFFF7FEBFFFF7FEBFFFF7FEBFE2
:10223000FFF7FEBFFFF7FEBFFFF7FEBFFFF7FEBFD2
:10224000FFF7FEBFFFF7FEBFFFF7FEBFFFF7FEBFC2
:10225000FFF7FEBFFFF7FEBFFFF7FEBFFFF7FEBFB2
:10226000FFF7FEBFFFF7FEBFFFF7FEBFFFF7FEBFA2
:10227000FFF7FEBFFFF7FEBFFFF7FEBFFFF7FEBF92
:10228000FFF7FEBFFFF7FEBFFFF7FEBFFFF7FEBF82
:10229000FFF7FEBFFFF7FEBFFFF7FEBFFFF7FEBF72
:1022A000FFF7FEBFFFF7FEBFFFF7FEBFFFF7FEBF62
:1022B000FFF7FEBFFFF7FEBFFFF7FEBFFFF7FEBF52
:1022C000FFF7FEBFFFF7FEBFFFF7FEBFFFF7FEBF42
:1022D000FFF7FEBFFFF7FEBFFFF7FEBFFFF7FEBF32
:1022E000FFF7FEBFFFF7FEBFFFF7FEBFFFF7FEBF22
:1022F000FFF7FEBFFFF7FEBFFFF7FEBFFFF7FEBF12
:10230000FFF7FEBFFFF7FEBFFFF7FEBFFFF7FEBF01
:10231000FFF7FEBFFFF7FEBFFFF7FEBFFFF7FEBFF1
:10232000FFF7FEBFFFF7FEBFFFF7FEBFFFF7FEBFE1
:10233000FFF7FEBFFFF7FEBFFFF7FEBFFFF7FEBFD1
:0C234000FFF7FEBFFFF7FEBFFFF7FEBF78
:040000050800217D51
:00000001FF
