:020000040800F2
:1000000070480020AD5E0008455F0008495F0008A9
:100010004D5F0008515F0008555F000800000000B8
:100020000000000000000000000000001D2A000881
:10003000595F000800000000C52900084945000874
:100040005D5F0008615F0008655F0008695F000888
:100050006D5F0008715F0008755F0008795F000838
:100060007D5F0008815F0008855F0008895F0008E8
:100070008D5F0008915F0008955F0008995F000898
:100080009D5F0008A15F0008A55F0008A95F000848
:10009000AD5F0008B15F0008B55F0008B95F0008F8
:1000A000BD5F0008C15F0008C55F0008C95F0008A8
:1000B00061560008CD5F0008D15F0008D55F0008D9
:1000C000D95F0008DD5F0008E15F0008E55F000818
:1000D000E95F0008ED5F0008F15F0008F55F0008C8
:1000E000F95F0008FD5F0008016000080560000876
:1000F000096000080D600008116000081560000824
:10010000196000081D6000082160000825600008D3
:10011000296000082D600008316000083560000883
:100120006B560008396000083D6000084160000817
:1001300045600008496000084D60000851600008F3
:1001400055600008596000085D60000861600008A3
:1001500065600008696000086D6000087160000853
:1001600075600008796000087D6000088160000803
:1001700085600008896000088D60000800000000AC
:10018000916000089560000830B40024002907D071
:100190000B5D002B01D0641CFAE7A24200D21400D0
:1001A000FF2C02D20470401C08E0FF230370401CA7
:1001B0000470401C23001B0A0370401C0023A34250
:1001C00005D20D780570491C401C5B1CF7E730BC5C
:1001D0007047C01D704738B5DFF8385501226946B1
:1001E000287E00F06BFE0400002C40D09DF800003B
:1001F000012810D0022811D0032812D0042813D0CF
:10020000052814D0062815D0072816D07F2824D01A
:10021000802815D022E000F089FA28E000F0F0FAFA
:1002200025E000F0F9FB22E000F0CEFB1FE000F03B
:1002300001FB1CE000F097FD19E000F084FD16E0E2
:1002400001226946287E00F039FE0400002C03D00C
:100250009DF8000000F028FD09E008E09DF800008E
:10026000802804DB01226946287E00F027FE31BD8C
:100270002DE9FE4301208DF800000DF10100010081
:10028000DFF890446269802A05D352F080030B7036
:10029000491CD209F7E70A704D1CDFF87C140E6880
:1002A000E768F71B2900B846B8F1800F06D358F06D
:1002B00080000870491C5FEAD818F5E781F80080D3
:1002C00011F101096A46B9EB02026946607800F053
:1002D000E7FE002804D0E6602178491E217002E084
:1002E0006169491C6161BDE8FE832DE9F84F050095
:1002F0000E001700DFF81CA49AF8000001280FD0A8
:100300009AF80000002800F0A9809AF8000002285E
:1003100006D1FFF7ADFF9AF80000012840F09E805B
:10032000202F05D2DAF81C00F840C00700F19680B3
:10033000182F02D26D1E2F7065E0701B8046B8F139
:10034000800F08D3681E4146C9090170401E58F04D
:100350008001017002E0681E80F800807F2F02D2C9
:10036000451E2F704FE0B7F5804F08D2401E390070
:10037000C9090170451E57F08000287043E0B7F5A9
:10038000001F0ED2401E3900890B0170401E39003B
:10039000C90951F080010170451E57F08000287096
:1003A00031E0B7F1805F14D2401E3900490D017071
:1003B000401E3900890B51F080010170401E390048
:1003C000C90951F080010170451E57F08000287066
:1003D00019E0401E3900090F0170401E3900490D17
:1003E00051F080010170401E3900890B51F08001ED
:1003F0000170401E3900C90951F080010170451E8D
:1004000057F080002870DFF8100300688146DAF8A2
:100410000C00B9EB000000903000DDF800B0BBF13B
:10042000800F06D35BF080010170401C5FEADB1B8C
:10043000F5E780F800B0401C0600721B29009AF80E
:10044000010000F02DFE0400002C02D0CAF80C9030
:1004500004E09AF80000401C8AF800001821DFF838
:10046000C4229AF8180048431044C06E9AF8183015
:1004700001FB03F11144096F401A00280BD09AF8D0
:100480000200002807D101208AF80200FFF7A3FE2E
:1004900000208AF80200BDE8F18F2DE9F84304003E
:1004A0000D0016001F00DFF86C82DFF84C96002369
:1004B0004FF48062DFF84416484600F063FD88F888
:1004C000010098F8010088F8180000200090082327
:1004D000DFF82C26494698F8180000F09FFD002010
:1004E000C8F81000DFF838020068C8F80C00C8F837
:1004F0002060C8F80440C8F80850C8F824700020EC
:1005000088F80000BDE8F183DFF810120861704739
:1005100070B50400EFF31186202080F31188DFF816
:100520000802FFF756FE0500220029002800FFF709
:10053000DCFE86F3118870BD2DE9F04704000D0044
:10054000EFF31186202080F31188DFF8DC01FFF73C
:1005500040FE0700B8464046A946B9F1800F06D3D1
:1005600059F080010170401C5FEAD919F5E780F865
:10057000009010F1010A220051463800FFF7B5FE45
:1005800086F31188BDE8F0872DE9F84F04000D00CF
:100590001600EFF31187202080F31188DFF888011F
:1005A000FFF717FE8046404601002A00802A05D347
:1005B00052F080030B70491CD209F7E70A7011F161
:1005C00001094946B246BAF1800F06D35AF08000BD
:1005D0000870491C5FEADA1AF5E781F800A011F10A
:1005E000010B220059464046FFF77FFE87F3118832
:1005F000BDE8F18F2DE9F14F0D0016001F00EFF35C
:100600001188202080F31188DFF81C01FFF7E1FD3D
:1006100081464A4610002B00802B05D353F0800101
:100620000170401CDB09F7E70370401C0400310037
:10063000802905D351F080022270641CC909F7E7B4
:100640002170641C2200BA46BAF1800F06D35AF01A
:1006500080001070521C5FEADA1AF5E782F800A0F9
:1006600012F1010B009A59464846FFF73EFE88F307
:100670001188BDE8F18F2DE9F34F81B015001E0000
:100680000C9FEFF31188202080F31188DFF8980089
:10069000FFF79FFD814648460100029B802B05D352
:1006A00053F080020A70491CDB09F7E70B704A1C03
:1006B00011002C00802C05D354F080000870491CD8
:1006C000E409F7E70C70481C03003100802905D3CA
:1006D00051F080021A705B1CC909F7E719705C1CA5
:1006E0002200BA46BAF1800F06D35AF0800010708B
:1006F000521C5FEADA1AF5E782F800A012F1010B4A
:10070000019A59464846FFF7F0FD88F31188BDE885
:10071000F78F000000430020041000E00043002099
:10072000041000E0983E0020B43D00202DE9F8437D
:10073000DFF8F44601202070EFF31187202686F3BE
:1007400011880A22DFF8E416607800F0A9FC87F32C
:1007500011880A20FFF7DCFEEFF3118586F311887C
:10076000DFF85006FFF735FD060030000100626833
:10077000802A05D352F080030B70491CD209F7E799
:100780000A70491C0B00A768802F05D357F0800022
:1007900018705B1CFF09F7E71F70581C02002369E3
:1007A000802B05D353F080011170521CDB09F7E751
:1007B0001370571C39005FF00008B8F1800F06D3A2
:1007C00058F080000870491C5FEAD818F5E781F8F6
:1007D000008011F10109182249463000FFF785FD1C
:1007E00085F31188606A002801D0606A804700F0B4
:1007F00013F900F0E9F800F0B6FABDE8F183000063
:1008000070B5EFF31185202080F31188DFF8A4057F
:10081000FFF7DFFC0400DFF810663078002806D010
:100820000B2221002000FFF760FD0020307085F3CF
:10083000118870BD2DE9F843EFF31184202080F377
:100840001188DFF87005FFF7C4FC050028000100DF
:10085000DFF8D4657268802A05D352F080030B70EC
:10086000491CD209F7E70A70491C0B00B768802FB2
:1008700005D357F0800018705B1CFF09F7E71F7065
:10088000581C02003369802B05D353F0800111708E
:10089000521CDB09F7E71370571C39005FF00008A2
:1008A000B8F1800F06D358F080000870491C5FEA49
:1008B000D818F5E781F8008011F10109182249469E
:1008C0002800FFF712FD84F31188706A002801D018
:1008D000706A8047BDE8F1832DE9F84F0600EFF319
:1008E0001187202080F31188DFF8C804FFF771FC1E
:1008F000804640460100DFF830953368D9F8102073
:100900009A1A802A05D352F080030B70491CD20931
:10091000F7E70A704D1C2900D6F808A0BAF1800F3D
:1009200006D35AF080000870491C5FEADA1AF5E72E
:1009300081F800A04C1C202271682000FFF724FCE5
:100940008346092259464046FFF7CFFC4046020045
:100950003368D9F81010591A802905D351F0800353
:100960001370521CC909F7E71170521C1300F46888
:10097000802C05D354F0800018705B1CE409F7E765
:100980001C70581C01003369802B05D353F0800282
:100990000A70491CDB09F7E70B704C1C210000258D
:1009A000802D05D355F080000870491CED09F7E74C
:1009B0000D7011F10109152249464046FFF795FCDB
:1009C00087F31188BDE8F18F80B5DFF85C14086A01
:1009D000002806D0086A4068002802D0086A4068EB
:1009E000804701BDF8B50400EFF31187202080F3A4
:1009F0001188DFF8C003FFF7ECFB0600802221001E
:100A00003000FFF7C1FB05000E2229003000FFF780
:100A10006CFC87F31188F1BD38B5DFF80C14086A57
:100A200000280ED0086A006800280AD0086A00680A
:100A3000804704000D002A0021000D20FFF7A4FDCF
:100A400005E0DFF8EC0301680C20FFF775FD31BD10
:100A50002DE9F843EFF31184202080F31188DFF8AB
:100A60005403FFF7B6FB05002E00DFF8C803D0F8EB
:100A700000905FEAC9595FEAD9593000C846B8F119
:100A8000800F06D358F080010170401C5FEAD8182F
:100A9000F5E780F80080471C022239002800FFF7A4
:100AA00024FC84F31188BDE8F18338B5EFF3118598
:100AB000202080F31188DFF8FC02FFF78AFB040096
:100AC000032221002000FFF710FC85F3118831BDBF
:100AD00038B5EFF31185202080F31188DFF8D402B8
:100AE000FFF777FB0400122221002000FFF7FDFB37
:100AF00085F3118831BD0000FC5E0008B43700208A
:100B0000CC43002038B5EFF31185202080F3118805
:100B1000DFF8A002FFF75DFB040011222100200096
:100B2000FFF7E3FB85F3118831BD2DE9F84304009D
:100B3000EFF31185202080F31188DFF87802FFF7AA
:100B400048FB06003700DFF8F0020069241A38007D
:100B5000A146B9F1800F06D359F080010170401C05
:100B60005FEAD919F5E780F8009010F10108082232
:100B700041463000FFF7B9FB85F31188BDE8F183EA
:100B80002DE9F8430400EFF31185202080F311884C
:100B9000DFF82002FFF71DFB06003700DFF89802A0
:100BA0000069241A3800A146B9F1800F06D359F024
:100BB00080010170401C5FEAD919F5E780F80090C8
:100BC00010F10108042241463000FFF78EFB85F347
:100BD0001188BDE8F1832DE9F8430400EFF3118596
:100BE000202080F31188DFF8CC01FFF7F2FA06002D
:100BF0003700DFF844020069241A3800A146B9F131
:100C0000800F06D359F080010170401C5FEAD919AA
:100C1000F5E780F8009010F1010806224146300007
:100C2000FFF763FB85F31188BDE8F1832DE9F047F9
:100C300007000C00EFF31185202080F31188DFF806
:100C40007401FFF7C6FA06003100DFF8EC01006915
:100C50003F1A08003A00802A05D352F0800303703F
:100C6000401CD209F7E7027010F101084046A14686
:100C7000B9F1800F06D359F080010170401C5FEA82
:100C8000D919F5E780F8009010F1010A07225146C2
:100C90003000FFF72AFB85F31188BDE8F087DFF805
:100CA00098110969401A70472DE9F84F0500DFF8DF
:100CB0008C110868002844D0086804000020060051
:100CC0002800C0B2864204D22469002C01D0761CD0
:100CD000F6E7002C35D0EFF31187202080F3118840
:100CE0003448FFF776FA8046404601002A00D2B227
:100CF000802A05D352F080030B70491CD209F7E714
:100D00000A70491C00910099D4F80890B9F1800F3D
:100D100006D359F080000870491C5FEAD919F5E73D
:100D200081F8009011F1010A802221685046FFF7F6
:100D30002BFA8346162259464046FFF7D6FA87F328
:100D40001188BDE8F18F10B53C490868002809D02A
:100D500008680400E068002801D0E0688047246942
:100D6000002CF7D110BD2DE9F041EFF311842020C4
:100D700080F311880F48FFF72CFA07003D00280088
:100D80002F4991F80080B8F1800F06D358F0800108
:100D90000170401C5FEAD818F5E780F80080461C17
:100DA0001B2231003800FFF7A0FA84F31188BDE858
:100DB000F0810000B43D00202DE9F8430400EFF37A
:100DC0001185202080F311881E48FFF702FA0600E3
:100DD000802221003000FFF7D7F901000122802A8C
:100DE00005D352F080030B70491CD209F7E70A7053
:100DF0004F1C39005FF00008B8F1800F06D358F09F
:100E000080000870491C5FEAD818F5E781F8008077
:100E100011F101091A2249463000FFF766FA85F3FD
:100E20001188BDE8F183000000430020F05E000857
:100E3000041000E004ED00E000430020084400201E
:100E40006B440020B43D0020F8B5DFF84042A825EF
:100E50000026270032002900380000F06BF903203B
:100E6000206103206061DFF82802A061DFF824120E
:100E7000E1614FF4806121620021A1620021616281
:100E80000021E1622066DFF8100260661020A06693
:100E9000002020670020E06600206067BFF35F8FBE
:100EA0000020102807D2DFF8F41142421144C97B18
:100EB0002154401CF5E7BFF35F8FF1BD2DE9F14FE1
:100EC00084B00E001700DFF8C441A3469BF8000071
:100ED000002801D1FFF7B8FF04991820414304EB23
:100EE000010010F16008B146D8F810A0D8F80C0045
:100EF000019000240198504520D2D8F80800B0EBAA
:100F00000A00B84201D2050000E03D00D8F8040014
:100F100050440090039500980290CB46039A0299A2
:100F2000584600F04FF92C19A9447F1B15EB0A0A0B
:100F3000D8F80800824501D1002082460198B0EB24
:100F40000A00B84201D2050000E03D00002D11D09A
:100F5000D8F8040050440090039500980290CB46C6
:100F6000039A0299584600F02DF92C19A9447F1BC9
:100F700015EB0A0A002C01D0C8F810A0200005B01B
:100F8000BDE8F08F2DE9F84305000E0017009846E4
:100F9000DFF8F840A14699F80000002801D1FFF7DA
:100FA00053FFEFF31182202080F3118800211823D2
:100FB00003FB01F02044C069002803D0491C2069CC
:100FC0008142F4DB2069814220DA03FB01F02044F6
:100FD000856103FB01F02044C66103FB01F020445E
:100FE0000762002003FB01FCA444CCF82800002089
:100FF00003FB01FCA444CCF8240003FB01F304EB45
:101000000300C0F82C80BFF35F8F02E05FF0FF3079
:10101000010082F311880800BDE8F2832DE9F84F42
:1010200004000D0016001F00DDF82880DFF85CB01A
:10103000DA469AF80000002801D1FFF705FF032CDB
:1010400020D2EFF31181202080F31188182000FBBB
:1010500004F0584460308146002C0BD0C9F8005091
:10106000C9F80460C9F808700020C9F81000002011
:10107000C9F80C00C9F81480BFF35F8F81F31188A1
:10108000002001E05FF0FF30BDE8F28F983E0020C5
:10109000E45E0008B4330020B4430020645E00081E
:1010A000F0B400EB4003DFF8880000EBC30000F170
:1010B00018063069F7687568874232D3B368DC1B5D
:1010C000631E934214D37D19D019000011F8013B1F
:1010D00005F8013B521E05D011F8013B05F8013B14
:1010E000521EF3D1BFF35F8FF0600120F0BC704758
:1010F000C018904219D37819121B11F8013B00F85F
:10110000013B641EF9D1141C05D011F8013B05F810
:10111000013B521EF9D1BFF35F8FF4600120F0BC98
:101120007047C01B401E9042CDD20020F0BC7047DB
:10113000983E002062F30F2262F31F42401810F025
:10114000030308D0C91A1FD3DB0748BF00F8012DDD
:1011500028BF20F8022D130030B41446154610396C
:1011600028BF20E93C00FAD8490728BF20E90C0035
:1011700048BF40F8042D890028BF20F8022D48BF41
:1011800000F8012D30BC7047C91818BF00F8012DB8
:10119000CB0728BF00F8012D70470EE002684368B6
:1011A000024408305FEAC37C44BF4B445B1E52F8E4
:1011B00004CB43F804CB091FF9D150F8041B0029D4
:1011C000ECD1704762B38B0708D0521E11F8013B77
:1011D00000F8013B00F024808B07F6D1830740F034
:1011E000208000BF103A07D330B4B1E83810103A6D
:1011F000A0E83810F9D230BC530724BFB1E808107A
:10120000A0E8081044BF51F8043B40F8043BD20763
:1012100024BF31F8022B20F8022B44BF0B78037057
:101220007047121F17D35B0009D151F8043B20F817
:10123000023B1B0C121F20F8023BF6D20BE051F8C8
:10124000043B00F8013B1B0A20F8023B1B0C121F59
:1012500000F8013BF3D238BF121D521E24BF11F813
:10126000013B00F8013BF8D8704700002DE9F84732
:1012700085B006000F00904699460F9C109D002CEB
:1012800007D1502080F31188BFF34F8FBFF36F8FCA
:10129000FEE7002D07D1502080F31188BFF34F8F58
:1012A000BFF36F8FFEE75C20009000985C2807D0AA
:1012B000502080F31188BFF34F8FBFF36F8FFEE78D
:1012C0000098002D19D0002C17D0AA46CAF830403B
:1012D00002208AF8590000200390CDF808A004A845
:1012E00001900E9800904B4642463900300000F0C5
:1012F00043F8504600F0B3F801E000200490049851
:1013000006B0BDE8F0872DE9F84384B006000F0071
:1013100090469946404680B2800000F04FFD05009F
:10132000002D0BD05C2000F049FD0400002C01D002
:10133000256304E0280000F0D5FD00E00024002C27
:1013400015D0002084F859000020039002940D98D5
:1013500001900C9800904B46424692B23900300002
:1013600000F00AF8200000F07AF8012001E05FF0B8
:10137000FF3005B0BDE8F0832DE9F94F81B00C00D6
:1013800016000C9F0D9DDDF83880B00000905FF0D6
:10139000A50BD8F830A05A4600995046FFF7CAFE70
:1013A000D8F8300000EB8600B0F1040A5FEADA0AF0
:1013B0005FEACA0A1AF00700002807D0502080F31D
:1013C0001188BFF34F8FBFF36F8FFEE7002C15D04E
:1013D00000208146B9F1100F0CD214F8090008EB77
:1013E000090181F8340014F80900002802D019F12D
:1013F0000109EFE7002088F8430002E0002088F8A8
:101400003400382F01D337200700C8F82C70C8F8F3
:101410004C700020C8F8500018F1040000F021FEC4
:1014200018F1180000F01DFEC8F81080D7F1380040
:10143000C8F81800C8F824800020C8F8540000201C
:1014400088F85800029A0199504600F049FEC8F801
:101450000000002D01D0C5F80080BDE8F78F38B539
:10146000040000F0CDFEDFF8D4120868401C0860CC
:10147000DFF8CC522868002806D12C6008680128C3
:101480000DD100F02FFB0AE0DFF8C8030068002848
:1014900005D1E06A2968C96A884200D32C60DFF868
:1014A000B8030168491C016000686064002C0DD01D
:1014B0002000FFF73AFB2168206B091A0091236B8B
:1014C000E26A14F13401200000F05FFF2000FFF712
:1014D00082FBDFF888030168E26A914201D2E16A87
:1014E0000160211DDFF87823E36A1420434302EBF7
:1014F000030000F0B9FD00F09DFEDFF8580300681E
:1015000000280DD02868C06AE16A884208D25FF0DE
:101510008050DFF864140860BFF34F8FBFF36F8F04
:1015200031BD38B505000024002D19D0DFF8FC03CB
:101530000068002807D0502080F31188BFF34F8F38
:10154000BFF36F8FFEE700F074F829002320FEF749
:10155000F3FF0021280000F0D3FB00F070F8040036
:10156000002C08D15FF08050DFF80C140860BFF346
:101570004F8FBFF36F8F31BD70B586B000200490E0
:101580000020039005AA03A904A800F061FFDFF87A
:10159000AC56DFF8AC460498029003980190002006
:1015A00000900023059A21000FF21550FFF75EFE10
:1015B00028602868002801D0012500E00025012DC1
:1015C00002D100F051FF0500012D25D1502080F3FC
:1015D0001188BFF34F8FBFF36F8F5FF0FF30DFF8DD
:1015E000641608600120DFF86C1208600020DFF844
:1015F0008C130860524E052221003068343001F00F
:1016000093F9002803D03068FFF7BAFA01E0FFF73A
:1016100079FA00F08EFD0AE015F1010F07D1502094
:1016200080F31188BFF34F8FBFF36F8FFEE706B0D3
:1016300070BDDFF8F8020168491C01607047F8B519
:1016400000250026DFF8E4422068002807D150205A
:1016500080F31188BFF34F8FBFF36F8FFEE700F069
:10166000CFFD2068401E20602068002856D13348F6
:101670000068002852D0DFF8C0150868002827D07D
:10168000C868C068050015F1180000F014FD281D99
:1016900000F011FD2800FFF79EFA70480168EA6A21
:1016A000914201D2E96A0160291D6D4AEB6A14205A
:1016B000434302EB030000F0D7FCE86A20490968C5
:1016C000C96A8842D7D30120DFF818160860D2E72C
:1016D000002D01D000F08DFADFF80C763C68002C6C
:1016E0000CD000F02FF8002803D00120DFF8F4150B
:1016F0000860641E002CF4D100203860DFF8E40597
:10170000006800280AD0012006005FF08050DFF852
:1017100068120860BFF34F8FBFF36F8F00F08AFD30
:101720003000F2BDDFF854020068704780B500F069
:10173000B3FD0021DFF84402006802BD244400200C
:10174000144400202DE9F041002778480068002863
:1017500078D18A480468641C0460002C1CD1DFF82E
:10176000AC1208680068002807D0502080F3118868
:10177000BFF34F8FBFF36F8FFEE7D1F80080DFF824
:10178000900202680A60C0F80080DFF86005016816
:10179000491C016000F02DFADFF8A884D8F8000099
:1017A00084423BD3994908680068002804D15FF05F
:1017B000FF30C8F8000031E00868C068C068050064
:1017C00068680600B44202D2C8F8006026E0281D0E
:1017D00000F071FCA86A002803D015F1180000F091
:1017E0006AFC2800FFF7F7F91C480168EA6A914291
:1017F00001D2E96A0160291D194AEB6A14204343AA
:1018000002EB030000F030FCE86ADFF8E41409683A
:10181000C96A8842C6D301200700C3E7DFF8D004B5
:1018200000680F49C26A142042438858022801D335
:1018300001200700DFF8AC040068002807D0012071
:10184000070004E0DFF8A0040168491C01603800CB
:10185000BDE8F08130440020404400202C440020AA
:10186000542B002010B531480068002804D0012016
:10187000DFF8701408603EE00020DFF868140860AC
:10188000DFF8702410681423DFF86C4403FB00F1C8
:10189000615800290BD1002807D1502181F311880C
:1018A000BFF34F8FBFF36F8FFEE7401EEBE703FBE5
:1018B00000F304EB03014B685B684B604B6811F16C
:1018C0000804A34202D14B685B684B60DFF82044F8
:1018D0004968C968216010600522DFF86413206838
:1018E000343001F021F8002803D02068FFF748F9D0
:1018F00001E0FFF707F910BD38B504000D00002C1A
:1019000007D1502080F31188BFF34F8FBFF36F8F43
:10191000FEE7DFF8DC03006810F11801200000F09A
:10192000AFFB0121280000F0EBF931BD4C44002051
:1019300070B505000E001400002D07D1502080F373
:101940001188BFF34F8FBFF36F8FFEE7DFF8A0035F
:10195000006810F11801280000F086FB002C02D06E
:101960005FF0FF3006002420FEF7D2FD210030009A
:1019700000F0C6F970BD000004ED00E0284400202E
:1019800038B50500E868C468002C07D1502080F302
:101990001188BFF34F8FBFF36F8FFEE714F118006C
:1019A00000F089FBDFF854030068002818D1201DDF
:1019B00000F081FB2000FFF70EF9DFF83803016823
:1019C000E26A914201D2E16A0160211DDFF8282319
:1019D000E36A1420434302EB030000F045FB05E0FB
:1019E00014F11801DFF8500200F03EFBDFF80003AD
:1019F0000068C06AE16A884205D201200121DFF84F
:101A0000E422116000E0002032BD000018440020F4
:101A10001C440020DFF8D41209680160DFF8641369
:101A20000968416070472DE9F04104000D00002C69
:101A300007D1502080F31188BFF34F8FBFF36F8F12
:101A4000FEE7002D07D1502080F31188BFF34F8FA0
:101A5000BFF36F8FFEE700F0D3FBDFF828030668C3
:101A60006768F71B286810F1010F02D15FF00008CA
:101A70001BE0DFF8780200682168884205D06068C2
:101A8000864202D35FF001080FE02868874208D23F
:101A90002868C01B28602000FFF7BCFF5FF000082B
:101AA00003E0002028605FF0010800F0C3FB40461F
:101AB000BDE8F0810120DFF82C12086070470000BB
:101AC00010B5040000F038F8DFF82C020068022896
:101AD000F8D35FF0805028490860BFF34F8FBFF301
:101AE0006F8FEFE770B50024382C09D2DFF80802B9
:101AF000142101FB04F1084400F0A4FA641CF3E78C
:101B0000DFF88452280000F09DFADFF88062300090
:101B100000F098FA484800F095FADFF8740200F0F7
:101B200091FADFF8700200F08DFADFF86C020560C0
:101B3000DFF86802066070BD38B5DFF864522868C7
:101B4000002817D000F05CFBDFF84402C068C068D2
:101B50000400201D00F0AFFADFF848020168491EBA
:101B600001602868401E286000F064FB200000F03F
:101B70001EF8E2E731BD000004ED00E001000020A6
:101B80000A78A52A02D1491C401CF9E7800880B2D6
:101B9000704770B50400002C03D1DFF80C02056813
:101BA00000E025002E6B3000FFF7E8FF70BD10B598
:101BB000040094F85900002806D1206B00F092F937
:101BC000200000F08FF913E094F85900012803D1A8
:101BD000200000F087F90BE094F85900022807D0A4
:101BE000502080F31188BFF34F8FBFF36F8FFEE754
:101BF00010BDDFF8A42110680068002804D15FF050
:101C0000FF30104A106006E01068C068C06801002C
:101C100048680C4A10607047DFF89001006800289F
:101C200001D1012007E0DFF888010068002801D118
:101C3000022000E00020704750430020484400206C
:101C4000245F00084444002070B5040025000026ED
:101C5000002C45D0DFF898000068854207D050205E
:101C600080F31188BFF34F8FBFF36F8FFEE7286DAE
:101C7000002807D1502080F31188BFF34F8FBFF3A6
:101C80006F8FFEE7286D401E2865E86AE96C884280
:101C900026D0286D002823D1281D00F00CFA210041
:101CA0004A20FEF749FCE86CE862E86AD0F13800A7
:101CB000A8612800FEF78FFFDFF838000168EA6AA4
:101CC000914201D2E96A0160291DDFF8E820EB6A40
:101CD0001420434302EB030000F0C6F90120060084
:101CE000300070BD38440020344400203C440020C3
:101CF000144400202C440020542B00204C4400208D
:101D00002DE9F04105000C001E480768DFF89880B7
:101D1000D8F80000001D00F0CEF915F1010F08D130
:101D2000002C06D0D8F80000011D1A4800F09CF9DC
:101D300024E0E8190600D8F800004660BE420CD244
:101D40000421D8F80000FEF771FFD8F80000011D4B
:101D50001248006800F094F910E00421D8F800005F
:101D6000FEF764FFD8F80000011D0B48006800F082
:101D700087F9114801688E4200D20660BDE8F08103
:101D80000000000028440020284300203C4300209D
:101D90006443002078430020184400201C440020A5
:101DA000204400202444002014440020304400201B
:101DB0004C440020542B0020444400202DE9F84FCF
:101DC00004005FF00008FFF734FCDFF85492D9F804
:101DD0000000002801D100F0C3F8DFF848A2DAF8CB
:101DE000000004426DD1002C15D08F480068041902
:101DF00014F0070F0FD014F1080014F00704041BAF
:101E000014F0070F07D0502080F31188BFF34F8FD5
:101E1000BFF36F8FFEE7002C53D0DFF810B2DBF872
:101E20000000A0424DD382480600006805006868A3
:101E3000A04205D22868002802D02E002D68F6E7BF
:101E4000D9F8000085423CD07748316802681144D7
:101E5000884629683160006840006968091B88422B
:101E600015D205EB0400070017F00700002807D083
:101E7000502080F31188BFF34F8FBFF36F8FFEE7C1
:101E80006868001B78606C60380000F09AF8DBF836
:101E900000106868091ACBF800106648DBF80010DB
:101EA0000268914202D2DBF8001001606968DAF83A
:101EB000000001436960002028605F480168491CF8
:101EC0000160FFF7BCFB18F00700002807D0502086
:101ED00080F31188BFF34F8FBFF36F8FFEE740464B
:101EE000BDE8F28F70B504002600002C37D04E48B4
:101EF00000684042064435004A4968680A68104252
:101F000007D1502080F31188BFF34F8FBFF36F8F3D
:101F1000FEE72868002807D0502080F31188BFF31F
:101F20004F8FBFF36F8FFEE768680A68104216D0C4
:101F30002868002813D16A68086882436A60FFF73E
:101F400078FB3A490A68686882180A60280000F03D
:101F500038F83A480168491C0160FFF770FB70BD12
:101F600070B44FF440623648010011F0070F04D0FE
:101F7000C91DC908C900521A82180B002C480360F9
:101F800000244460D41828480068241AE408E400B7
:101F9000234D2C6000202E68706000202E68306079
:101FA0001800261A46602D6805604568214E356088
:101FB00045681E4E35605FF000451A4E356070BCB6
:101FC000704730B41A4A1168814201D21268FAE7A8
:101FD000140051682144814204D153684168CB18F0
:101FE000536010000300416819441568A94210D1DC
:101FF0000B4914680D68AC4208D044681168496800
:102000000C19446011680968016004E00968016006
:1020100001E011680160824200D0106030BC70475E
:10202000DC430020F04300203C5F0008E043002038
:10203000C4430020E4430020E8430020EC43002098
:10204000541F002010F1080141605FF0FF318160F2
:1020500010F10801C16010F1080101610021016067
:10206000704700210161704742684A6093688B6045
:10207000936859609160086103685B1C0360704756
:1020800010B40B6813F1010F01D1026907E010F1E0
:10209000080254682468A34201D35268F9E75468DF
:1020A0004C604C68A1608A60516008610468641CDF
:1020B000046010BC7047010008698A684B689A6028
:1020C0004A688B685A6042688A4201D18A684260D5
:1020D00000220A610268521E026000687047000018
:1020E000001F5FF080730360001F4B085B000360FC
:1020F000001F0FF21503036014380260001F7FF009
:1021000002030360203870477748006810F1010F20
:1021100007D0502080F31188BFF34F8FBFF36F8F2C
:10212000FEE7502080F31188BFF34F8FBFF36F8F0E
:10213000FEE7E0B56D4801686D4A914207D1502035
:1021400080F31188BFF34F8FBFF36F8FFEE70068F6
:102150006849884207D1502080F31188BFF34F8F20
:10216000BFF36F8FFEE7644801780191FF21017092
:1021700001788DF800109DF8001011F050015F4AB1
:1021800011705F4907220A609DF80020120608D5E9
:102190000A68521E0A609DF8002052008DF8002047
:1021A000F2E70A68D2F10702042A07D0502181F32E
:1021B0001188BFF34F8FBFF36F8FFEE70A681202DB
:1021C0000A600A6812F4E0620A60019901704D48E1
:1021D000016851F470010160016851F070410160C3
:1021E00000F0D6FB00204049086000F035FC46486E
:1021F000016851F04041016000F01EFC00200EBD5E
:10220000502080F31188BFF34F8FBFF36F8F364993
:102210000A68521C0A60096801290AD13B49096809
:10222000090606D080F31188BFF34F8FBFF36F8F7D
:10223000FEE770472C490868002807D1502080F33A
:102240001188BFF34F8FBFF36F8FFEE70868401E02
:1022500008600868002802D1002080F311887047C8
:1022600080B5502080F31188BFF34F8FBFF36F8F7D
:10227000FEF7EEFBFFF766FA002806D0FEF728FC13
:102280005FF080502149086001E0FEF70EFC00205D
:1022900080F3118801BD0000EFF30580102811D3F1
:1022A0001B4A1268125C11000A00144B1B78D2B250
:1022B0009A4207D2502282F31188BFF34F8FBFF3A7
:1022C0006F8FFEE70E4A1268124B1B6813F4E0632F
:1022D0009A4207D2502282F31188BFF34F8FBFF387
:1022E0006F8FFEE7704700000400002000ED00E063
:1022F00071C20F4170C20F4100E400E06A44002047
:102300000444002020ED00E034EF00E004ED00E0A4
:10231000405F00080CED00E07CB500243848006800
:10232000844222D21425374E05FB04F03058FFF7C3
:1023300030FC05FB04F13144086105FB04F0304436
:102340000069009005FB04F03044C36805FB04F00D
:102350003044826805FB04F03044416805FB04F515
:10236000705900F055F8641CD8E773BD38B5FFF715
:10237000DDF9020000234FF47A740025A4FB02016A
:1023800004FB031105FB021134BD2DE9FC410400DF
:102390000D0016001F00DDF8208005221A492800D4
:1023A00000F0C2FA002829D015480168082903D393
:1023B0001648FEF701FD21E01421124A03684B4341
:1023C000D45003684B4313445D6003684B4313448C
:1023D0009E6003684B431344DF60036801FB03F115
:1023E0001144C1F810800168491C0160CDF80080DB
:1023F0003B0032002900200000F00AF8BDE8F3811C
:102400000C440020403F0020045F0008D85B000817
:102410002DE9F04F85B004000D0016001F00DDF817
:1024200038805FF014095FF0000AEB4652464946D7
:102430005846FEF77FFE0094019502960397CDF86B
:1024400010806846FEF748FA05B0BDE8F08F00003E
:10245000034B0360034B0B6080231360704700BF86
:10246000E0400020B43B002038B586B0002400F0E6
:102470001DFADFF88404006800281ED000200490B4
:102480000020039005AA03A904A800F0F3FADFF8DE
:102490006C5404980290039801900220009000234D
:1024A000059ADFF85C140FF21D10FEF7DFFE2860BE
:1024B0002868002801D001200400002C07D15020FA
:1024C00080F31188BFF34F8FBFF36F8FFEE72000BB
:1024D00007B030BD2DE9FF4704000D0016001F00B6
:1024E000DDF830805FF00009002C07D1502080F328
:1024F0001188BFF34F8FBFF36F8FFEE7DFF8F8A3AC
:10250000DAF80000002822D0009501960294062DEA
:1025100015DAFFF781FB022808D1002342466946FD
:10252000DAF8000000F0A8FB814610E0002300224A
:102530006946DAF8000000F09FFB814607E00023BF
:102540003A006946DAF8000000F08DFC8146484602
:1025500004B0BDE8F087F8B505000E00DFF8A4036D
:102560000068C068C768381DFFF7A5FD97F8280008
:1025700040071CD52B003200B9694919380000F01A
:1025800090F8002819D00020009000232A00002194
:102590003800FFF79FFF0400002C07D1502080F384
:1025A0001188BFF34F8FBFF36F8FFEE705E097F8F9
:1025B000280010F0FE0087F828003800396A8847A4
:1025C000F1BD000038B50400684600F042F805008F
:1025D0000099280000F003F800F08CF8F4E77CB5CF
:1025E00005000C00FFF725F8684600F046F80600E5
:1025F000009800282AD1002C08D1AE4206D3FFF75C
:102600001EF831002800FFF7A6FF21E0002C08D0BB
:10261000DFF8F40200680068002801D1012400E01E
:1026200000242200A91BDFF8D002006800F0D2FECF
:10263000FFF705F800280BD15FF08050DFF8CC12CF
:102640000860BFF34F8FBFF36F8F01E0FEF7F7FF16
:1026500073BD0100DFF8AC2210680068002801D1CA
:10266000012000E0002008600868002803D11068FD
:10267000C068006800E00020704770B50400FFF7F4
:1026800051F80500DFF888623068854204D200F016
:10269000C6F80120206001E000202060356028009D
:1026A00070BD2DE9F04104000D0016001F005FF021
:1026B000000865602461AE420DD3F01BA169884219
:1026C00002D30120804612E0211DDFF83C020068A1
:1026D000FFF7D6FC0BE0BE4204D2BD4202D301207C
:1026E000804604E0211D87480068FFF7C9FC40468A
:1026F000BDE8F081F8B586B0002201A97E480068E7
:1027000000F033FC002800F088800198002804D5F0
:1027100002AFB96878683A68904701980028EBD40E
:10272000039805006869002802D0281DFFF7C3FC44
:1027300005A8FFF7A2FF0600019800280ED0022886
:102740000CD00BD304283DD035D3062806D054D363
:10275000082830D002D3092834D05DE095F828004D
:1027600050F0010085F82800029B32000299A86908
:1027700041182800FFF795FF00281BD02800296A80
:10278000884795F82800400714D5002000900023C2
:10279000029AA869821800212800FFF79BFE040016
:1027A000002C07D1502080F31188BFF34F8FBFF367
:1027B0006F8FFEE7A0E795F8280010F0FE0085F87F
:1027C000280099E795F8280050F0010085F82800C6
:1027D0000298A861A869002807D1502080F31188C9
:1027E000BFF34F8FBFF36F8FFEE733003200A9694D
:1027F00089192800FFF755FF7EE795F82800800724
:1028000003D42800FFF76EFB05E095F8280010F0D0
:10281000FE0085F828006FE76EE707B0F0BD2DE9F0
:10282000FC41DFF8E080D8F800000068002834D0D0
:10283000D8F80000C06800680500D8F80000C0683B
:10284000C0680700381DFFF736FC3800396A884732
:1028500097F828004007E4D5B86940190600B5424A
:1028600007D27E603F61391DD8F80000FFF708FCF1
:10287000D7E70020009000232A0000213800FFF74E
:1028800029FE0400002C07D1502080F31188BFF3EB
:102890004F8FBFF36F8FFEE7C3E7D8F800001A49E8
:1028A0000A68C8F800200860BDE8F3817CB5FFF72E
:1028B000A7FC114C206800281BD1164D2800FFF7FB
:1028C000C1FB154E3000FFF7BDFB0E4805600E48FA
:1028D000066000200090114B114A10210A2000F0E0
:1028E0001FF920602068002803D00E49206800F0FE
:1028F00053FDFFF79FFC73BD584400205C4400204B
:102900002C5F0008504400205444002004ED00E0F7
:10291000604400208C430020A04300209841002008
:10292000E03F0020345F00080300002013F0030F95
:1029300009D0521E22BF13F8010B11F801CBB0EBE6
:102940000C00F3D0704711F0030F14D1121F22BFF7
:1029500053F8040B51F804CB6045F7D0121D0AD28E
:1029600000BA9CFA8CFCB0EB0C0038BF6FF0000092
:1029700088BF01207047521E22BF13F8010B11F8C7
:1029800001CBB0EB0C00F6D0521C08BF10467047CC
:102990000848002101600021074A116007490968C1
:1029A0004FF47A72B1FBF2F1491E054A116007211A
:1029B0000160704710E000E018E000E00C0000202B
:1029C00014E000E0EFF30980BFF36F8F264B1A6825
:1029D0001EF0100F08BF20ED108A20E9F04F1060A4
:1029E00009B44FF0500080F31188BFF34F8FBFF34D
:1029F0006F8FFEF737FF4FF0000080F3118809BC9E
:102A000019680868B0E8F04F1EF0100F08BFB0EC6E
:102A1000108A80F30988BFF36F8F7047124B1968D3
:102A20000868B0E8F04F80F30988BFF36F8F4FF06C
:102A3000000080F3118870470C480068006880F33C
:102A400008884FF0000080F3148862B661B6BFF3C7
:102A50004F8FBFF36F8F00DFDFF81400016841F480
:102A600070010160704700001444002008ED00E090
:102A700088ED00E0034B0360034B0B604FF4807361
:102A8000136070473C410020B42F002070B5060051
:102A90000C003500002D07D1502080F31188BFF3C2
:102AA0004F8FBFF36F8FFEE7FFF7AAFB2968EA6B32
:102AB000286C424301EB0200A8600020A86328684C
:102AC00068602968EA6B521E286C424301EB0200E1
:102AD000E8605FF0FF3085F8440085F84500002C81
:102AE00012D12869002817D015F11000FEF748FF11
:102AF000002811D05FF08050DFF834160860BFF373
:102B00004F8FBFF36F8F07E015F11000FFF79AFAB0
:102B100015F12400FFF796FAFFF78CFB012070BD3A
:102B20002DE9F84306000C0015001F00DDF8209089
:102B3000002E07D1502080F31188BFF34F8FBFF3D1
:102B40006F8FFEE7002F07D1502080F31188BFF36D
:102B50004F8FBFF36F8FFEE7002D01D0002C01D007
:102B6000012000E00020C0B2002807D1502080F3EF
:102B70001188BFF34F8FBFF36F8FFEE7002D01D198
:102B8000002C01D1012000E00020C0B2002807D1B4
:102B9000502080F31188BFF34F8FBFF36F8FFEE794
:102BA000502000900098502807D0502080F31188C2
:102BB000BFF34F8FBFF36F8FFEE70098B846B8F1B1
:102BC000000F0BD0012088F84600CDF800804B465E
:102BD000DBB22A002100300000F02CF84046BDE8AE
:102BE000F2832DE9F84304000E001700002C07D1F2
:102BF000502080F31188BFF34F8FBFF36F8FFEE734
:102C000006FB04F919F15000FFF7D8F80500002D74
:102C10000DD0280050308046002085F846000095F1
:102C20003B00DBB242463100200000F003F82800F0
:102C3000BDE8F2832DE9F04105000C0016001F00ED
:102C4000DDF81880002C02D1C8F8008001E0C8F837
:102C50000060C8F83C50C8F8404001214046FFF7EA
:102C600015FF88F84C703B00DBB22200290073206E
:102C7000FDF7C0FCBDE8F0812DE9F64383B0804646
:102C80000D00994600244646002E07D1502080F3BF
:102C90001188BFF34F8FBFF36F8FFEE7002D02D176
:102CA000306C002801D1012000E00020C0B20028D3
:102CB00007D1502080F31188BFF34F8FBFF36F8F80
:102CC000FEE7B9F1020F02D1F06B012801D101201A
:102CD00000E00020C0B2002807D1502080F3118806
:102CE000BFF34F8FBFF36F8FFEE7FEF795FF00280E
:102CF00002D10498002801D1012000E00020C0B2D8
:102D0000002807D1502080F31188BFF34F8FBFF305
:102D10006F8FFEE7FFF774FAB06BF16B884202D356
:102D2000B9F1020F32D13000FDF7B9FFCDF80090B4
:102D3000049B2A0001005A20FDF79DFC4A46290009
:102D4000300000F06CFA0700706A00280FD016F10E
:102D50002400FEF715FE002814D05FF08050DFF845
:102D6000D0130860BFF34F8FBFF36F8F0AE0002FBF
:102D700008D05FF08050DFF8B8130860BFF34F8FC2
:102D8000BFF36F8FFFF756FA012069E0049800281F
:102D90000ED1FFF74FFA3000FDF781FFCDF800901C
:102DA000049B2A0001005A20FDF765FC002057E033
:102DB000002C04D101A8FEF72DFE01200400FFF72E
:102DC00039FAFEF736FCFFF71BFA96F9440010F1CA
:102DD000010F02D1002086F8440096F9450010F159
:102DE000010F02D1002086F84500FFF723FA04A95D
:102DF00001A8FEF718FE002821D1300000F0BDFA2E
:102E0000002816D0049916F11000FEF775FD300069
:102E100000F06EFAFEF713FC00287FF47BAF5FF042
:102E20008050DFF80C130860BFF34F8FBFF36F8F34
:102E300070E7300000F05CFAFEF701FC6AE7300052
:102E400000F056FAFEF7FBFB3000FDF728FFCDF847
:102E50000090049B2A0001005A20FDF70CFC002082
:102E600005B0BDE8F0832DE9F84F07000C00150010
:102E700098463E00002E07D1502080F31188BFF302
:102E80004F8FBFF36F8FFEE7002C02D1306C00280C
:102E900001D1012000E00020C0B2002807D150205D
:102EA00080F31188BFF34F8FBFF36F8FFEE7B8F148
:102EB000020F02D1F06B012801D1012000E00020B7
:102EC000C0B2002807D1502080F31188BFF34F8F84
:102ED000BFF36F8FFEE7FFF7DFF9EFF311895020A3
:102EE00080F31188BFF34F8FBFF36F8FB06BF16B1F
:102EF000884202D3B8F1020F2AD196F945A0D6F83C
:102F000038B03000FDF7CBFE2A0001006020FDF74D
:102F10003BFB42462100300000F081F950465FF053
:102F2000FF3140B288420DD1706A002809D016F1F5
:102F30002400FEF725FD002803D0002D01D001203C
:102F4000286003E01AF1010086F84500012008E03E
:102F50003000FDF7A4FE2A0001006020FDF714FBFD
:102F6000002089F31188BDE8F28F2DE9F64383B084
:102F700080460E0000244746002F07D1502080F3E2
:102F80001188BFF34F8FBFF36F8FFEE7002E02D182
:102F9000386C002801D1012000E00020C0B20028D8
:102FA00007D1502080F31188BFF34F8FBFF36F8F8D
:102FB000FEE7FEF731FE002802D10498002801D177
:102FC000012000E00020C0B2002807D1502080F38B
:102FD0001188BFF34F8FBFF36F8FFEE7FFF710F934
:102FE000BD6B002D2AD03100380000F066F90020BA
:102FF000FDF755FE81463800FDF751FE0121009195
:10300000049B4A4601005C20FDF735FB681EB8634F
:10301000386900280ED017F11000FEF7B1FC002827
:1030200008D05FF08050DFF808110860BFF34F8FC1
:10303000BFF36F8FFFF7FEF8012076E004980028B9
:1030400012D1FFF7F7F80020FDF729FE814638007E
:10305000FDF725FE01210091049B4A4601005C20FA
:10306000FDF709FB002060E0002C04D101A8FEF769
:10307000D1FC01200400FFF7DDF8FEF7DAFAFFF7D4
:10308000BFF897F9440010F1010F02D1002087F832
:10309000440097F9450010F1010F02D1002087F894
:1030A0004500FFF7C7F804A901A8FEF7BCFC0028FB
:1030B00020D1380000F053F9002815D0049917F1F9
:1030C0002400FEF719FC380000F012F9FEF7B7FAF9
:1030D000002883D15FF08050DFF854100860BFF300
:1030E0004F8FBFF36F8F79E7380000F001F9FEF7DB
:1030F000A6FA73E7380000F0FBF8FEF7A0FA3800F4
:1031000000F02DF900283FF469AF0020FDF7C7FD5E
:1031100005003800FDF7C3FD01210091049B2A0042
:1031200001005C20FDF7A7FA002005B0BDE8F083A0
:1031300004ED00E02DE9F84F80460C0015004646EE
:10314000002E07D1502080F31188BFF34F8FBFF3BB
:103150006F8FFEE7002C02D1306C002801D10120D6
:1031600000E00020C0B2002807D1502080F3118871
:10317000BFF34F8FBFF36F8FFEE7FFF78DF8EFF3CD
:103180001189502080F31188BFF34F8FBFF36F8FE9
:10319000B76B002F2FD096F944B02000FDF77FFDCC
:1031A00082463000FDF77BFD2B0052460100622075
:1031B000FDF720FA2100300000F07FF8781EB063A0
:1031C00058465FF0FF3140B288420DD13069002887
:1031D0000ED016F11000FEF7D3FB002808D0002D0A
:1031E00006D00120286003E01BF1010086F84400AE
:1031F0005FF0010A0EE05FF0000A2000FDF74FFDCE
:1032000083463000FDF74BFD2B005A46010062203B
:10321000FDF7F0F989F311885046BDE8F28F2DE9EA
:10322000F84F06000F0014005FF00008B56B306C1B
:10323000002809D1306800283AD1B068FEF704FDB3
:1032400080460020B06033E0002C14D1D6F84090C6
:10325000BA46D6F804B04A4651465846FDF7B2FF82
:103260007068316C084470607068B16888421FD320
:10327000306870601CE0D6F84090BA46D6F80CB0C2
:103280004A4651465846FDF79DFFF068316C494269
:103290000844F060F0683168884204D2B068316C4C
:1032A00049420844F060022C02D1002D00D06D1E6E
:1032B000681CB0634046BDE8F28F2DE9F041040080
:1032C0000D00206C002811D0E068216C0844E060FB
:1032D000E068A168884201D32068E060266CE76856
:1032E000A846320039004046FDF76CFFBDE8F0818A
:1032F000F8B50400FEF784FF94F94550280040B269
:1033000001280CDB606A002809D014F12400FEF7C4
:1033100037FB002801D0FEF7CDFB6D1EEEE75FF016
:10332000FF3684F84560FEF785FFFEF769FF94F9E4
:103330004470380040B201280CDB2069002809D015
:1033400014F11000FEF71CFB002801D0FEF7B2FBC1
:103350007F1EEEE784F84460FEF76CFFF1BD38B5E0
:103360000400FEF74DFFA06B002801D1012500E00D
:103370000025FEF75FFF280032BD38B50400FEF7D8
:103380003FFFA06BE16B884201D1012500E00025E1
:10339000FEF750FF280032BD70B504000D00002676
:1033A000082E14D20A4951F8360000280DD141F8F0
:1033B000365001EBC60044602000FDF770FC2A0087
:1033C00001007120FDF7E0F801E0761CE8E770BD30
:1033D000C0420020F8B504000D0016002700FEF7DB
:1033E0000FFF97F9440010F1010F02D1002087F878
:1033F000440097F9450010F1010F02D1002087F831
:103400004500FEF717FFB86B002805D132002900F0
:1034100017F12400FEF78CFA3800FFF769FFF1BDC1
:1034200038B504000025002C01D1012029E0A06A54
:10343000DFF8B0148842206C002807D1200000F08B
:10344000D7FA00206064002084F83C00206CC0069D
:1034500010D4206C30F4885050F00200206420001A
:1034600000F092F9002060640120216C60F30101FA
:10347000216401E001200500002084F83C002800C0
:10348000C0B232BDF8B505000E0017000020009054
:1034900095F83C00012801D10220B6E0012085F812
:1034A0003C0028688068C00716D42868806850F0FF
:1034B000010029688860DFF830040068DFF82C1408
:1034C000B0FBF1F10320414300910098002803D0A4
:1034D0000098401E0090F8E728688068C00505D570
:1034E0002868806830F4807029688860286880685F
:1034F000C00740F18180296CDFF8F403014051F4EA
:103500008071296428684068400504D50120296C31
:1035100060F30D312964286CC00404D5686C30F068
:103520000600686401E000206864002085F83C0023
:10353000DFF8C00304000FF2D130A96BC8630FF2AB
:103540004540A96B08640FF24D40A96BC8647FF039
:103550002200296808602868406850F08060296867
:1035600048602868806850F48070296888603B0053
:103570003200286810F14C01A86B00F00EFB606867
:1035800010F01F0F27D12868DFF86C13884216D07F
:103590002868DFF86813884205D1DFF86403006803
:1035A00010F01F0F0BD02868DFF8581388422BD17A
:1035B000DFF84C03006810F01F00102824D22868A0
:1035C000806810F0405F1FD12868806850F080400C
:1035D0002968886018E02868DFF81C13884213D136
:1035E0002868806810F0405F0ED12868806850F02D
:1035F00080402968886007E0286C50F0100028643B
:10360000686C50F0010068640020F2BD38B402001C
:103610000020009092F83C00012801D10220B1E086
:10362000012082F83C0008680A2818D31068C36893
:10363000072408680A38032510FB05F08440A343DB
:103640001068C3601068C3688C6808680A3803256E
:1036500010FB05F0844023431068C36013E010683A
:10366000036907240D6803204543AC40A343106859
:103670000361106803698C680D6803204543AC4002
:103680002343106803614868072818D21068436B09
:103690001F244868401E052510FB05F08440A34305
:1036A000106843631068436B0C884868401E05250A
:1036B00010FB05F0844023431068436333E04868FF
:1036C0000D2818D21068036B1F244868C01F0525F9
:1036D00010FB05F08440A343106803631068036B7C
:1036E0000C884868C01F052510FB05F08440234363
:1036F0001068036317E01068C36A1F2448680D3818
:10370000052510FB05F08440A3431068C3621068D0
:10371000C36A0C8848680D38052510FB05F0844005
:1037200023431068C362734B73481468844206D104
:103730000C68122C03D15C6854F480045C6014683B
:1037400084421BD10868102802D00868112815D1BE
:10375000586850F400005860086810280ED162487C
:103760000068624CB0FBF4F40A20444300940098D3
:10377000002803D00098401E0090F8E7002082F84F
:103780003C00002032BC70475A4A516831F4403145
:103790005160536841680B4353600168496831F4D4
:1037A00080710368596001684968036951EA03211F
:1037B000036859600168496831F0407103685960D5
:1037C00001684B6881680B4301684B600168896838
:1037D00031F400610368996001688B68C1680B432C
:1037E00001688B60816A3F4B994218D001688968F3
:1037F00031F070610368996001688B68816A0B43DE
:1038000001688B600168896831F0405103689960F4
:1038100001688B68C16A0B4301688B600BE001682B
:10382000896831F07061036899600168896831F0D6
:103830004051036899600168896831F002010368AA
:10384000996001688968037E51EA430103689960C1
:1038500090F82010002914D00168496851F40061E3
:10386000036859600168496831F460410368596030
:1038700001684968436A5B1E51EA43310368596035
:1038800005E00168496831F4006103685960016826
:10389000C96A31F470010368D9620168C96AC369F1
:1038A0005B1E51EA03510368D9620168896831F4EB
:1038B0000071036899600168896890F8303051EAB6
:1038C0004321036899600168896831F48061036865
:1038D000996001688968436951EA832103689960A6
:1038E000704700000100000F0C00002040420F0054
:1038F000FEF9FFFF002301400020014000210140AC
:10390000042301400022014038B50400A56B286C57
:1039100010F0500F29D1286C50F4007028642868EA
:10392000806810F0405F1CD1287E002819D12868DB
:10393000C06A10F4700F03D028688068400510D466
:103940002868406830F0200029684860286C30F40E
:1039500080702864286CC00403D4286C50F00100E7
:103960002864280000F0F8FA0AE0286CC00603D5A5
:10397000280000F005FB03E02000A96BC96C884714
:1039800031BD000038B50400A56B280000F0D4FA62
:1039900031BD000038B50400A56B40202864686C78
:1039A00050F004006864280000F0EAFA31BD00001D
:1039B00080B5002000903948016851F480410160D1
:1039C000006810F480400090009800200090344877
:1039D000016851F080510160006810F08050009043
:1039E000009800220F217FF0010000F02DFB01BDA7
:1039F00038B586B004001421002201AD2800FDF77F
:103A000099FB20682749884245D10020009023482F
:103A1000016851F480610160006810F480600090DA
:103A20000098002000902048016851F001010160D9
:103A3000006810F001000090009801200190032020
:103A400002900020039001A9184800F023FB184DB4
:103A5000184828605FF0806068600020A86000203F
:103A6000E8604FF4806028614FF4006068614FF4B3
:103A70000050A8614FF48070E8615FF40030286264
:103A800000206862280000F017F8002801D000F03C
:103A90003BFDA563AC6307B030BD00004438024075
:103AA000403802400022014030380240000002400D
:103AB000804000201064024070B50400002600F031
:103AC00025FD0500002C01D1012065E0606A002879
:103AD000022084F83500002084F834002068006853
:103AE000400840002168086020680068C0070BD5C6
:103AF00000F00CFD401B0628F6D320206065032053
:103B000084F83500032047E020680168DFF880036F
:103B1000014060680143A0680143E06801432069F7
:103B2000014360690143A0690143E0690143206AE0
:103B30000143606A042803D1E06A0143206B01431A
:103B40002068016020684669F608F600606A06434E
:103B5000606A042810D1A06A0643E06A00280BD0EE
:103B6000200000F09BF9002806D04020606501206D
:103B700084F8350001200FE020684661200000F045
:103B80006DF901003F22E06D82408A60002060658F
:103B9000012084F83500002070BD2DE9F8430400B1
:103BA0000D0016001F005FF00008D4F8589094F83C
:103BB0003400012801D1022033E0012084F83400D0
:103BC00094F83500012825D1022084F83500002022
:103BD00060653B0032002900200000F028F93F21F9
:103BE000E06D8140C9F808102068006850F01600A8
:103BF00021680860206C002805D02068006850F01B
:103C00000800216808602068006850F00100216801
:103C1000086004E0002084F834000220804640461A
:103C2000C0B2BDE8F283F8B5040000200090DFF8D0
:103C3000640200684FF41651B0FBF1F5A66D3768C9
:103C40000821E06D11FA00F0074210D020680068EA
:103C500040070CD52068006830F00400226810602E
:103C6000E06D8140B160606D50F001006065E06D15
:103C70003900C140C8070BD520684069000607D548
:103C80000121E06D8140B160606D50F0020060651F
:103C90000421E06D11FA00F007420AD020680068A4
:103CA000800706D5E06D8140B160606D50F0040082
:103CB00060651021E06D11FA00F007422CD02068F9
:103CC0000068000728D5E06D8140B1602068006879
:103CD000400311D520680068000306D4206C00283A
:103CE0001AD02000216C884716E0A06C002813D061
:103CF0002000A16C88470FE020680068C00505D44B
:103D00002068006830F0080021680860206C0028F6
:103D100002D02000216C88472021E06D11FA00F0CC
:103D200007425FD020680068C0065BD5E06D814027
:103D3000B16094F83500052828D12068006830F07B
:103D40001600216808602068406930F08000216812
:103D50004861206C002802D1A06C002805D02068A2
:103D6000006830F00800216808603F21E06D814064
:103D7000B160012084F83500002084F83400206D03
:103D8000002802D02000216D88474FE0206800689D
:103D9000400311D520680068000306D4606C002839
:103DA00020D02000616C88471CE0E06B002819D00F
:103DB0002000E16B884715E020680068C0050BD43F
:103DC0002068006830F0100021680860012084F845
:103DD0003500002084F83400E06B002802D0200079
:103DE000E16B8847606D002820D0606DC00717D553
:103DF000052084F8350020680068400840002168EC
:103E000008600098401C0090854203D32068006839
:103E1000C007F6D4012084F83500002084F834006F
:103E2000E06C002802D02000E16C8847F1BD30B47E
:103E30000468246834F4802405682C600468636096
:103E40008468402C04D10468A2600468E16003E047
:103E50000468A1600468E26030BC7047017801F03A
:103E6000FF0110391822B1FBF2F10B4A525CC26516
:103E7000042905D30268920A9202121D826503E0AA
:103E80000268920A92028265806D7047000000000D
:103E90003F8010F00C000020145F000810B40200F6
:103EA0000020936A9169002916D1002B05D0022BBE
:103EB00003D008D3032B0DD00DE0D16AC90101D581
:103EC0000121080035E0D16AB1F1C07F01D10121A3
:103ED00008002EE02DE02CE09169B1F5005F18D1CB
:103EE000002B05D0022B03D005D3032B09D00FE004
:103EF000012108001DE0D16AC90101D50121080096
:103F000017E0D16AB1F1C07F01D10121080010E0B2
:103F10000FE019000029022902D9C91E03D008E0C8
:103F20000121080005E0D16AC90101D5012108007D
:103F3000FFE7C0B210BC704710B50400FCF788FD65
:103F40000D4900200880002300220C48006800F082
:103F50001EFCFCF7AAFD10BD10B50400FCF778FDAF
:103F6000054901200880002300220448006800F071
:103F70000EFCFCF79AFD10BD6844002000440020B0
:103F80007047000010B410F00703DFF8F440226817
:103F90004FF6FF010A4052EA0322DFF8E8100A4315
:103FA000226010BC7047DFF8D8000068C0F3022020
:103FB0007047010049B2002909D4012210F01F0105
:103FC0008A40314903005BB25B0941F82320704706
:103FD00010B4020052B2002A05D40A012B4B04008F
:103FE00064B21A5508E00A01294B040064B214F0C7
:103FF0000F04234403F8042C10BC704770B4030072
:1040000013F00704D4F10700052801D3042001E0D0
:10401000D4F10700251D072D01D2002500E0E51E83
:10402000012616FA00F0401E0140A94016FA05F5D7
:104030006D1E2A401143080070BC704710B5040083
:104040002000FFF79FFF10BD2DE9F04104000D0097
:1040500016000027FFF7A7FF8046320029004046E0
:10406000FFF7CCFF0100200040B2FFF7B1FFBDE831
:10407000F08110B50400200040B2FFF79AFF10BD98
:104080000CED00E00000FA0500E100E000E400E0D3
:1040900018ED00E0F8B50023002400250026102EBE
:1040A00080F0F980012717FA06F213000A681A4017
:1040B00014009C4240F0ED800A7912F00302012ABC
:1040C00004D00A7912F00302022A1BD1D0F808C0EA
:1040D0005FF0030E72001EFA02FE3CEA0E0CD1F8ED
:1040E0000CE072001EFA02FE5EEA0C0CC0F808C07A
:1040F0004268B740BA434F68C7F30017B7403A4326
:10410000150045600A7912F00302032A10D0C7682F
:104110005FF0030C72001CFA02FC37EA0C07D1F8BE
:1041200008C072001CFA02FC5CEA07073D00C5608B
:104130000A7912F00302022A1AD13200D20800EBE7
:104140008202126A0F275FEA860C1CF01C0C17FA19
:104150000CF7BA430F695FEA860C1CF01C0C17FAC7
:104160000CF73A4315003200D20800EB82021562C8
:1041700007685FF0030C72001CFA02FC37EA0C07B8
:1041800091F804C01CF0030C72001CFA02FC5CEAFB
:1041900007073D0005604A6812F4403F79D00022CD
:1041A0000092DFF81021176857F4804717601268F3
:1041B00012F480420092009A3F4F3200920857F862
:1041C00022205FF00F0C5FEA860E1EF00C0E1CFA28
:1041D0000EFC32EA0C02DFF8E4C0604501D1002594
:1041E00023E0374DA84201D101251EE0354DA842FC
:1041F00001D1022519E0344DA84201D1032514E074
:10420000324DA84201D104250FE0314DA84201D121
:1042100005250AE02F4DA84201D1062505E02E4DC7
:10422000A84201D1072500E00825EDB25FEA860C1F
:104230001CF00C0C15FA0CF52A433500AD0847F8B4
:104240002520264F3D68A543D1F804C05FEACC2C59
:1042500000D525433D60224F3A68A243D1F804C0FF
:104260005FEA8C2C00D522433A601E4D2F68A7438D
:10427000D1F804C05FEA8C3C00D527432F601A4A6E
:104280001568A543D1F804C05FEACC3C00D52543AE
:104290001560761C03E7F1BD1300DBB2002B03D0E1
:1042A0000B009BB2836103E00B009BB21B04836194
:1042B00070470000443802400838014000000240C6
:1042C0000004024000080240000C024000100240BE
:1042D0000014024000180240001C0240083C01404B
:1042E0000C3C0140043C0140003C014080B500F022
:1042F000EDFA00F01DF800F003FB00F0DDF800F02F
:104300006BF800F09EF87748016851F003010160F6
:10431000754800F07CFB4FF47A6274497448FFF7EB
:10432000B1F800F0BDFD00F0D3FD00F007FEFEE7A0
:1043300010B592B03021002206AC2000FCF7FAFE46
:104340001421002201AC2000FCF7F4FE00200090B4
:104350006848016851F080510160006810F0805099
:1043600000900098002000906348016851F480415B
:104370000160006810F480400090009802200690D0
:104380000120099010200A9002200C9000200D902E
:1043900008200E90A8200F90022010900720119066
:1043A00006A800F0CFFD002801D000F0ADF80F20E6
:1043B000019002200290002003904FF4A05004903E
:1043C00002200590052101A800F0B2FF002801D0CD
:1043D00000F09AF812B010BD1FB5102100226C46F3
:1043E0002000FCF7A7FE424C444820605FF4803078
:1043F00060600020A0600020206100202076002066
:1044000084F820005FF04050E0625FF00060A0623E
:104410000020E060012084F830002000FFF700F861
:10442000002801D000F070F80020009000200290D9
:1044300069462000FFF7EAF8002801D000F064F890
:104440001FBD10B586B01021002202AC2000FCF781
:1044500071FE082100226C462000FCF76BFE224C06
:1044600027482060002060600020A060A720E06056
:10447000002020610020A061200000F091FA0028B7
:1044800001D000F041F84FF48050029002A92000C2
:1044900000F0D3FB002801D000F036F82020009077
:1044A000002001906946200001F018F8002801D092
:1044B00000F02AF806B010BD80B500200090114829
:1044C000016851F480010160006810F480000090E0
:1044D0000098002205213820FFF7B6FD3820FFF7AD
:1044E000C8FD01BD082004E0304200201400002077
:1044F000E8410020403802400070004000220140A6
:10450000000400403038024072B6FEE701480068FF
:10451000704700BF1044002010B4020052B2002ABD
:1045200006D40A01DFF8A031040064B21A5509E08C
:104530000A01DFF89831040064B214F00F04234438
:1045400003F8042C10BC704780B5DFF884010068C4
:10455000FDF762FB012801D0FDF782FE01BD80B5A9
:1045600000217FF00400FFF7D7FF01BDEFF30580C6
:10457000002802D07FF005000AE0DFF85811086833
:10458000002803D101200860002001E05FF0FF3027
:10459000704710B5EFF30580002802D07FF00500CA
:1045A0000EE0DFF830412068012807D1FFF7D7FF80
:1045B00002202060FCF7E0FF002001E05FF0FF3008
:1045C00010BD2DE9FF470700884614000020039026
:1045D000EFF30580002862D1380000285FD08020EA
:1045E000824618200500002081465FF0FF3006005B
:1045F000002C33D02068002801D020688146A069B3
:10460000002801D0A0690500002D04D0392D02D268
:104610002079C00701D5002042E06069002802D05F
:10462000606980088246A06800280BD0E0685C289A
:1046300008D32069002805D06069002802D0012035
:1046400006000DE0A06800280AD1E068002807D124
:104650002069002804D10020060001E000200600A7
:10466000012E0CD1A068029020690190009543466C
:10467000524649463800FCF7F9FD03900FE0002E42
:104680000DD103A8019000954346524692B2494687
:104690003800FCF738FE012801D000200390039871
:1046A00004B0BDE8F08738B50400EFF305800028BA
:1046B00002D07FF0050505E00025002C02D0200087
:1046C000FCF72FFF280032BD00E400E018ED00E009
:1046D00010E000E0D44300202DE9F84305000E006F
:1046E00014005FF00008EFF3058000284CD1002D86
:1046F0004AD0002E48D05FF0FF300700002C1FD0BA
:10470000A06800280DD0E06850280AD3206900284E
:1047100007D0606906FB05F1884202D3012007003B
:1047200010E0A06800280DD1E06800280AD12069B7
:10473000002807D16069002804D10020070001E0AB
:1047400000200700012F09D100200090A3682269F2
:1047500031002800FEF7E4F9804607E0002F05D17C
:10476000002231002800FEF73CFA8046B8F1000F25
:104770000AD0002C02D02068814601E0002081464A
:1047800049464046FEF708FE4046BDE8F2832DE963
:10479000F84307000C0090461D003E005FF0000942
:1047A000EFF30580002825D0002E03D0002C01D087
:1047B000002D03D07FF00300814634E000200090FC
:1047C00000236A4621003000FEF74DFB012803D08C
:1047D0007FF00200814626E00098002807D0FCF711
:1047E00077F95FF08050DFF8E01008601BE0FCF71D
:1047F0005CF918E0002E01D0002C03D17FF00300FB
:10480000814610E000232A0021003000FEF734FA30
:10481000012808D0002D03D07FF00100814602E07E
:104820007FF0020081464846BDE8F2832DE9F84357
:1048300007000C0090461D003E005FF00009EFF3FA
:104840000580002824D0002E03D0002C01D0002D9C
:1048500003D07FF00300814632E0002000906A46DA
:1048600021003000FEF766FC012803D07FF0020033
:10487000814625E00098002807D0FCF729F95FF071
:104880008050DFF8441008601AE0FCF70EF917E0DA
:10489000002E01D0002C03D17FF0030081460FE0F1
:1048A0002A0021003000FEF760FB012808D0002D0F
:1048B00003D07FF00100814602E07FF002008146D4
:1048C0004846BDE8F283000004ED00E080B50B48E7
:1048D000016851F400710160016851F48061016068
:1048E000016851F4807101600320FFF7A7FB0F20DE
:1048F00000F04AFEFFF75CF8002002BD003C0240D9
:1049000010B586B0002000902148016851F00401E4
:104910000160006810F0040000900098142100224B
:1049200001AC2000FCF706FC1A4800880190012029
:104930000290002003900020049001A9164800680E
:10494000FFF7A8FB002000F017F806B010BD80B5F7
:104950000021052000F004F8012000F00DF801BD51
:104960000A00D2B2920012F16042106070470B4808
:104970000168491C0160704710B504002200D2B2E2
:104980000448018804480068FFF786FC10BD000059
:10499000303802401000002000000020D8430020E2
:1049A00010B50400002C01D101202FE094F83D0047
:1049B000002805D1002084F83C00200000F04CFEC7
:1049C000022084F83D00211D206800F0B0F901208C
:1049D00084F84600012084F83E00012084F83F005E
:1049E000012084F84000012084F84100012084F86F
:1049F0004200012084F84300012084F84400012093
:104A000084F84500012084F83D00002010BD01001D
:104A100091F83D00012801D0012044E0022081F8F6
:104A20003D000868C06850F001000B68D860086855
:104A3000DFF87430984221D00868B0F1804F1DD063
:104A40000868DFF86830984218D00868DFF86030EE
:104A5000984213D00868DFF85C3098420ED008689E
:104A6000DFF85430984209D00868DFF85030984297
:104A700004D00868DFF8483098420DD10868806893
:104A800010F007000200062A0CD00868006850F0F9
:104A900001000B68186005E00868006850F001002C
:104AA0000B681860002070470000014000040040BF
:104AB00000080040000C004000040140004001409C
:104AC0000018004010B504002068006980071AD55E
:104AD0002068C068800716D57FF002002168086151
:104AE000012020772068806910F0030F03D0200098
:104AF00000F0B3FD05E0200000F0B0FD200000F064
:104B0000AEFD002020772068006940071AD5206894
:104B1000C068400716D57FF00400216808610220B4
:104B200020772068806910F4407F03D0200000F0D7
:104B300094FD05E0200000F091FD200000F08FFDC5
:104B4000002020772068006900071AD52068C06817
:104B5000000716D57FF0080021680861042020773F
:104B60002068C06910F0030F03D0200000F075FD2D
:104B700005E0200000F072FD200000F070FD002034
:104B8000207720680069C0061AD52068C068C00672
:104B900016D57FF010002168086108202077206872
:104BA000C06910F4407F03D0200000F056FD05E0FE
:104BB000200000F053FD200000F051FD0020207780
:104BC00020680069C0070AD52068C068C00706D5FC
:104BD0007FF0010021680861200000F04FFD20688F
:104BE000006900060AD52068C068000606D57FF077
:104BF000800021680861200000F049FD20680069FC
:104C000040060AD52068C068400606D57FF04000FF
:104C100021680861200000F03BFD206800698006E3
:104C20000AD52068C068800606D57FF0200021687C
:104C30000861200000F02DFD10BDF8B504000D0046
:104C4000002694F83C00012801D102206EE00120EA
:104C500084F83C00022084F83D002068876837F023
:104C6000770737F47F4720688760286800284ED090
:104C700010284CD020284AD0302848D040283CD09A
:104C8000502826D060282ED0702807D0B0F5805F3D
:104C900003D0B0F5005F0FD03EE03FE0EB686A68FC
:104CA000A968206800F0E9F82068806850F0770073
:104CB00007002068876031E0EB686A68A9682068AF
:104CC00000F0DBF82068806850F48040216888603C
:104CD00024E0EA686968206800F0A2F850212068A2
:104CE00000F0C3F81AE0EA686968206800F0AAF8E2
:104CF0006021206800F0B9F810E0EA68696820686F
:104D000000F08EF84021206800F0AFF806E0296836
:104D1000206800F0AAF801E001200600012084F8D4
:104D20003D00002084F83C003000C0B2F2BD10B459
:104D30000468DFF8C030984212D0B0F1804F0FD035
:104D4000DFF8B42090420BD0DFF8B020904207D0BB
:104D5000DFF8AC20904203D0DFF8A820904203D1C6
:104D600034F070044A68144398422AD0B0F1804F5E
:104D700027D0DFF88420904223D0DFF880209042B3
:104D80001FD0DFF87C2090421BD0DFF878209042C3
:104D900017D0DFF87420904213D0DFF870209042D3
:104DA0000FD0DFF86C2090420BD0DFF868209042E3
:104DB00007D0DFF86420904203D0DFF860209042F3
:104DC00003D134F44074CA68144334F080044A694F
:104DD000144304608A68C2620A688262984202D000
:104DE000084A904201D10A6902630122426110BC63
:104DF000704700000000014000040040000800402F
:104E0000000C00400004014000400140004401400B
:104E10000048014000180040001C004000200040F5
:104E200010B4046A036A5B085B000362836933F0B1
:104E3000F00353EA021334F00A040C438361046262
:104E400010BC704710B4036A33F010030362836927
:104E5000046A33F4704353EA023334F0A00454EA92
:104E600001148361046210BC7047826832F07002E2
:104E70000A4352F007028260704710B4846834F429
:104E80007F440C43144354EA0324846010BC7047ED
:104E900080B50A48FBF7A6FD0948FBF7A3FD01BD55
:104EA00080B50848084B094A01680068FBF7F5FA25
:104EB0005FF08050FBF728FB01BD0000605C00083C
:104EC000705D00080C000020914E00080C5F000887
:104ED00080B5FFF74BFB0E4A02210120FFF7FCFBD8
:104EE0000C4908600C4A00210C48FFF76AFB0C498A
:104EF00008600C4A00210C48FFF763FB0B4908606F
:104F00000B4A00210B48FFF75CFB0B49086001BD11
:104F1000385E000800440020BC5C00081D5E0008EC
:104F2000F4430020E05C0008695B0008F8430020BF
:104F3000045D0008915D0008FC43002080B5FFF788
:104F400028FB01BD2DE9F8430400002C01D101200C
:104F5000D8E12078C0075FD5DFF8AC03016811F015
:104F60000C01042909D0006810F00C0008280ED1AB
:104F7000DFF898030068400209D5DFF89403006861
:104F8000800349D56068002846D10120BAE16068F5
:104F9000B0F5803F06D1DFF87803016851F4803125
:104FA000016018E06068B0F5A02F0AD1DFF8600357
:104FB000016851F480210160016851F48031016081
:104FC00009E0DFF84C03016831F4803101600168C9
:104FD00031F480210160606800280ED0FFF796FA56
:104FE0000500DFF82C030068800315D4FFF78EFA64
:104FF000401B6528F5D3032084E1FFF787FA0500FD
:10500000DFF80C030068800306D5FFF77FFA401B2A
:105010006528F5D3032075E1207880074CD5DFF8AB
:10502000E802016811F00C0F08D0006810F00C00C5
:10503000082814D1B5480068400210D4B44801686B
:10504000890704D5E168012901D001205AE10168EE
:1050500031F0F801226951EAC20101602CE0E068F8
:10506000002818D00120AB490860FFF74FFA05006F
:10507000A7480168890706D4FFF748FA401B0328B0
:10508000F6D303203EE1016831F0F801226951EACC
:10509000C201016010E000209E490860FFF736FA67
:1050A00005009B480068800706D5FFF72FFA401BD4
:1050B0000328F6D3032025E12078000724D5606972
:1050C000002810D0012094490860FFF71FFA05005E
:1050D00092480068800717D4FFF718FA401B03288E
:1050E000F6D303200EE100208B490860FFF70EFA8B
:1050F00005008A480068800706D5FFF707FA401BBD
:105100000328F6D30320FDE0207840077CD5002754
:10511000DFF80C82D8F80000C0000FD40020009007
:10512000D8F8000050F08050C8F80000D8F800000F
:1051300010F080500090009801200700DFF8E49103
:10514000D9F80000C00513D4D9F8000050F48070DD
:10515000C9F80000FFF7DAF90500D9F80000C0052A
:1051600006D4FFF7D3F9401B0328F6D30320C9E088
:10517000A068012805D16C48016851F00101016067
:1051800015E0A068052809D16748016851F00401BD
:105190000160016851F00101016008E062480168A6
:1051A000490849000160016831F004010160A0680C
:1051B00000280FD0FFF7AAF905005B4800688007B8
:1051C00018D4FFF7A3F9401B41F289318842F4D388
:1051D000032097E0FFF79AF905005348006880071D
:1051E00008D5FFF793F9401B41F289318842F4D387
:1051F000032087E03800C0B2012805D1D8F80000AC
:1052000030F08050C8F80000A069002879D03E48EE
:10521000006810F00C00082847D0A069022833D19C
:10522000424F00203860FFF771F98046DFF8E090C8
:10523000D9F80000800107D5FFF768F9B0EB080046
:105240000328F3D303205DE0E169206A0143606A2B
:1052500051EA8011A06A4008401E51EA0041E06A0C
:1052600051EA00612948016001203860FFF74EF9DA
:105270000500D9F80000800143D4FFF747F9401B2F
:105280000328F6D303203DE0002028490860FFF7FB
:105290003DF905001E480068800132D5FFF736F958
:1052A000401B0328F6D303202CE0A069012801D17C
:1052B000012027E0154800680600A06901281ED0DB
:1052C00016F48000E169884219D116F03F00216A86
:1052D000884214D147F6C0703040616AB0EB811F3C
:1052E0000DD116F44030A16A4908491EB0EB014FB8
:1052F00005D116F07060E16AB0EB016F01D00120BA
:1053000000E00020BDE8F283083802400438024083
:105310000038024000004742800E47427438024085
:105320004038024000700040703802406000474240
:105330002DE9F04104000D00002C01D1012095E081
:105340005F4F386810F00700A84207D23D703868F8
:1053500010F00700A84201D0012087E020788007E4
:1053600016D52078400704D55648016851F4E0511D
:1053700001602078000704D55248016851F460416B
:10538000016050490A6832F0F002A06802430A60E6
:105390002078C00738D56068012805D14A480068E0
:1053A000800313D4012061E06068022802D06068A5
:1053B000032805D144480068800107D4012055E046
:1053C00041480068800701D401204FE0DFF8F480F5
:1053D000D8F800108908890060680143C8F80010F7
:1053E000FFF794F80600D8F8000010F00C00616890
:1053F000B0EB810F08D0FFF789F8801B41F28931AB
:105400008842F0D3032031E0386810F0070085426D
:1054100007D23D70386810F00700A84201D0012083
:1054200024E02078400706D526490A6832F4E05285
:10543000E06802430A602078000707D52148016828
:1054400031F46041226951EAC201016000F022F9A1
:105450001E491C4A1268C2F30312895CC8401C49E9
:1054600008601C48006800F08FF80020BDE8F0815B
:1054700017480068704780B5FFF7FAFF1649114AD0
:105480001268C2F38222895CC84002BD0F2202600A
:105490000C4A136813F003034360136813F0F0031E
:1054A0008360136813F4E053C3601268D20812F4E7
:1054B000E0520261024A126812F007020A60704765
:1054C000003C024008380240003802409C5E000860
:1054D0000C000020080000201C5F000830B402000F
:1054E00092F83C00012801D102203CE0012082F822
:1054F0003C00022082F83D00106843681068846810
:1055000033F0700308680343106843601068174D58
:10551000A8421BD01068B0F1804F17D01068144D0E
:10552000A84213D01068134DA8420FD01068124D36
:10553000A8420BD01068114DA84207D01068104D3A
:10554000A84203D010680F4DA84205D134F0800462
:105550004868044310688460012082F83D00002000
:1055600082F83C00002030BC704700000000014081
:105570000004004000080040000C0040000401400E
:1055800000400140001800402DE9F84787B00500B1
:1055900000270026002000902B48016851F00101EF
:1055A0000160006810F001000090009801A902A8B5
:1055B000FFF76CFF059C002C03D1FFF75CFF070091
:1055C00003E0FFF758FF07007F002048B7FBF0F823
:1055D000B8F10108DFF878905FF08040C9F800006A
:1055E00040F2E730C9F80C00C9F804800020C9F87F
:1055F00010000020C9F808000020C9F8180048462B
:10560000FFF7CEF982465046C0B2002816D1484670
:10561000FFF7FDF982465046C0B200280ED11C208B
:10562000FEF727FD102D07D2002229001C20FEF7CF
:105630000BFD0848056001E0012082465046C0B2DB
:1056400008B0BDE8F08700004038024040420F003B
:10565000784200200800002070477047704770476C
:1056600080B50448FFF72EFA01BD80B50248FEF769
:10567000DAFA01BD784200208040002010B5040015
:105680002068B0F1804F01D100F052F810BD704792
:10569000704770472DE9F0410024002500260027BF
:1056A0001F48006810F00C00002804D0042804D023
:1056B000082804D031E01B4830E01B482EE0DFF81A
:1056C0006C80D8F8000010F03F000400D8F800000B
:1056D00040020CD5D8F80000C0F388101249A1FB95
:1056E00000012200002300F051F805000BE0D8F87B
:1056F0000000C0F388100B49A1FB00012200002329
:1057000000F044F80500D8F80000C0F30140401C48
:1057100040000600B5FBF6F000E00248BDE8F0816D
:10572000083802400024F40040787D01043802402B
:1057300003480168034A127889180160704700BF66
:10574000104400201200002013F0004C03D55B42EF
:10575000524263F100039CEA210C00F0178010B55F
:10576000644603D34942404261F1000100F00EF863
:10577000640004D34942404261F10001244203D550
:105780005B42524263F1000310BD0000BBBBE1B1BC
:10579000B2F5803F80F07E80022A1ED98C46B1FB94
:1057A000F2F102FB11C31B0443EA1043B3FBF2FC0A
:1057B00002FB1C3380B240EA0343B3FBF2F002FB6E
:1057C000103240EA0C4000237047022A05D9844673
:1057D000B0FBF2F002FB10C270474AB105D100F0F5
:1057E000010249085FEA3000704700220023704739
:1057F00000F0E4B80B000200002100207047904246
:1058000071EB030CF6D3B3F5803F2FD2F0B5B3FAAA
:1058100083F7B1FA81F4A7F10F0E3D1B5340CEF18F
:10582000200602FA0EF2F3415340B5F10F0746D8B5
:105830000F3C2C444140C4F12006A040F1414140BE
:10584000B1FBF3F603FB1611A2FB0645001BA941B1
:1058500002D2761E8018594180EA010221FA0EF325
:1058600062FA0EF200215A403046F0BD30B4B1FB6E
:10587000F3FC03FB1C11A2FB0C45001BA94103D246
:10588000ACF1010C8018594130BC02460B46604611
:1058900000217047B2F1807F65D3F0B5B2FA82F78C
:1058A000B1FA81F4C7F10F063D1B22FA06F307F1A6
:1058B000110EF24120355A40B5F10F07B8D94140D9
:1058C000C4F12006A040F1414140B1FBF3FC03FBD1
:1058D0001C11A2FB0C45001BA94103D2BCF1010C19
:1058E000801859410F2F12D30F3FC90341EA50418D
:1058F000B1FBF3F603FB1611A2FB0645D4EBC03057
:10590000A94102D2761E8018594146EACC3C07B321
:105910004140C7F12006B840F1414140B1FBF3F6E8
:1059200003FB1611A2FB0645001BA94102D2761EFD
:105930008018594180EA010221FA0EF3C7F12004D0
:1059400062FA0EF20CFA07F05A402CFA04F13043D6
:10595000F0BD80EA010221FA0EF3002162FA0EF294
:1059600060465A40F0BD8C46B1FBF2F102FB11C318
:105970001B0243EA1063B3FBF2FC02FB1C331B0265
:105980004CEA002043EA1063B3FBF2FC02FB1C3339
:105990001B024CEA002043EA1063B3FBF2FC02FB5B
:1059A0001C331B024CEA002043EA1063B3FBF2FCF9
:1059B00002FB1C324CEA00200023704770470000B5
:1059C000F8B502001400200000B201287CDB2000A2
:1059D00000B2B0FA80F0B0F11103D80702D424B2BB
:1059E0009C4003E024B213F1FF00844025002DB257
:1059F0006D10260000EE104ABAEE600A8DED000A26
:105A00000098344FB7EB60070097DDED000AB0EE69
:105A1000601ABEEEC91A11EE100A84460FFA8CFC09
:105A200010FB00F0C01310FB05F0C01300B2D0F55E
:105A3000405000FB0CFC5FEAEC3C5FEA8C008446C3
:105A40000FFA8CFC10FB00F0C01310FB05F0C01324
:105A500000B2D0F5405000FB0CFC5FEAEC3C5FEA82
:105A60008C0084460FFA8CFC10FB00F0C01310FB76
:105A700005F0C01300B2D0F5405000FB0CFC5FEA0B
:105A8000EC3C5FEA8C0016FB00F0C0135FEA400CB0
:105A9000D8070AD40FFA8CFC180000B25FF0020E8F
:105AA00090FBFEF05CFA00FC0AE00FFA8CFC180098
:105AB00000B2401E5FF0020E90FBFEF05CFA00FCAC
:105AC000A1F800C0002003E0002008805FF0FF3054
:105AD000F2BD00BFDF59375F2DE9F84F0700884658
