:020000040800F2
:10000000A0480020595100085D5000085F500008CA
:1000100061500008635000086550000800000000AF
:10002000000000000000000000000000854B0008F8
:1000300067500008000000002D4B00084D1E00080E
:100040009151000895510008995100089D510008F0
:10005000A1510008A5510008A9510008AD510008A0
:10006000B1510008B5510008B951000869500008A5
:10007000BD510008C1510008C5510008C951000810
:10008000CD510008D1510008D5510008D9510008C0
:10009000DD510008E1510008E5510008E951000870
:1000A000ED510008F1510008F5510008F951000820
:1000B0006F500008FD510008015200080552000869
:1000C000095200080D52000811520008155200088C
:1000D000195200081D52000821520008255200083C
:1000E000295200082D5200083152000835520008EC
:1000F000395200083D52000841520008455200089C
:10010000495200084D52000851520008555200084B
:10011000595200085D5200086152000865520008FB
:10012000695200086D5200087152000875520008AB
:10013000795200087D52000881520008855200085B
:10014000895200088D52000891520008955200080B
:10015000995200089D520008A1520008A5520008BB
:10016000A9520008AD520008B1520008B55200086B
:10017000B9520008BD520008C1520008C55200081B
:10018000C9520008CD520008D1520008D5520008CB
:10019000D952000800000000DD520008E1520008BA
:1001A000E5520008E9520008ED520008F15200083B
:1001B000F5520008F9520008FD52000801530008EA
:1001C00005530008095300080D5300081153000897
:1001D0001553000819530008603000EB81000068D7
:1001E00000F0F8407047603000EB8100016821F0BA
:1001F00000410A4302607047C06800F44060401E3E
:100200008041C00F7047CB0D10B5143003F00403CC
:100210001818090D01F01F01036807248C40A3433F
:1002200002FA01F11943016010BDF8B5044600203F
:10023000002600900CB90120F2BD04F15805686851
:1002400028B9204600F050FC0020A86028702168E2
:100250008868800004D58A68DFF8E80202408A6076
:1002600021688868C00017D48A68DFF8DC02024081
:1002700042F080528A60DFF8D412DFF8D422086896
:10028000B0FBF2F2521C5200009202E00098401EB5
:10029000009000980028F9D121688868C00008D42F
:1002A0006A6842F010026A600126A86840F0010006
:1002B000A86088686A68D30600D4400700F1A2806D
:1002C0006A6822F4807242F002026A608868C0079D
:1002D00016D4DFF88022B1F1A04F18BF914200F090
:1002E00098F80DD1B1F1A04F16BF9142DFF8681216
:1002F000DFF868120A68606822F47C1202430A6020
:1003000004F12402607F9369E168177843EA40337F
:10031000A0680B430343012F43EA074303D150680E
:10032000401E43EA4043906820B100F478700343D4
:10033000D06803432168DFF82802CF6807403B43B9
:10034000CB6021680B69106923F0406303430B61A4
:1003500021688B6888685B0740D400073ED4CB686F
:10036000DFF80002277F0340107D43EA873343EA2A
:100370004003CB6020690028206801690CD041F45B
:10038000803101612168D1F8C03020699B0B40EABF
:100390008333C1F8C03009E021F480310161206865
:1003A000D0F8C010890B8903C0F8C010107F012855
:1003B0000FD123681F69106A516A6FF38A070743D8
:1003C000906A0F43D16A07430F4347F001071F614B
:1003D00004E0206801694908490001616069012859
:1003E0002068016B05D1226A0909521E42EA0111F7
:1003F00001E00909090101630120696860F3010155
:10040000696004E0686840F01000686001263046CA
:10041000F2BD07D1DFF85001DFF8503100681B68EA
:1004200018430AE0DFF84801DFF8483100681B682C
:10043000DFF844713F681843384310F001007047FB
:100440002DE9F84305460E462868DFF808819146F5
:10045000B0F1A04F16BF4045DFF8FC10DFF8FC10EC
:100460000C688168490704F01F045DD405F1580742
:100470003A78012A58D00121DFF84425397090429A
:1004800018BF002C03D0052C18BF092C48D12846D2
:1004900000F059FA010040D17968DFF80405014005
:1004A00041F480717960286840451CBFDFF8CC10AA
:1004B000884200D11CB9786820F480107860786890
:1004C000C10446BFB86820F006000020B8604B4663
:1004D000686D0FF22551C162686D0FF28951016399
:1004E000686D0FF2895141631C212A681160002058
:1004F000387032462868416841F010014160286830
:10050000C16841F00101C160286800F14001686DD7
:1005100000F0CAFB00F00BF807E00021397004E09E
:10052000002201203A7000E00220BDE8F2832A6830
:10053000DFF8901493680B4043F004039360704716
:1005400000000000C0FFFF5FC0FFFF7F2000002011
:10055000400D030000010050080300500807005040
:100560000740F0FFFDBFFFFF0800005008010050EA
:10057000080400500805005008060050000500500F
:10058000F8B50646002006F158050F4600900024F5
:100590002978012901D10220F2BD0120287030689C
:1005A0008168490700F1AD817A6839689309303074
:1005B00003F00C03181802F01F02D0F800C01F232C
:1005C0009340C1F384612CEA030301FA02F21A4357
:1005D000026030688268816852074DD409074BD4A5
:1005E000BA68B2F1004F08D139680022FFF70BFE5C
:1005F0003068416941F0004106E03968FFF703FEC9
:100600003068416921F0004141613068C1683A6950
:10061000042A32D060303B6800EB820CDFF8AC0378
:10062000DCF80020024003F0F8431343C9087A695C
:10063000480000F006008240134343F00043CCF82A
:10064000003031683A69B869603101EB82010B68AA
:1006500023F0807318430860387F01280CBF4FF0E7
:100660000070002031683A69603101EB82010B684B
:1006700023F000731843086078E00021FFF7ACFD19
:1006800040033068214604D1FFF7A6FDC0F3846023
:1006900003E0FFF7A1FD00F045F939684A030EBFFA
:1006A000C1F3846191FAA1F1B1FA81F1884204D1D8
:1006B000306800220021FFF796FD00F040F940036A
:1006C00004D100F03CF9C0F3846003E000F037F996
:1006D00000F028F939684A030EBFC1F3846191FA2A
:1006E000A1F1B1FA81F1884204D1306800220121E0
:1006F000FFF779FD00F01FF9400304D100F01BF96A
:10070000C0F3846003E000F016F900F00BF93968DB
:100710004A030EBFC1F3846191FAA1F1B1FA81F1EC
:10072000884204D1306800220221FFF75CFD00F00E
:10073000FEF8400304D100F0FAF8C0F3846005E04D
:1007400000F0F5F890FAA0F0B0FA80F039684A03AA
:100750000EBFC1F3846191FAA1F1B1FA81F188422F
:1007600004D1306800220321FFF73DFD3068816825
:10077000C9075ED4FB68DFF8582239689342D0F885
:10078000B030C1F312010CBF194323EA0101C0F8D4
:10079000B010F86890424CD1386841030EBFC0F3E6
:1007A000846290FAA0F1B1FA81F2521C012102F0A8
:1007B0001F020A2A1BD2420306D1C0F38462C0F38F
:1007C0008463C0F3846001E000F0A5F8521C5B1C58
:1007D000920603F01F03401C02F0F842994000F01B
:1007E0001F00114300EB400041EA00511DE04203AD
:1007F00006D1C0F38463C0F38462C0F3846001E077
:1008000000F089F85B1C521C401C9B0602F01F0282
:1008100000F01F0003F0F84391400A38194300EB41
:10082000400041EA005141F00071BA683068FFF7BA
:10083000EAFC3868DFF89C11084267D03168DFF8BD
:100840009821DFF89831DFF88071B1F1A04F16BF21
:10085000B94216461E463668DFF884C106F0E076D7
:1008600060451CBFDFF87CE1704524D15FEA062CAF
:1008700021D4B1F1A04F04D0DFF84401814245D129
:100880001A461168DFF8600121F0E0710E4346F46A
:10089000000616600168DFF85421B1FBF2F2521C29
:1008A0000C2042430092009800281EBF0098401E72
:1008B0000090F8D12AE0DFF838E170450DD1F00161
:1008C00024D4B1F1A04F1CBFB9421A46106820F0E1
:1008D000E070064346F0807611E0DFF818C160450D
:1008E00014D1700212D4B94210D0B1F1A04F18BF88
:1008F0001A46106820F0E070064346F48006166041
:1009000004E0686840F0200068600124002028703E
:100910002046F2BD000090FAA0F0B0FA80F2134633
:100920001046704790FAA0F0B0FA80F07047306837
:100930000321FFF751BC30680221FFF74DBC30683E
:100940000121FFF749BC70B5044621688868C207D9
:1009500023D488686FF39E10F0B98868194D284039
:1009600040F00100886000F0A1FA064620680168A6
:10097000CA0712D48068C00705D42068816829405E
:1009800041F00101816000F091FA801B0328EDD352
:1009900020680168CA07E9D404E0002070BD0000A7
:1009A000FEF1FFFFE06D40F01000E06500F001F89F
:1009B00070BD206E40F001002066012070470000ED
:1009C00000060050C0FFFF7F0001005000F0FF0351
:1009D00000007F4000000880080300500807005016
:1009E000000021C31000C09020000020400D030033
:1009F000000052C7000084CB10B5846AE16D11F08D
:100A0000500F22D1E06D40F40070E0652168086865
:100A10000207084606D5FFF7EFFB88B12068C168DA
:100A2000880401E0C16888070AD4E16D21F480716F
:100A3000E165E06DC10403D4E06D40F00100E065C4
:100A40002046BDE8104000F03EBAE16DCA0604D56C
:100A50002046BDE8104000F04BBA616D4A6BBDE81E
:100A600010401047806A00F027BA0000806AC16D0C
:100A700041F04001C165016E41F00401016600F0E2
:100A800037BA0EE002684368024408305FEAC37C6C
:100A900044BF4B445B1E52F804CB43F804CB091F00
:100AA000F9D150F8041B0029ECD1704780B54248B9
:100AB000816841F001018160816801F001010091CC
:100AC0000099026842F0805202600022006800F043
:100AD000805000900F2100986FF0010000F024FA80
:100AE000BDE8014000F097BA30B59BB00446142130
:100AF00001A800F0A1FA542106A800F09DFA206890
:100B00002E49884245D14FF480324FF00041069281
:100B1000189106A800F094FA08B100F0D4FC284817
:100B2000284D016841F480410160026802F480426E
:100B300000920099026842F00202026002210068FD
:100B400000F002000090032200981F4801910292D9
:100B50000021039101A900F0B9FC252169608021E1
:100B60001A48286029614FF4807068614FF48061F1
:100B7000A96120200022E8614FF44051AA60EA6098
:100B80002962284600F026F808B100F09CFC656553
:100B9000AC621BB030BD81B000680D49884209D1FC
:100BA0000548026842F002020260006800F002009C
:100BB0000090009801B070475810024000040050A7
:100BC0004C100240904300200004004808000240FE
:100BD0000004004038B5040001D1012032BD216875
:100BE000DFF8A422914204F1240500F044F8022128
:100BF000697020680268A068E16823686FF30E12CC
:100C0000024320690A4361690243A0690A43E1691A
:100C10000243206A0A4302431A60204600F00BF99F
:100C2000A068B0F5804F04BF00216160696A207937
:100C300000F014F838B1052805D2204600F016F966
:100C400000F012F803E0002028636863A863002125
:100C5000A961012068702970002032BD0860A96A6E
:100C6000E86A486060687047296B00200860696B1B
:100C7000A86B486070470BD2DFF8100241181423AC
:100C8000B1FBF3F18900DFF808222962EA617047BD
:100C9000DFF8000241181422B1FBF2F18900DFF8FD
:100CA000F8012962E8617047F8B5044604F12406AA
:100CB00000253078012801D10220F2BD01203070DA
:100CC0007778012F30D1022070700027B76120683B
:100CD000D0F800C04FEA5C074FEA470CC0F800C0EC
:100CE000204600F08CF82168F06820B10A6842F0D4
:100CF0000E020A6008E0086820F00400086020681E
:100D0000016841F00A010160706A0168CA0301D5F7
:100D100000F00EF8306B08B100F00AF820680168A6
:100D200041F00101016001E0357002252846F2BD65
:100D3000016841F4807101607047F8B500F1240149
:100D40000423CA6914680268156891F8206006F0E7
:100D50001F0603FA06F73C4210D06F070ED5146841
:100D6000A50603D4146824F00404146000F03EF8CF
:100D7000C968002939D0BDE8F4400847022303FAC6
:100D800006F73C4213D0AF0711D51468A50605D469
:100D9000146824F00A04146001224A7000F026F856
:100DA00000220A70896801B3BDE8F44008470823AF
:100DB00003FA06F6344218D02B0716D5146824F02F
:100DC0000E041460012291F82030CC6903F01F0357
:100DD0009A406260012301228A614B7000220A70EE
:100DE000096911B1BDE8F4400847F1BD91F8202030
:100DF000CC6902F01F02934063607047000070B539
:100E0000C56C046D6C60446D14B1856DC46D6C600F
:100E1000012490F84450066C05F01F05AC40746046
:100E2000046863608068102802D1A260E16070BD30
:100E3000A160E26070BD10B50168134B174A99427A
:100E400028BF2032446C01F0FF01A40808391423A4
:100E500002EB8402B1FBF3F18264012301F01F0174
:100E60000F4AC26403FA01F1016510BD01790D4A10
:100E70000D4B836502EB81024265491E012201F0A0
:100E80001F018A40C265704708040240F8FFFDBF99
:100E900000000240F8FBFDBF0004024000080240D1
:100EA00080080240FC0802404009024001480068F6
:100EB000704700BF1400002010B500F094FE0A49EE
:100EC0000A4C002005E010B500F08DFE0649074CE5
:100ED0000120088000232068002201F085F8BDE889
:100EE000104000F09BBE00009A440020884400207F
:100EF000704700000901020002D41F488154704766
:100F00001E4B02F00F021A4402F8041C70471C4BDF
:100F100019684FF6FF020002114000F4E060084338
:100F2000184908431860704770B5154B1C68C4F326
:100F300002230124C3F10705052D2EBF0F2504FA56
:100F400005F56D1E1E1D072E34BF0023DB1E294034
:100F5000994004FA03F3BDE870405B1E1A40114348
:100F6000C8E7010007D4012200F01F01064B8A40A8
:100F7000400943F82020704700E400E018ED00E04D
:100F80000CED00E00000FA0500E100E030B532228F
:100F9000DFF89830DFF89050DFF88810012448B966
:100FA00000F01DF820F48070286016D100F01EF8C3
:100FB0000CD412E0B0F5007F0AD100F010F840F434
:100FC0008070286009D100F011F806D5032030BDEB
:100FD0000A68022060F34A220A60002030BD0868D7
:100FE00000F4C060B0F5806F28687047086864F34B
:100FF0004A2008601B68DFF838405A43B2FBF4F01F
:10100000401C00E0401E4A69530501D50028F9D173
:101010004869410570470748016841F48041016013
:1010200070470000007000408070004020000020E9
:1010300040420F0008700040002201F03BB8000061
:101040002DE9FC4705464FF000082868DFF870627C
:10105000DFF87072010353D5F06CC100C1460AD4A9
:10106000F06C40F08050F0644FF00109F06C00F03B
:10107000805000900098DFF85042206840F4807063
:101080002060FFF713FF82462068C10506D4FFF7F2
:101090000DFFA0EB0A000328F6D321E0386810F416
:1010A00040701CBF296D88420BD03868396841F404
:1010B0008031396020F440703A6822F480323A601E
:1010C0003860C0070FD5FFF7F1FE04463868810786
:1010D00009D4FFF7EBFE001B41F289318842F5D3BA
:1010E0004FF0030805E03968286D21F44071014391
:1010F0003960B9F1000F03D0F06C20F08050F0643B
:101100002878C10705D5F26F6868920840EA820224
:10111000F2672978880705D5F16FA86821F00C01DE
:101120000143F1672978480705D5F16FE86821F098
:1011300030010143F1672978080705D5F16F286967
:1011400021F0C0010143F1672978C80605D5F16F88
:10115000686921F440710143F1672978880605D553
:10116000F16FA86921F440610143F16729784806CD
:1011700005D5F16FE86921F440510143F167297801
:10118000080605D5F16F286A21F440410143F16753
:101190002968C80505D5F16F686A21F4403101431B
:1011A000F1672968880305D5F968A86A890840EAC3
:1011B0008101F9602968880505D5F16FE86A21F495
:1011C00040210143F167296848050AD5F16F286B72
:1011D00021F440110143F167296BB1F5801F00F044
:1011E00069F8296808050AD5F16F686B21F4400198
:1011F0000143F167696BB1F5800F00F05BF8296876
:10120000C8040AD5F16FA86B21F040710143F16762
:10121000A96BB1F1807F00F04DF82968880408D5EA
:10122000F16FE86B21F040610143F167E96B00F079
:101230003FF82968480408D5F16F286C21F0406117
:101240000143F167296C00F033F8296808040AD5D6
:10125000F16F686C21F040510143F167696CB1F1A5
:10126000805F00F01FF82968C8030AD5F16FA86CE9
:1012700021F040410143F167A96CB1F1804F00F0CA
:1012800011F8296848030AD5F968E86C21F440117F
:101290000143F960E96CB1F5001F00F00BF840461E
:1012A000BDE8F68703D1306840F480303060704785
:1012B000B1F1006F03D1306840F4801030607047A6
:1012C0000C1002409010024000700040F0B58BB04E
:1012D00000F00AFF00F0BAF800F016FF5548564C2F
:1012E000016841F00401016004F12405026802F084
:1012F000040200924FF480560099026842F0010205
:1013000002600022006800F00100009005210098B2
:101310000B20FFF709FE0B20FFF723FE08A8002192
:101320000022002380E80E0020216846FFF784FE9B
:10133000424820604FF440310120206261604FF448
:10134000906000220421A860A260E26022616261D4
:10135000A161A283012000214FF440622875297009
:10136000EA602977AE612046FEF75FFF08B100F022
:10137000AAF80020089008A9204600F004FF08B150
:1013800000F0A1F82E49009106220192002102915D
:101390007F2203920421049100220592694620468F
:1013A000FFF7EEF808B100F08EF803A80021002244
:1013B0000023002780E88E006846EA6480E80E007B
:1013C00040F253101F496865A9642A65AA652A6618
:1013D00004F16C0000F07AFF08B100F074F8039695
:1013E00003A904F16C0001F0CCF808B100F06BF82F
:1013F000202100910297694604F16C0001F0E2F9A6
:1014000008B100F060F81048016841F00301016084
:1014100004F16C0000F067FF4FF47A6204F1B80148
:101420002046FFF70DF801F032FA01F057FA01F00B
:1014300081FAFEE74810024024000020000400501A
:101440000200300400040040082004E000B593B01E
:10145000382105A8FFF7F0FD14216846FFF7ECFDE1
:101460000020FFF793FD4FF48072089202210222C0
:1014700005910C920D924021042209910E92552162
:1014800002220F9110921192129205A801F060FAB7
:1014900008B100F018F80F200321009001910022FC
:1014A0000292039204920421684601F034FC08B1D0
:1014B00000F009F813B000BD0068B0F1804F08BF1C
:1014C00001F072BD704772B6FEE700002DE9F84FDB
:1014D0000027704A704B4FF00F0805460E4638E063
:1014E0006E4CA54214BF062405248C406C4944EA86
:1014F0000E0441F82C40C143D2F808C0746801EAD8
:101500000C0CE40248BF40EA0C0CC2F808C0D2F848
:101510000CC0746801EA0C0CA40248BF40EA0C0C31
:10152000C2F80CC0D2F804C0746801EA0C0CA40321
:1015300048BF40EA0C0CC2F804C0D2F800C001EA6F
:101540000C0C7168C90348BF40EA0C0CC2F800C01B
:101550007F1C316831FA07F000F094800124BC4010
:1015600014EA0100F4D04FEA470C032101FA0CF110
:101570006FEA010E716801F00309B9F1010F1CBF98
:1015800001F00301022912D1A968D6F80C900EEAE5
:10159000010109FA0CF949EA0101A960696821EA27
:1015A00004047168C1F30011B9400C436C60B900C8
:1015B000347904F00304032C21D0EC68D6F80890A9
:1015C0000EEA040409FA0CF949EA0404EC603479DF
:1015D00004F00304022C12D1FC0805EB840401F092
:1015E0001C09D4F820A008FA09FB2AEA0B0AD6F84D
:1015F00010B00BFA09F949EA0A09C4F820902C68DE
:101600000EEA040E347904F0030404FA0CF444EAFC
:101610000E0CC5F800C0746814F4403F98D0D3F89D
:1016200000C01F4C4CF0010CC3F800C04FEA970CEF
:10163000D3F800E00EF0010ECDF800E001F00C014F
:10164000DDF800E054F82C4008FA01FE24EA0E0E02
:10165000B5F1904F08BF002413D0124CA54208BF2B
:1016600001240ED0104CA54208BF022409D00F4C13
:10167000A54208BF032404D00D4CA5427FF430AF2F
:10168000042432E7BDE8F18F0AB1816170478162BD
:101690007047000000040140601002400014004840
:1016A000080001400004004800080048000C004801
:1016B0000010004810B5002451B100E0641C0B5D1F
:1016C000002BFBD1A24288BF22461446FF2C02D237
:1016D00000F8014B05E0FF220270230A447083707A
:1016E000C01C002204E011F8013B00F8013B521C31
:1016F000A242F8D310BD1CB5DFF80806047E00F046
:1017000038F8002834D09DF80000012810D00228B5
:1017100011D0032812D0042813D0052814D006288D
:1017200015D0072816D07F2822D0802815D01CE09D
:1017300000F08FF913BD00F0C1F913BD00F03EFABF
:1017400013BD00F02DFA13BD00F0CDF913BD00F06C
:1017500044FB13BD00F036FB13BD00F00AF838B1AE
:101760009DF8000000F0FEFA13BD01DB00F001F867
:1017700013BD01226946204601F058BC2DE9F84FFF
:10178000DFF88065DFF8A8953778D6F80C80012F50
:1017900084B082460C4615461ED0380034D0022F45
:1017A0001AD101208DF800000DF10102D6F814B015
:1017B000584600F090F8D9F800000390A0EB08001C
:1017C00000F089F86B467078D21A694601F0F4FC93
:1017D000B8B1DDF80C800127202D03D2F069E84074
:1017E000C10760D4182D5146224612D3501A8028C2
:1017F0000BD3C30901F8013C40F0800001F8020D51
:1018000005E00BF1010070614DE001F8010D7F2D45
:1018100002D201F8015D30E0EB090C1FB5F5804FF5
:1018200045F0800003D2E37001F8020D25E0B5F524
:10183000001F43F080034FEA953A05D284F803A0D5
:10184000A37001F8030D18E0B5F1805F4AF0800A3B
:101850004FEA555C07D284F803C084F802A0637095
:1018600001F8040D09E02D0FE5704CF08005A5701E
:1018700084F801A0237001F8050DD9F80040A4EB0D
:10188000080004E040F0800302F8013BC009802812
:10189000F8D202F8010B521A707801F08DFC002882
:1018A00014BFA0467F1C327EDFF8A80437701821D1
:1018B0004A438118C6F80C80C86E096F401A07D0D9
:1018C000B07828B90121B170FFF715FF0020B07082
:1018D00005B0BDE8F08F04E040F0800102F8011B84
:1018E000C0098028F8D202F8010B70472DE9F843AF
:1018F00004460D46164698460FF23C59DFF804742C
:1019000000234FF4806207F12C01484601F0CAFB26
:1019100078700021787838760091082307F22C42FD
:10192000494601F001FC0020DFF8041438610A6820
:10193000FA603E627C60BD60C7F824803870BDE804
:10194000F183DFF8C0130861704710B5024600F05C
:10195000F7F9DFF8D41465E138B502460B4600F01C
:1019600074F9014604E043F0800501F8015BDB09EE
:10197000802BF8D201F8013B00F051BA70B5EFF3BB
:101980001185202383F31188DFF89C341C4604E082
:1019900041F0800604F8016BC9098029F8D204F8E7
:1019A000011B04E042F0800104F8011BD209802AE7
:1019B000F8D204F8012B214602469CE1F8B500F06C
:1019C0000EF805F8013B024629462DE0F8B500F077
:1019D00006F8069905F8013B00F02EF824E0EFF335
:1019E0001186202484F31188DFF83C44254604E066
:1019F00041F0800705F8017BC9098029F8D205F874
:101A0000011B04E042F0800105F8011BD209802A85
:101A1000F8D205F8012B04E043F0800105F8011B22
:101A2000DB09802BF8D270472046FFF7A7FE86F32C
:101A30001188F1BD05F8012B04E041F0800205F8A2
:101A4000012BC9098029F8D205F8011B0246294655
:101A5000704770B5AB4C01202070EFF31185202644
:101A600086F311880A2260780FF2D43101F0A4FBCA
:101A700085F311880A20FFF768FFEFF3118586F3DD
:101A8000118804F23B40626800F0BCF8A26800F0E4
:101A9000BAF8226900F0B7F8002201F8012B1822E9
:101AA000FFF76CFE85F31188606A00B1804700F093
:101AB00085F800F075F8BDE870408EE138B500F0AB
:101AC0000CF8904D287838B105F23B410B220846BE
:101AD000FFF754FE00232B70A3E1EFF311842021C4
:101AE00081F31188704738B500F036F9854D6A6882
:101AF00005F23B4000F086F8AA6800F084F82A69F5
:101B000000F081F8002301F8013B1822FFF736FEB0
:101B100084F31188686A10B1BDE83240004731BDD6
:101B2000F8B500F02BF8774F2268396907F23B4689
:101B30003046511A00F029F8A16800F026F820225A
:101B40006168FFF7B7FD014609223046FFF716FE30
:101B5000226838693146101A00F0DEF8E06800F0BB
:101B6000DBF8206900F0D8F81522002001F8010BFD
:101B70003046FFF703FE85F31188F1BD0446EFF30D
:101B80001185202080F31188704704E041F0800225
:101B900000F8012BC9098029F8D200F8011B704711
:101BA0005848006A18B14068002818BF00477047BD
:101BB00038B500F021F901460E222FE180B55148D9
:101BC000006A00281CBF0068002806D080470A462B
:101BD000BDE8084001460D20D0E655480168BDE843
:101BE00004400C20B8E610B500F0B6F8DFF83C224F
:101BF000DFF8340212680146C2F3080200F003F86D
:101C0000022210E0014604E042F0800301F8013BAB
:101C1000D209802AF8D201F8012B704710B500F0E4
:101C20000CF803220846FFF7A9FD84F3118810BDC4
:101C300010B500F002F81222F4E7EFF3118420202F
:101C400080F31188DFF8E0117047EFF31184202052
:101C500080F31188DFF8D001704710B5FFF7EDFF72
:101C60001122DFE738B500F002F80822D7E002467B
:101C7000EFF31184202080F31188DFF8B43103F2F0
:101C80003B401B690146D21A04E042F0800501F88E
:101C9000015BD209802AF8D201F8012B704738B5D0
:101CA000FFF7E5FF0422BAE038B5FFF7E0FF0622B0
:101CB000B5E070B5EFF31185202282F31188114A47
:101CC00002F23B4312691C46801A04E040F0800691
:101CD00004F8016BC0098028F8D204F8010B04E075
:101CE00041F0800004F8010BC9098029F8D204F8FA
:101CF000011B072221461846FFF740FD85F3118896
:101D000070BD00003C2C0020EFF31184202181F3F2
:101D10001188DFF81431194604E040F0800201F820
:101D2000012BC0098028F8D201F8010B7047000090
:101D3000041000E003F8010B80221846FFF7BABC3C
:101D4000EFF31184202383F311887047384A116917
:101D5000401A704754310020EFF31184202080F3A3
:101D600011887047324A0146906A002800D17047B6
:101D700038B5002302E00069C0B15B1C8B42FAD386
:101D8000A0B1FFF7DDFF02F23B452B4600F00FF854
:101D9000816800F00CF880220168FFF7CEFF014651
:101DA00016222846FFF7EAFC84F3118831BD04E0CF
:101DB00041F0800203F8012BC9098029F8D203F809
:101DC000011B704710B51A48846A2CB1E06800B155
:101DD00080472469002CF9D110BD10B5FFF7BCFF76
:101DE000144A11481278FFF70DFF1B221BE738B584
:101DF00000F002F801230AE00146EFF311842020ED
:101E000080F31188084D80222846FFF753BC00F864
:101E1000013B002100F8011B1A2201462846FFF76A
:101E2000ADFC84F3118831BD7730002004ED00E073
:101E30003C2C00209C440020537973566965770040
:101E400000000000000000000000000080B5DFF886
:101E50002C01016801F097FD012803D0BDE8014085
:101E600001F0B6BE01BDEFF3058000B16EE0DFF812
:101E70001011086810B901220A6070474FF0FF3056
:101E80007047000080B5EFF3058000B10FE0DFF888
:101E9000F0000168012909D1DFF8E81000220A707A
:101EA0000223036001F004FB002002BD02E06FF09A
:101EB000050002BD4FF0FF3002BDF8B584B000232D
:101EC0000393EFF30583002B3DD103003BD0802526
:101ED000182600245AB3136803B11C4693691BB13A
:101EE0001E0004D0392E02D21379DF0701D500205D
:101EF0002AE0536903B19D08D2F80CC0976887B1F6
:101F0000BCF15C0F1FD31269002A18BF002B1AD036
:101F100001920B46029700962A46214601F096F957
:101F200010E0BCF1000F04BF1269002A0BD103AB13
:101F3000019300960B46AAB2214601F0B8F9012898
:101F400001D000200390039805B0F0BD6FF00500AC
:101F5000704710B5EFF3058111B16FF0050403E090
:101F6000002408B101F080FA204610BDDFF83811D6
:101F70004FF08050086070470000000010E000E063
:101F80008C4400201FED00E0F8B514460025EFF367
:101F900005823ABB002818BF002923D0E4B1E268CB
:101FA000A36893B1502A1DD32269DAB1666901FB97
:101FB00000F7BE4216D3009501F091FE050011D046
:101FC000002C14BF216800210AE0002A04BF226906
:101FD000002A07D162692AB9002201F0B1FEEDE7BB
:101FE00002F09CF92846F2BD7CB500F056F8A2B18B
:101FF000002818BF002914D09CB900946A4601F04B
:1020000088FF01281AD1009820B1FFF711FEFFF7D1
:10201000ADFF14E0FFF702FE11E0002818BF002911
:1020200002D16FF003050AE00023224601F0C5FE4D
:10203000012804D014B16FF0010500E035462846B0
:1020400076BD7CB500F029F8A2B1002818BF0029A0
:1020500014D09CB900936A4602F076F8012819D191
:10206000009820B1FFF7E4FDFFF780FF13E0FFF7D2
:10207000D5FD10E0002818BF002902D16FF003053C
:1020800009E0224601F0A3FF012804D014B16FF04B
:10209000010500E03546284676BD1C4600256FF058
:1020A0000206EFF30582704704ED00E062F30F22B1
:1020B00062F31F4200B500BF1300964694461039E4
:1020C00028BFA0E80C50FAD85FEA417C28BF0CC0BA
:1020D00048BF40F8042BC90728BF20F8022B48BF8F
:1020E00000F8012B00BD0000032010B5FEF70FFF24
:1020F0000F2002F057F90024002814BF0124FEF736
:10210000D5FC204610BD000000B5184885B0016818
:1021100041F0040101601421006800F00400009007
:1021200000986846FEF788FF114A118850680091B0
:10213000012300210291039101936946FFF7C6F93B
:10214000002000F00DF805B000BD4FF06041052003
:102150000860012004E007480168491C01607047DD
:102160000246034801884068FFF78EBA4C100240CF
:1021700000000020904400200092606840F02000A1
:102180006060227070472DE9F04F00F158049BB059
:1021900023780022012B08BF022024D001252570BE
:1021A00000261796002518950368414D3E4EB3F161
:1021B000A04F10D10096009FBF68D3F808C05FEA17
:1021C0004C7C65D47F0763D4B3F1A04F16BFB342F4
:1021D000384F394F08E0354FBB4208BF0095EAD071
:1021E000FFF7CBFF01205BE00B68DFF8D0C0DFF822
:1021F000D080DFF8D0E0DFF8D09053B3D7F800A05C
:102200004B6890F838B02AF4604A43EA0A0343EA7C
:102210004B3AC7F800A00068B0F1A04F18BFB04219
:1022200004D1D8F80000B368184306E0D9F80000DC
:10223000AB68DEF800501843284310F001002CD1A1
:102240003B68086889680CEA0303184341EA000CFC
:102250001BE03B6823F460433B600068B0F1A04F93
:1022600018BFB04204D1D8F80000B168084306E0B6
:10227000D9F80000A968DEF800300843184310F0D0
:1022800001000AD138680CEA000CC7F800C004E06D
:10229000616841F020016160012200202070104639
:1022A0001BB0BDE8F08F000000010050000400509A
:1022B000000500500803005008070050E0F0FFFF41
:1022C00008000050080600500804005038B504000B
:1022D00001D1012032BD00F06BF818B900F0C5F94A
:1022E000FEF759FC3EE090F83D10012901D0012095
:1022F0007047022180F83D100168CA6842F001026F
:10230000CA600168DFF88820914218BFB1F1804FA0
:1023100017D0DFF8802091421CBFDFF87C30994253
:102320000FD0DFF8782091421CBFDFF8743099425B
:1023300007D0DFF8702091421CBFDFF86C30994263
:1023400009D18A68DFF864100A40062A18BFB2F57E
:10235000803F05D001680A68084642F00102026029
:102360000020704702206870211D206800F081F96C
:10237000012028730121A970E87029716871A97181
:10238000E87129726872A972E8726970002032BD22
:10239000002C01400004004000080040000C0040F8
:1023A000003401400040014000500140070001009E
:1023B00004F13C056878704710B50446206801694F
:1023C0008A0715D5C1688A0712D56FF0020101612D
:1023D00001222277806910F0030F204602D002F01C
:1023E00027F803E002F025F800F0C8F80020207775
:1023F000206801694A0715D5C1684A0712D56FF0F0
:102400000401016102222277806910F4407F204696
:1024100002D002F00DF803E002F00BF800F0AEF885
:1024200000202077206801690A0715D5C1680A07CE
:1024300012D56FF00801016104222277C06910F003
:10244000030F204602D001F0F3FF03E001F0F1FF9B
:1024500000F094F80020207720680169CA0615D59D
:10246000C168CA0612D56FF01001016108222277F7
:10247000C06910F4407F204602D001F0D9FF03E08C
:1024800001F0D7FF00F07AF800202077206801697A
:10249000CA0708D5C168CA0705D56FF001010161F7
:1024A0002046FFF709F8206801690A0608D5C168C7
:1024B0000A0605D56FF080010161204601F0BAFFE0
:1024C00020680169CA0508D5C1680A0605D56FF4F8
:1024D00080710161204601F0AEFF206801694A0663
:1024E00008D5C1684A0605D56FF040010161204654
:1024F00001F0A2FF206801698A0608D5C1688A0632
:1025000005D56FF020010161204601F096FF20689B
:102510000169CA0208D5C168CA0205D56FF48011E5
:102520000161204601F08AFF206801698A0208D50E
:10253000C1688A0205D56FF400110161204601F0DF
:102540007EFF206801694A0208D5C1684A0205D5A4
:102550006FF480010161204601F072FF206801697B
:102560000A020AD5C1680A0207D56FF400010161A9
:102570002046BDE8104001F064BF10BD204601F0C8
:1025800061BFF8B5064606F13C050024287801280D
:1025900001D10220F2BD0120287002226A70DFF80A
:1025A000F80132689368034093600868020018BF1E
:1025B000B0F1100244D0103A42D0103A40D0103A54
:1025C0003AD0103A2DD0103A2FD0103A1AD04FF4FA
:1025D0007967D21B3AD04FF48057D21B19D04FF4F1
:1025E0007E27D21B2CD0103A2AD0103A28D0103A8D
:1025F00026D0103A24D0103A22D0103A20D0103AE7
:102600001ED022E000F02BF83068816841F077019D
:1026100005E000F024F83068816841F48041816071
:1026200014E000F018F850210BE0CA6849683068DF
:1026300000F093F8602104E000F00DF8402100E084
:102640000146306800F09BF800E00124012068702A
:1026500000F00BF8F2BDCA68496830686EE0CB68DC
:102660004A688968306800F09FB8002129702046C8
:1026700070472DE9F0470368DFF8BCE0DFF8104150
:10268000DFF8A450DFF8A460DFF80871DFF8A0C01D
:10269000DFF80881DFF80891DFF898A0704518BFCF
:1026A000B0F1804F08D0504518BF484504D0404590
:1026B0001CBF6045B84210D14A6823F07003134331
:1026C000704518BFB0F1804F0FD0504518BF484536
:1026D0000BD0404518BF604507D0B04218BFA84294
:1026E00003D0A04218BFB84203D1CA6823F4407394
:1026F00013434A6923F080031343036070458B68DA
:10270000C3620A68826218BF604507D0B04218BF32
:10271000A84203D0A04218BFB84201D109690163A1
:1027200001224261BDE8F0870044014000400140C1
:102730000034014000040040002C014010B5036A41
:10274000046A64086400046223F00A03846924F0C4
:10275000F00444EA0214846130E010B5036A23F007
:10276000100303628369046A23F4704343EA02336B
:1027700024F0A004836144EA0114046210BD83685C
:10278000084A1340194341F0070181607047000077
:1027900000480140005001408800CEFF000C00407E
:1027A000000800408FFFCFFF10B5846824F47F44F9
:1027B0002143114341EA0321816010BD19430162A5
:1027C00010BD00002DE9F04300F13C052A78012AF4
:1027D00008BF02203FD001222A7002236B70D0F87C
:1027E00000E0DFF88890DEF80470DEF80860DFF8BB
:1027F0007880DFF87CC0CE451CBFE645C64503D1D6
:102800004C6827F470072743DFF868300A681F40D8
:102810001743CEF8047002684A4518BFB2F1804FE2
:1028200010D0104882421CBFDFF84C309A4209D0C9
:102830000B48824218BF624504D0084B9A4218BF29
:10284000424504D1886826F080060643966001213F
:10285000697000202870BDE8F0830000004001404E
:10286000000C00400004004000500140002C0140DA
:10287000003401408FFFFFFD0008004080B50B4889
:10288000FFF796F9BDE802400CA0FFF791B980B5BB
:102890000748084B0168084A0846FFF727F8BDE8D3
:1028A00002404FF08050FFF74CB80000944F0008F2
:1028B000200000207D280008805100084923313580
:1028C0003D5379735469636B2C492332373D444D32
:1028D000415F496E746572727570740038B5FFF7A8
:1028E000C2FA00BF14A2022101200D4C0D4DFFF7CA
:1028F0004BFBE0602A4600210B48FFF7DEFA206020
:1029000005F1240200210948FFF7D7FA606005F1BC
:10291000480200210648FFF7D0FAA06031BD000050
:102920007C440020F84D0008355100080D4F000888
:1029300009510008FFF7A6BA205100080000000066
:102940000000000000000000000000000000000087
:102950002DE9F84304006DD02078DFF81466C10734
:1029600017D500F0D2F90CD101F0030103290AD0E8
:102970006068B0F5803F2AD1306840F48030306024
:1029800037E00828F4D13068810302D56068002858
:1029900050D02178880759D500F0B7F943D101F01C
:1029A0000301022941D0E06800286AD0316841F46F
:1029B00080713160FEF77AFA0546306841055DD4D2
:1029C000FEF774FA401B0328F7D3032093E1B0F518
:1029D000A02F306806D140F480203060316841F487
:1029E000803105E020F480303060316821F48021AE
:1029F0003160606858B1FEF759FA054630688103C6
:102A0000C7D4FEF753FA401B6528F7D3DDE7FEF77E
:102A10004DFA054630688103BBD5FEF747FA401BE7
:102A20006528F7D3D1E70428BDD13068410503D527
:102A3000E068002800F05C8100F05FF9DFF83C05F9
:102A4000006801F0AFFC002840F052812078DFF8E8
:102A50003075010734D560690028786821D040F0CE
:102A600001007860FEF722FA05467868810727D4CE
:102A7000FEF71CFA401B0328F7D3A6E700F03DF948
:102A8000E4E7306820F480703060FEF70FFA054606
:102A900030684105DAD5FEF709FA401B0328F7D361
:102AA00093E7400840007860FEF700FA0546786832
:102AB000810705D5FEF7FAF9401B0328F7D384E711
:102AC0002078410763D5B06D0025C10009D4B06DF1
:102AD00040F08050B0650125B06D00F0805000904E
:102AE0000098DFF8A084D8F80000C10513D4D8F806
:102AF000000040F48070C8F80000FEF7D7F9814666
:102B0000D8F80000C10506D4FEF7D0F9A0EB090003
:102B10000328F5D359E7A068012804D1386840F0AC
:102B20000100386010E00528386806D140F0040044
:102B30003860396841F0010105E040084000386024
:102B4000396821F004013960A06841F2893860B128
:102B5000FEF7ACF981463868810713D4FEF7A6F971
:102B6000A0EB09004045F6D32FE7FEF79FF9814619
:102B70003868810706D5FEF799F9A0EB09004045B2
:102B8000F6D322E71DB1B06D20F08050B0652078FB
:102B9000810621D5A0690028B8680ED040F0010058
:102BA000B860FEF783F90546B868810714D4FEF7CC
:102BB0007DF9401B0328F7D307E740084000B860C1
:102BC000FEF774F90546B868810705D5FEF76EF97A
:102BD000401B0328F7D3F8E6E069002800F08A805C
:102BE000B16801F00C010C2955D00228306820F0A2
:102BF000807030603AD1FEF759F90546306881019E
:102C000005D5FEF753F9401B0328F7D3DDE6F0683E
:102C1000DFF87413226A0840616A1043491E40EAD3
:102C20000110226BA16A520840EA0120616B521E1A
:102C3000490840EA4250491E40EA4160E16A40EAE0
:102C4000C160F060306840F080703060F16841F041
:102C50008071F160FEF72AF904463068810149D499
:102C6000FEF724F9001B0328F7D3AEE6F168DFF87E
:102C70001C0389088900F160F1680140F160FEF7EA
:102C800015F904463068810134D5FEF70FF9001BB1
:102C90000328F7D399E601282AD0F068226A00F0C9
:102CA0000301914201BF00F0F0011031626AB1EB03
:102CB000021F1DD1A26A00F4FE41B1EB022F02BF38
:102CC00000F07841E26AB1EBC26F11D1226B00F4DF
:102CD000C00101F500115208B1EB425F08D1616BF0
:102CE00000F0C06000F100704908B0EB416F01D006
:102CF000012000E00020BDE8F2837068216920F027
:102D0000FE4040EA016070607047B068F16800F012
:102D10000C000C2870472DE9F84F04460026002CC3
:102D20006CD0DFF86C723868894600F00F004845B7
:102D300006D200F0BFF8386800F00F0048455DD1BA
:102D40002168DFF82C52C80741F2893858D56068ED
:102D5000DFF840B203284FF0080A27D12868820123
:102D60004CD5EA68E868C0F30310401C02F0030287
:102D7000032A0CBFDFF82022DFF8FC21B2FBF0F2BF
:102D8000E868C0F306204243E868C0F34160401C95
:102D90004000B2FBF0F0584516D3AA6812F0F00FCD
:102DA0000DD0890710D5A06870B908E002282868FE
:102DB00022D1810322D500F083F8584504D3A868B6
:102DC0006AF30710A8608026A9686068890840EA4D
:102DD0008101A960FEF76AF88246A868616800F080
:102DE0000C00B0EB810F0BD0FEF760F8A0EB0A00EF
:102DF0004045F2D303205BE04105DCD4012057E0DD
:102E00002068810714D5400703D5A96841F4E06123
:102E1000A9602078010704D5A968072060F30D2177
:102E2000A960A968A06821F0F0010143A96005E04C
:102E3000802E03D1A86820F0F000A860386800F068
:102E40000F0081450FD200F035F8FEF72FF8064647
:102E5000386800F00F00484505D0FEF727F8801BC2
:102E60004045F5D3C6E72078410705D5AA68E06854
:102E700022F4E0620243AA602178080706D5A96817
:102E8000206921F4605141EAC001A96000F018F8FE
:102E9000AA684249C2F30312895C364A01F01F0155
:102EA000C8401060BDE8F24F3448006801F07ABABB
:102EB000BDE8F28F3968090949EA011139607047A4
:102EC0003749086800F00C00042801D12A487047EF
:102ED000086800F00C00082801D12F4870470868E6
:102EE00000F00C000C2818D14A684868C0F30310A1
:102EF000401C02F00302032A0CBF274A1E4AB2FB01
:102F0000F0F24868C0F3062042434868C0F34160CD
:102F1000401C4000B2FBF0F070470020704715489D
:102F20001F4A006813681F49C3F30222FFE7895C48
:102F300001F01F01C840704710B50F220260184A07
:102F4000136803F003034360146804F0F004846022
:102F5000136803F4E063C3601268D20802F4E0620D
:102F600002610B48026802F00F020A6010BD000007
:102F700000100240200000200024F400180000206F
:102F800090100240007000400C809F01FFFFEEFE99
:102F90000020024001B4C40400366E018C500008C9
:102FA000081002408851000802490A68886882189F
:102FB0000A6070471400002010B5DFF8D841A8213E
:102FC0002046FEF739F8032222610320606104F1F4
:102FD000A8010FF2C410A061E1614FF48062226287
:102FE0000021A16200226262E1622066102104F5E4
:102FF00095606066A166002020670021E1660028D8
:103000006067BFF35F8F0FF29C1142420A44D27B8C
:103010002254401C1028F8D3BFF35F8F10BD00006E
:103020007068C1192246404601F00EBA2DE9F843F6
:1030300000F030F808B9FFF7BFFF18204443281903
:1030400000F1600600243769F568BD420AD2B46811
:10305000E41B4C4588BF4C46FFF7E2FF00F013F835
:1030600008BF0027ED1B4D4588BF4D4635B1706840
:10307000C1192A46FFF7D7FF2C19EF1904B13761A0
:103080002046BDE8F283B168E719A044A9EB040922
:103090008F427047DFF8FC500446287888469146F6
:1030A000704700002DE9F04100F037F808B9FFF74C
:1030B00083FF00F02AF807F11C0C03FB01FE5CF80B
:1030C0000E0018B13869491C8142F6DBD7F810C0F0
:1030D00061450CDA00F013F88461C5610662836211
:1030E00000244462C0F82C80BFF35F8F01E04FF0F2
:1030F000FF3100BF82F311880846BDE8F08103FB71
:1031000001F307EB030000237047EFF31182202047
:1031100080F311880021182370471E4F0446387829
:103120000D461646984670472DE9F04100F029F803
:1031300008B9FFF741FF032C0ED200F019F86032F6
:10314000002C01D000F00CF806985061BFF35F8F9F
:1031500081F31188002001E04FF0FF30BDE8F081DD
:10316000156056609760002010610023D36070479F
:10317000EFF31181202080F311881822624342442A
:103180007047DFF81080044698F800000D46164698
:103190001F467047543100205465726D696E616C32
:1031A000000000000000000000005454522052456E
:1031B0004747455300000000F0B400EB4003DFF840
:1031C000880000EBC30000F118063069F7687568E5
:1031D000874232D3B368DC1B631E934214D37D193C
:1031E000D019000011F8013B05F8013B521E05D033
:1031F00011F8013B05F8013B521EF3D1BFF35F8F7D
:10320000F0600120F0BC7047C018904219D37819C3
:10321000121B11F8013B00F8013B641EF9D1141C8C
:1032200005D011F8013B05F8013B521EF9D1BFF35F
:103230005F8FF4600120F0BC7047C01B401E9042BD
:10324000CDD20020F0BC704754310020F0B585B0DD
:1032500050260B9D25B986F3118800F08CFAFEE705
:103260000C9C24B986F3118800F085FAFEE75C27F0
:103270000097DDF800E0BEF15C0F04D086F3118802
:1032800000F079FAFEE7009E25630026022584F807
:10329000595004AF0A9D039602940197009500F0DF
:1032A00034F8204600F078F8049805B0F0BD2DE918
:1032B000F8430646174684B088469946B80001F0A0
:1032C000CFF805001CD05C2001F0CAF8040014D02F
:1032D0000020256384F85900039002940D980C99FE
:1032E000019000914B463A464146304600F00DF8B9
:1032F000204600F051F8012004E0284601F039F999
:103300004FF0FF3005B0BDE8F0832DE9F0470A9F8C
:1033100081460C461546386B9A46A522A900FEF751
:10332000C5FE396B01EB8502101FC0084FEAC008CB
:1033300008F0070007F1340554B10021625C6A54BB
:10334000605C10B1491C1029F8D30020E87300E03C
:103350002870089E372E88BF3726099CFE62AE6112
:10336000E861C6F13806381D01F05FF907F1180071
:1033700001F05BF93F61BE617F620020286200219D
:1033800087F8581052464946404600F085FB3860A1
:1033900004B12760BDE8F0872DE9FC4100F081F819
:1033A000DFF86C55DFF89085E86C401CE864142663
:1033B000A86A28BBAC62E86C012829D1002706FB6B
:1033C00007F0404401F024F97F1C382FF7D305F1B2
:1033D000780001F01DF905F18C07384601F018F965
:1033E000284601F015F905F1140001F011F905F175
:1033F000380001F00DF905F17800E8622F6307E06D
:10340000A86D28B9E06AA96ACA6A904228BFAC626E
:10341000A86E401CA866606464B12046FEF722FCDA
:10342000236B2068C01A009004F13401E26A204640
:1034300001F058F900F009FAE06A696D814238BF7D
:1034400068654643211D08EB060001F0F1F800F025
:10345000AEFBA86D30B100F0E7F903D200F0DAFA64
:1034600000F089F9BDE8F38110B5040016D0DFF84B
:10347000A014486F20B100F017F800F07CF9FEE7C7
:103480004A6F521C4A6721462320FEF765FA002145
:10349000204600F0C7FA00F057F808B900F066F9C6
:1034A00010BD044600F06ABB502181F311887047BB
:1034B00038B586B000210591049103AA04A905A896
:1034C00001F05CF9059804990FF27025DFF840448B
:1034D00002900022009201910023039A0FF2F13032
:1034E0002946FFF7B3FE2067F0B101F051F95021F2
:1034F00001281BD181F3118800F03DF94FF0FF3016
:10350000E0660121A165002020650522A06A294608
:10351000343001F0E7FA18B1A06AFEF7C0FB01E011
:10352000FEF79BFB00F0DAFA07B030BD10F1010F97
:10353000FAD181F3118800F01EF9FEE7DFF8D0031D
:10354000416F491C4167704770B5DFF8C463706F05
:103550000024002520B9FFF7A7FF00F00CF9FEE7D3
:1035600000F00CFB706F401E7067706F002838D140
:10357000F06CE0B935E0F068C46800F034F800F0B1
:1035800050F900F062F9E06A716D814238BF7065F0
:103590001423DFF8A4235843211D104401F048F8F8
:1035A000E06AB16ACA6A904224BF0121316630687C
:1035B0000028E0D10CB100F0D8F9F46D44B100F06E
:1035C00021F808B101203066641EF8D10020F065B2
:1035D000306E30B1DFF8AC144FF08050012500F0B0
:1035E000C9F800F010BA04F1180001F047B8DFF88C
:1035F0009804006D704780B500F004FBDFF8880484
:10360000006D02BD2DE9F843DFF80473786F0026E2
:10361000002853D13C6D641C3C6510D1F86A0068E9
:1036200020B1FFF741FF00F0A6F8FEE7F86A396B1A
:10363000F9623863786E401C786600F096F9F86E8F
:10364000DFF8F49284424FF0140828D320E0F96A9E
:10365000C868C568686884422ED300F0D8F9A86AA3
:1036600018B105F1180001F009F800F0D8F9E86A7E
:10367000796D814238BF786508FB00F0291D484408
:1036800000F0D6FFE86AB96ACA6A904228BF0126EC
:10369000F86A00680028DAD14FF0FF31F966B86A9D
:1036A000C06A08FB00F859F80810022928BF012653
:1036B000386E30B1012604E0F866F0E7F86D401C82
:1036C000F8653046BDE8F28310B5DFF84442606F1C
:1036D00010B10121216610BD2066616DDFF8AC23B9
:1036E00000E0491E14234B43D05830B90029F8D1CB
:1036F00000F028F800F03FF8FEE7D01800F10803CA
:103700004268526842609A4204BF52684260406810
:10371000C368A36261650522D4F8283007A103F1CC
:10372000340001F0DFF920B1A06ABDE81040FEF7D7
:10373000B6BABDE81040FEF790BA000049444C45C7
:1037400000000000502080F31188704710B50C462F
:1037500020B9FFF7F7FF00F00EF8FEE700F02CF8B5
:1037600000F073FF2046BDE8104009E0DFF81413B5
:103770004FF080500860BFF34F8FBFF36F8F7047DB
:10378000012100F04FB938B50D46144620B9FFF7B6
:10379000D9FFFFF7F0FFFEE700F00EF800F048FF5A
:1037A0000CB14FF0FF352420FEF7CFF82146284614
:1037B000BDE8344000F036B9DFF8CC22936A03F15B
:1037C0001801704738B5C068C46824B9FFF7BAFF5C
:1037D000FFF7D1FFFEE7FFF706FFDFF8AC52686F97
:1037E00050B900F01EF800F030F800F02AF838BFA9
:1037F0006A6500F00FF802E004F11801284600F0B5
:1038000017FF00F011F803D201212966012032BD13
:10381000002032BD1420DFF874324243211D981875
:103820007047201D00F02ABFA86AC16AE06A814281
:1038300070471420DFF854324243211D981800F0DD
:10384000F7BEE26A686D904270472046FEF72CBAD8
:10385000DFF834124A6E0260096D41607047F8B5B6
:1038600004460D46502024B980F31188FFF783FFEA
:10387000FEE725B980F31188FFF77DFFFEE700F032
:103880007DF9DFF80402016D62682E688B1A16F16B
:10389000010F0ED0476ED4F800C0674501D09142A9
:1038A0000BD2B34207D2F31A2B60416E2160006D38
:1038B0006060002402E000202860012400F077F915
:1038C0002046F2BDDFF8C0110120086670470000F5
:1038D00070B5194CDFF8B05111E000F04FF9286ACB
:1038E000C668301D00F0CAFEE86C401EE864686BD4
:1038F000401E686300F05BF9304600F01FF8686B0B
:103900000028EAD121680229F9D3FFF72FFFF6E753
:10391000F04200200146002000E0401C11F8012B7D
:10392000A52AFAD08003000C704710B9DFF85801BF
:10393000806A006BEEE700000C36002010B50446EC
:1039400094F8590040B9206B00F013FE2046BDE802
:10395000104000F00EBE10BD0128F7D00228FAD0AA
:10396000FFF7F0FEFFF707FFFEE7DFF81C11C86A5C
:10397000006810B94FF0FF3203E0C86AC268D0682F
:103980004268CA667047DFF80011886D08B90120E7
:103990007047486F08B9022070470020704738B55B
:1039A00004460021002C2CD0DFF8DC50A86A5022FD
:1039B000844204D082F31188FFF7DDFEFEE7206D1C
:1039C00020B982F31188FFF7D6FEFEE7E26AE36CC6
:1039D000401E9A42206514D098B9FFF722FF214675
:1039E0004A20FDF7B9FFE06CE062C0F13800A06149
:1039F000FFF72BFFFFF725FF38BF6A65FFF719FFB9
:103A00000121084632BD00F0D2F8284670BD281DBD
:103A100000F034BE1B4A4FF08051116070472846B9
:103A2000FEF742B9F8B5184D2F6D0C46A96A064647
:103A3000081D00F023FE16F1010F05D124B1A86A7C
:103A4000011D05F1380023E0A86AF619BE42466060
:103A50000AD2A86A0421FEF72CF9A86A011D286B76
:103A6000BDE8F44000F0F1BDA86A0421FEF721F999
:103A7000A86A011DE86A00F0E8FDE86E864238BFDA
:103A8000EE66F1BD04ED00E0F04200200C360020AF
:103A9000BDE8F44000F0CCBD490810B54900A0F1E4
:103AA00020034FF0807499611A60DC616FF00202AC
:103AB0000FF20D01596140F8242D203810BD00008F
:103AC0005D494A68502012F1010F80F31188BFF35D
:103AD0004F8FBFF36F8F00D0FEE7FEE77CB5574AEC
:103AE000574B10685021984202D100F0B7F8FEE71A
:103AF0001068544B984202D100F0B0F8FEE7524BE8
:103B00001C780194FF251D701E784B4C8DF80060C9
:103B10009DF8000000F050002070072005E09DF89F
:103B200000506D00401E8DF800509DF800502E068C
:103B3000F5D4454215F1030F03D0A06000F08EF8D4
:103B4000FEE7000200F4E060A06001981870116ABE
:103B500041F470011162106A40F07040106200F090
:103B6000D1FF0020606001F02BF83848016841F077
:103B70004041016001F014F8002076BD502080F330
:103B80001188BFF34F8FBFF36F8F2B494A68521CC8
:103B9000012A4A600AD12E490A68130606D080F32A
:103BA0001188BFF34F8FBFF36F8FFEE77047224935
:103BB000486838B9502080F31188BFF34F8FBFF3A6
:103BC0006F8FFEE7401E486008BF80F31188704782
:103BD00080B5502080F31188BFF34F8FBFF36F8FF4
:103BE000FEF701F8FFF70EFD30B1FEF721F8184996
:103BF0004FF08050086001E0FEF710F8002080F3DD
:103C0000118801BD10B5EFF30580502110280A4A34
:103C100007D3104B185C1478A04202D200F01EF8B3
:103C2000FEE790680C4A136803F4E063984202D2FE
:103C300000F014F8FEE710BD0800002000ED00E0E1
:103C400071C20F4170C20F4100E400E034EF00E0A8
:103C500004ED00E0F0E300E00CED00E081F31188FA
:103C6000BFF34F8FBFF36F8F7047000070B5040034
:103C70000D4602D100F099F8FEE7FFF77FFF206CB8
:103C8000E16B226800FB01F3491E484310441344D2
:103C9000A3600026A663E060626004F144004FF078
:103CA000FF310170417075B92069A0B104F11000B5
:103CB000FFF788FD78B1DFF898164FF08050086064
:103CC00000F017FA07E004F1100000F0A1FC04F185
:103CD000240000F09DFCFFF76AFF012070BD7CB559
:103CE0001C46502320B983F3118800F002FAFEE746
:103CF00024B983F3118800F0FCF9FEE72AB129B951
:103D000083F3118800F0F5F9FEE779B950250095A5
:103D1000009E502E0FD1009B34B1069B012584F8E4
:103D20004650009400F028F8204676BD83F31188B1
:103D300000F0DFF9FEE783F3118800F0DAF9FEE71F
:103D4000F8B505000E46174602D100F02EF8FEE742
:103D500006FB05F0503000F083FB04000AD0002081
:103D600084F8460000943B4604F150023146284650
:103D700000F002F82046F2BDF8B5069F05460C009B
:103D80001E460CBF3F603A60FD633C64012138462B
:103D9000FFF76CFF87F84C6033462246294601B096
:103DA000BDE8F0407320FDF709BE502080F3118874
:103DB000BFF34F8FBFF36F8F70472DE9F44783B088
:103DC00005460C461F46502625B986F3118800F09B
:103DD00090F9FEE70CB9286C70B9022F02D1E86B9C
:103DE00001280ED1FFF7CFFD80B9039870B186F39B
:103DF000118800F07EF9FEE786F3118800F079F96A
:103E0000FEE786F3118800F074F9FEE7A0462E461F
:103E10000024DFF840954FF0805A2CE003980028EA
:103E20004ED014B900F077F90124FFF7C0FEFFF778
:103E300085FBFFF7A3FE00F071F904BF00220270BA
:103E400000F064F904BF00224270FFF7B0FE00F0FA
:103E50005CF800284DD1FFF791FEB06BF16B884202
:103E600014BF00250125FFF7A2FE002D31D100F07F
:103E70003CF9FFF769FBFFF781FEB06BF16B8842FD
:103E800001D3022FCAD13046FDF760FF00F036F8AB
:103E90003A464146304600F0BAF9716A29B106F156
:103EA0002400FFF78FFC08B904E018B1C9F800A09E
:103EB00000F01FF9FFF77BFE012004B0BDE8F0879A
:103EC000FFF775FE3046FDF741FF00F017F80020C0
:103ED000F3E7039906F11000FFF738FC00F005F94D
:103EE000FFF732FB0028C6D1C9F800A000F001F9A5
:103EF000C1E700F0FAF8FFF727FBE3E7039B009721
:103F0000014642465A20FDF761BD03A901A8FFF70B
:103F1000A6BC2DE9F04704000E4615461F464FF09B
:103F2000500804D188F3118800F0E3F8FEE70EB9D9
:103F3000206C70BB022F02D1E06B01282ED1FFF75D
:103F400061FEEFF3118A88F3118800F05AF9E26BF1
:103F50009142204601D3022F2BD194F94590A16BB9
:103F6000FDF7F4FE00F02EF83A463146204600F008
:103F70004EF919F1010F16D1606AC0B104F12400A5
:103F8000FFF720FC002818BF002D10D0012028606A
:103F90000DE088F3118800F0ACF8FEE788F3118893
:103FA00000F0A7F8FEE709F1010984F84590012027
:103FB00004E0FDF7CBFE00F005F800208AF311883D
:103FC000BDE8F08701462A466020FDF7D7BC2DE901
:103FD000F64383B006460F460024502526B985F3E4
:103FE000118800F086F8FEE70FB9306C48B9FFF78A
:103FF000CAFC78B9049868B185F3118800F079F8A3
:10400000FEE785F3118800F074F8FEE700F06DF824
:10401000FFF79AFAFFF7B2FDB56BDFF83883002D92
:104020004FF0805932D1049800284AD014B900F0DA
:1040300072F80124FFF7BBFDFFF780FAFFF79EFD42
:1040400006F14400415711F1010F04BF0022027034
:1040500000F05CF804BF00224270FFF7A8FD04A93D
:10406000FFF754FF0028304635D100F04CF9002806
:10407000CCD000F046F800F038F8FFF765FA0028D9
:10408000C8D1C8F8009000F034F8C3E7394630468C
:1040900000F0F1F800F055F800F047F800F049F8AA
:1040A0006D1EB563306940B106F11000FFF78AFB61
:1040B00018B1C8F8009000F01CF8FFF778FD012057
:1040C0001CE0FFF774FD00F03CF800F02EF800F063
:1040D00030F80020F4E700F0E2F8FFF735FA304658
:1040E00000F011F9002895D0EDE73046D7E087F3CE
:1040F0001188BFF34F8FBFF36F8F704705B0BDE8D6
:10410000F083049906F12400FFF720BB90F9011019
:1041100011F1010F704701A8FFF79ABB06F14400A7
:1041200090F9001011F1010F704704463046FDF779
:104130000DBE012100910146049B22465C20FDF743
:1041400045BC0020FDF702BE2DE9F84F054650267C
:1041500025B986F31188FFF7CCFFFEE70800009130
:1041600001D1286CF8B91446FFF74CFDEFF3118923
:1041700086F31188FFF7BDFFAE6B0098A046AB46F3
:10418000B6B9FDF7E3FD05465846FDF7DFFD0146EC
:1041900043462A466220FDF711FC002489F311886A
:1041A0002046BDE8F28F86F31188FFF7A2FFFEE7F5
:1041B00095F94470FDF7CAFD82465846FDF7C6FDE5
:1041C0000146434652466220FDF7F8FB0099284617
:1041D00000F051F8761E17F1010FAE630CD128697B
:1041E00068B105F11000FFF7EDFA002818BF002CA8
:1041F00005D00120206002E07F1C85F84470012476
:10420000CCE7BFF34F8FBFF36F8FA16B7047F8B54B
:1042100006461546B46B326C002742B9306830BB95
:10422000B068FFF7BCFB00210746B1601FE065B92D
:10423000706800F009F97068316CB2680844904207
:10424000706014D33068706011E0F06800F0FCF822
:10425000306CF16840420144F1603268914202D210
:10426000B1680844F060022D01D104B1641E641CE1
:10427000B4633846F2BD026C002A0B4600D1704789
:1042800010B5C16884681144C160A14224BF0168AF
:10429000C160C168BDE81040184600F0D5B8F8B557
:1042A0000546FFF76BFC05F1440494F9016007E053
:1042B00005F12400FFF786FA08B1FFF703FB761E2D
:1042C00070B2012802DB686A0028F1D14FF0FF3696
:1042D0006670FFF76CFCFFF751FC94F9007007E083
:1042E00005F11000FFF76EFA08B1FFF7EBFA7F1E39
:1042F00078B2012802DB28690028F1D12670BDE8D8
:10430000F140FFF754BC10B50446FFF737FCA06B33
:10431000441EA441FFF74BFCE00F10BD10B50C4646
:1043200000220D4B53F8321019B1521C082AF9D350
:1043300010BD03EBC20143F832404860FDF706FDB3
:104340002246BDE8104001467120FDF717BB000072
:1043500004ED00E004ED00E03C440020F8B5044624
:104360000D461646FFF70AFC04F1380797F90C00D2
:1043700010F1010F04BF0021397397F90D0010F1FE
:10438000010F04BF00217973FFF711FC386828B9C9
:104390003246294604F12400FFF7F5F92046BDE82E
:1043A000F2407CE778B504461D481E4D87B0016891
:1043B00041F00101016001A9006800F001000090D6
:1043C00002A8009AFEF7B8FDFEF7A9FD4FF0804164
:1043D000154B2960B0FBF3F0401E40F2E7326860F5
:1043E0000021EA602961A9602846FDF76FFF0600F9
:1043F00012D12846FDF777FF06000DD11C20FCF7EF
:10440000B0FD102C07D2002221461C20FCF78CFDA9
:104410000648046000E00126304608B070BD000088
:1044200058100240F043002040420F0018000020C6
:1044300070477047704770477047704770477047C4
:1044400070477047704700004AB1000011F8013B07
:10445000521E00F8013B1CBF11F8013BF8E7704702
:104460002DE9F8430446FFF769F8684FB8684FF044
:104470000009002508BB07F1200307F1200113F014
:10448000070F4FF440600A4605D0CA1DD208D2007B
:10449000C2F54060081880180838C008C0003A60AB
:1044A0007D60B86045600560831A53601060506895
:1044B0003861F8604FF00040F8614FF05008F8693B
:1044C000044246D1002C44D0083414F0070F04D025
:1044D00004F1080004F00704041B002C39D0F8682C
:1044E000A04236D33E68394601E031460646706840
:1044F000A04202D230680028F7D1B868864228D09E
:104500000A683068086002F108097268121B112AF3
:104510000CD3311911F0070002D000F023F8FEE7A8
:10452000301D02517460084600F04DF87168F8685B
:104530003C69401AF860FA68A24288BF2246F869CE
:104540003A6101437160356009F007057869401CE4
:104550007861FEF7F9FF15B100F004F8FEE7484670
:10456000BDE8F28388F31188BFF34F8FBFF36F8FDD
:104570007047002800D1704738B5A0F10805234CDA
:104580006968E2695023114204D183F31188FFF76F
:10459000EBFFFEE7286820B183F31188FFF7E4FF03
:1045A000FEE791436960FEF7C9FFE168686841185A
:1045B000E160284600F007F8A069401CA061BDE852
:1045C0003140FEF7C1BF30B510490A4600E01A4637
:1045D00013688342FBD35368D418844203D14068E4
:1045E000C3185360104643681468C518A54208D123
:1045F00089688C4204D06168CB184360246800E06D
:104600000C460460824218BF106030BD1C200020A0
:104610004FF0FF3200F1080182604160C16000F19B
:1046200008020261002101607047002101617047AA
:1046300010B542684A6093688B60946861609160CD
:1046400008610168491C016010BD30B50A6812F1AB
:10465000010F08BF036907D000F1080300E02346FB
:104660005C682568AA42FAD25A684A6091608B60F9
:10467000596008610168491C016030BD43680169E7
:1046800082689A60836842685A604A68824204BFBE
:1046900083684B60002202610868401E0860086859
:1046A000704700007CB50024234D0FE014222349FD
:1046B00062438E18641C3068FFF737F93061009050
:1046C000F368B2687168306800F03CF8286884428A
:1046D000ECD373BD80B5FEF78EFF4FF47A71A1FB6A
:1046E000000104BDF8B505460C4616461F460522D6
:1046F00020A1204600F0F6F9E8B10F490A68082A1F
:1047000004D3BDE8F2400E48FDF771BB4FF0140C26
:104710000A4B06980CFB02FC6344521C1D605C6053
:104720009E60DF6018610A6000903B463246214679
:10473000284600F007F8F1BD9444002050420020C4
:10474000BC4E00082DE9F84185B006460F460C9C8A
:1047500090461D4614216846FCF76EFC00960197B2
:10476000CDF80880039504946846FDF7D9F906B0A2
:10477000BDE8F08149444C4500000000034B036054
:1047800003F15C000860802111607047C83E002082
:1047900010B586B000F072F9DFF83043A068C0B100
:1047A00000210591049103AA04A905A800F016FAB6
:1047B0000598049902900222009201910023039A25
:1047C0000FF210310FF28100FEF740FD0028E0608B
:1047D00005D1502181F3118800F00AF8FEE701208D
:1047E00006B010BD2046BDE8F681502080F3118848
:1047F000BFF34F8FBFF36F8F7047F8B5044684B097
:104800001E46002014B9FFF7F0FFFEE7DFF8BC7288
:10481000BD68BDB106290091019202940CDAFFF740
:10482000B2F8022807BF0A9A002300230022B868C2
:104830006946FFF7C2FA05E000233246694628467A
:10484000FFF767FB05B0F0BDF8B586B09F4D29684E
:10485000086810B90124002602E0C8680668002430
:10486000FEF76CFE01A800F0B4F807460198002896
:104870003FD154BBB7422DD3FEF766FE2868C1680E
:10488000CC68201DFFF7FAFE94F82800410717D5E1
:10489000A16933463A468919204600F0D5F840B15F
:1048A000002000900023324600212046FFF7A5FF9C
:1048B00018B1216A2046884725E0FFF796FFFEE7FA
:1048C00000F0FE0084F82800F3E7686801684C1ED9
:1048D000A441E40FA8682246F11BFFF73FFDFEF755
:1048E00033FE80B97A494FF080500860FFF780FFAF
:1048F00009E0FEF729FE06E094F8280081073BD482
:104900002046FFF736FEA868002202A9FFF75FFBEA
:1049100000289CD00298002803D505990498039A92
:10492000904702980028EED4049C606910B1201DC5
:10493000FFF7A4FE01A800F04CF802990929E2D87B
:10494000DFE801F02121211A070621211A07DAE701
:10495000D2E794F8282042F0010284F82820039935
:10496000A16131B1034602460918204600F06CF8F7
:10497000C9E7FFF73AFFFEE794F8280000F0FE00D1
:1049800084F82800BFE794F8281041F0010184F86A
:10499000281002460399A0690B464118204600F0F2
:1049A00053F80028AFD0216A2046884794F82800A1
:1049B0004107A8D5002000900023039AA06982181F
:1049C00000212046FFF719FF00289CD1FFF70DFFBB
:1049D000FEE72DE9FC410646FEF709FE3B4D044685
:1049E0002869844209D3002131602C61FAE678609D
:1049F0003F61391D2868FFF728FE29680868F0B173
:104A0000C868D0F80080C768381DFFF737FE396ADC
:104A10003846884797F828004107EED5B8694044E2
:104A20008045E4D300200090002342460021384610
:104A3000FFF7E3FE0028E0D1FFF7D7FEFEE7686846
:104A4000696028600121CFE738B500248A424160BF
:104A500000611E4D06D38169D21A8A4206D2011D19
:104A6000686807E09A4203D2994201D3012403E027
:104A7000011D2868FFF7E9FD204632BD1CB5FFF790
:104A80007DF8124CA068E0B904F11400FFF7C0FDF6
:104A900004F12800FFF7BCFD04F1140004F1280123
:104AA000002220606160009204F13C0304F18C025A
:104AB00010210A20FFF713F9A06010B107A1FFF73A
:104AC0002DFCBDE81340FFF772B800002441002020
:104AD00004ED00E0546D722053766300546D725102
:104AE0000000000003000020521E22BF13F8010B3B
:104AF00011F801CBB0EB0C00F6D0521C08BF1046E9
:104B0000704700000748084B0021016000228260C6
:104B10004FF47A721968B1FBF2F2521E426007211B
:104B20000160704710E000E020000020EFF30980F2
:104B3000BFF36F8F264B1A681EF0100F08BF20EDD1
:104B4000108A20E9F04F106009B44FF0500080F354
:104B50001188BFF34F8FBFF36F8FFEF7B5FD4FF096
:104B6000000080F3118809BC19680868B0E8F04FAC
:104B70001EF0100F08BFB0EC108A80F30988BFF355
:104B80006F8F7047124B19680868B0E8F04F80F3D8
:104B90000988BFF36F8F4FF0000080F311887047D2
:104BA0000C480068006880F308884FF0000080F32C
:104BB000148862B661B6BFF34F8FBFF36F8F00DF0B
:104BC000DFF81400016841F47001016070470000D3
:104BD0001843002008ED00E088ED00E0044B03607E
:104BE00003F15C0008604FF480711160704700BFF2
:104BF0006C3A002013F0004C03D55B42524263F143
:104C000000039CEA210C00F0178010B5644603D322
:104C10004942404261F1000100F00EF8640004D303
:104C20004942404261F10001244203D55B425242B5
:104C300063F1000310BD0000D3BBD9B1B2F5803FD2
:104C40005BD2022A1ED98C46B1FBF2F102FB11C3E2
:104C50001B0443EA1043B3FBF2FC02FB1C3380B29B
:104C600040EA0343B3FBF2F002FB103240EA0C408F
:104C700000237047022A05D98446B0FBF2F002FBFC
:104C800010C270474AB105D100F0010249085FEA3D
:104C90003000704700220023704700F051B80B002D
:104CA0000200002100207047F7D300220023704744
:104CB000904271EB030CF2D370B5B1FA81F4B3FA00
:104CC00083F52C1BA340C4F1200532FA05F63343CB
:104CD000A2405FF00046E64002E05B085FEA320275
:104CE000841A71EB030524BF204629467641F4D38C
:104CF00002000B003000002170BD70B5B1FA81F4E4
:104D0000B2FA82F5C4F120046419B4F12006DAD3B2
:104D1000B2405FF00044F440002502E052085FEA30
:104D20003303C61A71EB020E24BF3046714664414C
:104D30006D41F3D302000B002000290070BD00007C
:104D40007047000038B5002840DDB0FA80F2A2F1CB
:104D500011031BB2DC0752BF984003F1FF029040E1
:104D60001D4A00B2054600EE105ABAEE600A8DEDFB
:104D7000000AC403009DA2EB6502009224149DED7D
:104D8000000ABEEEC90A10EE102A12B200F026F890
:104D900000F024F812FB02F56D002D1414FB05F44D
:104DA00064002414C4F540546243D21392041214D4
:104DB0005043C01340040014DA0748BF5B1E03EBE6
:104DC000D3735B1018410880002032BD002008809A
:104DD0004FF0FF3032BD0000DF59375F12FB02F5A4
:104DE0006D002D1465436D002D14C5F540556A43C3
:104DF000D21392041214704768510008000000009A
:104E000000000000000000000000000000020000A0
:104E100018000000000000000000000048510008D9
:104E20000000000000000000000000000000000082
:104E3000000200003600000000000000000000003A
:104E40007451000800000000000000000000000095
:104E50000000000000020000080000000000000048
:104E600000000000F8B503460F4600240025B808EE
:104E700008E01E68191DC6FBC6450E680B1DC6FB63
:104E8000C645401EF5D117F0030004E033F9021BBC
:104E9000C1FBC145401EF9D11646204629463A4677
:104EA0000023FFF7A7FEC00B40EA41403146BDE8B2
:104EB000F44000F30F00FFF745BF0000535953546F
:104EC000454D564945573A20436F756C64206E6FC7
:104ED00074207265636F7264207461736B20696EF5
:104EE000666F726D6174696F6E2E204D6178696DA9
:104EF000756D206E756D626572206F6620746173CA
:104F00006B7320726561636865642E00F8B50F4CA1
:104F10000F4D104E104F05E02A464FF4FA6120461F
:104F2000FFF7A0FF30684FF0FF3300223946FDF74E
:104F300088F8FDF70AF938880100EDD00128F1D191
:104F40002A464FF4FA6104F57A60E9E7DC000020B4
:104F500098440020884400209A44002030B4002562
:104F600012E050F8042BD30744BF4A44521E091FD5
:104F7000042942F8045BFAD213468C0744BF15801B
:104F80009B1CC90748BF1D7050F8041B0029E8D1BD
:104F900030BC70474E3D4672656552544F532044B5
:104FA000656D6F204170706C69636174696F6E2C00
:104FB000443D436F727465782D4D342C4F3D4672DD
:104FC000656552544F53000010B5074979441831B4
:104FD000064C7C44163404E00A68081D11448847D6
:104FE0000146A142F8D110BD500000007000000041
:104FF000000100000008004800000000AAAAAAAAB8
:10500000000000000000000010000000010000008F
:105010000024F4004EF68851CEF20001086840F4F6
:1050200070000860BFF34F8FBFF36F8F4FF00170B8
:10503000E1EE100A7047000025FFFFFF7C440000EE
:1050400024000020000000003BBAFFFF2400000005
:10505000A0FFFFFF0000002000000000FEE7FEE7C9
:10506000FEE7FEE7FEE770470248FBF766BE024830
:10507000FDF7A2B990430020F043002002480168E8
:1050800041F470010160704788ED00E0000000000D
:1050900000000000010203040607080900F00DF8F3
:1050A000002801D0FFF790FFAFF300800020AFF39E
:1050B000008000F004F800F007F80120704780B588
:1050C000FCF704F9002002BD00F000B8074638469E
:1050D00000F002F8FBE7000080B5AFF30080024A61
:1050E00011001820ABBEFBE7260002000548014670
:1050F00003B4684680F30988AFF30080FFF78AFFA6
:10510000FFF7CCFFA5EDF5FE10B54CF25034FDF7DE
:1051100022F8641EFBD14FF4FA70FCF71AFFF4E793
:1051200043616C63756C6174696F6E4E6F74696610
:105130007900000010B5C824FDF70DF8641EFBD1FE
:105140000120FCF706FFF6E741435F43616C63759E
:105150006C6174696F6E54000148804701480047D4
:105160007D500008ED500008686967685072696FEB
:10517000000000006D656469756D5072696F000014
:10518000D5460008A54600080000000001020304FF
:10519000FFF7FEBFFFF7FEBFFFF7FEBFFFF7FEBF43
:1051A000FFF7FEBFFFF7FEBFFFF7FEBFFFF7FEBF33
:1051B000FFF7FEBFFFF7FEBFFFF7FEBFFFF7FEBF23
:1051C000FFF7FEBFFFF7FEBFFFF7FEBFFFF7FEBF13
:1051D000FFF7FEBFFFF7FEBFFFF7FEBFFFF7FEBF03
:1051E000FFF7FEBFFFF7FEBFFFF7FEBFFFF7FEBFF3
:1051F000FFF7FEBFFFF7FEBFFFF7FEBFFFF7FEBFE3
:10520000FFF7FEBFFFF7FEBFFFF7FEBFFFF7FEBFD2
:10521000FFF7FEBFFFF7FEBFFFF7FEBFFFF7FEBFC2
:10522000FFF7FEBFFFF7FEBFFFF7FEBFFFF7FEBFB2
:10523000FFF7FEBFFFF7FEBFFFF7FEBFFFF7FEBFA2
:10524000FFF7FEBFFFF7FEBFFFF7FEBFFFF7FEBF92
:10525000FFF7FEBFFFF7FEBFFFF7FEBFFFF7FEBF82
:10526000FFF7FEBFFFF7FEBFFFF7FEBFFFF7FEBF72
:10527000FFF7FEBFFFF7FEBFFFF7FEBFFFF7FEBF62
:10528000FFF7FEBFFFF7FEBFFFF7FEBFFFF7FEBF52
:10529000FFF7FEBFFFF7FEBFFFF7FEBFFFF7FEBF42
:1052A000FFF7FEBFFFF7FEBFFFF7FEBFFFF7FEBF32
:1052B000FFF7FEBFFFF7FEBFFFF7FEBFFFF7FEBF22
:1052C000FFF7FEBFFFF7FEBFFFF7FEBFFFF7FEBF12
:1052D000FFF7FEBFFFF7FEBFFFF7FEBFFFF7FEBF02
:1052E000FFF7FEBFFFF7FEBFFFF7FEBFFFF7FEBFF2
:1052F000FFF7FEBFFFF7FEBFFFF7FEBFFFF7FEBFE2
:10530000FFF7FEBFFFF7FEBFFFF7FEBFFFF7FEBFD1
:0C531000FFF7FEBFFFF7FEBFFFF7FEBF78
:04000005080050EDB2
:00000001FF
