:020000040800F2
:10000000183E002065420008794100087B41000845
:100010007D4100087F410008814100080000000088
:10002000000000000000000000000000353D000856
:100030008341000800000000DD3C0008B516000800
:1000400095420008994200089D420008A14200081C
:10005000A5420008A9420008AD420008B1420008CC
:10006000B5420008B9420008BD42000885410008B9
:10007000C1420008C5420008C9420008CD4200083C
:10008000D1420008D5420008D9420008DD420008EC
:10009000E1420008E5420008E9420008ED4200089C
:1000A000F1420008F5420008F9420008FD4200084C
:1000B0008B4100080143000805430008094300087C
:1000C0000D430008114300081543000819430008B8
:1000D0001D43000821430008254300082943000868
:1000E0002D43000831430008354300083943000818
:1000F0003D430008414300084543000849430008C8
:100100004D43000851430008554300085943000877
:100110005D43000861430008654300086943000827
:100120006D430008714300087543000879430008D7
:100130007D43000881430008854300088943000887
:100140008D43000891430008954300089943000837
:100150009D430008A1430008A5430008A9430008E7
:10016000AD430008B1430008B5430008B943000897
:10017000BD430008C1430008C5430008C943000847
:10018000CD430008D1430008D5430008D9430008F7
:10019000DD43000800000000E1430008E5430008DB
:1001A000E9430008ED430008F1430008F543000867
:1001B000F9430008FD430008014400080544000815
:1001C000094400080D4400081144000815440008C3
:1001D000194400081D440008603000EB81000068ED
:1001E00000F0F8407047603000EB8100016821F0BA
:1001F00000410A4302607047C06800F44060401E3E
:100200008041C00F7047CB0D10B5143003F00403CC
:100210001818090D01F01F01036807248C40A3433F
:1002200002FA01F11943016010BDF8B5044600203F
:10023000002600900CB90120F2BD04F15805686851
:1002400028B9204600F050FC0020A86028702168E2
:100250008868800004D58A68DFF8E80202408A6076
:1002600021688868C00017D48A68DFF8DC02024081
:1002700042F080528A60DFF8D412DFF8D422086896
:10028000B0FBF2F2521C5200009202E00098401EB5
:10029000009000980028F9D121688868C00008D42F
:1002A0006A6842F010026A600126A86840F0010006
:1002B000A86088686A68D30600D4400700F1A2806D
:1002C0006A6822F4807242F002026A608868C0079D
:1002D00016D4DFF88022B1F1A04F18BF914200F090
:1002E00098F80DD1B1F1A04F16BF9142DFF8681216
:1002F000DFF868120A68606822F47C1202430A6020
:1003000004F12402607F9369E168177843EA40337F
:10031000A0680B430343012F43EA074303D150680E
:10032000401E43EA4043906820B100F478700343D4
:10033000D06803432168DFF82802CF6807403B43B9
:10034000CB6021680B69106923F0406303430B61A4
:1003500021688B6888685B0740D400073ED4CB686F
:10036000DFF80002277F0340107D43EA873343EA2A
:100370004003CB6020690028206801690CD041F45B
:10038000803101612168D1F8C03020699B0B40EABF
:100390008333C1F8C03009E021F480310161206865
:1003A000D0F8C010890B8903C0F8C010107F012855
:1003B0000FD123681F69106A516A6FF38A070743D8
:1003C000906A0F43D16A07430F4347F001071F614B
:1003D00004E0206801694908490001616069012859
:1003E0002068016B05D1226A0909521E42EA0111F7
:1003F00001E00909090101630120696860F3010155
:10040000696004E0686840F01000686001263046CA
:10041000F2BD07D1DFF85001DFF8503100681B68EA
:1004200018430AE0DFF84801DFF8483100681B682C
:10043000DFF844713F681843384310F001007047FB
:100440002DE9F84305460E462868DFF808819146F5
:10045000B0F1A04F16BF4045DFF8FC10DFF8FC10EC
:100460000C688168490704F01F045DD405F1580742
:100470003A78012A58D00121DFF84425397090429A
:1004800018BF002C03D0052C18BF092C48D12846D2
:1004900000F059FA010040D17968DFF80405014005
:1004A00041F480717960286840451CBFDFF8CC10AA
:1004B000884200D11CB9786820F480107860786890
:1004C000C10446BFB86820F006000020B8604B4663
:1004D000686D0FF22551C162686D0FF28951016399
:1004E000686D0FF2895141631C212A681160002058
:1004F000387032462868416841F010014160286830
:10050000C16841F00101C160286800F14001686DD7
:1005100000F0CAFB00F00BF807E00021397004E09E
:10052000002201203A7000E00220BDE8F2832A6830
:10053000DFF8901493680B4043F004039360704716
:1005400000000000C0FFFF5FC0FFFF7F1800002019
:10055000400D030000010050080300500807005040
:100560000740F0FFFDBFFFFF0800005008010050EA
:10057000080400500805005008060050000500500F
:10058000F8B50646002006F158050F4600900024F5
:100590002978012901D10220F2BD0120287030689C
:1005A0008168490700F1AD817A6839689309303074
:1005B00003F00C03181802F01F02D0F800C01F232C
:1005C0009340C1F384612CEA030301FA02F21A4357
:1005D000026030688268816852074DD409074BD4A5
:1005E000BA68B2F1004F08D139680022FFF70BFE5C
:1005F0003068416941F0004106E03968FFF703FEC9
:100600003068416921F0004141613068C1683A6950
:10061000042A32D060303B6800EB820CDFF8AC0378
:10062000DCF80020024003F0F8431343C9087A695C
:10063000480000F006008240134343F00043CCF82A
:10064000003031683A69B869603101EB82010B68AA
:1006500023F0807318430860387F01280CBF4FF0E7
:100660000070002031683A69603101EB82010B684B
:1006700023F000731843086078E00021FFF7ACFD19
:1006800040033068214604D1FFF7A6FDC0F3846023
:1006900003E0FFF7A1FD00F045F939684A030EBFFA
:1006A000C1F3846191FAA1F1B1FA81F1884204D1D8
:1006B000306800220021FFF796FD00F040F940036A
:1006C00004D100F03CF9C0F3846003E000F037F996
:1006D00000F028F939684A030EBFC1F3846191FA2A
:1006E000A1F1B1FA81F1884204D1306800220121E0
:1006F000FFF779FD00F01FF9400304D100F01BF96A
:10070000C0F3846003E000F016F900F00BF93968DB
:100710004A030EBFC1F3846191FAA1F1B1FA81F1EC
:10072000884204D1306800220221FFF75CFD00F00E
:10073000FEF8400304D100F0FAF8C0F3846005E04D
:1007400000F0F5F890FAA0F0B0FA80F039684A03AA
:100750000EBFC1F3846191FAA1F1B1FA81F188422F
:1007600004D1306800220321FFF73DFD3068816825
:10077000C9075ED4FB68DFF8582239689342D0F885
:10078000B030C1F312010CBF194323EA0101C0F8D4
:10079000B010F86890424CD1386841030EBFC0F3E6
:1007A000846290FAA0F1B1FA81F2521C012102F0A8
:1007B0001F020A2A1BD2420306D1C0F38462C0F38F
:1007C0008463C0F3846001E000F0A5F8521C5B1C58
:1007D000920603F01F03401C02F0F842994000F01B
:1007E0001F00114300EB400041EA00511DE04203AD
:1007F00006D1C0F38463C0F38462C0F3846001E077
:1008000000F089F85B1C521C401C9B0602F01F0282
:1008100000F01F0003F0F84391400A38194300EB41
:10082000400041EA005141F00071BA683068FFF7BA
:10083000EAFC3868DFF89C11084267D03168DFF8BD
:100840009821DFF89831DFF88071B1F1A04F16BF21
:10085000B94216461E463668DFF884C106F0E076D7
:1008600060451CBFDFF87CE1704524D15FEA062CAF
:1008700021D4B1F1A04F04D0DFF84401814245D129
:100880001A461168DFF8600121F0E0710E4346F46A
:10089000000616600168DFF85421B1FBF2F2521C29
:1008A0000C2042430092009800281EBF0098401E72
:1008B0000090F8D12AE0DFF838E170450DD1F00161
:1008C00024D4B1F1A04F1CBFB9421A46106820F0E1
:1008D000E070064346F0807611E0DFF818C160450D
:1008E00014D1700212D4B94210D0B1F1A04F18BF88
:1008F0001A46106820F0E070064346F48006166041
:1009000004E0686840F0200068600124002028703E
:100910002046F2BD000090FAA0F0B0FA80F2134633
:100920001046704790FAA0F0B0FA80F07047306837
:100930000321FFF751BC30680221FFF74DBC30683E
:100940000121FFF749BC70B5044621688868C207D9
:1009500023D488686FF39E10F0B98868194D284039
:1009600040F00100886000F0A1FA064620680168A6
:10097000CA0712D48068C00705D42068816829405E
:1009800041F00101816000F091FA801B0328EDD352
:1009900020680168CA07E9D404E0002070BD0000A7
:1009A000FEF1FFFFE06D40F01000E06500F001F89F
:1009B00070BD206E40F001002066012070470000ED
:1009C00000060050C0FFFF7F0001005000F0FF0351
:1009D00000007F4000000880080300500807005016
:1009E000000021C31000C09018000020400D03003B
:1009F000000052C7000084CB10B5846AE16D11F08D
:100A0000500F22D1E06D40F40070E0652168086865
:100A10000207084606D5FFF7EFFB88B12068C168DA
:100A2000880401E0C16888070AD4E16D21F480716F
:100A3000E165E06DC10403D4E06D40F00100E065C4
:100A40002046BDE8104000F03CBAE16DCA0604D56E
:100A50002046BDE8104000F045BA616D4A6BBDE824
:100A600010401047806A00F027BA0000806AC16D0C
:100A700041F04001C165016E41F00401016600F0E2
:100A800031BA0EE002684368024408305FEAC37C72
:100A900044BF4B445B1E52F804CB43F804CB091F00
:100AA000F9D150F8041B0029ECD1704780B54248B9
:100AB000816841F001018160816801F001010091CC
:100AC0000099026842F0805202600022006800F043
:100AD000805000900F2100986FF0010000F01EFA86
:100AE000BDE8014000F091BA30B59BB00446142136
:100AF00001A800F09BFA542106A800F097FA20689C
:100B00002E49884245D14FF480324FF00041069281
:100B1000189106A800F08EFA08B100F0DAFC284817
:100B2000284D016841F480410160026802F480426E
:100B300000920099026842F00202026002210068FD
:100B400000F002000090032200981F4801910292D9
:100B50000021039101A900F0BFFC252169608021DB
:100B60001A48286029614FF4807068614FF48061F1
:100B7000A96120200022E8614FF44051AA60EA6098
:100B80002962284600F026F808B100F0A2FC65654D
:100B9000AC621BB030BD81B000680D49884209D1FC
:100BA0000548026842F002020260006800F002009C
:100BB0000090009801B070475810024000040050A7
:100BC0004C10024014390020000400480800024084
:100BD0000004004038B5040001D1012032BD216875
:100BE000DFF8A422914204F1240500F044F8022128
:100BF000697020680268A068E16823686FF30E12CC
:100C0000024320690A4361690243A0690A43E1691A
:100C10000243206A0A4302431A60204600F00BF99F
:100C2000A068B0F5804F04BF00216160696A207937
:100C300000F014F838B1052805D2204600F016F966
:100C400000F012F803E0002028636863A863002125
:100C5000A961012068702970002032BD0860A96A6E
:100C6000E86A486060687047296B00200860696B1B
:100C7000A86B486070470BD2DFF8100241181423AC
:100C8000B1FBF3F18900DFF808222962EA617047BD
:100C9000DFF8000241181422B1FBF2F18900DFF8FD
:100CA000F8012962E8617047F8B5044604F12406AA
:100CB00000253078012801D10220F2BD01203070DA
:100CC0007778012F30D1022070700027B76120683B
:100CD000D0F800C04FEA5C074FEA470CC0F800C0EC
:100CE000204600F08CF82168F06820B10A6842F0D4
:100CF0000E020A6008E0086820F00400086020681E
:100D0000016841F00A010160706A0168CA0301D5F7
:100D100000F00EF8306B08B100F00AF820680168A6
:100D200041F00101016001E0357002252846F2BD65
:100D3000016841F4807101607047F8B500F1240149
:100D40000423CA6914680268156891F8206006F0E7
:100D50001F0603FA06F73C4210D06F070ED5146841
:100D6000A50603D4146824F00404146000F03EF8CF
:100D7000C968002939D0BDE8F4400847022303FAC6
:100D800006F73C4213D0AF0711D51468A50605D469
:100D9000146824F00A04146001224A7000F026F856
:100DA00000220A70896801B3BDE8F44008470823AF
:100DB00003FA06F6344218D02B0716D5146824F02F
:100DC0000E041460012291F82030CC6903F01F0357
:100DD0009A406260012301228A614B7000220A70EE
:100DE000096911B1BDE8F4400847F1BD91F8202030
:100DF000CC6902F01F02934063607047000070B539
:100E0000C56C046D6C60446D14B1856DC46D6C600F
:100E1000012490F84450066C05F01F05AC40746046
:100E2000046863608068102802D1A260E16070BD30
:100E3000A160E26070BD10B50168134B174A99427A
:100E400028BF2032446C01F0FF01A40808391423A4
:100E500002EB8402B1FBF3F18264012301F01F0174
:100E60000F4AC26403FA01F1016510BD01790D4A10
:100E70000D4B836502EB81024265491E012201F0A0
:100E80001F018A40C265704708040240F8FFFDBF99
:100E900000000240F8FBFDBF0004024000080240D1
:100EA00080080240FC0802404009024001480068F6
:100EB000704700BF0C00002010B50849084C002006
:100EC00003E010B50549064C012008800023206886
:100ED000BDE81040002200F0ADBC0000163A002032
:100EE0000C3A00207047FEE70901020002D41F48B7
:100EF000815470471E4B02F00F021A4402F8041C82
:100F000070471C4B19684FF6FF020002114000F4B5
:100F1000E0600843184908431860704770B5154BE6
:100F20001C68C4F302230124C3F10705052D2EBF5D
:100F30000F2504FA05F56D1E1E1D072E34BF002374
:100F4000DB1E2940994004FA03F3BDE870405B1EA4
:100F50001A401143C8E7010007D4012200F01F0125
:100F6000064B8A40400943F82020704700E400E027
:100F700018ED00E00CED00E00000FA0500E100E0F3
:100F800030B53222DFF89830DFF89050DFF8881063
:100F9000012448B900F01DF820F48070286016D1B3
:100FA00000F01EF80CD412E0B0F5007F0AD100F07A
:100FB00010F840F48070286009D100F011F806D5CF
:100FC000032030BD0A68022060F34A220A60002034
:100FD00030BD086800F4C060B0F5806F28687047C5
:100FE000086864F34A2008601B68DFF838405A43F9
:100FF000B2FBF4F0401C00E0401E4A69530501D5E5
:101000000028F9D14869410570470748016841F453
:101010008041016070470000007000408070004017
:101020001800002040420F0008700040002200F02D
:101030005DBCFEE72DE9FC4705464FF00008286837
:10104000DFF87062DFF87072010353D5F06CC100F5
:10105000C1460AD4F06C40F08050F0644FF00109B2
:10106000F06C00F0805000900098DFF8504220684B
:1010700040F480702060FFF719FF82462068C105A8
:1010800006D4FFF713FFA0EB0A000328F6D321E0F4
:10109000386810F440701CBF296D88420BD0386846
:1010A000396841F48031396020F440703A6822F4A4
:1010B00080323A603860C0070FD5FFF7F7FE04466C
:1010C0003868810709D4FFF7F1FE001B41F289312E
:1010D0008842F5D34FF0030805E03968286D21F404
:1010E000407101433960B9F1000F03D0F06C20F07A
:1010F0008050F0642878C10705D5F26F68689208BF
:1011000040EA8202F2672978880705D5F16FA8685E
:1011100021F00C010143F1672978480705D5F16FEB
:10112000E86821F030010143F1672978080705D507
:10113000F16F286921F0C0010143F1672978C806E1
:1011400005D5F16F686921F440710143F167297891
:10115000880605D5F16FA86921F440610143F16764
:101160002978480605D5F16FE86921F4405101431B
:10117000F1672978080605D5F16F286A21F4404106
:101180000143F1672968C80505D5F16F686A21F444
:1011900040310143F1672968880305D5F968A86AD9
:1011A000890840EA8101F9602968880505D5F16F51
:1011B000E86A21F440210143F167296848050AD50E
:1011C000F16F286B21F440110143F167296BB1F5F0
:1011D000801F00F069F8296808050AD5F16F686B6F
:1011E00021F440010143F167696BB1F5800F00F014
:1011F0005BF82968C8040AD5F16FA86B21F040712B
:101200000143F167A96BB1F1807F00F04DF82968C7
:10121000880408D5F16FE86B21F040610143F16764
:10122000E96B00F03FF82968480408D5F16F286C95
:1012300021F040610143F167296C00F033F829681F
:1012400008040AD5F16F686C21F040510143F16741
:10125000696CB1F1805F00F01FF82968C8030AD5F6
:10126000F16FA86C21F040410143F167A96CB1F125
:10127000804F00F011F8296848030AD5F968E86C36
:1012800021F440110143F960E96CB1F5001F00F051
:101290000BF84046BDE8F68703D1306840F4803053
:1012A00030607047B1F1006F03D1306840F48010B6
:1012B000306070470C1002409010024000700040F7
:1012C000F0B58BB000F02CFB00F0C6F8142101A89B
:1012D000FFF7ACFE5A4C606840F0020060600222EA
:1012E000606800F0020000900323009901920293CD
:1012F00001A9544800F0F0F8206840F00400206094
:101300004FF48056216801F0040100910098216893
:1013100041F001012160052122684B4C02F00102DD
:101320000092002200980B20FFF7F8FD0B20FFF73A
:1013300012FE08A800210022002380E80E002021D0
:101340006846FFF773FE414820604FF440310120AA
:10135000206261604FF4906000220421A260E2608C
:1013600022616261A161A28304F124050021A860C9
:101370004FF44062012028752970EA602977AE6138
:101380002046FEF752FF08B100F0A3F800200890B5
:1013900008A9204600F0DBFA08B100F09AF82C49C1
:1013A000009106220192002102917F2203920421E2
:1013B00004910022059269462046FFF7E1F808B142
:1013C00000F087F803A8002100220023002780E80E
:1013D0008E006846EA6480E80E0040F253101D4912
:1013E0006865A9642A65AA652A6604F16C0000F0A4
:1013F00051FB08B100F06DF8039603A904F16C00ED
:1014000000F0A3FC08B100F064F8202100910297DD
:10141000694604F16C0000F0B9FD08B100F059F81C
:1014200004F16C0000F043FB4FF47A6204F1B80160
:101430002046FFF705F800F005FE00F02FFEFEE75E
:1014400048100240000400481C0000200004005026
:10145000020030040004004000B593B0382105A814
:10146000FFF7E4FD14216846FFF7E0FD0020FFF7D9
:1014700087FD4FF4807208920221022205910C929E
:101480000D924021042209910E92552102220F91C2
:1014900010921192129205A800F00EFE08B100F011
:1014A00018F80F200321009001910022029203926C
:1014B00004920421684600F0E2FF08B100F009F848
:1014C00013B000BD0068B0F1804F08BF01F020B933
:1014D000704772B6FEE700002DE9F84F00276D4A0D
:1014E0006D4B4FF00F0805460E4638E06B4CA54299
:1014F00014BF062405248C40694944EA0E0441F8CF
:101500002C40C143D2F808C0746801EA0C0CE40214
:1015100048BF40EA0C0CC2F808C0D2F80CC074688E
:1015200001EA0C0CA40248BF40EA0C0CC2F80CC043
:10153000D2F804C0746801EA0C0CA40348BF40EA66
:101540000C0CC2F804C0D2F800C001EA0C0C71689F
:10155000C90348BF40EA0C0CC2F800C07F1C3168C8
:1015600031FA07F000F094800124BC4014EA010035
:10157000F4D04FEA470C032101FA0CF16FEA010E97
:10158000716801F00309B9F1010F1CBF01F00301FB
:10159000022912D1A968D6F80C900EEA010109FAC5
:1015A0000CF949EA0101A960696821EA040471683B
:1015B000C1F30011B9400C436C60B900347904F0F8
:1015C0000304032C21D0EC68D6F808900EEA04043A
:1015D00009FA0CF949EA0404EC60347904F00304D4
:1015E000022C12D1FC0805EB840401F01C09D4F88C
:1015F00020A008FA09FB2AEA0B0AD6F810B00BFA69
:1016000009F949EA0A09C4F820902C680EEA040E88
:10161000347904F0030404FA0CF444EA0E0CC5F81F
:1016200000C0746814F4403F98D0D3F800C01C4C3C
:101630004CF0010CC3F800C04FEA970CD3F800E05F
:101640000EF0010ECDF800E001F00C01DDF800E035
:1016500054F82C4008FA01FE24EA0E0EB5F1904F22
:1016600008BF002413D00F4CA54208BF01240ED0A0
:101670000D4CA54208BF022409D00C4CA54208BF5E
:10168000032404D00A4CA5427FF430AF042432E78F
:10169000BDE8F18F000401406010024000140048D2
:1016A000080001400004004800080048000C004801
:1016B0000010004880B5DFF81001016801F03CFB24
:1016C000012803D0BDE8014001F062BC01BDEFF389
:1016D000058000B16EE0DFF8F410086810B901224F
:1016E0000A6070474FF0FF307047000080B5EFF39D
:1016F000058000B10FE0DFF8D4000168012909D1AD
:10170000DFF8CC1000220A700223036001F009F90F
:10171000002002BD02E06FF0050002BD4FF0FF3077
:1017200002BDF8B584B000230393EFF30583002BCB
:101730003DD103003BD08025182600245AB31368FE
:1017400003B11C4693691BB11E0004D0392E02D28E
:101750001379DF0701D500202AE0536903B19D0802
:10176000D2F80CC0976887B1BCF15C0F1FD3126927
:10177000002A18BF002B1AD001920B460297009640
:101780002A46214600F0CCFF10E0BCF1000F04BF58
:101790001269002A0BD103AB019300960B46AAB243
:1017A000214600F0EEFF012801D0002003900398AD
:1017B00005B0F0BD6FF005007047DFF824014FF071
:1017C000805101607047000010E000E0103A0020F6
:1017D0001FED00E0F8B514460025EFF305823ABB93
:1017E000002818BF002923D0E4B1E268A36893B1B0
:1017F000502A1DD32269DAB1666901FB00F7BE42A7
:1018000016D3009501F045FC050011D0002C14BF43
:10181000216800210AE0002A04BF2269002A07D1BA
:1018200062692AB9002201F065FCEDE701F0E2FEF1
:101830002846F2BD7CB500F04CF87AB1002818BFFC
:1018400000290FD074B900946A4601F01EFD0128EA
:1018500015D10098A0B1FFF7B0FF11E0002818BF24
:10186000002902D16FF003050AE00023224601F0AF
:1018700075FC012804D014B16FF0010500E0354675
:10188000284676BD7CB500F024F87AB1002818BF50
:1018900000290FD074B900936A4601F0E3FD0128D6
:1018A00014D1009898B1FFF788FF10E0002818BF06
:1018B000002902D16FF0030509E0224601F035FD51
:1018C000012804D014B16FF0010500E03546284628
:1018D00076BD1C4600256FF00206EFF305827047C7
:1018E00004ED00E062F30F2262F31F4200B500BF77
:1018F000130096469446103928BFA0E80C50FAD839
:101900005FEA417C28BF0CC048BF40F8042BC907E0
:1019100028BF20F8022B48BF00F8012B00BD0000B3
:10192000032010B5FFF7EDFA0F2001F09BFE002415
:10193000002814BF0124FFF7B9F8204610BD0000AD
:101940000092606840F020006060227070472DE9CE
:10195000F04F00F158049BB023780022012B08BF00
:10196000022024D001252570002617960025189501
:101970000368414D3E4EB3F1A04F10D10096009F39
:10198000BF68D3F808C05FEA4C7C65D47F0763D496
:10199000B3F1A04F16BFB342384F394F08E0354F6F
:1019A000BB4208BF0095EAD0FFF7CBFF01205BE008
:1019B0000B68DFF8D0C0DFF8D080DFF8D0E0DFF8C8
:1019C000D09053B3D7F800A04B6890F838B02AF401
:1019D000604A43EA0A0343EA4B3AC7F800A00068AA
:1019E000B0F1A04F18BFB04204D1D8F80000B368DE
:1019F000184306E0D9F80000AB68DEF80050184341
:101A0000284310F001002CD13B68086889680CEA73
:101A10000303184341EA000C1BE03B6823F46043D6
:101A20003B600068B0F1A04F18BFB04204D1D8F8B5
:101A30000000B168084306E0D9F80000A968DEF8A4
:101A400000300843184310F001000AD138680CEA4E
:101A5000000CC7F800C004E0616841F0200161603B
:101A600001220020207010461BB0BDE8F08F00005E
:101A70000001005000040050000500500803005011
:101A800008070050E0F0FFFF080000500806005073
:101A90000804005038B5040001D1012032BD00F027
:101AA0006BF818B900F0C5F9FFF775F83EE090F84B
:101AB0003D10012901D001207047022180F83D101E
:101AC0000168CA6842F00102CA600168DFF8882034
:101AD000914218BFB1F1804F17D0DFF880209142BA
:101AE0001CBFDFF87C3099420FD0DFF8782091429C
:101AF0001CBFDFF87430994207D0DFF870209142A4
:101B00001CBFDFF86C30994209D18A68DFF8641095
:101B10000A40062A18BFB2F5803F05D001680A685E
:101B2000084642F0010202600020704702206870FF
:101B3000211D206800F081F9012028730121A9707E
:101B4000E87029716871A971E87129726872A972C7
:101B5000E8726970002032BD002C01400004004092
:101B600000080040000C00400034014000400140EB
:101B7000005001400700010004F13C0568787047FF
:101B800010B50446206801698A0715D5C1688A071F
:101B900012D56FF00201016101222277806910F0F5
:101BA000030F204602D001F0A3FD03E001F0A1FDE8
:101BB00000F0C8F800202077206801694A0715D591
:101BC000C1684A0712D56FF0040101610222227731
:101BD000806910F4407F204602D001F089FD03E0C7
:101BE00001F087FD00F0AEF8002020772068016941
:101BF0000A0715D5C1680A0712D56FF008010161FF
:101C000004222277C06910F0030F204602D001F0B1
:101C10006FFD03E001F06DFD00F094F800202077E7
:101C200020680169CA0615D5C168CA0612D56FF0C9
:101C30001001016108222277C06910F4407F20461C
:101C400002D001F055FD03E001F053FD00F07AF8F9
:101C50000020207720680169CA0708D5C168CA0733
:101C600005D56FF0010101612046FFF72BFC2068CC
:101C700001690A0608D5C1680A0605D56FF080011A
:101C80000161204601F036FD20680169CA0508D5CA
:101C9000C1680A0605D56FF480710161204601F024
:101CA0002AFD206801694A0608D5C1684A0605D59B
:101CB0006FF040010161204601F01EFD20680169BE
:101CC0008A0608D5C1688A0605D56FF02001016132
:101CD000204601F012FD20680169CA0208D5C168DA
:101CE000CA0205D56FF480110161204601F006FD9E
:101CF000206801698A0208D5C1688A0205D56FF497
:101D000000110161204601F0FAFC206801694A02D5
:101D100008D5C1684A0205D56FF4800101612046EB
:101D200001F0EEFC206801690A020AD5C1680A02C6
:101D300007D56FF4000101612046BDE8104001F0B5
:101D4000E0BC10BD204601F0DDBCF8B5064606F14A
:101D50003C0500242878012801D10220F2BD012091
:101D6000287002226A70DFF8F80132689368034035
:101D700093600868020018BFB0F1100244D0103A16
:101D800042D0103A40D0103A3AD0103A2DD0103A02
:101D90002FD0103A1AD04FF47967D21B3AD04FF4B3
:101DA0008057D21B19D04FF47E27D21B2CD0103A6B
:101DB0002AD0103A28D0103A26D0103A24D0103A1F
:101DC00022D0103A20D0103A1ED022E000F02BF89A
:101DD0003068816841F0770105E000F024F8306850
:101DE000816841F48041816014E000F018F85021CE
:101DF0000BE0CA684968306800F093F8602104E09D
:101E000000F00DF8402100E00146306800F09BF83A
:101E100000E001240120687000F00BF8F2BDCA68F0
:101E2000496830686EE0CB684A688968306800F0BD
:101E30009FB800212970204670472DE9F0470368BC
:101E4000DFF8BCE0DFF81041DFF8A450DFF8A46051
:101E5000DFF80871DFF8A0C0DFF80881DFF808912B
:101E6000DFF898A0704518BFB0F1804F08D05045FA
:101E700018BF484504D040451CBF6045B84210D14A
:101E80004A6823F070031343704518BFB0F1804FC8
:101E90000FD0504518BF48450BD0404518BF60458E
:101EA00007D0B04218BFA84203D0A04218BFB84222
:101EB00003D1CA6823F4407313434A6923F08003B3
:101EC0001343036070458B68C3620A68826218BF5F
:101ED000604507D0B04218BFA84203D0A04218BF47
:101EE000B84201D10969016301224261BDE8F0876E
:101EF0000044014000400140003401400004004023
:101F0000002C014010B5036A046A6408640004628E
:101F100023F00A03846924F0F00444EA0214846183
:101F200030E010B5036A23F0100303628369046A8A
:101F300023F4704343EA023324F0A004836144EAAB
:101F40000114046210BD8368084A1340194341F02C
:101F500007018160704700000048014000500140C7
:101F60008800CEFF000C0040000800408FFFCFFF2C
:101F700010B5846824F47F442143114341EA0321CE
:101F8000816010BD1943016210BD00002DE9F043CE
:101F900000F13C052A78012A08BF02203FD0012227
:101FA0002A7002236B70D0F800E0DFF88890DEF82A
:101FB0000470DEF80860DFF87880DFF87CC0CE457A
:101FC0001CBFE645C64503D14C6827F4700727437C
:101FD000DFF868300A681F401743CEF804700268C3
:101FE0004A4518BFB2F1804F10D0104882421CBF42
:101FF000DFF84C309A4209D00B48824218BF624544
:1020000004D0084B9A4218BF424504D1886826F094
:102010008006064396600121697000202870BDE8A3
:10202000F083000000400140000C0040000400402C
:1020300000500140002C0140003401408FFFFFFDA3
:102040000008004038B5FFF742FB00BF14A2022190
:1020500001200D4C0D4DFFF7BDFBE0602A4600212D
:102060000B48FFF75EFB206005F1240200210948C0
:10207000FFF757FB606005F1480200210648FFF7B3
:1020800050FBA06031BD0000003A0020C03F0008B6
:10209000E70E00088540000833100008FFF726BB54
:1020A00040420008000000000000000000000000A6
:1020B00000000000000000002DE9F84304006DD08E
:1020C0002078DFF81466C10717D500F0D2F90CD1DB
:1020D00001F0030103290AD06068B0F5803F2AD1DE
:1020E000306840F48030306037E00828F4D1306840
:1020F000810302D56068002850D02178880759D51F
:1021000000F0B7F943D101F00301022941D0E068A2
:1021100000286AD0316841F480713160FEF7C6FE54
:102120000546306841055DD4FEF7C0FE401B03281C
:10213000F7D3032093E1B0F5A02F306806D140F427
:1021400080203060316841F4803105E020F4803037
:102150003060316821F480213160606858B1FEF749
:10216000A5FE054630688103C7D4FEF79FFE401BDD
:102170006528F7D3DDE7FEF799FE05463068810351
:10218000BBD5FEF793FE401B6528F7D3D1E70428A3
:10219000BDD13068410503D5E068002800F05C81BE
:1021A00000F05FF9DFF83C05006801F05BFA0028F9
:1021B00040F052812078DFF83075010734D560692E
:1021C0000028786821D040F001007860FEF76EFEAC
:1021D00005467868810727D4FEF768FE401B032870
:1021E000F7D3A6E700F03DF9E4E7306820F480700B
:1021F0003060FEF75BFE054630684105DAD5FEF734
:1022000055FE401B0328F7D393E740084000786051
:10221000FEF74CFE05467868810705D5FEF746FEB9
:10222000401B0328F7D384E72078410763D5B06DBE
:102230000025C10009D4B06D40F08050B065012583
:10224000B06D00F0805000900098DFF8A084D8F8BE
:102250000000C10513D4D8F8000040F48070C8F81D
:102260000000FEF723FE8146D8F80000C10506D421
:10227000FEF71CFEA0EB09000328F5D359E7A06880
:10228000012804D1386840F00100386010E00528CA
:10229000386806D140F004003860396841F0010127
:1022A00005E0400840003860396821F004013960D9
:1022B000A06841F2893860B1FEF7F8FD81463868C0
:1022C000810713D4FEF7F2FDA0EB09004045F6D3D9
:1022D0002FE7FEF7EBFD81463868810706D5FEF74C
:1022E000E5FDA0EB09004045F6D322E71DB1B06D36
:1022F00020F08050B0652078810621D5A0690028A3
:10230000B8680ED040F00100B860FEF7CFFD05467A
:10231000B868810714D4FEF7C9FD401B0328F7D322
:1023200007E740084000B860FEF7C0FD0546B86802
:10233000810705D5FEF7BAFD401B0328F7D3F8E661
:10234000E069002800F08A80B16801F00C010C29D6
:1023500055D00228306820F0807030603AD1FEF706
:10236000A5FD05463068810105D5FEF79FFD401BA0
:102370000328F7D3DDE6F068DFF87413226A08401B
:10238000616A1043491E40EA0110226BA16A52089B
:1023900040EA0120616B521E490840EA4250491E42
:1023A00040EA4160E16A40EAC160F060306840F0B4
:1023B00080703060F16841F08071F160FEF776FD69
:1023C00004463068810149D4FEF770FD001B0328E4
:1023D000F7D3AEE6F168DFF81C0389088900F160E5
:1023E000F1680140F160FEF761FD0446306881014B
:1023F00034D5FEF75BFD001B0328F7D399E60128CF
:102400002AD0F068226A00F00301914201BF00F077
:10241000F0011031626AB1EB021F1DD1A26A00F413
:10242000FE41B1EB022F02BF00F07841E26AB1EB4E
:10243000C26F11D1226B00F4C00101F500115208E6
:10244000B1EB425F08D1616B00F0C06000F1007039
:102450004908B0EB416F01D0012000E00020BDE849
:10246000F2837068216920F0FE4040EA01607060EC
:102470007047B068F16800F00C000C2870472DE937
:10248000F84F04460026002C6CD0DFF86C723868D8
:10249000894600F00F00484506D200F0BFF83868C2
:1024A00000F00F0048455DD12168DFF82C52C807C5
:1024B00041F2893858D56068DFF840B203284FF000
:1024C000080A27D1286882014CD5EA68E868C0F379
:1024D0000310401C02F00302032A0CBFDFF8202285
:1024E000DFF8FC21B2FBF0F2E868C0F306204243BB
:1024F000E868C0F34160401C4000B2FBF0F0584572
:1025000016D3AA6812F0F00F0DD0890710D5A06875
:1025100070B908E00228286822D1810322D500F092
:1025200083F8584504D3A8686AF30710A86080268A
:10253000A9686068890840EA8101A960FEF7B6FCD5
:102540008246A868616800F00C00B0EB810F0BD0E8
:10255000FEF7ACFCA0EB0A004045F2D303205BE0A1
:102560004105DCD4012057E02068810714D54007DD
:1025700003D5A96841F4E061A9602078010704D57A
:10258000A968072060F30D21A960A968A06821F05F
:10259000F0010143A96005E0802E03D1A86820F076
:1025A000F000A860386800F00F0081450FD200F0FD
:1025B00035F8FEF77BFC0646386800F00F0048450A
:1025C00005D0FEF773FC801B4045F5D3C6E72078A5
:1025D000410705D5AA68E06822F4E0620243AA60D8
:1025E0002178080706D5A968206921F4605141EADD
:1025F000C001A96000F018F8AA684249C2F30312AA
:10260000895C364A01F01F01C8401060BDE8F24FF6
:102610003448006801F026B8BDE8F28F396809092E
:1026200049EA0111396070473749086800F00C0029
:10263000042801D12A487047086800F00C000828D7
:1026400001D12F487047086800F00C000C2818D101
:102650004A684868C0F30310401C02F00302032AD2
:102660000CBF274A1E4AB2FBF0F24868C0F30620AE
:1026700042434868C0F34160401C4000B2FBF0F0A8
:1026800070470020704715481F4A006813681F49AB
:10269000C3F30222FFE7895C01F01F01C8407047C5
:1026A00010B50F220260184A136803F00303436059
:1026B000146804F0F0048460136803F4E063C360FA
:1026C0001268D20802F4E06202610B48026802F06C
:1026D0000F020A6010BD0000001002401800002028
:1026E0000024F40010000020901002400070004010
:1026F0000C809F01FFFFEEFE0020024001B4C404E5
:1027000000366E01A8410008081002408C42000803
:1027100002490A68886882180A6070470C00002025
:10272000F0B585B050260B9D25B986F3118800F0D1
:102730002DFAFEE70C9C24B986F3118800F026FAE6
:10274000FEE75C270097DDF800E0BEF15C0F04D0E7
:1027500086F3118800F01AFAFEE7009E2563002632
:10276000022584F8595004AF0A9D039602940197FC
:10277000009500F034F8204600F078F8049805B091
:10278000F0BD2DE9F8430646174684B088469946C1
:10279000B80000F0B9FF05001CD05C2000F0B4FFC9
:1027A000040014D00020256384F85900039002949B
:1027B0000D980C99019000914B463A46414630469F
:1027C00000F00DF8204600F051F8012004E0284602
:1027D00001F023F84FF0FF3005B0BDE8F0832DE99C
:1027E000F0470A9F81460C461546386B9A46A5224B
:1027F000A900FFF777F8396B01EB8502101FC008BD
:102800004FEAC00808F0070007F1340554B1002171
:10281000625C6A54605C10B1491C1029F8D3002036
:10282000E87300E02870089E372E88BF3726099C81
:10283000FE62AE61E861C6F13806381D01F049F864
:1028400007F1180001F045F83F61BE617F6200208A
:102850002862002187F8581052464946404600F049
:10286000FBFA386004B12760BDE8F0872DE9F0413C
:1028700000F054F8DFF8D854DFF83885E86C401CD5
:10288000E8641426A86A28BBAC62E86C012829D148
:10289000002706FB07F0404401F00EF87F1C382F9C
:1028A000F7D305F1740001F007F805F18807384601
:1028B00001F002F8284600F0FFFF05F1140000F0D7
:1028C000FBFF05F1380000F0F7FF05F17400E86246
:1028D0002F6307E0A86D28B9E06AA96ACA6A904226
:1028E00028BFAC62A86EE26A401C6064696D9142C8
:1028F00038BF6A65A8665643211D08EB060000F044
:10290000EBFF00F034FBA86D30B100F08CF903D27E
:1029100000F061FA00F03AF9BDE8F081044600F0F9
:102920000DBB80B586B000210591049103AA04A9CE
:1029300005A801F00BF80598049902900022009276
:1029400001910023039A0FF208510FF26530FFF74F
:10295000E7FE98B101F004F85021012810D181F36D
:10296000118800F013F9DFF8D4044FF0FF31C1668D
:10297000012282650021016500F090FA07B000BDD8
:1029800010F1010FFAD181F3118800F0FFF8FEE792
:10299000DFF8A804016F491C0167704770B5DFF8C4
:1029A000B063306F0024002520B900F043F800F038
:1029B000EDF8FEE700F0C2FA306F401E3067306F6E
:1029C000002836D1F06CD0B933E0F068C46800F06C
:1029D00035F800F0BFF9E06A716D814238BF70656B
:1029E0001423DFF85C245843211D104400F074FFC9
:1029F000E06AB16ACA6A904224BF01213166306838
:102A00000028E2D10CB100F08AF9F46D44B100F075
:102A10001DF808B101203066641EF8D10020F06571
:102A2000306E30B1DFF81C144FF08050012500F0FB
:102A3000ACF8C9E1502181F31188704704F1180006
:102A400000F070BFDFF8F403006D70472DE9F84324
:102A5000DFF8FC72386F0026002852D13C6D641CF0
:102A60003C6510D1F86A006820B1FFF7E3FF00F081
:102A70008DF8FEE7F86A396BF9623863786E401CAE
:102A8000786600F04CF9F86EDFF8B49384424FF0AA
:102A9000140827D31FE0F96AC868C56868688442CB
:102AA0002DD3281D00F03EFFA86A18B105F11800CB
:102AB00000F038FFE86A796D814238BF786508FB1D
:102AC00000F0291D484400F007FFE86AB96ACA6AA5
:102AD000904228BF0126F86A00680028DBD14FF039
:102AE000FF31F966B86AC06A08FB00F859F80810A7
:102AF000022928BF0126386E30B1012604E0F866AD
:102B0000F0E7F86D401CF86562E110B5DFF840228F
:102B1000106F10B10121116610BD1066516DDFF804
:102B2000203300E0491E14244C43185930B90029C1
:102B3000F8D100F012F800F029F8FEE7181900F1BA
:102B4000080443685B684360A34204BF5B6843605A
:102B50004068C3689362516510BD502080F31188AE
:102B6000704710B50C4620B9FFF7F7FF00F00EF8DC
:102B7000FEE700F028F800F0BCFE2046BDE810405B
:102B800009E0DFF8C0124FF080500860BFF34F8FAC
:102B9000BFF36F8F7047012100F028B938B50D469B
:102BA000144620B9FFF7D9FFFFF7F0FFFEE700F06A
:102BB0000AF800F091FE0CB14FF0FF35214628468F
:102BC000BDE8344012E1DFF87422936A03F1180182
:102BD000704738B5C068C46824B9FFF7BEFFFFF777
:102BE000D5FFFEE7FFF72AFFDFF85052286F40B904
:102BF00000F0B0F800F013F838BF6A6500F0F0F8A4
:102C000002E004F11801284600F066FE00F00BF81F
:102C100003D201212966012032BD002032BDE26AC3
:102C2000686D90427047A86AC16AE06A8142704745
:102C3000DFF808124A6E0260096D41607047F8B50E
:102C400004460D46502024B980F31188FFF79EFFFB
:102C5000FEE725B980F31188FFF798FFFEE700F043
:102C60006DF9DFF8D801016D62682E688B1A16F1D4
:102C7000010F0ED0476ED4F800C0674501D09142D5
:102C80000BD2B34207D2F31A2B60416E2160006D64
:102C90006060002402E000202860012400F067F951
:102CA0002046F2BDDFF8941101200866704700004D
:102CB00070B5404CDFF8845111E000F03FF9286A0C
:102CC000C668301D00F02EFEE86C401EE864686B9C
:102CD000401E686300F04BF9304600F009F8686B5D
:102CE0000028EAD121680229F9D3FFF74AFFF6E765
:102CF00010B5044694F8590040B9206B00F08DFDE2
:102D00002046BDE8104000F088BD10BD0128F7D076
:102D10000228FAD0FFF721FFFFF738FFFEE70C4942
:102D2000C86A006810B94FF0FF3203E0C86AC26891
:102D3000D0684268CA667047DFF80011886D08B92C
:102D400001207047086F08B90220704700207047C3
:102D500078380020201D00F0E5BD38B5044600217C
:102D600034B3DFF8D850A86A5022844204D082F3EA
:102D70001188FFF70BFFFEE7206D20B982F3118861
:102D8000FFF704FFFEE7E26AE36C401E9A4220650B
:102D90000ED068B9FFF7DEFFE26CE262C2F13800E4
:102DA000A061696D914238BF6A6500F005F80121A4
:102DB000084632BD342C00201420DFF88430424312
:102DC000211D981800F088BD00F0D1F8284670BD8C
:102DD0003046BDE8F2831B4A4FF0805111607047C6
:102DE0001420174B4243211D98187047F8B5134D16
:102DF0002F6D0C46A96A0646081D00F093FD16F1DA
:102E0000010F05D124B1A86A011D05F138001BE0AE
:102E1000A86AF6194660BE42A86A05D2011D286B51
:102E2000BDE8F44000F065BD011DE86A00F061FDF9
:102E3000E86E864238BFEE66F1BD000078380020AB
:102E4000342C002004ED00E0BDE8F44000F044BD67
:102E500049444C4500000000490810B54900A0F164
:102E600020034FF0807499611A60DC616FF00202F8
:102E70000FF20D01596140F8242D203810BD0000DB
:102E80005A494A68502012F1010F80F31188BFF3AC
:102E90004F8FBFF36F8F00D0FEE7FEE77CB5544A3B
:102EA000544B10685021984202D100F0B1F8FEE76F
:102EB0001068514B984202D100F0AAF8FEE74F4B40
:102EC0001C780194FF251D701E78484C8DF8006019
:102ED0009DF8000000F050002070072005E09DF8EC
:102EE00000506D00401E8DF800509DF800502E06D9
:102EF000F5D4454215F1030F03D0A06000F088F827
:102F0000FEE7000200F4E060A06001981870116A0A
:102F100041F470011162106A40F07040106200F0DC
:102F2000C9FE0020606000F023FF3548016841F0D1
:102F30004041016000F00CFF002076BD502080F37E
:102F40001188BFF34F8FBFF36F8F28494A68521C17
:102F5000012A4A600AD12B490A68130606D080F379
:102F60001188BFF34F8FBFF36F8FFEE770471F4984
:102F7000486838B9502080F31188BFF34F8FBFF3F2
:102F80006F8FFEE7401E486008BF80F311887047CE
:102F900080B5502080F31188BFF34F8FBFF36F8F40
:102FA000FFF754FD18B117494FF080500860002218
:102FB00082F3118801BD000010B5EFF305805021A8
:102FC00010280A4A07D3104B185C1478A04202D28A
:102FD00000F01EF8FEE790680C4A136803F4E06303
:102FE000984202D200F014F8FEE710BD0000002065
:102FF00000ED00E071C20F4170C20F4100E400E03B
:1030000034EF00E004ED00E0F0E300E00CED00E060
:1030100081F31188BFF34F8FBFF36F8F70470000AC
:1030200070B504000D4602D100F090F8FEE7FFF7FE
:1030300085FF206CE16B226800FB01F3491E4843C9
:1030400010441344A3600026A663E060626004F1AC
:1030500044004FF0FF310170417075B92069A0B193
:1030600004F11000FFF7B5FD78B1DFF8A8154FF0B7
:103070008050086000F0F1F907E004F1100000F062
:103080001BFC04F1240000F017FCFFF770FF012087
:1030900070BD7CB51C46502320B983F3118800F025
:1030A000DCF9FEE724B983F3118800F0D6F9FEE7D6
:1030B0002AB129B983F3118800F0CFF9FEE779B975
:1030C00050250095009E502E0FD1009B34B1069BD9
:1030D000012584F84650009400F028F8204676BD7B
:1030E00083F3118800F0B9F9FEE783F3118800F04B
:1030F000B4F9FEE7F8B505000E46174602D100F018
:1031000025F8FEE706FB05F0503000F0FDFA04005C
:103110000AD0002084F8460000943B4604F1500297
:103120003146284600F002F82046F2BD38B5049D2D
:103130001C4600290CBF2D602A60E86329642846DC
:103140000121FFF76DFF85F84C4031BD502080F321
:103150001188BFF34F8FBFF36F8F70472DE9F6478C
:1031600082B004461E46502714B900F074F9FEE7F9
:103170005FEA010A01D1206C60B9022E02D1E06B36
:1031800001280AD1FFF7D8FD50B9039840B100F0EB
:1031900062F9FEE700F05FF9FEE700F05CF9FEE798
:1031A00027460024DFF86C844FF080592EE0039806
:1031B00000284BD014B900F041F90124FFF7D7FEE5
:1031C000FFF7E6FBFFF7BAFE07F1440000F039F91C
:1031D00004BF0022027000F039F904BF00224270DF
:1031E000FFF7C5FE00F04DF8002844D1FFF7A6FE1A
:1031F000B86BF96B884214BF00250125FFF7B7FEB5
:1032000045BB384600F0B7F9FFF7C8FBFFF796FE5D
:10321000B86BF96B884201D3022EC8D132465146B1
:10322000384600F060F9796A29B107F12400FFF708
:10323000D0FC08B904E018B1C8F8009000F00DF90E
:10324000FFF795FE012004B0BDE8F087FFF78FFE81
:103250000020F8E7039907F11000FFF782FC3846D9
:1032600000F089F9FFF79AFB0028CFD1C8F8009049
:1032700000F0F3F8CAE7384600F07DF9FFF78EFB5F
:10328000E6E703A96846FFF7DABC2DE9F8430446F0
:10329000884615461E46502714B900F0DCF8FEE7B4
:1032A000B8F1000F01D1206C28BB022E02D1E06BD7
:1032B000012823D1FFF780FEEFF3118900F02BF8EE
:1032C00001D3022E22D194F94570A06B32464146BB
:1032D000204600F008F917F1010F12D1606A98B189
:1032E00004F12400FFF775FC002818BF002D0BD057
:1032F0000120286008E000F0AEF8FEE700F0ABF82F
:10330000FEE77F1C84F84570012000E0002089F36F
:103310001188BDE8F28387F31188BFF34F8FBFF3A5
:103320006F8FA06BE16B884270472DE9F74306462B
:103330000F460024502526B985F3118800F08DF83A
:10334000FEE70FB9306C48B9FFF7F6FC78B9029880
:1033500068B185F3118800F080F8FEE785F31188E5
:1033600000F07BF8FEE700F067F8FFF717FBFFF7C8
:10337000E5FDB56BDFF89C82002D4FF0805932D10E
:103380000298002845D014B900F058F80124FFF73E
:10339000EEFDFFF7FDFAFFF7D1FD06F144004157BE
:1033A00011F1010F04BF0022027000F04FF804BFBA
:1033B00000224270FFF7DBFD02A9FFF763FF002840
:1033C00030462AD100F00BF90028CCD000F02FF8BD
:1033D00000F032F8FFF7E2FA0028C8D1C8F80090F0
:1033E00000F03BF8C3E73946304600F0B0F86D1EF8
:1033F000B563306940B106F11000FFF7EAFB18B180
:10340000C8F8009000F029F8FFF7B1FD0120BDE8F1
:10341000FE83FFF7ACFD0020F9E700F0ACF8FFF702
:10342000BDFA304600F0DBF80028A0D0F3E702999F
:1034300006F12400FFF795BB30469CE06846FFF795
:10344000F7BB90F9001011F1010F704790F90110CE
:1034500011F1010F704787F31188BFF34F8FBFF34E
:103460006F8F70472DE9F84304460F4615465026E6
:1034700024B986F31188FFF7F0FFFEE70FB9206C3F
:1034800070B9FFF799FDEFF3118886F31188FFF704
:10349000E4FFA66B4EB9002088F31188BDE8F283E3
:1034A00086F31188FFF7D9FFFEE794F94490394677
:1034B000204600F04CF8761E19F1010FA6630CD1DE
:1034C000206970B104F11000FFF783FB002818BFDA
:1034D000002D06D00120286003E009F1010984F8DD
:1034E00044900120D8E7F8B506461546B46B326C17
:1034F000002742B9306830BBB068FFF72EFC0021CE
:103500000746B1601FE065B9706800F03FFC706865
:10351000316CB26808449042706014D330687060B7
:1035200011E0F06800F032FC306CF1684042014478
:10353000F1603268914202D2B1680844F060022D15
:1035400001D104B1641E641CB4633846F2BD026C40
:10355000002A0B4600D1704710B5C1688468114439
:10356000C160A14224BF0168C160C168BDE81040CC
:10357000184600F00BBCF8B50546FFF7DFFC05F177
:10358000440494F9016007E005F12400FFF721FBF2
:1035900008B1FFF787FB761E70B2012802DB686A6C
:1035A0000028F1D14FF0FF366670FFF7E0FCFFF71F
:1035B000C5FC94F9007007E005F11000FFF709FB66
:1035C00008B1FFF76FFB7F1E78B2012802DB286984
:1035D0000028F1D12670BDE8F140FFF7C8BC10B556
:1035E0000446FFF7ABFCA06B441EA441FFF7BFFCF1
:1035F000E00F10BD10B50023074C54F833201AB16A
:103600005B1C082BF9D310BD44F8331004EBC30145
:10361000486010BD04ED00E0C0390020F8B5044654
:103620000D461646FFF78AFC04F1380797F90C009F
:1036300010F1010F04BF0021397397F90D0010F14B
:10364000010F04BF00217973FFF791FC386828B996
:103650003246294604F12400FFF7A0FA2046BDE8CF
:10366000F24088E778B504461D481E4D87B00168D2
:1036700041F00101016001A9006800F00100009023
:1036800002A8009AFFF70CF8FEF7FDFF4FF080410B
:10369000154B2960B0FBF3F0401E40F2E732686042
:1036A0000021EA602961A9602846FEF7F3F90600C7
:1036B00012D12846FEF7FBF906000DD11C20FDF7BC
:1036C0004AFC102C07D2002221461C20FDF726FCC4
:1036D0000648046000E00126304608B070BD0000D6
:1036E000581002407439002040420F0010000020A2
:1036F0007047704770477047704770477047704712
:1037000070477047704700002DE9F8430446FFF703
:103710003FF9684FB8684FF00009002508BB07F172
:10372000200307F1200113F0070F4FF440600A4611
:1037300005D0CA1DD208D200C2F540600818801812
:103740000838C008C0003A607D60B8604560056018
:10375000831A5360106050683861F8604FF0004081
:10376000F8614FF05008F869044246D1002C44D06B
:10377000083414F0070F04D004F1080004F0070423
:10378000041B002C39D0F868A04236D33E68394675
:1037900001E0314606467068A04202D23068002837
:1037A000F7D1B868864228D00A683068086002F10C
:1037B00008097268121B112A0CD3311911F0070085
:1037C00002D000F023F8FEE7301D02517460084675
:1037D00000F04DF87168F8683C69401AF860FA68C2
:1037E000A24288BF2246F8693A61014371603560A0
:1037F00009F007057869401C7861FFF7CFF815B12B
:1038000000F004F8FEE74846BDE8F28388F311882B
:10381000BFF34F8FBFF36F8F7047002800D1704701
:1038200038B5A0F10805234C6968E26950231142BC
:1038300004D183F31188FFF7EBFFFEE7286820B17E
:1038400083F31188FFF7E4FFFEE791436960FFF718
:103850009FF8E16868684118E160284600F007F8C1
:10386000A069401CA061BDE83140FFF797B830B5B2
:1038700010490A4600E01A4613688342FBD3536896
:10388000D418844203D14068C3185360104643687B
:103890001468C518A54208D189688C4204D06168B3
:1038A000CB184360246800E00C460460824218BFD5
:1038B000106030BD142000204FF0FF3200F10801ED
:1038C00082604160C16000F1080202610021016074
:1038D000704700210161704710B542684A609368E3
:1038E0008B6094686160916008610168491C0160A7
:1038F00010BD30B50A6812F1010F08BF036907D087
:1039000000F1080300E023465C682568AA42FAD269
:103910005A684A6091608B60596008610168491C6F
:10392000016030BD4368016982689A6083684268BB
:103930005A604A68824204BF83684B600022026179
:103940000868401E0860086870470000034B036069
:1039500003F15C000860802111607047F0340020A2
:1039600010B586B000F072F9DFF83043A068C0B13E
:1039700000210591049103AA04A905A800F012FAF8
:103980000598049902900222009201910023039A63
:103990000FF210310FF28100FEF7C2FE0028E06046
:1039A00005D1502181F3118800F00AF8FEE70120CB
:1039B00006B010BD2046BDE8F681502080F3118886
:1039C000BFF34F8FBFF36F8F7047F8B5044684B0D5
:1039D0001E46002014B9FFF7F0FFFEE7DFF8BC72C7
:1039E000BD68BDB106290091019202940CDAFFF77F
:1039F000A3F9022807BF0A9A002300230022B8680F
:103A00006946FFF7ABFB05E00023324669462846CE
:103A1000FFF73BFC05B0F0BDF8B586B09F4D2968B7
:103A2000086810B90124002602E0C868066800246E
:103A3000FEF7AEFF01A800F0B4F807460198002891
:103A40003FD154BBB7422DD3FEF7A8FF2868C16809
:103A5000CC68201DFFF766FF94F82800410717D5B2
:103A6000A16933463A468919204600F0D5F840B19D
:103A7000002000900023324600212046FFF7A5FFDA
:103A800018B1216A2046884725E0FFF796FFFEE738
:103A900000F0FE0084F82800F3E7686801684C1E17
:103AA000A441E40FA8682246F11BFFF7B7FDFEF71B
:103AB00075FF80B97A494FF080500860FFF780FFAA
:103AC00009E0FEF76BFF06E094F8280081073BD47D
:103AD0002046FFF7A2FEA868002202A9FFF725FCF6
:103AE00000289CD00298002803D505990498039AD1
:103AF000904702980028EED4049C606910B1201D04
:103B0000FFF710FF01A800F04CF802990929E2D84C
:103B1000DFE801F02121211A070621211A07DAE73F
:103B2000D2E794F8282042F0010284F82820039973
:103B3000A16131B1034602460918204600F06CF835
:103B4000C9E7FFF73AFFFEE794F8280000F0FE000F
:103B500084F82800BFE794F8281041F0010184F8A8
:103B6000281002460399A0690B464118204600F030
:103B700053F80028AFD0216A2046884794F82800DF
:103B80004107A8D5002000900023039AA06982185D
:103B900000212046FFF719FF00289CD1FFF70DFFF9
:103BA000FEE72DE9FC410646FEF74CFF3B4D04467F
:103BB0002869844209D3002131602C61FAE67860DB
:103BC0003F61391D2868FFF794FE29680868F0B145
:103BD000C868D0F80080C768381DFFF7A3FE396AAF
:103BE0003846884797F828004107EED5B869404421
:103BF0008045E4D30020009000234246002138464F
:103C0000FFF7E3FE0028E0D1FFF7D7FEFEE7686884
:103C1000696028600121CFE738B500248A424160FD
:103C200000611E4D06D38169D21A8A4206D2011D57
:103C3000686807E09A4203D2994201D3012403E065
:103C4000011D2868FFF755FE204632BD1CB5FFF761
:103C500075F9124CA068E0B904F11400FFF72CFECE
:103C600004F12800FFF728FE04F1140004F12801F4
:103C7000002220606160009204F13C0304F18C0298
:103C800010210A20FFF705FAA06010B107A1FFF785
:103C9000B1FCBDE81340FFF76AB900004C370020C3
:103CA00004ED00E0546D722053766300546D725140
:103CB000000000000748084B0021016000228260DC
:103CC0004FF47A721968B1FBF2F2521E426007217A
:103CD0000160704710E000E018000020EFF3098059
:103CE000BFF36F8F264B1A681EF0100F08BF20ED30
:103CF000108A20E9F04F106009B44FF0500080F3B3
:103D00001188BFF34F8FBFF36F8FFEF7FEFE4FF0AA
:103D1000000080F3118809BC19680868B0E8F04F0A
:103D20001EF0100F08BFB0EC108A80F30988BFF3B3
:103D30006F8F7047124B19680868B0E8F04F80F336
:103D40000988BFF36F8F4FF0000080F31188704730
:103D50000C480068006880F308884FF0000080F38A
:103D6000148862B661B6BFF34F8FBFF36F8F00DF69
:103D7000DFF81400016841F4700101607047000031
:103D8000A038002008ED00E088ED00E04AB1000016
:103D900011F8013B521E00F8013B1CBF11F8013B1A
:103DA000F8E77047044B036003F15C0008604FF4D0
:103DB00080711160704700BF9430002013F0004CF8
:103DC00003D55B42524263F100039CEA210C00F0F0
:103DD000178010B5644603D34942404261F10001A7
:103DE00000F00EF8640004D34942404261F1000142
:103DF000244203D55B42524263F1000310BD000030
:103E0000D3BBD9B1B2F5803F5BD2022A1ED98C4612
:103E1000B1FBF2F102FB11C31B0443EA1043B3FBF5
:103E2000F2FC02FB1C3380B240EA0343B3FBF2F026
:103E300002FB103240EA0C4000237047022A05D9E9
:103E40008446B0FBF2F002FB10C270474AB105D1C4
:103E500000F0010249085FEA3000704700220023A9
:103E6000704700F051B80B0002000021002070479D
:103E7000F7D3002200237047904271EB030CF2D37A
:103E800070B5B1FA81F4B3FA83F52C1BA340C4F1E9
:103E9000200532FA05F63343A2405FF00046E640C3
:103EA00002E05B085FEA3202841A71EB030524BF6B
:103EB000204629467641F4D302000B003000002151
:103EC00070BD70B5B1FA81F4B2FA82F5C4F1200484
:103ED0006419B4F12006DAD3B2405FF00044F44034
:103EE000002502E052085FEA3303C61A71EB020EA6
:103EF00024BF3046714664416D41F3D302000B008C
:103F00002000290070BD00007047000038B500286F
:103F100040DDB0FA80F2A2F111031BB2DC0752BF00
:103F2000984003F1FF0290401D4A00B2054600EEA2
:103F3000105ABAEE600A8DED000AC403009DA2EB90
:103F40006502009224149DED000ABEEEC90A10EE2F
:103F5000102A12B200F026F800F024F812FB02F545
:103F60006D002D1414FB05F464002414C4F54054B2
:103F70006243D213920412145043C013400400143D
:103F8000DA0748BF5B1E03EBD3735B101841088050
:103F9000002032BD002008804FF0FF3032BD00000D
:103FA000DF59375F12FB02F56D002D1465436D007C
:103FB0002D14C5F540556A43D2139204121470476C
:103FC0007442000800000000000000000000000033
:103FD00000000000000200001800000000000000C7
:103FE0000000000054420008000000000000000033
:103FF0000000000000000000000200003600000089
:1040000000000000000000008042000800000000E6
:10401000000000000000000000000000000200009E
:10402000080000000000000000000000F8B5034692
:104030000F4600240025B80808E01E68191DC6FBBD
:10404000C6450E680B1DC6FBC645401EF5D117F0D0
:10405000030004E033F9021BC1FBC145401EF9D146
:104060001646204629463A460023FFF7A7FEC00B16
:1040700040EA41403146BDE8F44000F30F00FFF74D
:1040800045BF0000F8B50E4C0E4D0F4E0F4F05E02A
:104090002A464FF4FA612046FFF7C8FF30684FF018
:1040A000FF3300223946FDF7EDFB38880100EFD0E1
:1040B0000128F3D12A464FF4FA6104F57A60EBE760
:1040C000D4000020143A00200C3A0020163A0020B8
:1040D00030B4002512E050F8042BD30744BF4A4403
:1040E000521E091F042942F8045BFAD213468C07BA
:1040F00044BF15809B1CC90748BF1D7050F8041BA6
:104100000029E8D130BC704710B50749794418310F
:10411000064C7C44163404E00A68081D11448847A4
:104120000146A142F8D110BD2C0000004C00000057
:104130004EF68851CEF20001086840F47000086025
:10414000BFF34F8FBFF36F8F4FF00170E1EE100A96
:10415000704700007DFFFFFFFC3900001C000020BD
:10416000000000001FC9FFFF1C000000B800000095
:104170000000002000000000FEE7FEE7FEE7FEE78B
:10418000FEE770470248FCF7D8BD0248FDF7F8BCCF
:1041900014390020743900200248016841F470018C
:1041A0000160704788ED00E00000000000000000A2
:1041B000010203040607080900F00DF8002801D0E9
:1041C000FFF7A2FFAFF300800020AFF3008000F004
:1041D00004F800F007F80120704780B5FDF770F88B
:1041E000002002BD00F000B80746384600F002F893
:1041F000FBE7000080B5AFF30080024A11001820F1
:10420000ABBEFBE7260002000548014603B4684642
:1042100080F30988AFF30080FFF78AFFFFF7CCFF38
:10422000A5EDF5FE00000000AAAAAAAA0000000061
:104230000000000010000000010000000024F40055
:1042400043616C63756C6174696F6E4E6F746966FF
:104250007900000041435F43616C63756C61746970
:104260006F6E54000148804701480047994100089B
:1042700009420008686967685072696F00000000B1
:104280006D656469756D5072696F00000000000013
:1042900001020304FFF7FEBFFFF7FEBFFFF7FEBFFB
:1042A000FFF7FEBFFFF7FEBFFFF7FEBFFFF7FEBF42
:1042B000FFF7FEBFFFF7FEBFFFF7FEBFFFF7FEBF32
:1042C000FFF7FEBFFFF7FEBFFFF7FEBFFFF7FEBF22
:1042D000FFF7FEBFFFF7FEBFFFF7FEBFFFF7FEBF12
:1042E000FFF7FEBFFFF7FEBFFFF7FEBFFFF7FEBF02
:1042F000FFF7FEBFFFF7FEBFFFF7FEBFFFF7FEBFF2
:10430000FFF7FEBFFFF7FEBFFFF7FEBFFFF7FEBFE1
:10431000FFF7FEBFFFF7FEBFFFF7FEBFFFF7FEBFD1
:10432000FFF7FEBFFFF7FEBFFFF7FEBFFFF7FEBFC1
:10433000FFF7FEBFFFF7FEBFFFF7FEBFFFF7FEBFB1
:10434000FFF7FEBFFFF7FEBFFFF7FEBFFFF7FEBFA1
:10435000FFF7FEBFFFF7FEBFFFF7FEBFFFF7FEBF91
:10436000FFF7FEBFFFF7FEBFFFF7FEBFFFF7FEBF81
:10437000FFF7FEBFFFF7FEBFFFF7FEBFFFF7FEBF71
:10438000FFF7FEBFFFF7FEBFFFF7FEBFFFF7FEBF61
:10439000FFF7FEBFFFF7FEBFFFF7FEBFFFF7FEBF51
:1043A000FFF7FEBFFFF7FEBFFFF7FEBFFFF7FEBF41
:1043B000FFF7FEBFFFF7FEBFFFF7FEBFFFF7FEBF31
:1043C000FFF7FEBFFFF7FEBFFFF7FEBFFFF7FEBF21
:1043D000FFF7FEBFFFF7FEBFFFF7FEBFFFF7FEBF11
:1043E000FFF7FEBFFFF7FEBFFFF7FEBFFFF7FEBF01
:1043F000FFF7FEBFFFF7FEBFFFF7FEBFFFF7FEBFF1
:10440000FFF7FEBFFFF7FEBFFFF7FEBFFFF7FEBFE0
:10441000FFF7FEBFFFF7FEBFFFF7FEBFFFF7FEBFD0
:0400000508004209A4
:00000001FF
