:020000040800F2
:10000000183E002005580008495600084B560008C5
:100010004D5600084F5600085156000800000000D9
:1000200000000000000000000000000079500008FF
:10003000535600080000000021500008D51D00089C
:1000400075580008795800087D5800088158000844
:1000500085580008895800088D58000891580008F4
:1000600095580008995800089D58000855560008F2
:10007000A1580008A5580008A9580008AD58000864
:10008000B1580008B5580008B9580008BD58000814
:10009000C1580008C5580008C9580008CD580008C4
:1000A000D1580008D5580008D9580008DD58000874
:1000B0005F560008E1580008E5580008E9580008B4
:1000C000ED580008F1580008F5580008F9580008E4
:1000D000FD58000801590008055900080959000891
:1000E0000D59000811590008155900081959000840
:1000F0001D590008215900082559000829590008F0
:100100002D5900083159000835590008395900089F
:100110003D5900084159000845590008495900084F
:100120004D590008515900085559000859590008FF
:100130005D590008615900086559000869590008AF
:100140006D5900087159000875590008795900085F
:100150007D5900088159000885590008895900080F
:100160008D590008915900089559000899590008BF
:100170009D590008A1590008A5590008A95900086F
:10018000AD590008B1590008B5590008B95900081F
:10019000BD59000800000000C1590008C5590008F9
:1001A000C9590008CD590008D1590008D55900088F
:1001B000D9590008DD590008E1590008E55900083F
:1001C000E9590008ED590008F1590008F5590008EF
:1001D000F9590008FD590008826832F47C120A437C
:1001E00082607047826832F0E0720A438260704732
:1001F000806810F0E070704770B410F1600515EB86
:1002000081052E68DFF82844264012F0F844264382
:100210001E4356F000462E6070BC7047020012F17B
:10022000600010EB8100006810F0F840704710B4D7
:1002300010F1600313EB81031C6824F000441443A5
:100240001C6010BC704710B410F1600313EB810305
:100250001C6834F0807414431C6010BC704710B4E8
:1002600010F1600313EB81031C6834F00074144335
:100270001C6010BC7047426922F000420A43426190
:100280007047C06810F4406F01D1012000E00020E9
:10029000704770B410F130040B009B0913F00C038D
:1002A0001C1925681F2611F01F039E40B543C2F399
:1002B000846611F01F039E403543256070BC704773
:1002C00070B410F114030C00E40D14F00404E318EE
:1002D0001C6807250E00360D16F01F06B540AC430E
:1002E0000D002D0D15F01F0512FA05F52C431C60AD
:1002F00070BC704710B4DFF83C339A4207D1D0F895
:10030000B0404B035B0B1C43C0F8B04006E0D0F894
:10031000B0404B035B0B9C43C0F8B04010BC70472F
:10032000806810F01F0070478268DFF80C130A40E5
:10033000826070478068400F10F00100704782684B
:10034000DFF8F8120A4052F08052826070478068ED
:10035000000F10F0010070478268DFF8E0120A40D9
:1003600052F0010282607047806810F0010070470F
:100370008268DFF8C8120A4052F0040282607047B7
:100380008068800810F0010070478068C00810F095
:10039000010070472DE9F84F04005FF000090020CC
:1003A0000090002C01D101203FE16069002802D0BB
:1003B00094F824000128E06D002807D1200000F007
:1003C00073FD00202066002084F858002068FFF7A5
:1003D000B1FF002802D02068FFF7A6FF2068FFF7D2
:1003E000B6FF002813D12068FFF7A9FFDFF85002FD
:1003F0000068DFF85012B0FBF1F0401C40000090A4
:100400000098002803D00098401E0090F8E720686C
:10041000FFF79DFF002809D1E06D50F01000E06566
:10042000206E50F001002066012081462068FFF711
:10043000A7FF0500E06DC00600F1EF80002D40F041
:10044000EC80E06D30F4807050F00200E0652068D0
:10045000FFF78AFF00283DD12068B0F1A04F04D0FB
:100460002068DFF81013884202D1DFF80C0301E0A6
:10047000DFF80803DFF800B358450AD15FF0A04069
:10048000FFF772FF0600DFF8EC02FFF76DFF06438F
:100490000EE0DFF8EC02FFF767FF0600DFF8E4028A
:1004A000FFF762FF0643DFF8E002FFF75DFF064358
:1004B000002E0FD12068B0F1A04F04D02068DFF8E3
:1004C000B412884200D101E0DFF8B0B2616858464A
:1004D000FFF782FE607FE16B51EA4031E068014343
:1004E000A068014394F8240051EA00418A4694F838
:1004F0002400012803D1A06A401E5AEA404AE06A5B
:10050000002807D0E06A10F4787050EA0A0A206BDD
:1005100050EA0A0A2068C168DFF8700201405AEA0E
:1005200001012068C1602068016931F04061606BA1
:100530000143206801612068FFF722FF070020685F
:10054000FFF723FF804658EA070000284CD1207FA0
:1005500094F83810490051EA80318A462068C16811
:10056000DFF82C0201405AEA01012068C1602069CD
:10057000002810D02068006950F48030216808619C
:100580002068D0F8C010890B8903206901432068D6
:10059000C0F8C0100DE02068006930F48030216898
:1005A00008612068D0F8C000800B80032168C1F882
:1005B000C00094F84000012810D1206801696FF351
:1005C0008A01606C0143A06C0143E06C0143206D23
:1005D000014351F001012068016105E020680069D4
:1005E00040084000216808616069012809D120683D
:1005F000006B00090001216A491E08432168086355
:1006000005E02068006B00090001216808630120F3
:10061000E16D60F30101E16505E0E06D50F010006F
:10062000E065012081464846C0B2BDE8F28F000077
:1006300000F0FF0300007F40C0FFFF5FC0FFFF7FAF
:100640000C000020400D03002DE9F04105000E00D4
:1006500017002868B0F1A04F03D0286845498842A8
:1006600001D1454800E04548FFF75AFE04002868DC
:10067000FFF786FE002876D195F85800012801D1B1
:10068000022074E0012085F8580028683E4988421D
:1006900005D0002C03D0052C01D0092C5DD12800F9
:1006A00000F038FB80464046C0B2002851D1E96DC9
:1006B0003848014051F48071E96528682D49884225
:1006C00002D15FF0A04006E028682E49884201D19F
:1006D0002B4800E028682968884201D0002C03D10B
:1006E000E86D30F48010E865E86DC00404D5286E2C
:1006F00030F00600286601E000202866DFF8D40507
:10070000696DC862DFF8D005696D0863DFF8CC0554
:10071000696D48631C2029680860002085F858002E
:100720002868406850F01000296848602868C06850
:1007300050F001002968C8603B003200286810F1C1
:100740004001686D00F09CFC80462868FFF710FEB1
:100750000BE0002085F8580007E05FF0010800205A
:1007600085F8580001E05FF002084046C0B2BDE8DD
:10077000F08100000001005000030050000700500D
:100780000004005000050050000600500740F0FF34
:10079000FDBFFFFFFEF1FFFF2DE9F84F80468946C0
:1007A0005FF0000A00200090DFF844B5D9F80C0093
:1007B0005845FFD198F85800012801D1022086E25F
:1007C000012088F85800D8F80000FFF7D9FD00286C
:1007D00040F07082D9F80020D9F80410D8F8000051
:1007E000FFF757FDD8F80000FFF7CAFD0600D8F85C
:1007F0000000FFF7CAFD070057EA0600002840F096
:100800000A81D9F80800B0F1004F0DD10022D9F8C3
:100810000010D8F80000FFF753FD5FF00041D8F852
:100820000000FFF728FD0CE0D9F80820D9F80010E7
:10083000D8F80000FFF744FD0021D8F80000FFF7CA
:100840001AFDD9F81400D8F80010C968C1F3C10125
:10085000490088400400D9F8100004281FD0230064
:10086000D9F80020D9F81010D8F80000FFF7C4FC20
:10087000D9F81820D9F81010D8F80000FFF7E3FCD9
:1008800099F81C00012802D15FF0007200E00022FC
:10089000D9F81010D8F80000FFF7E1FCBBE0002108
:1008A000D8F80000FFF7BAFC400307D10021D8F8C0
:1008B0000000FFF7B3FCC0F3846008E00021D8F823
:1008C0000000FFF7ABFC90FAA0F0B0FA80F0D9F886
:1008D0000010490304D1D9F80010C1F3846105E088
:1008E000D9F8001091FAA1F1B1FA81F1884205D14D
:1008F00000220021D8F80000FFF799FC0121D8F868
:100900000000FFF78BFC400307D10121D8F800005D
:10091000FFF784FCC0F3846008E00121D8F80000F0
:10092000FFF77CFC90FAA0F0B0FA80F0D9F8001044
:10093000490304D1D9F80010C1F3846105E0D9F866
:10094000001091FAA1F1B1FA81F1884205D100229B
:100950000121D8F80000FFF76AFC0221D8F8000056
:10096000FFF75CFC400307D10221D8F80000FFF735
:1009700055FCC0F3846008E00221D8F80000FFF7BE
:100980004DFC90FAA0F0B0FA80F0D9F800104903BD
:1009900004D1D9F80010C1F3846105E0D9F8001042
:1009A00091FAA1F1B1FA81F1884205D10022022128
:1009B000D8F80000FFF73BFC0321D8F80000FFF750
:1009C0002DFC400307D10321D8F80000FFF726FCD7
:1009D000C0F3846008E00321D8F80000FFF71EFC94
:1009E00090FAA0F0B0FA80F0D9F80010490304D1D1
:1009F000D9F80010C1F3846105E0D9F8001091FA2C
:100A0000A1F1B1FA81F1884205D100220321D8F881
:100A10000000FFF70CFCD8F80000FFF7A5FC002849
:100A200040F0A980D9F80C20D9F80010D8F80000BF
:100A3000FFF760FCD9F80C00584540F09C80D9F8CD
:100A40000000400304D1D9F80000C0F3846005E041
:100A5000D9F8000090FAA0F0B0FA80F0401C10F035
:100A60001F000A283FD2D9F80000400304D1D9F86A
:100A70000000C0F3846105E0D9F8000090FAA0F00E
:100A8000B0FA80F1D9F80000400304D1D9F8000091
:100A9000C0F3846005E0D9F8000090FAA0F0B0FA45
:100AA00080F0D9F80020520304D1D9F80020C2F315
:100AB000846205E0D9F8002092FAA2F2B2FA82F23A
:100AC000491C890611F0F8410123401C10F01F0059
:100AD00013FA00F00143521C12F01F02032042439C
:100AE00051EA025141E0D9F80000400304D1D9F89D
:100AF0000000C0F3846105E0D9F8000090FAA0F08E
:100B0000B0FA80F1D9F80000400304D1D9F8000010
:100B1000C0F3846005E0D9F8000090FAA0F0B0FAC4
:100B200080F0D9F80020520304D1D9F80020C2F394
:100B3000846205E0D9F8002092FAA2F2B2FA82F2B9
:100B4000491C890611F0F8410123401C10F01F00D8
:100B500013FA00F00143521C12F01F020A3A03205C
:100B6000424351EA025151F00071D9F80820D8F8F7
:100B70000000FFF7A5FBD9F80000DFF87811084264
:100B800000F0A080D8F80000B0F1A04F05D0D8F850
:100B90000000DFF84C11884202D1DFF8480101E083
:100BA000DFF84401FFF724FB0500D9F80000DFF867
:100BB0004811884205D0D9F80000DFF8401188427A
:100BC00032D1280230D4D8F80000B0F1A04F05D0BF
:100BD000D8F80000DFF82811884273D1D8F8000057
:100BE000B0F1A04F05D0D8F80000DFF8F41088422B
:100BF00002D1DFF8F00001E0DFF8EC0055F400016D
:100C0000FFF7F0FADFF8FC000068DFF8FC10B0FB3B
:100C1000F1F1491C0C20414300910098002851D06B
:100C20000098401E0090F8E7D9F80000DFF8DC10CB
:100C3000884220D1E8011ED4DFF8A400D8F80010C3
:100C4000814205D1D8F80010DFF8A020914239D0B8
:100C5000D8F80010B1F1A04F03D0D8F800108142AD
:100C600002D1DFF8800001E0DFF87C0055F08071F0
:100C7000FFF7B8FA26E0D9F80000DFF894108842B0
:100C800020D168021ED41648D8F80010814219D02D
:100C9000D8F80010B1F1A04F03D0D8F8001081426D
:100CA00001D1104801E0DFF8400055F48001FFF762
:100CB00099FA07E0D8F85C0050F02000C8F85C0012
:100CC00001208246002088F858005046C0B2BDE896
:100CD000F28F0000910D0008170E0008250E000885
:100CE00000010050000300500007005000050050B4
:100CF00000007F4000000880000021C31000C09069
:100D0000000600500C000020400D0300000052C7F8
:100D1000000084CB38B504002068FFF725FB0028CD
:100D200034D1206880686FF39E10002809D0E06DF0
:100D300050F01000E065206E50F0010020660120A8
:100D400025E02068FFF708FB00F0D8FA05002068CE
:100D50000068C0071AD42068FFF706FB002802D1FC
:100D60002068FFF7F9FA00F0C9FA401B0328EED318
:100D700020680068C007EAD4E06D50F01000E0651C
:100D8000206E50F001002066012000E0002032BDFE
:100D900038B50400A56AE86D10F0500F2FD1E86D4A
:100DA00050F40070E86528680068000714D52868CA
:100DB000FFF767FA00281ED02868C06880041AD49C
:100DC000E86D30F48070E865E86DC00413D4E86D18
:100DD00050F00100E8650EE02868C06880070AD47A
:100DE000E86D30F48070E865E86DC00403D4E86D08
:100DF00050F00100E865280000F092FA0AE0E86D82
:100E0000C00603D5280000F09BFA03E02000696DBE
:100E1000496B884731BD38B50400A56A280000F049
:100E200073FA31BD38B50400A56AE86D50F0400092
:100E3000E865286E50F004002866280000F080FA6B
:100E400031BD0EE002684368024408305FEAC37CAB
:100E500044BF4B445B1E52F804CB43F804CB091F3C
:100E6000F9D150F8041B0029ECD1704780B54648F1
:100E7000016851F001010160006810F0010000906C
:100E800000984248016851F080510160006810F0FC
:100E900080500090009800220F217FF0010000F0A8
:100EA000B2FA00F04AFB01BD30B59BB0040014213A
:100EB000002201AD280000F053FB5421002206ADB2
:100EC000280000F04DFB20683149884248D15FF48A
:100ED000803006905FF00040189006A800F074FB88
:100EE000002801D000F06FFE2A48016851F48041CB
:100EF0000160016811F4804100910099016851F08E
:100F000002010160006810F00200009000980220C9
:100F10000190032002900020039001A91E4800F0D8
:100F200055FE1E4D1E482860252068600020A860E0
:100F30000020E860802028614FF4807068614FF4E1
:100F40008060A8612020E8614FF4405028622800AA
:100F500000F02AF8002801D000F035FE6565AC628B
:100F60001BB030BD81B001680E4A914209D10749DA
:100F70000A6852F002020A60096811F00201009149
:100F8000009901B070470000601002405810024004
:100F9000000400504C10024000040048BC36002001
:100FA000080002400004004038B50400002C01D1C4
:100FB000012064E02068DFF81C1388420CD221680D
:100FC000DFF8140341181420B1FBF0F080006064D6
:100FD000DFF8080320640BE02168DFF80403411800
:100FE0001420B1FBF0F080006064DFF8F8022064A8
:100FF000022084F82500206805686FF30E15A068AC
:101000000543E06805432069054360690543A0691D
:101010000543E0690543206A054320680560200018
:1010200000F028F9A068B0F5804F01D10020606081
:10103000207900F0FF00A16C0860206DE16C486031
:10104000606800280CD06068052809D2200000F0F4
:101050002FF90020616D0860E06DA16D486005E02A
:10106000002060650020A0650020E0650020E063AE
:10107000012084F82500002084F82400002032BDDF
:101080002DE9F04104000D0016001F005FF000087C
:1010900094F82400012801D102204EE0012084F8B8
:1010A000240094F82500012840D1022084F825006E
:1010B0000020E06320680068400840002168086064
:1010C0003B0032002900200000F0B2F8206B00281D
:1010D00006D02068006850F00E00216808600BE020
:1010E0002068006830F0040021680860206800680B
:1010F00050F00A0021680860A06C0068C00305D5A4
:10110000A06C006850F48070A16C0860606D0028CD
:1011100005D0606D006850F48070616D08602068D3
:10112000006850F001002168086004E0002084F8A5
:101130002400022080464046C0B2BDE8F08170B570
:101140000400206C056820680668042094F84410A8
:1011500011F01F0110FA01F10D4219D0710717D5D6
:1011600021680968890605D42168096831F00401FD
:101170002268116094F8441011F01F018840216C1E
:101180004860206B002852D02000216B88474EE039
:10119000022094F8441011F01F0110FA01F10D42E1
:1011A0001FD0B1071DD521680968890608D42168B8
:1011B000096831F00A0122681160012184F82510C4
:1011C00094F8441011F01F018840216C4860002001
:1011D00084F82400E06A002829D02000E16A8847CA
:1011E00025E0082094F8441011F01F0188400542C2
:1011F0001DD030071BD52068006830F00E00216834
:101200000860012094F8441011F01F018840216CFF
:1012100048600120E063012084F82500002084F864
:101220002400606B002802D02000616B884770BDED
:1012300030B4046DC56C6C60446D002C02D0C46D7C
:10124000856D6C60012490F8445015F01F05AC408A
:10125000056C6C60046863608468102C04D10468B9
:10126000A2600468E16003E00468A1600468E260D1
:1012700030BC704730B40168164A914201D21A4C12
:1012800000E01A4C2200017801F0FF010839142314
:10129000B1FBF3F3416C8908890089188164144912
:1012A000C164012513F01F018D40056530BC7047F6
:1012B000017901F0FF010F4A12EB810242650E4AEB
:1012C0008265012211F1FF0313F01F039A40C265EA
:1012D0007047000008040240F8FFFDBF0000024014
:1012E000F8FBFDBF00040240000802402008024055
:1012F00080080240FC0802404009024001480068A2
:10130000704700BFC039002010B504000A49002012
:101310000880002300220948006800F06EFE10BD1E
:1013200010B504000449012008800023002203486E
:10133000006800F062FE10BD143A0020B8390020A9
:101340007047FEE710B410F00703DFF8EC402268A6
:101350004FF6FF010A4052EA0322DFF8E0100A4389
:10136000226010BC704734480068C0F30220704708
:10137000010049B2002909D4012210F01F018A405E
:101380002F4903005BB25B0941F82320704710B47A
:10139000020052B2002A05D40A012A4B040064B2AA
:1013A0001A5508E00A01284B040064B214F00F0437
:1013B000234403F8042C10BC704770B4030013F0EE
:1013C0000704D4F10700052801D3042001E0D4F17B
:1013D0000700251D072D01D2002500E0E51E01268E
:1013E00016FA00F0401E0140A94016FA05F56D1EE0
:1013F0002A401143080070BC704710B5040020005B
:10140000FFF7A0FF10BDF8B504000D001600FFF7B0
:10141000AAFF0700320029003800FFF7CEFF0100C5
:10142000200040B2FFF7B3FFF1BD10B5040020006B
:1014300040B2FFF79DFF10BD0CED00E00000FA0583
:1014400000E100E000E400E018ED00E010B402006C
:10145000002A32D1DFF8F000036813F4C063B3F55B
:10146000806F23D1DFF8E4301C6834F480741C6092
:101470000123046863F34A240460DFF8D40003689E
:1014800032204343DFF8CC00B3FBF0F0401C0100F6
:10149000DFF8C40003685B0503D5002901D0491EAD
:1014A000F6E70068400545D5032044E0DFF89C00DE
:1014B000036833F4807303603CE0B2F5007F32D1FF
:1014C000DFF88400036813F4C063B3F5806F23D1A1
:1014D000DFF878301C6854F480741C6001230468C1
:1014E00063F34A240460DFF8680003683220434352
:1014F000DFF86000B3FBF0F0401C0100DFF858009B
:1015000003685B0503D5002901D0491EF6E7006892
:1015100040050FD503200EE0DFF83000036853F4D8
:101520008073036006E0DFF820000223046863F3A1
:101530004A240460002010BC70470848016851F438
:1015400080410160704700000070004080700040E2
:101550000C00002040420F00147000400870004052
:1015600062F30F2262F31F42401810F0030308D009
:10157000C91A1FD3DB0748BF00F8012D28BF20F888
:10158000022D130030B414461546103928BF20E947
:101590003C00FAD8490728BF20E90C0048BF40F8B2
:1015A000042D890028BF20F8022D48BF00F8012D26
:1015B00030BC7047C91818BF00F8012DCB0728BFF1
:1015C00000F8012D7047FEE72DE9F84F05000027D0
:1015D0005FF00008286800037AD55FF00009DFF8A3
:1015E0003CA3DAF80000C0000DD4DAF8000050F097
:1015F0008050CAF80000DAF8000010F08050009027
:10160000009801208146DFF818B3DBF8000050F4A1
:101610008070CBF80000FFF771FE0600DBF80000D9
:10162000C00506D4FFF76AFE801B0328F6D303200B
:1016300007003800C0B200283FD1DFF8E8B2DBF87D
:10164000000010F440700400002C15D0286D844276
:1016500012D0DBF8000030F440700400DBF800002A
:1016600050F48030CBF80000DBF8000030F480301C
:10167000CBF80000CBF80040E0070FD5FFF73EFEA7
:101680000600DBF80000800708D4FFF737FE801B58
:1016900041F289318842F4D3032007003800C0B2F8
:1016A000002808D1DBF8001031F44071286D0143A7
:1016B000CBF8001002E0B84600E0B8464846C0B299
:1016C000012805D1DAF8000030F08050CAF8000097
:1016D0002878C00707D5DFF850120A6892089200F0
:1016E000686802430A602878800707D5DFF8381257
:1016F0000A6832F00C02A86802430A6028784007A2
:1017000007D5DFF824120A6832F03002E868024395
:101710000A602878000707D5DFF80C120A6832F053
:10172000C002286902430A602878C00607D5DFF89E
:10173000F8110A6832F44072686902430A60287836
:10174000800607D5DFF8E0110A6832F44062A86924
:1017500002430A602878400607D5DFF8CC110A68F2
:1017600032F44052E86902430A602878000607D53F
:10177000DFF8B4110A6832F44042286A02430A6072
:101780002868C00507D5DFF8A0110A6832F4403296
:10179000686A02430A602868800307D5DFF88C1165
:1017A0000A6892089200A86A02430A6028688005C5
:1017B00007D5DFF874110A6832F44022E86A024360
:1017C0000A602868400511D5DFF85C110A6832F418
:1017D0004012286B02430A60286BB0F5801F05D1C8
:1017E000DFF84C01016851F48011016028680005A0
:1017F00011D5DFF834110A6832F44002686B0243F5
:101800000A60686BB0F5800F05D1DFF8240101682C
:1018100051F4801101602868C00411D5DFF8081167
:101820000A6832F04072A86B02430A60A86BB0F1FC
:10183000807F05D1DFF8F800016851F48011016064
:101840002868800411D5DFF8E0100A6832F04062A1
:10185000E86B02430A60E86BB0F1006F05D1DFF876
:10186000D000016851F4801101602868400411D54E
:10187000DFF8B4100A6832F04062286C02430A6054
:10188000286CB0F1006F05D1DFF8A400016851F4B5
:10189000801101602868000411D5DFF88C100A68F7
:1018A00032F04052686C02430A60686CB0F1805FAD
:1018B00005D1DFF87C00016851F4803101602868AF
:1018C000C00311D5DFF860100A6822F04042A86C0E
:1018D00002430A60A86CB0F1804F05D1DFF85000D8
:1018E000016851F4803101602868400311D5DFF8A8
:1018F0003C100A6832F44012E86C02430A60E86C5B
:10190000B0F5001F05D1DFF82800016851F48011FF
:1019100001604046C0B2BDE8F28F0000581002409E
:101920000070004090100240881002409C1002405D
:101930000C10024080B500F0F5FB00F016F800F046
:101940000BF900F0ECF800F051F800F0ACF890481A
:1019500000F037FC4FF47A628E498F48FEF774FE30
:1019600000F0DCFE00F010FFFEE718B593B0382160
:10197000002205AC2000FFF7F3FD142100226C4685
:101980002000FFF7EDFD0020FFF760FD022005902D
:101990004FF4807008904020099002200C900220A3
:1019A0000D9004200E9055200F90022010900220E0
:1019B00011900220129005A800F0EAFE002801D044
:1019C00000F001F90F200090032001900020029008
:1019D00000200390002004900421684601F047F99C
:1019E000002801D000F0EFF814B010BD18B58BB08E
:1019F0000C21002208AC2000FFF7B2FD20210022BC
:101A00006C462000FFF7ACFD634C644820605FF437
:101A1000403060600020A0600020E0600020206175
:101A2000002060610420A061002020770020607702
:101A300001202062002084F824004FF49060E062CE
:101A40004FF440602063012084F838004FF4805048
:101A5000E063002084F840002000FEF79BFC002893
:101A600001D000F0B0F80020089008A9200001F093
:101A7000B0FA002801D000F0A6F8494800900620EE
:101A80000190002002907F20039004200490002009
:101A9000059069462000FEF77FFE002801D000F087
:101AA00092F80CB010BD18B587B01021002203AC1D
:101AB0002000FFF755FD0C2100226C462000FFF7A7
:101AC0004FFD334C37482060002060600020A0604C
:101AD00040F25310E060002020610020A06120004F
:101AE00000F032FB002801D000F06DF84FF4805078
:101AF000039003A9200000F0CBFC002801D000F0E7
:101B000062F820200090002002906946200001F039
:101B100031FB002801D000F056F808B010BD80B5A8
:101B20002148016851F004010160016811F00401CD
:101B300000910099016851F001010160006810F006
:101B4000010000900098002205210B20FFF75BFCAC
:101B50000B20FFF76AFC01BD10B586B014210022EE
:101B600001AC2000FFF7FCFC1048016851F00201B5
:101B70000160006810F002000090009802200190BF
:101B80000320029001A90A4800F020F806B010BD19
:101B9000243800201000002050360020000400509F
:101BA0000200300400040040481002404C10024083
:101BB0000004004810B504002068B0F1804F01D146
:101BC00001F048FB10BD72B6FEE70000F8B4030058
:101BD00000250868E840002800F0CB8001260F6847
:101BE00016FA05F007403A00002A00F0C080087994
:101BF00010F00300012804D0087910F00300022837
:101C000019D19F685FF0030C68001CFA00FC37EAEA
:101C10000C07D1F80CC068001CFA00FC5CEA07074E
:101C20009F605868AE40B0434E68C6F30016AE40A1
:101C3000304304005C60087910F0030003280AD0E8
:101C4000DE68032768008740BE438F6868008740CE
:101C50003E433400DC60087910F00300022816D1FE
:101C60002800C00803EB8000006A0F26AF0017F0C1
:101C70001C07BE40B0430E69AF0017F01C07BE4002
:101C8000304304002800C00803EB800004621E6893
:101C9000032768008740BE430F7917F003076800E9
:101CA00087403E4334001C60486810F4403F5ED0DB
:101CB0003148066856F001060660006810F0010021
:101CC000009000982D4E2800800856F820000F271D
:101CD0005FEA850C1CF00C0C17FA0CF7B843B3F153
:101CE000904F01D1002419E0254CA34201D10124D9
:101CF00014E0244CA34201D102240FE0224CA34261
:101D000001D103240AE0214CA34201D1042405E0BF
:101D10001F4CA34201D1052400E00624AF0017F0B8
:101D20000C07BC4020432C00A40846F82400194EA0
:101D3000346894434F68FF0200D514433460164E54
:101D4000306890434F68BF0200D510433060134C99
:101D5000266896434F68BF0300D516432660104897
:101D6000046894434F68FF0300D5144304606D1C5E
:101D70002FE7F1BC704700006010024008000140EE
:101D80000004004800080048000C0048001000480B
:101D900000140048080401400C0401400404014000
:101DA0000004014010B4020052B2002A06D40A0115
:101DB000DFF88031040064B21A5509E00A01DFF847
:101DC0007831040064B214F00F04234403F8042CA7
:101DD00010BC704780B5DFF86401006801F095FE23
:101DE000012801D002F00CF801BD80B500217FF080
:101DF0000400FFF7D7FF01BDEFF30580002802D0F4
:101E00007FF005000AE0DFF838110868002803D1E8
:101E100001200860002001E05FF0FF30704710B53E
:101E2000EFF30580002802D07FF005000EE0DFF818
:101E300010412068012807D1FFF7D7FF022020605A
:101E400001F05CFB002001E05FF0FF3010BD2DE9E8
:101E5000FF4707008846140000200390EFF3058039
:101E6000002862D1380000285FD0802082461820E8
:101E70000500002081465FF0FF300600002C33D0C3
:101E80002068002801D020688146A069002801D080
:101E9000A0690500002D04D0392D02D22079C00799
:101EA00001D5002042E06069002802D06069800806
:101EB0008246A06800280BD0E0685C2808D320691F
:101EC000002805D06069002802D0012006000DE03E
:101ED000A06800280AD1E068002807D120690028FE
:101EE00004D10020060001E000200600012E0CD1E4
:101EF000A0680290206901900095434652464946E9
:101F0000380001F0B3F903900FE0002E0DD103A8C3
:101F1000019000954346524692B24946380001F07E
:101F2000F2F9012801D000200390039804B0BDE825
:101F3000F087000000E400E018ED00E010E000E0B1
:101F4000903900202DE9F84305000E0014005FF0E1
:101F50000008EFF3058000284CD1002D4AD0002E58
:101F600048D05FF0FF300700002C1FD0A068002889
:101F70000DD0E06850280AD32069002807D0606996
:101F800006FB05F1884202D30120070010E0A0689B
:101F900000280DD1E06800280AD12069002807D167
:101FA0006069002804D10020070001E0002007003C
:101FB000012F09D100200090A36822693100280078
:101FC00001F0BCFF804607E0002F05D10022310060
:101FD000280002F014F88046B8F1000F0AD0002C57
:101FE00002D02068814601E00020814649464046F3
:101FF00002F05BFB4046BDE8F2832DE9F8430700A1
:102000000C0090461D003E005FF00009EFF30580D4
:10201000002820D0002E03D0002C01D0002D03D0AA
:102020007FF0030081462FE00020009000236A46E5
:102030002100300002F0FAF8012803D07FF00200FE
:10204000814621E0009800281ED05FF08050DFF824
:10205000D010086018E0002E01D0002C03D17FF0D2
:102060000300814610E000232A002100300002F026
:102070000AF8012808D0002D03D07FF00100814626
:1020800002E07FF0020081464846BDE8F2832DE978
:10209000F84307000C0090461D003E005FF0000969
:1020A000EFF3058000281FD0002E03D0002C01D0B4
:1020B000002D03D07FF0030081462DE0002000902A
:1020C0006A462100300002F0DBF9012803D07FF0DE
:1020D0000200814620E0009800281DD05FF080506B
:1020E000DFF83C10086017E0002E01D0002C03D16F
:1020F0007FF0030081460FE02A002100300002F04B
:1021000007F9012808D0002D03D07FF00100814697
:1021100002E07FF0020081464846BDE8F2830000FD
:1021200004ED00E010B500240320FFF766F90F204E
:1021300002F0F6FA002802D00120040001E0FEF7C8
:1021400095FE2000C0B210BD10B50400002C01D1D6
:10215000012035E094F83D00002805D1002084F8E6
:102160003C002000FEF7FEFE022084F83D00211D09
:10217000206800F01DFA012084F84800012084F84E
:102180003E00012084F83F00012084F84000012037
:1021900084F84100012084F84200012084F84300C3
:1021A000012084F84400012084F84500012084F8CF
:1021B0004600012084F84700012084F83D000020FB
:1021C00010BD010091F83D00012801D0012048E038
:1021D000022081F83D000868C06850F001000B68DB
:1021E000D8600868DFF87C30984221D00868B0F1E8
:1021F000804F1DD00868DFF87030984218D008680A
:10220000DFF86830984213D00868DFF864309842ED
:102210000ED00868DFF85C30984209D00868DFF813
:102220005830984204D00868DFF85030984211D1F5
:1022300008688368DFF8480003401A00062A0FD0B8
:10224000B2F5803F0CD00868006850F001000B68C0
:10225000186005E00868006850F001000B6818601D
:1022600000207047002C014000040040000800409E
:10227000000C00400034014000400140005001408B
:102280000700010010B504002068006980071AD516
:102290002068C068800716D57FF0020021680861B9
:1022A000012020772068806910F0030F03D0200000
:1022B00002F092FA05E0200002F08FFA200002F00E
:1022C0008DFA002020772068006940071AD5206821
:1022D000C068400716D57FF004002168086102201D
:1022E00020772068806910F4407F03D0200002F03E
:1022F00073FA05E0200002F070FA200002F06EFA96
:10230000002020772068006900071AD52068C0687F
:10231000000716D57FF008002168086104202077A7
:102320002068C06910F0030F03D0200002F054FAB7
:1023300005E0200002F051FA200002F04FFA0020E0
:10234000207720680069C0061AD52068C068C006DA
:1023500016D57FF0100021680861082020772068DA
:10236000C06910F4407F03D0200002F035FA05E088
:10237000200002F032FA200002F030FA002020772C
:1023800020680069C0070AD52068C068C00706D564
:102390007FF00100216808612000FFF70BFC206836
:1023A000006900060AD52068C068000606D57FF0DF
:1023B000800021680861200002F011FA206800699D
:1023C000C0050AD52068C068000606D57FF4807075
:1023D00021680861200002F003FA206800694006C5
:1023E0000AD52068C068400606D57FF04000216805
:1023F0000861200002F0F5F92068006980060AD51E
:102400002068C068800606D57FF02000216808613A
:10241000200002F0E7F920680069C0020AD52068B0
:10242000C068C00206D57FF48010216808612000D2
:1024300002F0D9F92068006980020AD52068C068D6
:10244000800206D57FF4001021680861200002F0A8
:10245000CBF92068006940020AD52068C0684002B4
:1024600006D57FF4800021680861200002F0BDF9E4
:102470002068006900020AD52068C068000206D5FD
:102480007FF4000021680861200002F0AFF910BD60
:10249000F8B504000D00002694F83C00012801D195
:1024A000022083E0012084F83C00022084F83D00F3
:1024B00020688768DFF83C02074037F47F472068D0
:1024C00087602868002862D0103860D010385ED04D
:1024D00010385CD0103850D010383AD0103842D074
:1024E00010381BD04FF47961401A16D04FF4805148
:1024F000401A21D05FF47E21401A48D0103846D0CF
:10250000103844D0103842D0103840D010383ED067
:1025100010383CD010383AD03EE03FE0EB686A68B3
:10252000A968206800F0EEF82068806850F0770015
:1025300007002068876031E0EB686A68A968206856
:1025400000F0E0F82068806850F4804021688860DE
:1025500024E0EA686968206800F09EF8502120684D
:1025600000F0BFF81AE0EA686968206800F0A6F891
:102570006021206800F0B5F810E0EA68696820681A
:1025800000F08AF84021206800F0ABF806E02968E6
:10259000206800F0A6F801E001200600012084F880
:1025A0003D00002084F83C003000C0B2F2BD0000C5
:1025B00010B40468314B984216D0B0F1804F13D05C
:1025C000DFF8BC2090420FD0DFF82C2190420BD0D6
:1025D000DFF82821904207D0DFF8A820904203D0EE
:1025E000DFF8B020904203D134F070044A681443FD
:1025F00098421ED0B0F1804F1BD0DFF8842090426B
:1026000017D0DFF8F420904213D0DFF8F02090428A
:102610000FD01C4A90420CD01B4A904209D01B4A52
:10262000904206D01A4A904203D0DFF868209042C8
:1026300003D134F44074CA68144334F080044A6906
:10264000144304608A68C2620A68826298420FD0AA
:102650000C4A90420CD00C4A904209D00B4A90424E
:1026600006D00B4A904203D0DFF82820904201D1D7
:102670000A6902630122426110BC7047002C0140CC
:10268000000400400034014000400140004401408B
:10269000004801400050014010B4046A036A5B081E
:1026A0005B000362836933F0F00353EA021334F0F2
:1026B0000A040C438361046210BC704710B4036ABF
:1026C00033F0100303628369046A33F4704353EAFE
:1026D000023334F0A00454EA01148361046210BC94
:1026E00070478368064A13400B4353F00703836027
:1026F0007047000088FFCEFF00080040000C00403B
:102700008FFFCFFF10B4846834F47F440C4314432C
:1027100054EA0324846010BC7047000080B5FFF7C2
:102720006BFB0E4A02210120FFF70CFC0C490860EC
:102730000C4A00210C48FFF78AFB0C4908600C4A40
:1027400000210C48FFF783FB0B4908600B4A00216E
:102750000B48FFF77CFB0B49086001BDB857000828
:10276000B83900209856000843130008AC390020FF
:10277000BC560008B1550008B0390020E0560008EA
:10278000C7150008B439002080B5FFF748FB01BD2C
:102790002DE9FC470400002C01D1012065E22078DE
:1027A000C00760D5DFF8D407006810F00C00060001
:1027B000DFF8D807006810F0030007000C2E01D1E5
:1027C000032F01D0082E09D1DFF8A8070068800385
:1027D00049D56068002846D1012046E26068B0F51E
:1027E000803F06D1DFF88C07016851F48031016029
:1027F00018E06068B0F5A02F0AD1DFF8780701680B
:1028000051F480210160016851F48031016009E0D8
:10281000DFF86007016831F480310160016831F44C
:1028200080210160606800280ED0FEF767FD05007A
:10283000DFF840070068800315D4FEF75FFD401BFA
:102840006528F5D3032010E2FEF758FD0500DFF8F8
:1028500024070068800306D5FEF750FD401B65285D
:10286000F5D3032001E22078800766D5DFF80C0756
:10287000006810F00C000600DFF81007006810F088
:10288000030007000C2E01D1022F01D0042E1BD112
:10289000DFF8E0060068400504D5E068002801D1B3
:1028A0000120E2E1DFF8D006016831F0FE41226943
:1028B00051EA02610160DFF8D006006801F030FFE4
:1028C00000283AD00120D0E1E06800281FD0DFF8CE
:1028D000A486D8F8000050F48070C8F80000FEF715
:1028E0000DFD0500D8F80000400506D4FEF706FDF2
:1028F000401B0328F6D30320B7E1DFF87C0601680C
:1029000031F0FE41226951EA0261016015E0DFF811
:102910006486D8F8000030F48070C8F80000FEF734
:10292000EDFC0500D8F80000400506D5FEF7E6FCF2
:10293000401B0328F6D3032097E1207800072ED50B
:102940006069002815D0DFF84886D8F8000050F0FC
:102950000100C8F80000FEF7D1FC0500D8F800001F
:1029600080071CD4FEF7CAFC401B0328F6D30320C3
:102970007BE1DFF81C86D8F8000040084000C8F86A
:102980000000FEF7BBFC0500D8F80000800706D564
:10299000FEF7B4FC401B0328F6D3032065E1207842
:1029A000400740F181805FF00008DFF8E895D9F832
:1029B0000000C0000DD4D9F8000050F08050C9F8D4
:1029C0000000D9F8000010F080500090009801201D
:1029D0008046DFF8C4A5DAF80000C00513D4DAF8A1
:1029E000000050F48070CAF80000FEF787FC050074
:1029F000DAF80000C00506D4FEF780FC401B03286F
:102A0000F6D3032031E1A068012806D1DFF88C0558
:102A1000016851F00101016017E0A06805280AD1A2
:102A2000DFF87805016851F004010160016851F098
:102A30000101016009E0DFF8640501684908490007
:102A40000160016831F004010160A068002810D025
:102A5000FEF754FC0500DFF844050068800719D430
:102A6000FEF74CFC401B41F289318842F3D303202E
:102A7000FBE0FEF743FC0500DFF820050068800757
:102A800008D5FEF73BFC401B41F289318842F3D365
:102A90000320EAE04046C0B2012805D1D9F8000081
:102AA00030F08050C9F80000207880062ED5A0694B
:102AB000002815D0DFF8E884D8F8000050F00100B5
:102AC000C8F80000FEF71AFC0500D8F800008007DF
:102AD0001CD4FEF713FC401B0328F6D30320C4E0EC
:102AE000DFF8BC84D8F8000040084000C8F80000B7
:102AF000FEF704FC0500D8F80000800706D5FEF7B5
:102B0000FDFB401B0328F6D30320AEE0E06900285C
:102B100000F0AA80DFF86404006810F00C000C28B4
:102B20006FD0E06902284BD1DFF84894D9F8000053
:102B300030F08070C9F80000FEF7E0FB8046D9F85D
:102B40000000800107D5FEF7D9FBB0EB0800032891
:102B5000F5D3032089E0DFF834140A68DFF8440471
:102B60000240206A0243606A401E52EA0012A06AD4
:102B700052EA0022206B4008401E52EA4052606B2D
:102B80004008401E52EA4062E06A52EAC0620A60AF
:102B9000D9F8000050F08070C9F80000086850F0C3
:102BA00080700860FEF7AAFB0500D9F800008001DC
:102BB0005AD4FEF7A3FB401B0328F6D3032054E0AE
:102BC000DFF8B083D8F8000030F08070C8F800005B
:102BD000DFF8B81308688008800008600A68DFF82A
:102BE000C80302400A60FEF789FB0500D8F8000020
:102BF000800139D5FEF782FB401B0328F6D3032062
:102C000033E0E069012801D101202EE0DFF87C03E8
:102C10000068070017F00300216A884222D117F0EC
:102C2000F000616A491EB0EB011F1BD117F4FE4092
:102C3000A16AB0EB012F15D117F07840E16AB0EB33
:102C4000C16F0FD117F4C000216B4908491EB0EBCA
:102C5000415F07D117F0C060616B4908491EB0EBB6
:102C6000416F01D0012000E00020BDE8F6872DE98A
:102C7000F04704000D005FF00008002C01D1012096
:102C8000EAE0DFF82893D9F8000010F00F00A8421E
:102C90000ED2D9F80000000900012843C9F800004D
:102CA000D9F8000010F00F00A84201D00120D3E0B5
:102CB0002078C00763D56068032821D1DFF8B4020B
:102CC0000068800101D40120C6E000F02FF9070060
:102CD000DFF8DC02874234D3DFF8A012086810F076
:102CE000F00F05D0207880072BD5A068002828D1C8
:102CF00008200A6860F307120A608020804620E0FE
:102D00006068022806D1DFF86C020068800308D4EE
:102D10000120A1E0DFF85C020068400501D4012039
:102D20009AE000F09BF80700DFF88402874208D39E
:102D3000DFF848020821026861F307120260802070
:102D40008046DFF838A2DAF8001089088900606848
:102D50000143CAF80010FEF7D1FA0600DAF80000C5
:102D600010F00C006168B0EB810F08D0FEF7C6FAD6
:102D7000801B41F289318842F0D303206CE0207837
:102D800080071BD52078400705D5DFF8F0010168E2
:102D900051F4E06101602078000706D5DFF8DC011E
:102DA0000721026861F30D220260DFF8D0110A6882
:102DB00032F0F002A06802430A6008E0B8F1800F28
:102DC00005D1DFF8B801016831F0F0010160D9F8F0
:102DD000000010F00F00854218D2D9F80000000959
:102DE00000012843C9F80000FEF788FA0600D9F868
:102DF000000010F00F00A84208D0FEF77FFA801BF9
:102E000041F289318842F2D3032025E0207840073F
:102E100006D55A490A6832F4E062E06802430A6063
:102E20002078000707D55548016831F460512269C0
:102E300051EAC201016000F011F85E494F4A126880
:102E4000C2F30312895C11F01F01C8404D490860AC
:102E50004D48006801F064FCBDE8F08770B4474855
:102E6000056815F00C05042D01D1454832E00568D0
:102E700015F00C05082D01D14F482BE0006810F02B
:102E80000C000C2825D1414D286810F003000200E9
:102E90002868C0F30310401C0400032A08D14648E8
:102EA000B0FBF4F62868C0F306204643310007E083
:102EB0003348B0FBF4F62868C0F3062046433100DF
:102EC0002868C0F34160401C40000300B1FBF3F0F0
:102ED00000E0002070BC70472A480068704780B549
:102EE000FFF7FAFF3549254A1268C2F30222895CCE
:102EF00011F01F01C84002BD0F2202601F4A136873
:102F000013F003034360136813F0F0038360136846
:102F100013F4E063C3601268D20812F4E062026145
:102F2000224A126812F00F020A60704710B4174A62
:102F3000146814F003041068C0F303135B1C032C23
:102F400007D11D48B0FBF3F11068C0F306204143E0
:102F500006E00B48B0FBF3F11068C0F306204143D4
:102F60001068C0F34162521C5200B1FBF2F010BC79
:102F70007047000000100240041002400810024098
:102F80000024F4000C000020040000200C1002407B
:102F9000941002405810024000700040901002400F
:102FA000981002400C809F01FFFFEEFE00200240BF
:102FB00001B4C404F457000800366E014C580008F0
:102FC000806810F0010070478068800810F00100F0
:102FD00070472DE9F0439BB006000F005FF000083A
:102FE0003868002896F85800012801D10220AEE088
:102FF000012086F8580000201790002018903068B3
:10300000B0F1A04F02D15648009008E0306857490F
:10301000884202D15148009001E0002000900098C1
:10302000002808D1F06D50F02000F065002086F8EF
:10303000580001208BE00098FFF7C6FF81463068FA
:10304000FFF7C2FF59EA0000002875D13068B0F1DF
:10305000A04F03D030684249884201D1414D00E081
:103060003D4D3868002838D0A96831F4604178684F
:10307000014396F8380051EA4031A9603068B0F158
:10308000A04F03D030683649884201D1354800E06E
:1030900031483449884209D15FF0A040FFF790FFE2
:1030A00004002F48FFF78CFF04430BE02F48FFF785
:1030B00087FF04002948FFF783FF04432A48FFF7EE
:1030C0007FFF0443002C3DD1A9682948014038689E
:1030D0000143B8680143A96034E0A86830F4604057
:1030E000A8603068B0F1A04F03D030681C49884216
:1030F00001D11C4800E018481A49884209D15FF004
:10310000A040FFF75DFF04001548FFF759FF044397
:103110000BE01648FFF754FF04001048FFF750FF7C
:1031200004431148FFF74CFF0443002C0AD1A9685F
:103130000F480140A96005E0F06D50F02000F065F7
:1031400001208046002086F858004046C0B21BB0DF
:10315000BDE8F083000000000007005000050050AB
:103160000001005000030050000600500004005011
:10317000E0F0FFFF70B4020092F83C00012801D19A
:10318000022055E0012082F83C00022082F83D0038
:103190001068436810688468DFF898501068A84287
:1031A00009D01068DFF89060B04204D01068DFF8F2
:1031B0008C60B04203D133F4700348680343DFF8F6
:1031C0008000034008680343106843601068A84209
:1031D00021D01068B0F1804F1DD01068DFF8645026
:1031E000A84218D01068DFF86050A84213D01068C9
:1031F000DFF85850A8420ED01068DFF83C50A842C3
:1032000009D01068DFF84850A84204D01068DFF8F1
:103210002C50A84205D134F080048868044310681B
:103220008460012082F83D00002082F83C000020EC
:1032300070BC7047002C0140003401400050014038
:103240008FFFFFFD0004004000080040000C00401C
:103250000040014003490A680348006882180A6078
:10326000704700BFC0390020080000202DE9F84752
:1032700085B006000F00904699460F9C109D002CCB
:1032800007D1502080F31188BFF34F8FBFF36F8FAA
:10329000FEE7002D07D1502080F31188BFF34F8F38
:1032A000BFF36F8FFEE75C20009000985C2807D08A
:1032B000502080F31188BFF34F8FBFF36F8FFEE76D
:1032C0000098002D19D0002C17D0AA46CAF830401B
:1032D00002208AF8590000200390CDF808A004A825
:1032E00001900E9800904B4642463900300000F0A5
:1032F00043F8504600F0B3F801E000200490049831
:1033000006B0BDE8F0872DE9F84384B006000F0051
:1033100090469946404680B2800001F069FA050067
:10332000002D0BD05C2001F063FA0400002C01D0CA
:10333000256304E0280001F0EFFA00E00024002CEF
:1033400015D0002084F859000020039002940D98B5
:1033500001900C9800904B46424692B239003000E2
:1033600000F00AF8200000F07AF8012001E05FF098
:10337000FF3005B0BDE8F0832DE9F94F81B00C00B6
:1033800016000C9F0D9DDDF83880B00000905FF0B6
:10339000A50BD8F830A05A4600995046FEF7E0F841
:1033A000D8F8300000EB8600B0F1040A5FEADA0AD0
:1033B0005FEACA0A1AF00700002807D0502080F3FD
:1033C0001188BFF34F8FBFF36F8FFEE7002C15D02E
:1033D00000208146B9F1100F0CD214F8090008EB57
:1033E000090181F8340014F80900002802D019F10D
:1033F0000109EFE7002088F8430002E0002088F888
:103400003400382F01D337200700C8F82C70C8F8D3
:103410004C700020C8F8500018F1040001F03BFB8C
:1034200018F1180001F037FBC8F81080D7F1380008
:10343000C8F81800C8F824800020C8F854000020FC
:1034400088F85800029A0199504600F019FCC8F813
:103450000000002D01D0C5F80080BDE8F78F38B519
:10346000040000F09DFCDFF8DC130868401C0860D5
:10347000DFF8D4532868002806D12C60086801289A
:103480000DD100F0C1FA0AE0DFF8C003006800289F
:1034900005D1E06A2968C96A884200D32C60DFF848
:1034A000B0030168491C016000686064DFF8A40390
:1034B0000168E26A914201D2E16A0160211DDFF8F0
:1034C0009823E36A1420434302EB030001F0E6FA79
:1034D00000F080FCDFF87403006800280DD0286835
:1034E000C06AE16A884208D25FF08050DFF84C146D
:1034F0000860BFF34F8FBFF36F8F31BD10B586B03B
:10350000002004900020039005AA03A904A801F05C
:1035100001FBDFF8A8460498029003980190002070
:1035200000900023059ADFF898160FF2B940FFF7D4
:103530009DFE20602068002801D0012400E00024C6
:10354000012C02D101F0F2FA0400012C16D1502016
:1035500080F31188BFF34F8FBFF36F8F5FF0FF30A1
:10356000DFF8601608600120DFF8E0120860002034
:10357000DFF8B013086000F0ACFB0AE014F1010FB3
:1035800007D1502080F31188BFF34F8FBFF36F8FA7
:10359000FEE706B010BDDFF888030168491C016032
:1035A0007047F8B500250026DFF87443206800282E
:1035B00007D1502080F31188BFF34F8FBFF36F8F77
:1035C000FEE700F0EDFB2068401E20602068002828
:1035D00057D1DFF870020068002852D0DFF8D81504
:1035E0000868002827D0C868C068050015F11800D1
:1035F00001F07BFA281D01F078FADFF85802016823
:10360000EA6A914201D2E96A0160291DDFF8482285
:10361000EB6A1420434302EB030001F03FFAE86A2F
:10362000DFF824120968C96A8842D7D30120DFF87D
:1036300098150860D2E7002D01D000F053FADFF8AA
:103640008C753C68002C0CD000F023F8002803D0C7
:103650000120DFF874150860641E002CF4D10020EE
:103660003860DFF86405006800280AD001200600F1
:103670005FF08050DFF8C4120860BFF34F8FBFF3D4
:103680006F8F00F0A7FB3000F2BDDFF898020068F2
:1036900070472DE9F0410027A1480068002875D146
:1036A000DFF880020468641C0460002C1CD1DFF881
:1036B000201308680068002807D0502080F3118884
:1036C000BFF34F8FBFF36F8FFEE7D1F80080DFF8B5
:1036D000100302680A60C0F80080DFF8F404016893
:1036E000491C016000F0FEF9DFF8D884D8F800002A
:1036F000844238D3DFF8D81208680068002804D163
:103700005FF0FF30C8F800002DE00868C068C068AE
:10371000050068680600B44202D2C8F8006022E0E2
:10372000281D01F0E2F9A86A002803D015F118005D
:1037300001F0DBF947480168EA6A914201D2E96A7F
:103740000160291D444AEB6A1420434302EB030045
:1037500001F0A4F9E86A3C490968C96A8842C9D3FA
:1037600001200700C6E7384800683B49C26A1420B8
:1037700042438858022801D301200700DFF848049B
:103780000068002807D00120070004E0DFF83C04AF
:103790000168491C01603800BDE8F08110B4604840
:1037A0000068002804D00120DFF81C1408602CE019
:1037B0000020DFF814140860264A10681423264CF1
:1037C00003FB00F1615800290BD1002807D15021DB
:1037D00081F31188BFF34F8FBFF36F8FFEE7401E59
:1037E000ECE703FB00F304EB03014B685B684B6001
:1037F0004B6811F10804A34202D14B685B684B602F
:103800004968C968104B1960106010BC704738B522
:1038100004000D00002C07D1502080F31188BFF365
:103820004F8FBFF36F8FFEE7DFF8A803006810F13A
:103830001801200001F03EF90121280000F0D2F922
:1038400031BD0000D4390020C4390020E039002007
:10385000F0390020DC390020502B002070B5050025
:103860000E001400002D07D1502080F31188BFF303
:103870004F8FBFF36F8FFEE7DFF8D403006810F1BE
:103880001801280001F00AF9002C02D05FF0FF3087
:1038900006002100300000F0A5F970BD38B5050024
:1038A000E868C468002C07D1502080F31188BFF36A
:1038B0004F8FBFF36F8FFEE714F1180001F015F979
:1038C00017480068002815D1201D01F00EF9DFF817
:1038D00008030168E26A914201D2E16A0160211D98
:1038E000DFF8F822E36A1420434302EB030001F0FF
:1038F000D5F805E014F11801DFF8BC0201F0CEF8AC
:10390000DFF8D0020068C06AE16A884205D201206F
:103910000121DFF8B422116000E0002032BD000078
:10392000FC390020D8390020DFF8A41209680160B2
:10393000DFF82013096841607047000004ED00E0E3
:103940002DE9F04104000D00002C07D1502080F338
:103950001188BFF34F8FBFF36F8FFEE7002D07D1A4
:10396000502080F31188BFF34F8FBFF36F8FFEE7B6
:1039700000F016FADFF8DC0206686768F71B2868B3
:1039800010F1010F02D15FF000081BE0DFF84002E8
:1039900000682168884205D06068864202D35FF0E3
:1039A00001080FE02868874208D22868C01B2860F9
:1039B0002000FFF7B9FF5FF0000803E00020286057
:1039C0005FF0010800F006FA4046BDE8F081000013
:1039D000C83900200120DFF8F011086070470000AE
:1039E000CC39002010B5040000F039F8DFF8EC0104
:1039F00000680228F8D35FF0805028490860BFF3C0
:103A00004F8FBFF36F8FEFE770B50024382C09D2CA
:103A1000DFF8C801142101FB04F1084401F02CF87F
:103A2000641CF3E7DFF83052280001F025F8DFF8D6
:103A30002C62300001F020F8DFF87C0101F01CF866
:103A4000DFF81C0201F018F8DFF8180201F014F892
:103A5000DFF814020560DFF81402066070BD38B5A7
:103A6000DFF80C522868002817D000F099F9DFF829
:103A7000F001C068C0680400201D01F036F8DFF8CE
:103A8000F4010168491E01602868401E286000F0AA
:103A9000A1F9200000F004F8E2E731BD04ED00E0F8
:103AA00010B5040094F85900002806D1206B00F0EE
:103AB00033FF200000F030FF13E094F85900012894
:103AC00003D1200000F028FF0BE094F859000228F1
:103AD00007D0502080F31188BFF34F8FBFF36F8F53
:103AE000FEE710BDDFF8802110680068002804D1CF
:103AF0005FF0FF30334A106006E01068C068C068AD
:103B0000010048682F4A10607047DFF86C010068B8
:103B1000002801D1012007E0DFF8C4000068002878
:103B200001D1022000E00020704770B5040025009C
:103B30000026002C3ED0DFF89C000068854207D0AC
:103B4000502080F31188BFF34F8FBFF36F8FFEE7D4
:103B5000286D002807D1502080F31188BFF34F8FC4
:103B6000BFF36F8FFEE7286D401E2865E86AE96C99
:103B700088421FD0286D00281CD1281D00F0B5FFF9
:103B8000E86CE862E86AD0F13800A861DFF8480024
:103B90000168EA6A914201D2E96A0160291DDFF8F1
:103BA0003C20EB6A1420434302EB030000F076FF55
:103BB00001200600300070BD24390020F8390020B3
:103BC00054580008F4390020E8390020E439002076
:103BD000EC390020C4390020DC390020502B0020B3
:103BE000FC3900202DE9F04105000C001948076858
:103BF000DFF85C80D8F80000001D00F076FF15F1BA
:103C0000010F08D1002C06D0D8F80000011D15487E
:103C100000F044FF1AE0E8190600D8F800004660FA
:103C2000BE4207D2D8F80000011D1048006800F01D
:103C300041FF0BE0D8F80000011D0B48006800F0C0
:103C400039FF0E4801688E4200D20660BDE8F0815F
:103C5000C4390020D8390020FC3800201039002059
:103C6000383900204C390020C8390020CC390020D8
:103C7000D0390020D4390020E0390020F439002068
:103C8000001F5FF080730360001F4B085B00036040
:103C9000001F0FF21503036014380260001F7FF04D
:103CA00002030360203870477348006810F1010F69
:103CB00007D0502080F31188BFF34F8FBFF36F8F71
:103CC000FEE7502080F31188BFF34F8FBFF36F8F53
:103CD000FEE7E0B569480168694A914207D1502082
:103CE00080F31188BFF34F8FBFF36F8FFEE700683B
:103CF0006449884207D1502080F31188BFF34F8F69
:103D0000BFF36F8FFEE7604801780191FF210170DA
:103D100001788DF800109DF8001011F050015B4AF9
:103D200011705B4907220A609DF80020120608D531
:103D30000A68521E0A609DF8002052008DF800208B
:103D4000F2E70A68D2F10702042A07D0502181F372
:103D50001188BFF34F8FBFF36F8FFEE70A6812021F
:103D60000A600A6812F4E0620A6001990170494829
:103D7000016851F470010160016851F07041016007
:103D800001F034F900203C49086001F093F9424801
:103D9000016851F04041016001F07CF900200EBD46
:103DA000502080F31188BFF34F8FBFF36F8F3249DC
:103DB0000A68521C0A60096801290AD13749096852
:103DC000090606D080F31188BFF34F8FBFF36F8FC2
:103DD000FEE7704728490868002807D1502080F383
:103DE0001188BFF34F8FBFF36F8FFEE70868401E47
:103DF00008600868002802D1002080F3118870470D
:103E000080B5502080F31188BFF34F8FBFF36F8FC1
:103E1000FFF73FFC002803D05FF080501F49086087
:103E2000002080F3118801BDEFF30580102811D325
:103E30001B4A1268125C11000A00144B1B78D2B2A4
:103E40009A4207D2502282F31188BFF34F8FBFF3FB
:103E50006F8FFEE70E4A1268124B1B6813F4E06383
:103E60009A4207D2502282F31188BFF34F8FBFF3DB
:103E70006F8FFEE7704700000000002000ED00E0BB
:103E800071C20F4170C20F4100E400E0163A0020F9
:103E9000BC39002020ED00E034EF00E004ED00E04C
:103EA000705800080CED00E070B506000C003500FD
:103EB000002D07D1502080F31188BFF34F8FBFF33F
:103EC0006F8FFEE7FFF76CFF2968EA6B286C4243AF
:103ED00001EB0200A8600020A863286868602968D8
:103EE000EA6B521E286C424301EB0200E8605FF06F
:103EF000FF3085F8440085F84500002C12D1286970
:103F0000002817D015F11000FFF7C8FC002811D0C9
:103F10005FF08050DFF864150860BFF34F8FBFF388
:103F20006F8F07E015F1100000F0A6FD15F12400D9
:103F300000F0A2FDFFF74EFF012070BD2DE9F84310
:103F400006000C0015001F00DDF82090002E07D1A0
:103F5000502080F31188BFF34F8FBFF36F8FFEE7C0
:103F6000002F07D1502080F31188BFF34F8FBFF38C
:103F70006F8FFEE7002D01D0002C01D0012000E062
:103F80000020C0B2002807D1502080F31188BFF371
:103F90004F8FBFF36F8FFEE7002D01D1002C01D1B1
:103FA000012000E00020C0B2002807D1502080F39B
:103FB0001188BFF34F8FBFF36F8FFEE75020009043
:103FC0000098502807D0502080F31188BFF34F8FFE
:103FD000BFF36F8FFEE70098B846B8F1000F0BD023
:103FE000012088F84600CDF800804B46DBB22A005D
:103FF0002100300000F02CF84046BDE8F2832DE9A6
:10400000F84304000E001700002C07D1502080F365
:104010001188BFF34F8FBFF36F8FFEE706FB04F9E4
:1040200019F1500000F0E4FB0500002D0DD0280030
:1040300050308046002085F8460000953B00DBB2FA
:1040400042463100200000F003F82800BDE8F2836A
:104050002DE9F04105000C0016001F00DDF8188066
:10406000002C02D1C8F8008001E0C8F80060C8F850
:104070003C50C8F8404001214046FFF715FF88F842
:104080004C70BDE8F0812DE9F74380460D0099465C
:1040900000244646002E07D1502080F31188BFF33C
:1040A0004F8FBFF36F8FFEE7002D02D1306C0028D9
:1040B00001D1012000E00020C0B2002807D150202B
:1040C00080F31188BFF34F8FBFF36F8FFEE7B9F115
:1040D000020F02D1F06B012801D1012000E0002085
:1040E000C0B2002807D1502080F31188BFF34F8F52
:1040F000BFF36F8FFEE7FFF708FD002802D102989B
:10410000002801D1012000E00020C0B2002807D122
:10411000502080F31188BFF34F8FBFF36F8FFEE7FE
:10412000FFF73EFEB06BF16B884202D3B9F1020F8C
:1041300027D14A462900300000F0FAF90700706ADA
:1041400000280FD016F12400FFF7A8FB002814D098
:104150005FF08050DFF824130860BFF34F8FBFF388
:104160006F8F0AE0002F08D05FF08050DFF80C134B
:104170000860BFF34F8FBFF36F8FFFF72BFE012057
:1041800052E00298002803D1FFF724FE00204BE004
:10419000002C04D16846FFF7C7FB01200400FFF79D
:1041A00019FEFFF7F8F9FFF7FBFD96F9440010F14F
:1041B000010F02D1002086F8440096F9450010F165
:1041C000010F02D1002086F84500FFF703FE02A987
:1041D0006846FFF7B5FB002820D1300000F056FA02
:1041E000002815D0029916F11000FFF710FB3000DF
:1041F00000F007FAFFF7D5F9002891D15FF0805061
:10420000DFF878120860BFF34F8FBFF36F8F87E737
:10421000300000F0F6F9FFF7C4F981E7300000F054
:10422000F0F9FFF7BEF90020BDE8FE832DE9F84F55
:1042300007000C00150098463E00002E07D15020C4
:1042400080F31188BFF34F8FBFF36F8FFEE7002C11
:1042500002D1306C002801D1012000E00020C0B262
:10426000002807D1502080F31188BFF34F8FBFF390
:104270006F8FFEE7B8F1020F02D1F06B012801D178
:10428000012000E00020C0B2002807D1502080F3B8
:104290001188BFF34F8FBFF36F8FFEE7FFF7C4FDA9
:1042A000EFF31189502080F31188BFF34F8FBFF3D4
:1042B0006F8FB06BF16B884202D3B8F1020F22D13D
:1042C00096F945A0D6F838B042462100300000F0FB
:1042D0002FF950465FF0FF3140B288420DD1706A2D
:1042E000002809D016F12400FFF7D8FA002803D0DF
:1042F000002D01D00120286003E01AF1010086F8AA
:104300004500012000E0002089F31188BDE8F28F0C
:104310002DE9F64182B080460E0000244746002F6A
:1043200007D1502080F31188BFF34F8FBFF36F8FF9
:10433000FEE7002E02D1386C002801D1012000E0F8
:104340000020C0B2002807D1502080F31188BFF3AD
:104350004F8FBFF36F8FFEE7FFF7D7FB002802D127
:104360000398002801D1012000E00020C0B20028FD
:1043700007D1502080F31188BFF34F8FBFF36F8FA9
:10438000FEE7FFF70DFDBD6B002D1BD0310038009F
:1043900000F01CF9681EB863386900280ED017F1C8
:1043A0001000FFF77BFA002808D05FF08050DFF89C
:1043B000CC100860BFF34F8FBFF36F8FFFF70AFD7C
:1043C000012057E00398002803D1FFF703FD0020E8
:1043D00050E0002C04D16846FFF7A6FA0120040043
:1043E000FFF7F8FCFFF7D7F8FFF7DAFC97F944007E
:1043F00010F1010F02D1002087F8440097F9450021
:1044000010F1010F02D1002087F84500FFF7E2FC10
:1044100003A96846FFF794FA002820D1380000F07D
:1044200027F9002815D0039917F12400FFF7EFF9B9
:10443000380000F0E6F8FFF7B4F80028A1D15FF0EB
:104440008050DFF838100860BFF34F8FBFF36F8FD5
:1044500097E7380000F0D5F8FFF7A3F891E73800A8
:1044600000F0CFF8FFF79DF8380000F001F90028C0
:1044700087D0002004B0BDE8F081000004ED00E02A
:104480002DE9F04780460C0015004646002E07D166
:10449000502080F31188BFF34F8FBFF36F8FFEE77B
:1044A000002C02D1306C002801D1012000E0002056
:1044B000C0B2002807D1502080F31188BFF34F8F7E
:1044C000BFF36F8FFEE7FFF7AFFCEFF311895020CA
:1044D00080F31188BFF34F8FBFF36F8FB76B002F3F
:1044E00021D096F944A02100300000F06FF8781E2A
:1044F000B06350465FF0FF3140B288420DD1306961
:1045000000280ED016F11000FFF7C8F9002808D0D7
:10451000002D06D00120286003E01AF1010086F882
:104520004400012000E0002089F31188BDE8F087F5
:104530002DE9F84F06000F0014005FF00008B56B7E
:10454000306C002809D1306800283AD1B068FFF7F4
:10455000ECFA80460020B06033E0002C14D1D6F88D
:104560004090BA46D6F804B04A465146584600F044
:10457000AFFD7068316C084470607068B168884243
:104580001FD3306870601CE0D6F84090BA46D6F869
:104590000CB04A465146584600F09AFDF068316C1E
:1045A00049420844F060F0683168884204D2B0683B
:1045B000316C49420844F060022C02D1002D00D039
:1045C0006D1E681CB0634046BDE8F28F2DE9F041D6
:1045D00004000D00206C002811D0E068216C084414
:1045E000E060E068A168884201D32068E060266C42
:1045F000E768A84632003900404600F069FDBDE892
:10460000F081F8B50400FFF7CBFB94F94550280082
:1046100040B201280CDB606A002809D014F12400A4
:10462000FFF73CF9002801D0FFF7D4F96D1EEEE743
:104630005FF0FF3684F84560FFF7CCFBFFF7B0FB77
:1046400094F94470380040B201280CDB206900283E
:1046500009D014F11000FFF721F9002801D0FFF76D
:10466000B9F97F1EEEE784F84460FFF7B3FBF1BDB4
:1046700038B50400FFF794FBA06B002801D1012599
:1046800000E00025FFF7A6FB280032BD38B5040086
:10469000FFF786FBA06BE16B884201D1012500E0AA
:1046A0000025FFF797FB280032BD10B40023082B2C
:1046B0000CD2074C54F83320002A05D144F83310AB
:1046C00004EBC302506001E05B1CF0E710BC7047D4
:1046D000BC380020F8B504000D0016002700FFF7D5
:1046E0005FFB97F9440010F1010F02D1002087F819
:1046F000440097F9450010F1010F02D1002087F81E
:104700004500FFF767FBB86B002805D13200290090
:1047100017F12400FFF7A2F83800FFF772FFF1BD90
:104720002DE9F04F87B00400002500260027264819
:10473000016851F001010160006810F00100009073
:10474000009801A902A8FEF7D7FBFEF7C8FB804638
:104750001E48B8FBF0F9B9F10109DFF874A05FF069
:104760008040CAF8000040F2E730CAF80C00CAF8EE
:1047700004900020CAF810000020CAF80800504633
:10478000FDF7E2FC83465846C0B2002816D15046D9
:10479000FDF717FD83465846C0B200280ED11C20F5
:1047A000FCF743FE102C07D2002221001C20FCF74E
:1047B0002AFE0848046001E0012083465846C0B242
:1047C00007B0BDE8F08F00005810024040420F00D3
:1047D0007038002004000020704770477047704711
:1047E00070477047704770477047704770470000C8
:1047F0002DE9F84F04005FF00008FEF7CCFEDFF86B
:104800005492D9F80000002801D100F0C3F8DFF875
:1048100048A2DAF8000004426DD1002C15D08F4870
:104820000068041914F0070F0FD014F1080014F0F9
:104830000704041B14F0070F07D0502080F31188E1
:10484000BFF34F8FBFF36F8FFEE7002C53D0DFF81D
:1048500010B2DBF80000A0424DD382480600006889
:1048600005006868A04205D22868002802D02E0002
:104870002D68F6E7D9F8000085423CD077483168CA
:104880000268114488462968316000684000696800
:10489000091B884215D205EB0400070017F007003A
:1048A000002807D0502080F31188BFF34F8FBFF34B
:1048B0006F8FFEE76868001B78606C60380000F05E
:1048C0009AF8DBF800106868091ACBF800106648FF
:1048D000DBF800100268914202D2DBF800100160A0
:1048E0006968DAF8000001436960002028605F48C9
:1048F0000168491C0160FEF754FE18F0070000280B
:1049000007D0502080F31188BFF34F8FBFF36F8F14
:10491000FEE74046BDE8F28F70B504002600002C8B
:1049200037D04E4800684042064435004A4968681E
:104930000A68104207D1502080F31188BFF34F8FCF
:10494000BFF36F8FFEE72868002807D0502080F360
:104950001188BFF34F8FBFF36F8FFEE768680A6857
:10496000104216D02868002813D16A68086882436C
:104970006A60FEF710FE3A490A68686882180A60A1
:10498000280000F038F83A480168491C0160FEF739
:1049900008FE70BD70B44FF440623648010011F05B
:1049A000070F04D0C91DC908C900521A82180B008C
:1049B0002C48036000244460D41828480068241A56
:1049C000E408E400234D2C6000202E687060002075
:1049D0002E6830601800261A46602D68056045680C
:1049E000214E356045681E4E35605FF000451A4E19
:1049F000356070BC704730B41A4A1168814201D2E8
:104A00001268FAE7140051682144814204D15368C6
:104A10004168CB18536010000300416819441568C1
:104A2000A94210D10B4914680D68AC4208D0446803
:104A3000116849680C19446011680968016004E054
:104A40000968016001E011680160824200D01060D5
:104A500030BC704794390020A83900206C580008F9
:104A600098390020883900209C390020A039002086
:104A7000A4390020501F002010F1080141605FF0B0
:104A8000FF31816010F10801C16010F1080101617E
:104A900000210160704700210161704742684A604F
:104AA00093688B60936859609160086103685B1C30
:104AB0000360704710B40B6813F1010F01D1026954
:104AC00007E010F1080254682468A34201D3526839
:104AD000F9E754684C604C68A1608A6051600861D5
:104AE0000468641C046010BC7047010008698A688F
:104AF0004B689A604A688B685A6042688A4201D162
:104B00008A68426000220A610268521E02600068E0
:104B100070470000034B0360034B0B60802313605E
:104B2000704700BF1C370020B033002038B586B076
:104B3000002400F01DFADFF88404006800281ED06D
:104B4000002004900020039005AA03A904A800F007
:104B500013FBDFF86C540498029003980190022034
:104B600000900023059ADFF85C140FF21D10FEF789
:104B70007DFB28602868002801D001200400002C5B
:104B800007D1502080F31188BFF34F8FBFF36F8F91
:104B9000FEE7200007B030BD2DE9FF4704000D00FF
:104BA00016001F00DDF830805FF00009002C07D1EF
:104BB000502080F31188BFF34F8FBFF36F8FFEE754
:104BC000DFF8F8A3DAF80000002822D0009501965B
:104BD0000294062D15DAFEF798FF022808D100236B
:104BE00042466946DAF80000FFF74DFA814610E0C8
:104BF000002300226946DAF80000FFF744FA8146F4
:104C000007E000233A006946DAF80000FFF70EFBE0
:104C10008146484604B0BDE8F087F8B505000E00AF
:104C2000DFF8A4030068C068C768381DFFF75DFFA0
:104C300097F8280040071CD52B003200B9694919A4
:104C4000380000F090F8002819D0002000900023D0
:104C50002A0000213800FFF79FFF0400002C07D135
:104C6000502080F31188BFF34F8FBFF36F8FFEE7A3
:104C700005E097F8280010F0FE0087F828003800BB
:104C8000396A8847F1BD000038B50400684600F075
:104C900042F805000099280000F003F800F08CF8B5
:104CA000F4E77CB505000C00FEF775FC684600F0E3
:104CB00046F80600009800282AD1002C08D1AE4200
:104CC00006D3FEF76EFC31002800FFF7A6FF21E0B7
:104CD000002C08D0DFF8F40200680068002801D139
:104CE000012400E000242200A91BDFF8D0020068A4
:104CF000FFF7F0FCFEF755FC00280BD15FF0805069
:104D0000DFF8CC120860BFF34F8FBFF36F8F01E065
:104D1000FEF747FC73BD0100DFF8AC2210680068A5
:104D2000002801D1012000E0002008600868002868
:104D300003D11068C068006800E00020704770B5BB
:104D40000400FEF7A2FC0500DFF8886230688542A7
:104D500004D200F0C6F80120206001E000202060AD
:104D60003560280070BD2DE9F04104000D001600EB
:104D70001F005FF0000865602461AE420DD3F01B98
:104D8000A169884202D30120804612E0211DDFF88C
:104D90003C020068FFF78EFE0BE0BE4204D2BD422B
:104DA00002D30120804604E0211D87480068FFF7F8
:104DB00081FE4046BDE8F081F8B586B0002201A929
:104DC0007E480068FFF7A4FA002800F08880019868
:104DD000002804D502AFB96878683A68904701980E
:104DE0000028EBD4039805006869002802D0281D2C
:104DF000FFF77BFE05A8FFF7A2FF06000198002839
:104E00000ED002280CD00BD304283DD035D3062871
:104E100006D054D3082830D002D3092834D05DE01E
:104E200095F8280050F0010085F82800029B320018
:104E30000299A86941182800FFF795FF00281BD0A8
:104E40002800296A884795F82800400714D50020D3
:104E500000900023029AA869821800212800FFF719
:104E60009BFE0400002C07D1502080F31188BFF373
:104E70004F8FBFF36F8FFEE7A0E795F8280010F083
:104E8000FE0085F8280099E795F8280050F0010009
:104E900085F828000298A861A869002807D1502049
:104EA00080F31188BFF34F8FBFF36F8FFEE733009E
:104EB0003200A96989192800FFF755FF7EE795F8A8
:104EC0002800800703D42800FFF726FD05E095F8A9
:104ED000280010F0FE0085F828006FE76EE707B0A5
:104EE000F0BD2DE9FC41DFF8E080D8F80000006853
:104EF000002834D0D8F80000C06800680500D8F851
:104F00000000C068C0680700381DFFF7EEFD3800DC
:104F1000396A884797F828004007E4D5B8694019EE
:104F20000600B54207D27E603F61391DD8F8000007
:104F3000FFF7C0FDD7E70020009000232A000021E2
:104F40003800FFF729FE0400002C07D1502080F321
:104F50001188BFF34F8FBFF36F8FFEE7C3E7D8F819
:104F600000001A490A68C8F800200860BDE8F3810B
:104F70007CB5FEF715FF114C206800281BD1164D9B
:104F80002800FFF779FD154E3000FFF775FD0E483C
:104F900005600E48066000200090114B114A102158
:104FA0000A20FEF7CBFF20602068002803D00E49BE
:104FB0002068FFF77AFBFEF70DFF73BD083A00206B
:104FC0000C3A00205C580008003A0020043A002007
:104FD00004ED00E0103A0020603900207439002010
:104FE000D4370020B035002064580008084800215C
:104FF00001600021074A1160074909684FF47A727D
:10500000B1FBF2F1491E054A1160072101607047AA
:1050100010E000E018E000E00C00002014E000E0E8
:10502000EFF30980BFF36F8F264B1A681EF0100F45
:1050300008BF20ED108A20E9F04F106009B44FF04E
:10504000500080F31188BFF34F8FBFF36F8FFEF7CF
:10505000A5FB4FF0000080F3118809BC19680868AF
:10506000B0E8F04F1EF0100F08BFB0EC108A80F3CC
:105070000988BFF36F8F7047124B19680868B0E852
:10508000F04F80F30988BFF36F8F4FF0000080F37B
:10509000118870470C480068006880F308884FF05A
:1050A000000080F3148862B661B6BFF34F8FBFF380
:1050B0006F8F00DFDFF81400016841F470010160B8
:1050C00070470000C439002008ED00E088ED00E0E2
:1050D00062B38B0708D0521E11F8013B00F8013B68
:1050E00000F024808B07F6D1830740F0208000BFBA
:1050F000103A07D330B4B1E83810103AA0E83810AD
:10510000F9D230BC530724BFB1E80810A0E808105A
:1051100044BF51F8043B40F8043BD20724BF31F8A8
:10512000022B20F8022B44BF0B7803707047121F2C
:1051300017D35B0009D151F8043B20F8023B1B0C4C
:10514000121F20F8023BF6D20BE051F8043B00F8A6
:10515000013B1B0A20F8023B1B0C121F00F8013B0D
:10516000F3D238BF121D521E24BF11F8013B00F8C4
:10517000013BF8D870470000034B0360034B0B6002
:105180004FF480731360704778370020B02F0020F1
:1051900013F0004C03D55B42524263F100039CEADA
:1051A000210C00F0178010B5644603D349424042F9
:1051B00061F1000100F00EF8640004D3494240425E
:1051C00061F10001244203D55B42524263F10003C6
:1051D00010BD0000BBBBE1B1B2F5803F80F07E8026
:1051E000022A1ED98C46B1FBF2F102FB11C31B044B
:1051F00043EA1043B3FBF2FC02FB1C3380B240EAEB
:105200000343B3FBF2F002FB103240EA0C400023F0
:105210007047022A05D98446B0FBF2F002FB10C2A7
:1052200070474AB105D100F0010249085FEA300039
:10523000704700220023704700F0E4B80B00020022
:10524000002100207047904271EB030CF6D3B3F5B8
:10525000803F2FD2F0B5B3FA83F7B1FA81F4A7F10A
:105260000F0E3D1B5340CEF1200602FA0EF2F34121
:105270005340B5F10F0746D80F3C2C444140C4F1D0
:105280002006A040F1414140B1FBF3F603FB1611AB
:10529000A2FB0645001BA94102D2761E8018594187
:1052A00080EA010221FA0EF362FA0EF200215A405E
:1052B0003046F0BD30B4B1FBF3FC03FB1C11A2FB84
:1052C0000C45001BA94103D2ACF1010C80185941D7
:1052D00030BC02460B46604600217047B2F1807F29
:1052E00065D3F0B5B2FA82F7B1FA81F4C7F10F06CF
:1052F0003D1B22FA06F307F1110EF24120355A4008
:10530000B5F10F07B8D94140C4F12006A040F141E2
:105310004140B1FBF3FC03FB1C11A2FB0C45001B3D
:10532000A94103D2BCF1010C801859410F2F12D3AF
:105330000F3FC90341EA5041B1FBF3F603FB1611DD
:10534000A2FB0645D4EBC030A94102D2761E8018DC
:10535000594146EACC3C07B34140C7F12006B8406A
:10536000F1414140B1FBF3F603FB1611A2FB0645E8
:10537000001BA94102D2761E8018594180EA010221
:1053800021FA0EF3C7F1200462FA0EF20CFA07F0CC
:105390005A402CFA04F13043F0BD80EA010221FAB0
:1053A0000EF3002162FA0EF260465A40F0BD8C46C0
:1053B000B1FBF2F102FB11C31B0243EA1063B3FB22
:1053C000F2FC02FB1C331B024CEA002043EA106390
:1053D000B3FBF2FC02FB1C331B024CEA002043EA45
:1053E0001063B3FBF2FC02FB1C331B024CEA0020EF
:1053F00043EA1063B3FBF2FC02FB1C324CEA0020D0
:105400000023704770470000F8B502001400200028
:1054100000B201287CDB200000B2B0FA80F0B0F1CD
:105420001103D80702D424B29C4003E024B213F144
:10543000FF00844025002DB26D10260000EE104ABA
:10544000BAEE600A8DED000A0098344FB7EB6007A2
:105450000097DDED000AB0EE601ABEEEC91A11EE3B
:10546000100A84460FFA8CFC10FB00F0C01310FBEE
:1054700005F0C01300B2D0F5405000FB0CFC5FEA11
:10548000EC3C5FEA8C0084460FFA8CFC10FB00F0C9
:10549000C01310FB05F0C01300B2D0F5405000FB64
:1054A0000CFC5FEAEC3C5FEA8C0084460FFA8CFC53
:1054B00010FB00F0C01310FB05F0C01300B2D0F5D4
:1054C000405000FB0CFC5FEAEC3C5FEA8C0016FBF2
:1054D00000F0C0135FEA400CD8070AD40FFA8CFC26
:1054E000180000B25FF0020E90FBFEF05CFA00FCC8
:1054F0000AE00FFA8CFC180000B2401E5FF0020EAA
:1055000090FBFEF05CFA00FCA1F800C0002003E074
:10551000002008805FF0FF30F2BD00BFDF59375F29
:105520002DE9F84F07008846914600240025C4461F
:105530005FEA9C0CBCF1000F11D03E683A1D2000C0
:105540002900C6FBC60113689B46171D02000B000D
:10555000CBFBCB2314001D00BCF1010CEAE718F0D3
:105560000306002E0FD0B7F900008246BF1C52463A
:1055700012B253461BB220002900C3FBC201040033
:105580000D00761EEDE74946894620002900424677
:105590000023FFF7FDFDC00B40EA4140C91300F3B3
:1055A0000F00494600B2FFF72FFFBDE8F18F000062
:1055B000F8B504000020ADF800000025104F5FF0A2
:1055C000FF33002239000F480068FCF760FD060039
:1055D00038880500280080B2002806D16A464FF4BA
:1055E000FA610948FFF79CFFE8E7280080B201282C
:1055F000E4D16A464FF4FA610448FFF791FFDDE712
:10560000143A0020B839002010000020B00F00200C
:1056100030B4002512E050F8042BD30744BF4A44AD
:10562000521E091F042942F8045BFAD213468C0764
:1056300044BF15809B1CC90748BF1D7050F8041B50
:105640000029E8D130BC7047FEE7FEE7FEE7FEE741
:10565000FEE7704780B50448FBF771FD01BD80B5DA
:105660000248FCF70FFE01BDBC3600207038002058
:1056700010B5074979441831064C7C44163404E0CF
:105680000A68081D114488470146A142F8D110BD9F
:1056900098000000B8000000345800080000000026
:1056A00000000000000000000000000000020000F8
:1056B000180000000000000000000000E45700088F
:1056C00000000000000000000000000000000000DA
:1056D0000002000036000000000000000000000092
:1056E000405800080000000000000000000000001A
:1056F00000000000000200000800000000000000A0
:10570000000000004EF68851CEF20001086840F417
:1057100070000860BFF34F8FBFF36F8F4FF00170C1
:10572000E1EE100A70470000E9FEFFFF083A0000B2
:1057300010000020000000000BB7FFFF1000000069
:10574000E4000000000000200000000000F00DF860
:10575000002801D0FFF78CFFAFF300800020AFF3EB
:10576000008000F004F800F007F80120704780B5D1
:10577000FCF7E0F8002002BD00F000B8074638460C
:1057800000F002F8FBE7000080B5AFF30080024AAA
:1057900011001820ABBEFBE72600020005480146B9
:1057A00003B4684680F30988AFF30080FFF7AAFFCF
:1057B000FFF7CCFFA5EDF5FED05700080000000074
:1057C00000000000000000000000000000000000D9
:1057D00043616C63756C6174696F6E4E6F7469665A
:1057E0007900000041435F43616C63756C617469CB
:1057F0006F6E54000000000000000000010203046E
:105800000607080901488047014800471558000865
:105810009D5700080248016851F47001016070470B
:1058200088ED00E0AAAAAAAA10000000010000006A
:105830000024F400686967685072696F0000000016
:105840006D656469756D5072696F0000000000003D
:105850000102030449444C4500000000546D7220CD
:1058600053766300546D7251000000000800000080
:10587000F0E300E0FFF7FEBFFFF7FEBFFFF7FEBF5C
:10588000FFF7FEBFFFF7FEBFFFF7FEBFFFF7FEBF4C
:10589000FFF7FEBFFFF7FEBFFFF7FEBFFFF7FEBF3C
:1058A000FFF7FEBFFFF7FEBFFFF7FEBFFFF7FEBF2C
:1058B000FFF7FEBFFFF7FEBFFFF7FEBFFFF7FEBF1C
:1058C000FFF7FEBFFFF7FEBFFFF7FEBFFFF7FEBF0C
:1058D000FFF7FEBFFFF7FEBFFFF7FEBFFFF7FEBFFC
:1058E000FFF7FEBFFFF7FEBFFFF7FEBFFFF7FEBFEC
:1058F000FFF7FEBFFFF7FEBFFFF7FEBFFFF7FEBFDC
:10590000FFF7FEBFFFF7FEBFFFF7FEBFFFF7FEBFCB
:10591000FFF7FEBFFFF7FEBFFFF7FEBFFFF7FEBFBB
:10592000FFF7FEBFFFF7FEBFFFF7FEBFFFF7FEBFAB
:10593000FFF7FEBFFFF7FEBFFFF7FEBFFFF7FEBF9B
:10594000FFF7FEBFFFF7FEBFFFF7FEBFFFF7FEBF8B
:10595000FFF7FEBFFFF7FEBFFFF7FEBFFFF7FEBF7B
:10596000FFF7FEBFFFF7FEBFFFF7FEBFFFF7FEBF6B
:10597000FFF7FEBFFFF7FEBFFFF7FEBFFFF7FEBF5B
:10598000FFF7FEBFFFF7FEBFFFF7FEBFFFF7FEBF4B
:10599000FFF7FEBFFFF7FEBFFFF7FEBFFFF7FEBF3B
:1059A000FFF7FEBFFFF7FEBFFFF7FEBFFFF7FEBF2B
:1059B000FFF7FEBFFFF7FEBFFFF7FEBFFFF7FEBF1B
:1059C000FFF7FEBFFFF7FEBFFFF7FEBFFFF7FEBF0B
:1059D000FFF7FEBFFFF7FEBFFFF7FEBFFFF7FEBFFB
:1059E000FFF7FEBFFFF7FEBFFFF7FEBFFFF7FEBFEB
:1059F000FFF7FEBFFFF7FEBFFFF7FEBFFFF7FEBFDB
:040000050800579DFB
:00000001FF
