:020000040020DA
:10000000F06D00203D4B20008149200083492000F5
:100010008549200087492000894920000000000010
:10002000000000000000000000000000151B200080
:100030008B49200000000000B91A20000B1120009D
:10004000B54B2000B94B2000BD4B2000C14B200018
:10005000C54B2000C94B2000CD4B2000D14B2000C8
:10006000D54B2000D94B2000DD4B2000E14B200078
:10007000E54B2000E94B2000ED4B2000F14B200028
:10008000F54B2000F94B2000FD4B2000014C2000D7
:10009000054C2000094C20000D4C2000114C200084
:1000A000154C2000194C20001D4C2000214C200034
:1000B000254C2000294C20008D4920002D4C20008B
:1000C000314C2000354C2000394C20003D4C2000A4
:1000D000414C2000454C2000494C20004D4C200054
:1000E000514C2000554C2000594C20005D4C200004
:1000F000614C2000654C2000694C20006D4C2000B4
:10010000714C2000754C2000794C20007D4C200063
:10011000814C2000854C2000894C20008D4C200013
:1001200097492000914C2000954C2000994C2000CC
:100130009D4C2000A14C2000A54C2000A94C200083
:10014000AD4C2000B14C2000B54C2000B94C200033
:10015000BD4C2000C14C2000C54C2000C94C2000E3
:10016000CD4C2000D14C2000D54C2000D94C200093
:10017000DD4C2000E14C2000E54C20000000000098
:10018000E94C2000ED4C2000F14C2000F54C200003
:10019000F94C2000FD4C2000014D2000054D2000B1
:1001A000094D20000D4D2000114D2000154D20005F
:1001B000194D20001D4D2000214D2000254D20000F
:1001C000294D20002D4D20002DE9F84785B006006F
:1001D0000F00904699460F9C109D002C09D172B6D5
:1001E000502080F31188BFF34F8FBFF36F8F62B63B
:1001F000FEE7002D09D172B6502080F31188BFF3BD
:100200004F8FBFF36F8F62B6FEE75C2000900098BF
:100210005C2809D072B6502080F31188BFF34F8F4D
:10022000BFF36F8F62B6FEE70098002D19D0002C47
:1002300017D0AA46CAF8304002208AF85900002098
:100240000390CDF808A004A801900E9800904B46AA
:1002500042463900300000F043F8504600F0B5F84F
:1002600001E000200490049806B0BDE8F0872DE975
:10027000F84384B006000F0090469946404680B28D
:10028000800000F0CBFC0500002D0BD05C2000F0BE
:10029000C5FC0400002C01D0256304E0280000F018
:1002A00053FD00E00024002C15D0002084F85900F4
:1002B0000020039002940D9801900C9800904B46FA
:1002C000424692B23900300000F00AF8200000F0F7
:1002D0007CF8012001E05FF0FF3005B0BDE8F0835D
:1002E0002DE9F94F81B00C0016000C9F0D9DDDF833
:1002F0003880B00000905FF0A50BD8F830A05A46C7
:100300000099504600F0CEFDD8F8300000EB860092
:10031000B0F1040A5FEADA0A5FEACA0A1AF00700D3
:10032000002809D072B6502080F31188BFF34F8F98
:10033000BFF36F8F62B6FEE7002C15D00020814618
:10034000B9F1100F0CD214F8090008EB090181F87B
:10035000340014F80900002802D019F10109EFE770
:10036000002088F8430002E0002088F83400382F8D
:1003700001D337200700C8F82C70C8F84C70002053
:10038000C8F8500018F1040000F0CEFD18F1180074
:1003900000F0CAFDC8F81080D7F13800C8F818007E
:1003A000C8F824800020C8F85400002088F85800BD
:1003B000029A0199504600F0F5FDC8F80000002DA2
:1003C00001D0C5F80080BDE8F78F38B5040000F013
:1003D00066FEDFF8F0130868401C0860DFF8E85399
:1003E0002868002806D12C60086801280DD100F08B
:1003F000D1FA0AE0DFF8D4030068002805D1E06AEA
:100400002968C96A884200D32C60DFF8C4030168F8
:10041000491C016000686064DFF8B8030168E26AA3
:10042000914201D2E16A0160211DDFF8AC23E36A49
:100430001420434302EB030000F079FD00F04DFE71
:10044000DFF88803006800280DD02868C06AE16AD8
:10045000884208D25FF08050DFF854140860BFF380
:100460004F8FBFF36F8F31BD10B586B00020049061
:100470000020039005AA03A904A801F07BF8DFF887
:10048000D446049802900398019000200090002325
:10049000059ADFF8C4160FF2D940FFF795FE2060E9
:1004A0002068002801D0012400E00024012C02D1A2
:1004B00001F07CF80400012C18D172B6502080F3B2
:1004C0001188BFF34F8FBFF36F8F62B65FF0FF30BD
:1004D000DFF8881608600120DFF8F01208600020BD
:1004E000DFF8C813086000F08AFD0CE014F1010F7A
:1004F00009D172B6502080F31188BFF34F8FBFF33C
:100500006F8F62B6FEE706B010BDDFF89C0301688E
:10051000491C01607047F8B500250026DFF88843C4
:100520002068002809D172B6502080F31188BFF3EB
:100530004F8FBFF36F8F62B6FEE700F0B0FD20680B
:10054000401E20602068002856D1DFF8780200683D
:10055000002851D0DFF8F8150868002826D0C868B0
:10056000C068050015F1180000F008FD281D00F016
:1005700005FDDFF860020168EA6A914201D2E96A8A
:100580000160291DDFF85022EB6A1420434302EB7F
:10059000030000F0CCFCE86A8B490968C96A88420C
:1005A000D8D30120DFF8BC150860D3E7002D01D0B7
:1005B00000F060FADFF8A8753C68002C0CD000F061
:1005C00023F8002803D00120DFF898150860641E86
:1005D000002CF4D100203860DFF88805006800287E
:1005E0000AD0012006005FF08050DFF8C4120860D6
:1005F000BFF34F8FBFF36F8F00F06FFD3000F2BD80
:10060000DFF8A802006870472DE9F0410027A648EE
:10061000006800286FD1A5480468641C0460002CA1
:100620001ED1DFF8A41208680068002809D072B64D
:10063000502080F31188BFF34F8FBFF36F8F62B6E6
:10064000FEE7D1F80080DFF8840202680A60C0F893
:100650000080DFF814050168491C016000F00AFA07
:10066000DFF8F884D8F80000844238D3DFF8581255
:1006700008680068002804D15FF0FF30C8F8000067
:100680002DE00868C068C068050068680600B442CC
:1006900002D2C8F8006022E0281D00F06FFCA86AB2
:1006A000002803D015F1180000F068FC49480168E3
:1006B000EA6A914201D2E96A0160291D464AEB6A61
:1006C0001420434302EB030000F031FCE86A3E498A
:1006D0000968C96A8842C9D301200700C6E73A48B9
:1006E00000683D49C26A142042438858022807D353
:1006F0000120070004E0DFF868040168491C01607C
:10070000DFF860040068002801D0012007003800ED
:10071000BDE8F08110B464480068002804D00120CE
:10072000DFF8401408602EE00020DFF8381408607D
:10073000284A10681423284C03FB00F16158002953
:100740000DD1002809D172B6502181F31188BFF371
:100750004F8FBFF36F8F62B6FEE7401EEAE703FBE1
:1007600000F304EB03014B685B684B604B6811F1CD
:100770000804A34202D14B685B684B604968C968B2
:10078000114B1960106010BC704738B504000D00A3
:10079000002C09D172B6502080F31188BFF34F8F1F
:1007A000BFF36F8F62B6FEE70748006810F11801CB
:1007B000200000F0C8FB0121280000F0E1F931BD64
:1007C00000000000A869002098690020B46900209A
:1007D000C4690020B0690020505B002070B505009E
:1007E0000E001400002D09D172B6502080F311883C
:1007F000BFF34F8FBFF36F8F62B6FEE7DFF8EC03F6
:10080000006810F11801280000F091FB002C02D0C4
:100810005FF0FF3006002100300000F0B1F970BD3C
:1008200038B50500E868C468002C09D172B65020BC
:1008300080F31188BFF34F8FBFF36F8F62B6FEE76F
:1008400014F1180000F09AFB17480068002815D131
:10085000201D00F093FBDFF818030168E26A914263
:1008600001D2E16A0160211DDFF80C23E36A142044
:10087000434302EB030000F05AFB05E014F11801BA
:10088000DFF8CC0200F053FBDFF8E8020068C06A32
:10089000E16A884205D201200121DFF8D0221160EF
:1008A00000E0002032BD0000D0690020AC690020CB
:1008B00004ED00E0DFF8B01209680160DFF83013E2
:1008C00009684160704700009C690020A069002011
:1008D0002DE9F04104000D00002C09D172B6502022
:1008E00080F31188BFF34F8FBFF36F8F62B6FEE7BF
:1008F000002D09D172B6502080F31188BFF34F8FBD
:10090000BFF36F8F62B6FEE700F0C9FBDFF8E002CD
:1009100006686768F71B286810F1010F02D15FF0C5
:1009200000081BE0DFF8400200682168884205D01B
:100930006068864202D35FF001080FE028688742B2
:1009400008D22868C01B28602000FFF7B3FF5FF0C3
:10095000000803E0002028605FF0010800F0BDFB04
:100960004046BDE8F0810120DFF8001208607047C2
:1009700010B5040000F039F8DFF8FC010068022827
:10098000F8D35FF0805028490860BFF34F8FBFF362
:100990006F8FEFE770B50024382C09D2DFF8D8014B
:1009A000142101FB04F1084400F0AFFA641CF3E7E2
:1009B000DFF84052280000F0A8FADFF83C6230006F
:1009C00000F0A3FADFF8880100F09FFADFF82C02AC
:1009D00000F09BFADFF8280200F097FADFF8240213
:1009E0000560DFF82402066070BD38B5DFF81C52E0
:1009F0002868002817D000F052FBDFF80002C0681A
:100A0000C0680400201D00F0B9FADFF80402016894
:100A1000491E01602868401E286000F05EFB20002F
:100A200000F004F8E2E731BD04ED00E010B5040089
:100A300094F85900002806D1206B00F085F92000B9
:100A400000F082F915E094F85900012803D1200044
:100A500000F07AF90DE094F85900022809D072B636
:100A6000502080F31188BFF34F8FBFF36F8F62B6B2
:100A7000FEE710BDDFF88C2110680068002804D163
:100A80005FF0FF30354A106006E01068C068C0684B
:100A900001004868314A10607047DFF8780100684B
:100AA000002801D1012007E0DFF8D000006800280D
:100AB00001D1022000E00020704770B5040025003D
:100AC0000026002C42D0DFF8AC000068854209D037
:100AD00072B6502080F31188BFF34F8FBFF36F8F32
:100AE00062B6FEE7286D002809D172B6502080F367
:100AF0001188BFF34F8FBFF36F8F62B6FEE7286D8B
:100B0000401E2865E86AE96C88421FD0286D0028DD
:100B10001CD1281D00F032FAE86CE862E86AD0F1D6
:100B20003800A861DFF848000168EA6A914201D202
:100B3000E96A0160291DDFF84020EB6A1420434375
:100B400002EB030000F0F3F901200600300070BD55
:100B500000690020CC690020944B2000C869002067
:100B6000B8690020BC690020C0690020BC69002071
:100B7000B069002098690020505B0020D0690020F7
:100B80002DE9F04105000C0019480768DFF85C808A
:100B9000D8F80000001D00F0F1F915F1010F08D19F
:100BA000002C06D0D8F80000011D154800F0BFF950
:100BB0001AE0E8190600D8F800004660BE4207D2E5
:100BC000D8F80000011D1048006800F0BCF90BE0E7
:100BD000D8F80000011D0B48006800F0B4F90E4879
:100BE00001688E4200D20660BDE8F081986900205D
:100BF000AC690020D8680020EC680020146900204F
:100C0000286900209C690020A0690020A4690020B8
:100C1000A8690020B4690020C86900202DE9F84FB8
:100C200004005FF00008FFF770FCDFF85C92D9F871
:100C30000000002801D100F0C5F8DFF850A2DAF872
:100C4000000004426DD1002C17D0914800680419AF
:100C500014F0070F11D014F1080014F00704041B5E
:100C600014F0070F09D072B6502080F31188BFF33B
:100C70004F8FBFF36F8F62B6FEE7002C51D0DFF8C5
:100C800014B2DBF80000A0424BD383480600006892
:100C900005006868A04205D22868002802D02E000E
:100CA0002D68F6E7D9F8000085423AD078483168D7
:100CB000026811448846296831600068400069680C
:100CC000091B884217D205EB0400070017F0070044
:100CD000002809D072B6502080F31188BFF34F8FDF
:100CE000BFF36F8F62B6FEE76868001B78606C60C8
:100CF000380000F098F8DBF800106868091ACBF8A3
:100D000000106648DBF800100268914202D2DBF85E
:100D1000001001606968DAF8000001436960002092
:100D20002860FFF7F8FB18F00700002809D072B61A
:100D3000502080F31188BFF34F8FBFF36F8F62B6DF
:100D4000FEE74046BDE8F28F70B504002600002C97
:100D500037D04F4800684042064435004B49686828
:100D60000A68104209D172B6502080F31188BFF38F
:100D70004F8FBFF36F8F62B6FEE72868002809D057
:100D800072B6502080F31188BFF34F8FBFF36F8F7F
:100D900062B6FEE768680A68104212D02868002828
:100DA0000FD16A68086882436A60FFF7AEFB394971
:100DB0000A68686882180A60280000F034F8FFF7B3
:100DC000AAFB70BD70B44FF470523548010011F0A9
:100DD000070F04D0C91DC908C900521A82180B0098
:100DE0002D48036000244460D41829480068241A60
:100DF000E408E400244D2C6000202E687060002080
:100E00002E6830601800261A46602D680560456817
:100E1000224E356045681F4E35605FF000451B4E21
:100E2000356070BC704730B41B4A1168814201D2F2
:100E30001268FAE7140051682144814204D15368D2
:100E40004168CB18536010000300416819441568CD
:100E5000A94210D10C4914680D68AC4208D044680E
:100E6000116849680C19446011680968016004E060
:100E70000968016001E011680160824200D01060E1
:100E800030BC704700000000706900207C690020C1
:100E9000AC4B200074690020646900207869002050
:100EA0001000002062F30F2262F31F42401810F07E
:100EB000030308D0C91A1FD3DB0748BF00F8012D70
:100EC00028BF20F8022D130030B4144615461039FF
:100ED00028BF20E93C00FAD8490728BF20E90C00C8
:100EE00048BF40F8042D890028BF20F8022D48BFD4
:100EF00000F8012D30BC7047C91818BF00F8012D4B
:100F0000CB0728BF00F8012D704710F108014160A0
:100F10005FF0FF31816010F10801C16010F108013C
:100F20000161002101607047002101617047426842
:100F30004A6093688B6093685960916008610368A8
:100F40005B1C0360704710B40B6813F1010F01D1F3
:100F5000026907E010F1080254682468A34201D333
:100F60005268F9E754684C604C68A1608A6051602F
:100F700008610468641C046010BC704701000869C3
:100F80008A684B689A604A688B685A6042688A42ED
:100F900001D18A68426000220A610268521E026022
:100FA00000687047001F5FF080730360001F4B08EC
:100FB0005B000360001F0FF215030360143802602A
:100FC000001F7FF0020303602038704770480068FC
:100FD00010F1010F09D072B6502080F31188BFF3D1
:100FE0004F8FBFF36F8F62B6FEE772B6502080F36B
:100FF0001188BFF34F8FBFF36F8F62B6FEE7E0B586
:10100000644801780191FF21017001788DF800108A
:101010009DF8001011F050015F4A11705F490722DE
:101020000A609DF80020120608D50A68521E0A6060
:101030009DF8002052008DF80020F2E70A68D2F1F6
:101040000702042A09D072B6502181F31188BFF338
:101050004F8FBFF36F8F62B6FEE70A6812020A6015
:101060000A6812F4E0620A60019901704C48016854
:1010700051F470010160016851F07041016000F0AD
:1010800001FD00204249086000F062FD454801680A
:1010900051F04041016000F04BFD00200EBD72B6E2
:1010A000502080F31188BFF34F8FBFF36F8F62B66C
:1010B00037490A68521C0A60096801290CD13A496B
:1010C0000968090608D072B680F31188BFF34F8F04
:1010D000BFF36F8F62B6FEE770472D49086800289E
:1010E00009D172B6502080F31188BFF34F8FBFF340
:1010F0006F8F62B6FEE70868401E08600868002827
:1011000002D1002080F31188704780B572B650205C
:1011100080F31188BFF34F8FBFF36F8F62B6FFF775
:1011200073FA002803D05FF080501F490860002048
:1011300080F3118801BD0000EFF30580102813D360
:101140001A4A1268125C11000A00134B1B78D2B2C3
:101150009A4209D272B6502282F31188BFF34F8FA0
:10116000BFF36F8F62B6FEE70C4A1268104B1B6824
:1011700013F4E0639A4209D272B6502282F31188C6
:10118000BFF34F8FBFF36F8F62B6FEE7704700006B
:101190000000002000E400E0EE69002090690020DB
:1011A00020ED00E034EF00E004ED00E0B04B200063
:1011B0000CED00E07047EFF3058000280CD1EFF351
:1011C0001080002803D1EFF31180002807D0DFF84A
:1011D00070010068022802D17FF005000AE0DFF804
:1011E00060110868002803D101200860002001E098
:1011F0005FF0FF30704710B5EFF3058000280CD189
:10120000EFF31080002803D1EFF31180002807D0FE
:10121000DFF82C010068022802D17FF005000EE003
:10122000DFF81C412068012807D1FFF7C3FF022027
:101230002060FFF719F9002001E05FF0FF3010BDDA
:101240002DE9FF4707008846140000200390EFF3C4
:10125000058000286FD1EFF31080002803D1EFF351
:101260001180002804D0DFF8D8000068022862D07E
:10127000380000285FD0802082461820050000201A
:1012800081465FF0FF300600002C33D02068002834
:1012900001D020688146A069002801D0A06905001E
:1012A000002D04D0392D02D22079C00701D50020AD
:1012B00042E06069002802D0606980088246A06828
:1012C00000280BD0E0685C2808D32069002805D0EE
:1012D0006069002802D0012006000DE0A068002807
:1012E0000AD1E068002807D12069002804D1002035
:1012F000060001E000200600012E0CD1A06802903B
:101300002069019000954346524649463800FEF751
:101310005BFF03900FE0002E0DD103A80190009514
:101320004346524692B249463800FEF7A0FF0128D4
:1013300001D000200390039804B0BDE8F0870000BE
:101340006C6900202DE9F84305000E0014005FF0E1
:101350000008EFF30580002859D1EFF31080002832
:1013600003D1EFF31180002804D0DFF828020068D1
:1013700002284CD0002D4AD0002E48D05FF0FF301C
:101380000700002C1FD0A06800280DD0E06850286E
:101390000AD32069002807D0606906FB05F188425E
:1013A00002D30120070010E0A06800280DD1E068FA
:1013B00000280AD12069002807D16069002804D1DB
:1013C0000020070001E000200700012F09D10020C4
:1013D0000090A36822693100280000F013FC8046C9
:1013E00007E0002F05D100223100280000F075FC35
:1013F0008046B8F1000F0AD0002C02D02068814648
:1014000001E0002081464946404600F0DCFF4046AE
:10141000BDE8F2832DE9F84307000C0090461D005B
:101420003E005FF00009EFF3058000280BD1EFF3D9
:101430001080002803D1EFF31180002827D05548F1
:101440000068022823D1002E03D0002C01D0002DEB
:1014500003D07FF00300814632E00020009000239B
:101460006A462100300000F05EFD012803D07FF0C5
:101470000200814624E00098002821D05FF08050CF
:1014800045490860BFF34F8FBFF36F8F18E0002E00
:1014900001D0002C03D17FF00300814610E000232F
:1014A0002A002100300000F063FC012808D0002D44
:1014B00003D07FF00100814602E07FF00200814608
:1014C0004846BDE8F2832DE9F84307000C0090463A
:1014D0001D003E005FF00009EFF3058000280BD1EE
:1014E000EFF31080002803D1EFF31180002826D0FD
:1014F00028480068022822D1002E03D0002C01D0F9
:10150000002D03D07FF00300814630E000200090E2
:101510006A462100300000F03BFE012803D07FF036
:101520000200814623E00098002820D05FF0805020
:1015300019490860BFF34F8FBFF36F8F17E0002E7C
:1015400001D0002C03D17FF0030081460FE02A0078
:101550002100300000F05FFD012808D0002D03D0ED
:101560007FF00100814602E07FF00200814648469C
:10157000BDE8F283094B0360094B0B6080231360C5
:101580007047084B0360084B0B604FF48073136087
:10159000704700006C69002004ED00E0B066002098
:1015A000B06300200C670020B05F002038B586B023
:1015B000002400F029FADFF89C04006800281ED0FF
:1015C000002004900020039005AA03A904A8FFF7B7
:1015D000D8FFDFF884540498029003980190022009
:1015E00000900023059ADFF874140FF22910FEF71B
:1015F000EBFD28602868002801D001200400002CA1
:1016000009D172B6502080F31188BFF34F8FBFF31A
:101610006F8F62B6FEE7200007B030BD2DE9FF47AF
:1016200004000D0016001F00DDF830805FF0000997
:10163000002C09D172B6502080F31188BFF34F8F70
:10164000BFF36F8F62B6FEE7DFF808A4DAF8000098
:10165000002822D0009501960294062D15DAFFF796
:101660001CFA022808D1002342466946DAF8000035
:1016700000F07EFB814610E0002300226946DAF884
:10168000000000F075FB814607E000233A00694640
:10169000DAF8000000F047FC8146484604B0BDE897
:1016A000F087F8B505000E00DFF8B4030068C068E5
:1016B000C768381DFFF762FC97F8280040071ED561
:1016C0002B003200B9694919380000F092F800285F
:1016D0001BD00020009000232A0000213800FFF7D3
:1016E0009DFF0400002C09D172B6502080F31188B0
:1016F000BFF34F8FBFF36F8F62B6FEE705E097F839
:10170000280010F0FE0087F828003800396A884762
:10171000F1BD000038B50400684600F042F805004D
:101720000099280000F003F800F08CF8F4E77CB58D
:1017300005000C00FEF7E9FE684600F046F80600DA
:10174000009800282AD1002C08D1AE4206D3FEF71B
:10175000E2FE31002800FFF7A4FF21E0002C08D0B2
:10176000DFF8000300680068002801D1012400E0D0
:1017700000242200A91BDFF8DC02006800F038FE1C
:10178000FEF7C9FE00280BD15FF08050DFF8D812B9
:101790000860BFF34F8FBFF36F8F01E0FEF7BBFE12
:1017A00073BD0100DFF8B82210680068002801D17D
:1017B000012000E0002008600868002803D11068BC
:1017C000C068006800E00020704770B50400FEF7B4
:1017D00017FF0500DFF894623068854204D200F0FC
:1017E000CAF80120206001E0002020603560280058
:1017F00070BD2DE9F04104000D0016001F005FF0E0
:10180000000865602461AE420DD3F01BA1698842D7
:1018100002D30120804612E0211DDFF84802006853
:10182000FFF791FB0BE0BE4204D2BD4202D3012080
:10183000804604E0211D8A480068FFF784FB40468B
:10184000BDE8F081F8B586B0002201A981480068A2
:1018500000F0E1FB002800F08C800198002804D5FE
:1018600002AFB96878683A68904701980028EBD4CD
:10187000039805006869002802D0281DFFF77EFB49
:1018800005A8FFF7A2FF0600019800280ED0022845
:101890000CD00BD304283FD037D3062806D058D31A
:1018A000082832D002D3092836D061E095F8280004
:1018B00050F0010085F82800029B32000299A869C7
:1018C00041182800FFF795FF00281DD02800296A3D
:1018D000884795F82800400716D50020009000237F
:1018E000029AA869821800212800FFF797FE0400D9
:1018F000002C09D172B6502080F31188BFF34F8FAE
:10190000BFF36F8F62B6FEE79EE795F8280010F0F0
:10191000FE0085F8280097E795F8280050F00100B0
:1019200085F828000298A861A869002809D172B634
:10193000502080F31188BFF34F8FBFF36F8F62B6D3
:10194000FEE733003200A96989192800FFF751FF2B
:101950007AE795F82800800703D42800FFF7F4F908
:1019600005E095F8280010F0FE0085F828006BE7E8
:101970006AE707B0F0BD2DE9FC41DFF8E480D8F854
:1019800000000068002836D0D8F80000C068006861
:101990000500D8F80000C068C0680700381DFFF7D0
:1019A000EDFA3800396A884797F828004007E4D5EF
:1019B000B86940190600B54207D27E603F61391D03
:1019C000D8F80000FFF7BFFAD7E700200090002307
:1019D0002A0000213800FFF721FE0400002C09D165
:1019E00072B6502080F31188BFF34F8FBFF36F8F13
:1019F00062B6FEE7C1E7D8F800001A490A68C8F8DD
:101A000000200860BDE8F3817CB5FFF748FB114C6E
:101A1000206800281BD1164D2800FFF776FA154ED6
:101A20003000FFF772FA0E4805600E48066000208D
:101A30000090114B114A10210A2000F0E3F82060B9
:101A40002068002803D00E49206800F0BCFCFFF796
:101A500044FB73BDDC690020E06900209C4B200042
:101A6000D4690020D869002004ED00E0E46900207A
:101A70003C6900205069002068670020B0650020A4
:101A8000A44B20000848002101600021074A116092
:101A9000074909684FF47A72B1FBF2F1491E054A11
:101AA000116007210160704710E000E018E000E0DD
:101AB0000800002014E000E0EFF30980BFF36F8F0F
:101AC000274B1A681EF0100F08BF20ED108A20E97E
:101AD000F04F106009B44FF0500072B680F31188D7
:101AE000BFF34F8FBFF36F8F62B6FEF713FE4FF059
:101AF000000080F3118809BC19680868B0E8F04F4D
:101B00001EF0100F08BFB0EC108A80F30988BFF3F5
:101B10006F8F7047124B19680868B0E8F04F80F378
:101B20000988BFF36F8F4FF0000080F31188704772
:101B30000C480068006880F308884FF0000080F3CC
:101B4000148862B661B6BFF34F8FBFF36F8F00DFAB
:101B5000DFF81400016841F4700101607047000073
:101B60009869002008ED00E088ED00E070B50600FF
:101B70000C003500002D09D172B6502080F3118879
:101B8000BFF34F8FBFF36F8F62B6FEE7FFF787FAA1
:101B90002968EA6B286C424301EB0200A860002030
:101BA000A863286868602968EA6B521E286C424363
:101BB00001EB0200E8605FF0FF3085F8440085F833
:101BC0004500002C12D12869002817D015F110000B
:101BD000FEF726FE002811D05FF08050DFF8AC152C
:101BE0000860BFF34F8FBFF36F8F07E015F1100050
:101BF000FFF78BF915F12400FFF787F9FFF76DFA6E
:101C0000012070BD2DE9F84306000C0015001F00EF
:101C1000DDF82090002E09D172B6502080F3118893
:101C2000BFF34F8FBFF36F8F62B6FEE7002F09D16E
:101C300072B6502080F31188BFF34F8FBFF36F8FC0
:101C400062B6FEE7002D01D0002C01D0012000E09B
:101C50000020C0B2002809D172B6502080F311884C
:101C6000BFF34F8FBFF36F8F62B6FEE7002D01D138
:101C7000002C01D1012000E00020C0B2002809D1D1
:101C800072B6502080F31188BFF34F8FBFF36F8F70
:101C900062B6FEE7502000900098502809D072B636
:101CA000502080F31188BFF34F8FBFF36F8F62B660
:101CB000FEE70098B846B8F1000F0BD0012088F875
:101CC0004600CDF800804B46DBB22A0021003000F0
:101CD00000F033F84046BDE8F2832DE9F8430400F4
:101CE0000D001700002C09D172B6502080F3118826
:101CF000BFF34F8FBFF36F8F62B6FEE7002D02D1A7
:101D00005FF0000901E005FB04F919F15000FEF74E
:101D100085FF0600002E0DD0300050308046002098
:101D200086F8460000963B00DBB2424629002000C0
:101D300000F003F83000BDE8F2832DE9F041050022
:101D40000C0016001F00DDF81880002C02D1C8F826
:101D5000008001E0C8F80060C8F83C50C8F8404076
:101D600001214046FFF702FF88F84C70BDE8F08182
:101D70002DE9F74380460D00994600244646002E83
:101D800009D172B6502080F31188BFF34F8FBFF393
:101D90006F8F62B6FEE7002D02D1306C002801D1B2
:101DA000012000E00020C0B2002809D172B6502006
:101DB00080F31188BFF34F8FBFF36F8F62B6FEE7DA
:101DC000B9F1020F02D1F06B012801D1012000E02E
:101DD0000020C0B2002809D172B6502080F31188CB
:101DE000BFF34F8FBFF36F8F62B6FEE7FEF755FE6E
:101DF000002802D10298002801D1012000E0002033
:101E0000C0B2002809D172B6502080F31188BFF308
:101E10004F8FBFF36F8F62B6FEE7FFF740F9B06BED
:101E2000F16B884202D3B9F1020F27D14A4629004B
:101E3000300000F00BFA0700706A00280FD016F18E
:101E40002400FEF7EDFC002814D05FF08050DFF88E
:101E50003C130860BFF34F8FBFF36F8F0AE0002F72
:101E600008D05FF08050DFF824130860BFF34F8F75
:101E7000BFF36F8FFFF731F9012052E0029800287D
:101E800003D1FFF72AF900204BE0002C04D168466B
:101E9000FEF710FD01200400FFF71FF9FEF735FBE8
:101EA000FFF7FDF896F9440010F1010F02D1002070
:101EB00086F8440096F9450010F1010F02D1002088
:101EC00086F84500FFF709F902A96846FEF700FD0C
:101ED000002820D1300000F067FA002815D00299C0
:101EE00016F11000FEF751FC300000F018FAFEF772
:101EF00012FB002891D15FF08050DFF8901208604B
:101F0000BFF34F8FBFF36F8F87E7300000F007FA02
:101F1000FEF701FB81E7300000F001FAFEF7FBFA63
:101F20000020BDE8FE832DE9F04707000C001500F6
:101F300098463E00002E09D172B6502080F31188D9
:101F4000BFF34F8FBFF36F8F62B6FEE7002C02D155
:101F5000306C002801D1012000E00020C0B2002830
:101F600009D172B6502080F31188BFF34F8FBFF3B1
:101F70006F8F62B6FEE7B8F1020F02D1F06B012855
:101F800001D1012000E00020C0B2002809D172B6C2
:101F9000502080F31188BFF34F8FBFF36F8F62B66D
:101FA000FEE7FFF7C9F8EFF3118972B6502080F30E
:101FB0001188BFF34F8FBFF36F8F62B6B06BF16BB9
:101FC000884202D3B8F1020F20D196F945A04246CB
:101FD0002100300000F03AF950465FF0FF3140B286
:101FE00088420DD1706A00280ED016F12400FEF749
:101FF00017FC002808D0002D06D00120286003E03F
:102000001AF1010086F84500012000E0002089F364
:102010001188BDE8F0872DE9F64182B080460E00B8
:1020200000244746002F09D172B6502080F3118852
:10203000BFF34F8FBFF36F8F62B6FEE7002E02D162
:10204000386C002801D1012000E00020C0B2002837
:1020500009D172B6502080F31188BFF34F8FBFF3C0
:102060006F8F62B6FEE7FEF718FD002802D10398D5
:10207000002801D1012000E00020C0B2002809D1D1
:1020800072B6502080F31188BFF34F8FBFF36F8F6C
:1020900062B6FEE7FFF703F8BD6B002D1BD03100E1
:1020A000380000F021F9681EB863386900280ED0A6
:1020B00017F11000FEF7B4FB002808D05FF0805045
:1020C000DFF8C8100860BFF34F8FBFF36F8FFFF7C3
:1020D00004F8012057E00398002803D1FEF7FDFF24
:1020E000002050E0002C04D16846FEF7E3FB0120FD
:1020F0000400FEF7F2FFFEF708FAFEF7D0FF97F9AB
:10210000440010F1010F02D1002087F8440097F934
:10211000450010F1010F02D1002087F84500FEF7BD
:10212000DCFF03A96846FEF7D3FB002820D1380066
:1021300000F02CF9002815D0039917F12400FEF7C0
:1021400024FB380000F0EBF8FEF7E5F90028A1D1F8
:102150005FF08050DFF834100860BFF34F8FBFF39B
:102160006F8F97E7380000F0DAF8FEF7D4F991E7BF
:10217000380000F0D4F8FEF7CEF9380000F006F988
:10218000002887D0002004B0BDE8F08104ED00E015
:102190002DE9F04780460C0015004646002E09D177
:1021A00072B6502080F31188BFF34F8FBFF36F8F4B
:1021B00062B6FEE7002C02D1306C002801D101206C
:1021C00000E00020C0B2002809D172B6502080F390
:1021D0001188BFF34F8FBFF36F8F62B6FEE7FEF734
:1021E000ABFFEFF3118972B6502080F31188BFF373
:1021F0004F8FBFF36F8F62B6B76B002F21D096F968
:1022000044A02100300000F06FF8781EB063504603
:102210005FF0FF3140B288420DD1306900280ED006
:1022200016F11000FEF7FCFA002808D0002D06D0A9
:102230000120286003E01AF1010086F84400012023
:1022400000E0002089F31188BDE8F0872DE9F84F00
:1022500006000F0014005FF00008B56B306C00281A
:1022600009D1306800283AD1B068FEF726FC8046D4
:102270000020B06033E0002C14D1D6F84090BA466C
:10228000D6F804B04A465146584600F0D7F8706870
:10229000316C084470607068B16888421FD3306840
:1022A00070601CE0D6F84090BA46D6F80CB04A46AA
:1022B0005146584600F0C2F8F068316C4942084473
:1022C000F060F0683168884204D2B068316C4942ED
:1022D0000844F060022C02D1002D00D06D1E681C55
:1022E000B0634046BDE8F28F2DE9F04104000D00D7
:1022F000206C002811D0E068216C0844E060E068A0
:10230000A168884201D32068E060266CE768A8468F
:1023100032003900404600F091F8BDE8F081F8B590
:102320000400FEF7BCFE94F94550280040B2012895
:102330000CDB606A002809D014F12400FEF770FA63
:10234000002801D0FEF70FFB6D1EEEE75FF0FF36B1
:1023500084F84560FEF7C1FEFEF7A1FE94F94470D3
:10236000380040B201280CDB2069002809D014F1A4
:102370001000FEF755FA002801D0FEF7F4FA7F1E90
:10238000EEE784F84460FEF7A8FEF1BD38B504001E
:10239000FEF785FEA06B002801D1012500E0002595
:1023A000FEF79BFE280032BD38B50400FEF777FE2D
:1023B000A06BE16B884201D1012500E00025FEF70A
:1023C0008CFE280032BD10B40023082B0CD2074C21
:1023D00054F83320002A05D144F8331004EBC3022B
:1023E000506001E05B1CF0E710BC7047986800206B
:1023F000F8B504000D0016002700FEF750FE97F90F
:10240000440010F1010F02D1002087F8440097F931
:10241000450010F1010F02D1002087F84500FEF7BA
:102420005CFEB86B002805D13200290017F12400AA
:10243000FEF7D4F93800FFF772FFF1BD62B38B07E6
:1024400008D0521E11F8013B00F8013B00F0248037
:102450008B07F6D1830740F0208000BF103A07D3E6
:1024600030B4B1E83810103AA0E83810F9D230BCD6
:10247000530724BFB1E80810A0E8081044BF51F882
:10248000043B40F8043BD20724BF31F8022B20F86C
:10249000022B44BF0B7803707047121F17D35B00E9
:1024A00009D151F8043B20F8023B1B0C121F20F805
:1024B000023BF6D20BE051F8043B00F8013B1B0A4B
:1024C00020F8023B1B0C121F00F8013BF3D238BF6F
:1024D000121D521E24BF11F8013B00F8013BF8D831
:1024E00070470EE002684368024408305FEAC37C2C
:1024F00044BF4B445B1E52F804CB43F804CB091F86
:10250000F9D150F8041B0029ECD170472DE9F843AC
:1025100004000027002C01D101201CE22078C00714
:102520006DD5DFF87006016811F00C01042909D09F
:10253000006810F00C0008280ED1DFF85C06006877
:10254000400209D5DFF848060068800357D5606867
:10255000002854D10120FEE16068B0F5803F06D12B
:10256000DFF82C06016851F48031016026E06068D4
:1025700000280AD1DFF81806016831F480310160C3
:10258000016831F48021016018E06068B0F5A02F87
:102590000AD1DFF8FC05016851F48021016001686F
:1025A00051F48031016009E0DFF8E405016831F49D
:1025B00080310160016831F4802101606068002889
:1025C0000ED000F001FB0500DFF8C40500688003B1
:1025D00015D400F0F9FA401B6528F5D30320BAE1C1
:1025E00000F0F2FA0500DFF8A8050068800306D5C0
:1025F00000F0EAFA401B6528F5D30320ABE1207810
:1026000080075AD5DFF88C05016811F00C0F09D04E
:10261000006810F00C00082816D1DFF87C0500686F
:10262000400211D4DFF868050168890704D5E16824
:10263000012901D001208EE1016831F0F801226901
:1026400051EAC201016038E0E06800281FD0DFF8DD
:102650004085D8F8000050F00100C8F8000000F0F4
:10266000B3FA0500D8F80000800706D400F0ACFAF1
:10267000401B0328F6D303206DE1D8F8000030F0AA
:10268000F800216950EAC100C8F8000015E0DFF841
:102690000085D8F8000040084000C8F8000000F0AD
:1026A00093FA0500D8F80000800706D500F08CFAF0
:1026B000401B0328F6D303204DE1207800072ED5D8
:1026C0006069002815D0DFF8D484D8F8000050F0F5
:1026D0000100C8F8000000F077FA0500D8F8000003
:1026E00080071CD400F070FA401B0328F6D30320A7
:1026F00031E1DFF8A884D8F8000040084000C8F8AD
:10270000000000F061FA0500D8F80000800706D547
:1027100000F05AFA401B0328F6D303201BE120786F
:10272000400740F18D80DFF88484D8F80000C000B5
:102730000DD4D8F8000050F08050C8F80000D8F848
:10274000000010F080500090009801200700DFF892
:102750006094D9F80000C00513D4D9F8000050F4F3
:102760008070C9F8000000F02FFA0500D9F80000C9
:10277000C00506D400F028FA401B6528F6D30320D4
:10278000E9E0A068012806D1DFF82804016851F0CB
:102790000101016025E0A06800280AD1DFF81404D7
:1027A0000168490849000160016831F004010160D5
:1027B00017E0A06805280AD1DFF8F803016851F096
:1027C00004010160016851F00101016009E0DFF8D6
:1027D000E4030168490849000160016831F004011F
:1027E0000160A068002810D000F0EEF90500DFF8C5
:1027F000C4030068800719D400F0E6F9401B41F2D9
:1028000089318842F3D30320A5E000F0DDF905000B
:10281000DFF8A0030068800708D500F0D5F9401B59
:1028200041F289318842F3D3032094E03800C0B2EA
:10283000012805D1D8F8000030F08050C8F8000019
:10284000A069002800F08680DFF84803006810F0D7
:102850000C00082856D0A06902283DD1DFF830834B
:10286000D8F8000030F08070C8F8000000F0ACF933
:102870008146D8F80000800107D500F0A5F9B0EB3B
:1028800009000328F5D3032065E0E169206A0143CC
:10289000606A51EA8011A06A4008401E51EA004176
:1028A000E06A51EA006151F00051DFF8EC0201608A
:1028B000D8F8000050F08070C8F8000000F084F9EB
:1028C0000500D8F80000800144D400F07DF9401BD9
:1028D0000328F6D303203EE0DFF8B482D8F80000E6
:1028E00030F08070C8F8000000F06EF90500D8F8EC
:1028F000000080012ED500F067F9401B0328F6D3B5
:10290000032028E0DFF8900200680600A069012893
:102910001ED016F48000E169884219D116F03F00FC
:10292000216A884214D147F6C0703040616AB0EB2A
:10293000811F0DD116F44030A16A4908491EB0EB41
:10294000014F05D116F07060E16AB0EB016F01D064
:10295000012000E00020BDE8F2832DE9F0410400F1
:102960000D000026002C01D10120A0E0DFF8487204
:10297000386810F00F00A8420BD238680009000137
:1029800028433860386810F00F00A84201D00120B9
:102990008DE02078800719D52078400705D5DFF82D
:1029A000F401016851F4E05101602078000705D579
:1029B000DFF8E001016851F460410160DFF8D411F3
:1029C0000A6832F0F002A06802430A602078C0076B
:1029D00037D56068012806D1DFF8B40100688003AC
:1029E00011D4012063E06068022806D1DFF8A0015D
:1029F0000068800107D4012059E06548006880071D
:102A000001D4012053E0DFF88C81D8F80010890848
:102A1000890060680143C8F8001000F0D5F806008E
:102A2000D8F8000010F00C006168B0EB810F08D0FE
:102A300000F0CAF8801B41F289318842F0D30320AC
:102A400035E0386810F00F0085420BD23868000975
:102A5000000128433860386810F00F00A84201D008
:102A6000012024E02078400706D54A490A6832F45C
:102A7000E052E06802430A602078000707D5454825
:102A8000016831F46041226951EAC201016000F03D
:102A900010F84A493F4A1268C2F30312895CC840E1
:102AA000404908604048006800F094F80020BDE804
:102AB000F0812DE9F041002400250026002735484B
:102AC000006810F00C00002804D0042804D0082866
:102AD00004D031E0324830E039482EE0DFF8B880E9
:102AE000D8F8000010F03F000400D8F800004002C1
:102AF0000CD5D8F80000C0F388103149A1FB0001C3
:102B00002200002300F0EEF805000BE0D8F80000EA
:102B1000C0F388102249A1FB00012200002300F02D
:102B2000E1F80500D8F80000C0F30140401C400067
:102B30000600B5FBF6F000E01948BDE8F081194841
:102B40000068704780B5FFF7FAFF1E49114A126806
:102B5000C2F38222895CC84002BD0F2202600D4A86
:102B6000136813F003034360136813F0F0038360EA
:102B7000136813F4E053C3601268D20812F4E052F1
:102B800002610D4A126812F00F020A6070470000DD
:102B900000380240083802400438024074380240CD
:102BA0000024F40008000020040000204038024007
:102BB0000070004070380240003C02402C4B200066
:102BC00000127A008C4B200001480068704700BF5B
:102BD000946900202DE9F84787B0050000270026FA
:102BE0002A48016851F004010160006810F00400F7
:102BF0000090009801A902A8FFF7AFFF059C002CE8
:102C000003D1FFF79FFF070003E0FFF79BFF0700DB
:102C10007F001F48B7FBF0F8B8F10108DFF87490A7
:102C20001D48C9F8000040F2E730C9F80C00C9F8A7
:102C300004800020C9F810000020C9F80800002016
:102C4000C9F81800484600F065F982465046C0B2FF
:102C5000002816D1484600F09AF982465046C0B284
:102C600000280ED11E2000F062FC102D07D2002299
:102C700029001E2000F046FC0848056001E0012004
:102C800082465046C0B208B0BDE8F08740380240E6
:102C900040420F00046800200008004004000020AB
:102CA00013F0004C03D55B42524263F100039CEAEF
:102CB000210C00F0178010B5644603D3494240420E
:102CC00061F1000100F00EF8640004D34942404273
:102CD00061F10001244203D55B42524263F10003DB
:102CE00010BD0000BBBBE1B1B2F5803F80F07E803B
:102CF000022A1ED98C46B1FBF2F102FB11C31B0460
:102D000043EA1043B3FBF2FC02FB1C3380B240EAFF
:102D10000343B3FBF2F002FB103240EA0C40002305
:102D20007047022A05D98446B0FBF2F002FB10C2BC
:102D300070474AB105D100F0010249085FEA30004E
:102D4000704700220023704700F002BC0B00020015
:102D5000002100207047904271EB030CF6D3B3F5CD
:102D6000803F2FD2F0B5B3FA83F7B1FA81F4A7F11F
:102D70000F0E3D1B5340CEF1200602FA0EF2F34136
:102D80005340B5F10F0746D80F3C2C444140C4F1E5
:102D90002006A040F1414140B1FBF3F603FB1611C0
:102DA000A2FB0645001BA94102D2761E801859419C
:102DB00080EA010221FA0EF362FA0EF200215A4073
:102DC0003046F0BD30B4B1FBF3FC03FB1C11A2FB99
:102DD0000C45001BA94103D2ACF1010C80185941EC
:102DE00030BC02460B46604600217047B2F1807F3E
:102DF00065D3F0B5B2FA82F7B1FA81F4C7F10F06E4
:102E00003D1B22FA06F307F1110EF24120355A401C
:102E1000B5F10F07B8D94140C4F12006A040F141F7
:102E20004140B1FBF3FC03FB1C11A2FB0C45001B52
:102E3000A94103D2BCF1010C801859410F2F12D3C4
:102E40000F3FC90341EA5041B1FBF3F603FB1611F2
:102E5000A2FB0645D4EBC030A94102D2761E8018F1
:102E6000594146EACC3C07B34140C7F12006B8407F
:102E7000F1414140B1FBF3F603FB1611A2FB0645FD
:102E8000001BA94102D2761E8018594180EA010236
:102E900021FA0EF3C7F1200462FA0EF20CFA07F0E1
:102EA0005A402CFA04F13043F0BD80EA010221FAC5
:102EB0000EF3002162FA0EF260465A40F0BD8C46D5
:102EC000B1FBF2F102FB11C31B0243EA1063B3FB37
:102ED000F2FC02FB1C331B024CEA002043EA1063A5
:102EE000B3FBF2FC02FB1C331B024CEA002043EA5A
:102EF0001063B3FBF2FC02FB1C331B024CEA002004
:102F000043EA1063B3FBF2FC02FB1C324CEA0020E4
:102F10000023704710B50400002C01D1012035E0DA
:102F200094F83D00002805D1002084F83C002000E2
:102F300000F07DFB022084F83D00211D206800F098
:102F4000CCF9012084F84800012084F83E000120DB
:102F500084F83F00012084F84000012084F84100FB
:102F6000012084F84200012084F84300012084F805
:102F70004400012084F84500012084F84600012027
:102F800084F84700012084F83D00002010BD0100B6
:102F900091F83D00012801D0012048E0022081F88D
:102FA0003D000868C06850F001000B68D8600868F0
:102FB000DFF87C30984221D00868B0F1804F1DD0F6
:102FC0000868DFF87030984218D00868DFF8683079
:102FD000984213D00868DFF8643098420ED0086831
:102FE000DFF85C30984209D00868DFF85830984222
:102FF00004D00868DFF85030984211D1086883681F
:10300000DFF8480003401A00062A0FD0B2F5803FCF
:103010000CD00868006850F001000B68186005E0EB
:103020000868006850F001000B68186000207047C5
:10303000000001400004004000080040000C004077
:10304000000401400040014000180040070001005A
:1030500010B504002068006980071AD52068C06890
:10306000800716D57FF002002168086101202077D3
:103070002068806910F0030F03D0200000F0F8FAF8
:1030800005E0200000F0F5FA200000F0F3FA00203F
:1030900020772068006940071AD52068C06840077B
:1030A00016D57FF00400216808610220207720688F
:1030B000806910F4407F03D0200000F0D9FA05E0C9
:1030C000200000F0D6FA200000F0D4FA002020778B
:1030D0002068006900071AD52068C068000716D567
:1030E0007FF0080021680861042020772068C0690B
:1030F00010F0030F03D0200000F0BAFA05E0200022
:1031000000F0B7FA200000F0B5FA00202077206820
:103110000069C0061AD52068C068C00616D57FF0C1
:10312000100021680861082020772068C06910F429
:10313000407F03D0200000F09BFA05E0200000F063
:1031400098FA200000F096FA0020207720680069A5
:10315000C0070AD52068C068C00706D57FF0010007
:1031600021680861200000F09FFB206800690006CC
:103170000AD52068C068000606D57FF08000216867
:103180000861200000F0B0FB20680069C0050AD586
:103190002068C068000606D57FF480702168086149
:1031A000200000F0A2FB2068006940060AD52068D4
:1031B000C068400606D57FF0400021680861200005
:1031C00000F094FB2068006980060AD52068C0687A
:1031D000800606D57FF0200021680861200000F0FD
:1031E00086FB10BDF8B504000D00002694F83C00E5
:1031F000012801D102206FE0012084F83C00022068
:1032000084F83D0020688768DFF89401074037F4B0
:103210007F4720688760286800284ED010284CD04F
:1032200020284AD0302848D040283CD0502826D0EA
:1032300060282ED0702807D0B0F5805F03D0B0F59D
:10324000005F0FD03EE03FE0EB686A68A968206845
:1032500000F0EBF82068806850F0770007002068E5
:10326000876031E0EB686A68A968206800F0DDF8E3
:103270002068806850F480402168886024E0EA6813
:103280006968206800F0A4F85021206800F0C5F8B3
:103290001AE0EA686968206800F0ACF860212068EC
:1032A00000F0BBF810E0EA686968206800F090F868
:1032B0004021206800F0B1F806E02968206800F09D
:1032C000ACF801E001200600012084F83D00002058
:1032D00084F83C003000C0B2F2BD10B40468DFF8DE
:1032E000C430984212D0B0F1804F0FD0DFF8B82030
:1032F00090420BD0DFF8B420904207D0DFF8B02026
:10330000904203D0DFF8AC20904203D134F0700437
:103310004A68144398422AD0B0F1804F27D0DFF892
:103320008820904223D0DFF8842090421FD0DFF81D
:10333000802090421BD0DFF87C20904217D0DFF82D
:103340007820904213D0DFF8742090420FD0DFF83D
:10335000702090420BD0DFF86C20904207D0DFF84D
:103360006820904203D0DFF86420904203D134F407
:103370004074CA68144334F080044A6914430460FA
:103380008A68C2620A688262984203D0DFF8242009
:10339000904201D10A6902630122426110BC704768
:1033A00088FFFEFF000001400004004000080040CC
:1033B000000C004000040140004001400044014076
:1033C0000048014000180040001C00400020004060
:1033D00010B4046A036A5B085B000362836933F01C
:1033E000F00353EA021334F00A040C4383610462CD
:1033F00010BC704710B4036A33F010030362836992
:10340000046A33F4704353EA023334F0A00454EAFC
:1034100001148361046210BC7047826832F070024C
:103420000A4352F007028260704710B4846834F493
:103430007F440C43144354EA0324846010BC704757
:1034400010B410F00703DFF8F44022684FF6FF01D4
:103450000A4052EA0322DFF8E8100A43226010BC57
:103460007047DFF8D8000068C0F302207047010001
:1034700049B2002909D4012210F01F018A403149C4
:1034800003005BB25B0941F82320704710B40200CF
:1034900052B2002A05D40A012B4B040064B21A551B
:1034A00008E00A01294B040064B214F00F0423441D
:1034B00003F8042C10BC704770B4030013F0070429
:1034C000D4F10700052801D3042001E0D4F107005E
:1034D000251D072D01D2002500E0E51E012616FA64
:1034E00000F0401E0140A94016FA05F56D1E2A4065
:1034F0001143080070BC704710B504002000FFF7AE
:103500009FFF10BD2DE9F04104000D0016000027BB
:10351000FFF7A7FF8046320029004046FFF7CCFFA7
:103520000100200040B2FFF7B1FFBDE8F08110B507
:103530000400200040B2FFF79AFF10BD0CED00E040
:103540000000FA0500E100E000E400E018ED00E012
:103550007047FEE780B53E48016851F08051016038
:10356000006810F08050009000983A48016851F4CB
:1035700080410160006810F48040009000980022B3
:103580000F217FF00100FFF7BDFF01BD38B586B008
:1035900004001421002201AD2800FDF783FC2068FF
:1035A0002D49884241D12B48016851F48061016066
:1035B000006810F48060009000982848016851F07D
:1035C00020010160006810F0200000900098402069
:1035D0000190032002900020039001A9204800F0F0
:1035E00087F9204D204828605FF0806068600020E7
:1035F000A8600020E8604FF4806028614FF400600C
:1036000068614FF40050A8614FF48070E8615FF486
:103610004030286200206862280000F099FA0028F3
:1036200001D000F05FF9A563AC6307B030BD81B095
:1036300001680E4A914209D106490A6852F0010216
:103640000A60096811F001010091009901B070470A
:1036500040380240443802400022014030380240E5
:103660000014024050660020106402400000014037
:10367000704770477047FEE780B500F0AFFC00F080
:1036800016F800F0F5F800F0DFF800F061F800F04F
:103690009AF88A48FFF77BFC4FF47A628849894898
:1036A00000F0E4FC00F086FF00F0BAFFFEE710B582
:1036B00092B03021002206AC2000FDF7F3FB14216C
:1036C000002201AC2000FDF7EDFB7F48016851F0BE
:1036D00080510160006810F08050009000987B4895
:1036E000016851F440410160006810F440400090CE
:1036F0000098022006900120099010200A900220D4
:103700000C9000200D9008200E90AA200F9002200F
:1037100010900220119006A8FEF7F8FE002801D0B4
:1037200000F0E0F80F2001900220029000200390AA
:103730004FF4A05004904FF480500590052101A84B
:10374000FFF70BF9002801D000F0CCF812B010BD43
:103750001FB5102100226C462000FDF7A3FB594C39
:103760005B4820605FF4803060600020A060002033
:1037700020610020A061002084F820005FF040500C
:10378000E0625FF01060A0620020E0600120E06174
:10379000012084F8300001206061200000F034FC3A
:1037A000002801D000F09EF8032000900120019035
:1037B000002002906946200000F007FD002801D09B
:1037C00000F090F81FBD18B587B01021002203AC9F
:1037D0002000FDF767FB0C2100226C462000FDF75E
:1037E00061FB364C3B482060002060600020A060F8
:1037F00040F25310E0600020206100206061002052
:10380000A0612000FFF786FB002801D000F06AF8D5
:103810004FF48050039003A92000FFF7E3FC002839
:1038200001D000F05FF8202000905FF400100190BC
:10383000002002906946200000F0F6FE002801D02A
:1038400000F050F808B010BD80B52348016851F46D
:1038500080010160006810F4800000900098002250
:1038600005213820FFF74EFE3820FFF760FE01BD2E
:1038700010B586B01421002201AC2000FDF712FB28
:103880001548016851F001010160006810F0010065
:1038900000900098082001900320029001A90F4891
:1038A00000F026F806B010BD10B5040020680C49E1
:1038B000884201D100F01AFF10BD0000B867002057
:1038C000103C00205068002040380240007000404A
:1038D0000022014000000140303802400000024058
:1038E0000008004072B6FEE77047704770477047A7
:1038F000F8B500220023002400250026102E80F0B9
:103900000581012717FA06F213000A681A4014000D
:103910009C4240F0F9800A7912F00302012A04D097
:103920000A7912F00302022A1BD1D0F808C05FF016
:10393000030E72001EFA02FE3CEA0E0CD1F80CE0F7
:1039400072001EFA02FE5EEA0C0CC0F808C0426863
:10395000B740BA434F68C7F30017B7403A43150062
:1039600045600A7912F00302032A10D0C7685FF09D
:10397000030C72001CFA02FC37EA0C07D1F808C0ED
:1039800072001CFA02FC5CEA07073D00C5600A7978
:1039900012F00302022A1AD13200D20800EB82028E
:1039A000126A0F275FEA860C1CF01C0C17FA0CF742
:1039B000BA430F695FEA860C1CF01C0C17FA0CF76F
:1039C0003A4315003200D20800EB82021562076804
:1039D0005FF0030C72001CFA02FC37EA0C0791F846
:1039E00004C01CF0030C72001CFA02FC5CEA07071E
:1039F0003D0005604A6812F4403F00F08580DFF822
:103A00001021176857F480471760126812F480423B
:103A10000092009ADFF8FC703200920857F82220DA
:103A20005FF00F0C5FEA860E1EF00C0E1CFA0EFC07
:103A300032EA0C02DFF8E0C0604501D100252FE03A
:103A4000DFF8D850A84201D1012529E0DFF8D05095
:103A5000A84201D1022523E0324DA84201D103251D
:103A60001EE0314DA84201D1042519E02F4DA84296
:103A700001D1052514E02E4DA84201D106250FE005
:103A80002C4DA84201D107250AE02B4DA84201D1B7
:103A9000082505E0294DA84201D1092500E00A25A5
:103AA000EDB25FEA860C1CF00C0C15FA0CF52A43FB
:103AB0003500AD0847F82520214F3D68A543D1F8D2
:103AC00004C05FEACC2C00D525433D601D4F3A6809
:103AD000A243D1F804C05FEA8C2C00D522433A609F
:103AE000194D2F68A743D1F804C05FEA8C3C00D57C
:103AF00027432F60154A1568A543D1F804C05FEA33
:103B0000CC3C00D525431560761CF7E6F1BD0000DE
:103B100044380240083801400000024000040240DE
:103B200000080240000C0240001002400014024055
:103B300000180240001C0240002002400024024005
:103B4000083C01400C3C0140043C0140003C014069
:103B500070B504000026FFF737F80500002C01D1EE
:103B6000012065E0606A0028022084F8350000200A
:103B700084F834002068006840084000216808602C
:103B800020680068C0070BD5FFF71EF8401B062809
:103B9000F6D320206065032084F83500032047E039
:103BA00020680168DFF88C03014060680143A06869
:103BB0000143E06801432069014360690143A06952
:103BC0000143E0690143206A0143606A042803D18C
:103BD000E06A0143206B0143206801602068466968
:103BE000F608F600606A0643606A042810D1A06AED
:103BF0000643E06A00280BD0200000F0A1F900285D
:103C000006D040206065012084F8350001200FE0D7
:103C100020684661200000F073F901003F22E06D4A
:103C200082408A6000206065012084F83500002011
:103C300070BD2DE9F84304000D0016001F005FF071
:103C40000008D4F8589094F83400012801D10220DB
:103C500039E0012084F8340094F8350001282BD194
:103C6000022084F83500002060653B003200290006
:103C7000200000F02EF93F21E06D8140C9F80810C6
:103C80002068006850F016002168086020684069CC
:103C900050F0800021684861206C002805D0206821
:103CA000006850F00800216808602068006850F043
:103CB00001002168086004E0002084F8340002203C
:103CC00080464046C0B2BDE8F283F8B5040000204B
:103CD0000090DFF8640200684FF41651B0FBF1F574
:103CE000A66D37680821E06D11FA00F0074210D088
:103CF0002068006840070CD52068006830F0040098
:103D000022681060E06D8140B160606D50F001008C
:103D10006065E06D3900C140C8070BD52068406977
:103D2000000607D50121E06D8140B160606D50F063
:103D3000020060650421E06D11FA00F007420AD02C
:103D400020680068800706D5E06D8140B160606D35
:103D500050F0040060651021E06D11FA00F0074298
:103D60002CD020680068000728D5E06D8140B16044
:103D700020680068400311D520680068000306D45D
:103D8000206C00281AD02000216C884716E0A06C17
:103D9000002813D02000A16C88470FE0206800683D
:103DA000C00505D42068006830F00800216808606C
:103DB000206C002802D02000216C88472021E06D73
:103DC00011FA00F007425FD020680068C0065BD59A
:103DD000E06D8140B16094F83500052828D1206855
:103DE000006830F01600216808602068406930F0F3
:103DF000800021684861206C002802D1A06C002856
:103E000005D02068006830F00800216808603F2174
:103E1000E06D8140B160012084F83500002084F815
:103E20003400206D002802D02000216D88474FE02B
:103E300020680068400311D520680068000306D49C
:103E4000606C002820D02000616C88471CE0E06B8B
:103E5000002819D02000E16B884715E02068006831
:103E6000C0050BD42068006830F01000216808609D
:103E7000012084F83500002084F83400E06B00282D
:103E800002D02000E16B8847606D002820D0606D73
:103E9000C00717D5052084F8350020680068400861
:103EA0004000216808600098401C0090854203D3C0
:103EB00020680068C007F6D4012084F8350000208F
:103EC00084F83400E06C002802D02000E16C8847C0
:103ED000F1BD30B40468246834F4802405682C6093
:103EE000046863608468402C04D10468A26004689C
:103EF000E16003E00468A1600468E26030BC7047E0
:103F0000017801F0FF0110391822B1FBF2F10B4AE0
:103F1000525CC265042905D30268920A9202121DFE
:103F2000826503E00268920A92028265806D7047A2
:103F3000000000003F8010F008000020844B2000AB
:103F400010B402000020936A9169002916D1002B59
:103F500005D0022B03D008D3032B0DD00DE0D16A7E
:103F6000C90101D50121080035E0D16AB1F1C07F56
:103F700001D1012108002EE02DE02CE09169B1F57E
:103F8000005F18D1002B05D0022B03D005D3032BE3
:103F900009D00FE0012108001DE0D16AC90101D557
:103FA0000121080017E0D16AB1F1C07F01D10121E0
:103FB000080010E00FE019000029022902D9C91EEB
:103FC00003D008E00121080005E0D16AC90101D54C
:103FD00001210800FFE7C0B210BC704780B5094856
:103FE000016851F400710160016851F48071016051
:103FF0000320FFF781FA0F20FEF7ECFDFFF7AAFA86
:10400000002002BD003C024038B504000025002C11
:1040100001D1012029E0A06ADFF8D0148842206C89
:10402000002807D12000FFF7B1FA002060640020CB
:1040300084F83C00206CC00610D4206C30F488500A
:1040400050F002002064200000F0A3F9002060641A
:104050000120216C60F30101216401E001200500D1
:10406000002084F83C002800C0B232BD7CB50400BA
:104070000D0016000020009094F83C00012801D1AA
:104080000220A1E0012084F83C0020688068C0077D
:1040900016D42068806850F0010021688860DFF83D
:1040A00050040068DFF84C14B0FBF1F103204143E9
:1040B00000910098002803D00098401E0090F8E777
:1040C00020688068C00776D5216CDFF82C04014099
:1040D00051F48071216420684068400504D50120B6
:1040E000216C60F30D312164206CC00404D5606C38
:1040F00030F00600606401E000206064002084F875
:104100003C000FF20940A16BC8630FF27D40A16B28
:1041100008640FF28540A16BC8647FF0220021681B
:1041200008602068406850F080602168486020681E
:10413000806850F480702168886033002A0020680D
:1041400010F14C01A06BFFF774FDDFF8B0030168BC
:1041500011F01F0F0BD12068806810F0405F32D142
:104160002068806850F08040216888602BE02168DA
:10417000DFF88C2391420AD12168896811F0405FF1
:1041800005D12168896851F08041226891600068FA
:10419000C00618D42068DFF86C13884213D1206859
:1041A000806810F0405F0ED12068806850F0804039
:1041B0002168886007E0206C50F010002064606C7B
:1041C00050F001006064002076BD38B40200002089
:1041D000009092F83C00012801D10220D7E0012094
:1041E00082F83C0008680A2828D30868B0F1004F1C
:1041F00024D01068C368072408680A38032510FB18
:1042000005F08440A3431068C3600868BE4B984221
:1042100007D11068C0688B6850EA03601368D860E3
:1042200020E01068C3688C6808680A38032510FB12
:1042300005F0844023431068C36013E010680369ED
:1042400007240D6803204543AC40A3431068036175
:10425000106803698C680D6803204543AC40234314
:10426000106803614868072818D21068436B1F2440
:104270004868401E052510FB05F08440A3431068E4
:1042800043631068436B0C884868401E052510FB8B
:1042900005F0844023431068436333E048680D28E9
:1042A00018D21068036B1F244868C01F052510FB37
:1042B00005F08440A343106803631068036B0C8807
:1042C0004868C01F052510FB05F084402343106893
:1042D000036317E01068C36A1F2448680D3805257A
:1042E00010FB05F08440A3431068C3621068C36AE2
:1042F0000C8848680D38052510FB05F084402343E1
:104300001068C3627E481368834208D10B68B3F11A
:10431000004F04D1794B1C6834F440041C601368CE
:1043200083420BD10B68122B08D1744B1C6834F4F8
:1043300000041C601C6854F480041C6013688342F1
:1043400021D1714B0868984202D0086811281AD10F
:104350006A48046834F480040460046854F4000477
:104360000460086898420ED161480068614BB0FB58
:10437000F3F30A20434300930098002803D00098E9
:10438000401E0090F8E7002082F83C00002032BC7C
:1043900070475A4A116831F440311160136841681E
:1043A0000B4313600168496831F480710268516001
:1043B00001684968026951EA022102685160016896
:1043C000496831F040710268516001684A6881684B
:1043D0000A4301684A600168896831F40061026833
:1043E000916001688A68C1680A4301688A60816ACD
:1043F0003E4A914218D00168896831F070610268C4
:10440000916001688A68816A0A4301688A6001686C
:10441000896831F040510268916001688A68C16A18
:104420000A4301688A600BE00168896831F07061B5
:10443000026891600168896831F0405102689160BA
:104440000168896831F00201026891600168896839
:10445000826951EA42010268916090F820100029B7
:1044600014D00168496851F4006102685160016824
:10447000496831F460410268516001684968426AE4
:10448000521E51EA42310268516005E001684968F4
:1044900031F40061026851600168C96A31F4700149
:1044A0000268D1620168C96AC269521E51EA0251AA
:1044B0000268D1620168896831F400710268916014
:1044C0000168896890F8302051EA422102689160C1
:1044D0000168896831F480610268916001688968C7
:1044E000426951EA82210268916070470100000F21
:1044F0000800002040420F00FEF9FFFF04230140A6
:1045000000200140002201401200001038B50400D4
:10451000A56B286C10F0500F29D1286C50F4007056
:1045200028642868806810F0405F1CD1A8690028C2
:1045300019D12868C06A10F4700F03D02868806809
:10454000400510D42868406830F020002968486091
:10455000286C30F480702864286CC00403D4286C64
:1045600050F001002864280000F0D8F80AE0286C18
:10457000C00603D5280000F0E1F803E02000A96B95
:10458000C96C884731BD000038B50400A56B280010
:1045900000F0B8F831BD000038B50400A56B40202C
:1045A0002864686C50F004006864280000F0C6F8C5
:1045B00031BD000080B5FCF7FEFD0E4A022101204E
:1045C000FCF7C0FE0C4908600C4A00210C48FCF7BF
:1045D00037FE0C4908600C4A00210C48FCF730FEFD
:1045E0000B4908600B4A00210B48FCF729FE0B49D8
:1045F000086001BDF04A20008C690020D0492000ED
:104600005335200080690020F4492000E94820004B
:1046100084690020184A200077362000886900202D
:1046200080B5FCF7E8FD01BD70B4020092F83C00D3
:10463000012801D1022047E0012082F83C0002203D
:1046400082F83D001068436810688468204D106847
:10465000A84203D01068224EB04203D133F4700355
:104660004868034333F070030868034310684360ED
:104670001068A8421BD01068B0F1804F17D01068A6
:10468000144DA84213D01068134DA8420FD01068E3
:10469000124DA8420BD01068114DA84207D01068E7
:1046A000104DA84203D010680F4DA84205D134F038
:1046B00080048868044310688460012082F83D000B
:1046C000002082F83C00002070BC70470000000011
:1046D000000001400004004000080040000C0040C1
:1046E00000040140004001400018004003480168F8
:1046F000034A127889180160704700BF946900204E
:104700000C00002010B504000A4900200880002396
:10471000002209480068FCF77DFE10BD10B50400BA
:104720000449012008800023002203480068FCF7A8
:1047300071FE10BDEC6900208C69002070470000FC
:10474000F8B502001400200000B201287CDB200034
:1047500000B2B0FA80F0B0F11103D80702D424B24D
:104760009C4003E024B213F1FF00844025002DB2E9
:104770006D10260000EE104ABAEE600A8DED000AB8
:104780000098344FB7EB60070097DDED000AB0EEFC
:10479000601ABEEEC91A11EE100A84460FFA8CFC9C
:1047A00010FB00F0C01310FB05F0C01300B2D0F5F1
:1047B000405000FB0CFC5FEAEC3C5FEA8C00844656
:1047C0000FFA8CFC10FB00F0C01310FB05F0C013B7
:1047D00000B2D0F5405000FB0CFC5FEAEC3C5FEA15
:1047E0008C0084460FFA8CFC10FB00F0C01310FB09
:1047F00005F0C01300B2D0F5405000FB0CFC5FEA9E
:10480000EC3C5FEA8C0016FB00F0C0135FEA400C42
:10481000D8070AD40FFA8CFC180000B25FF0020E21
:1048200090FBFEF05CFA00FC0AE00FFA8CFC18002A
:1048300000B2401E5FF0020E90FBFEF05CFA00FC3E
:10484000A1F800C0002003E0002008805FF0FF30E6
:10485000F2BD00BFDF59375F2DE9F84F07008846EA
:10486000914600240025C4465FEA9C0CBCF1000F71
:1048700011D03E683A1D20002900C6FBC60113680E
:104880009B46171D02000B00CBFBCB2314001D0021
:10489000BCF1010CEAE718F00306002E0FD0B7F9BF
:1048A00000008246BF1C524612B253461BB2200083
:1048B0002900C3FBC20104000D00761EEDE7494646
:1048C00089462000290042460023FEF7E9F9C00B83
:1048D00040EA4140C91300F30F00494600B2FFF718
:1048E0002FFFBDE8F18F000070B50400104E5FF09F
:1048F000FF33002231000F480068FCF7E4FD05009B
:104900000D49308808800888002806D10B4A4FF4EA
:10491000FA610B48FFF7A0FFE8E708880128E5D116
:10492000064A4FF4FA610748FFF796FFDEE700BF3B
:10493000EC6900208C690020EA690020E869002009
:10494000103C0020B04B002030B4002512E050F89D
:10495000042BD30744BF4A44521E091F042942F8BE
:10496000045BFAD213468C0744BF15809B1CC90711
:1049700048BF1D7050F8041B0029E8D130BC7047B7
:10498000FEE7FEE7FEE7FEE7FEE7704780B5044876
:10499000FEF75EFB01BD80B50248FFF796F901BD49
:1049A000046800205066002010B50749794418318A
:1049B000064C7C44163404E00A68081D11448847FC
:1049C0000146A142F8D110BD98000000B8000000D7
:1049D0006C4B200000000000000000000000000000
:1049E00000000000000200001800000000000000AD
:1049F000000000001C4B2000000000000000000030
:104A0000000000000000000000020000360000006E
:104A10000000000000000000784B200000000000B3
:104A20000000000000000000000000000002000084
:104A30000800000000000000000000004EF6885151
:104A4000CEF20001086840F470000860BFF34F8F99
:104A5000BFF36F8F4FF00170E1EE100A7047000056
:104A6000E9FEFFFFE06900001000002000000000E8
:104A700073DAFFFF10000000E400000000000020D7
:104A80000000000000F00DF8002801D0FFF78CFFB7
:104A9000AFF300800020AFF3008000F004F800F0D6
:104AA00007F80120704780B5FEF7E6FD002002BD43
:104AB00000F000B80746384600F002F8FBE70000B7
:104AC00080B5AFF30080024A11001820ABBEFBE7AF
:104AD000260002000548014603B4684680F30988B1
:104AE000AFF30080FFF7AAFFFFF7CCFFA5EDF5FEBF
:104AF000084B200000000000000000000000000043
:104B0000000000000000000043616C63756C61747C
:104B1000696F6E4E6F7469667900000041435F43B0
:104B2000616C63756C6174696F6E54000000000005
:104B3000000000000102030406070809014880473D
:104B4000014800474D4B2000D54A2000024801682B
:104B500051F470010160704788ED00E0AAAAAAAA8A
:104B6000100000000024F40001000000686967687C
:104B70005072696F000000006D656469756D507258
:104B8000696F0000000610160006101600000000F5
:104B90000102030449444C4500000000546D72209A
:104BA00053766300546D725100000000080000004D
:104BB000F0E300E0FFF7FEBFFFF7FEBFFFF7FEBF29
:104BC000FFF7FEBFFFF7FEBFFFF7FEBFFFF7FEBF19
:104BD000FFF7FEBFFFF7FEBFFFF7FEBFFFF7FEBF09
:104BE000FFF7FEBFFFF7FEBFFFF7FEBFFFF7FEBFF9
:104BF000FFF7FEBFFFF7FEBFFFF7FEBFFFF7FEBFE9
:104C0000FFF7FEBFFFF7FEBFFFF7FEBFFFF7FEBFD8
:104C1000FFF7FEBFFFF7FEBFFFF7FEBFFFF7FEBFC8
:104C2000FFF7FEBFFFF7FEBFFFF7FEBFFFF7FEBFB8
:104C3000FFF7FEBFFFF7FEBFFFF7FEBFFFF7FEBFA8
:104C4000FFF7FEBFFFF7FEBFFFF7FEBFFFF7FEBF98
:104C5000FFF7FEBFFFF7FEBFFFF7FEBFFFF7FEBF88
:104C6000FFF7FEBFFFF7FEBFFFF7FEBFFFF7FEBF78
:104C7000FFF7FEBFFFF7FEBFFFF7FEBFFFF7FEBF68
:104C8000FFF7FEBFFFF7FEBFFFF7FEBFFFF7FEBF58
:104C9000FFF7FEBFFFF7FEBFFFF7FEBFFFF7FEBF48
:104CA000FFF7FEBFFFF7FEBFFFF7FEBFFFF7FEBF38
:104CB000FFF7FEBFFFF7FEBFFFF7FEBFFFF7FEBF28
:104CC000FFF7FEBFFFF7FEBFFFF7FEBFFFF7FEBF18
:104CD000FFF7FEBFFFF7FEBFFFF7FEBFFFF7FEBF08
:104CE000FFF7FEBFFFF7FEBFFFF7FEBFFFF7FEBFF8
:104CF000FFF7FEBFFFF7FEBFFFF7FEBFFFF7FEBFE8
:104D0000FFF7FEBFFFF7FEBFFFF7FEBFFFF7FEBFD7
:104D1000FFF7FEBFFFF7FEBFFFF7FEBFFFF7FEBFC7
:104D2000FFF7FEBFFFF7FEBFFFF7FEBFFFF7FEBFB7
:0400000500204AD5B8
:00000001FF
